{
  "contractName": "BasicNFT",
  "abi": [
    {
      "inputs": [],
      "stateMutability": "nonpayable",
      "type": "constructor"
    },
    {
      "anonymous": false,
      "inputs": [
        {
          "indexed": true,
          "internalType": "address",
          "name": "owner",
          "type": "address"
        },
        {
          "indexed": true,
          "internalType": "address",
          "name": "approved",
          "type": "address"
        },
        {
          "indexed": true,
          "internalType": "uint256",
          "name": "tokenId",
          "type": "uint256"
        }
      ],
      "name": "Approval",
      "type": "event"
    },
    {
      "anonymous": false,
      "inputs": [
        {
          "indexed": true,
          "internalType": "address",
          "name": "owner",
          "type": "address"
        },
        {
          "indexed": true,
          "internalType": "address",
          "name": "operator",
          "type": "address"
        },
        {
          "indexed": false,
          "internalType": "bool",
          "name": "approved",
          "type": "bool"
        }
      ],
      "name": "ApprovalForAll",
      "type": "event"
    },
    {
      "anonymous": false,
      "inputs": [
        {
          "indexed": true,
          "internalType": "address",
          "name": "from",
          "type": "address"
        },
        {
          "indexed": true,
          "internalType": "address",
          "name": "to",
          "type": "address"
        },
        {
          "indexed": true,
          "internalType": "uint256",
          "name": "tokenId",
          "type": "uint256"
        }
      ],
      "name": "Transfer",
      "type": "event"
    },
    {
      "inputs": [
        {
          "internalType": "address",
          "name": "to",
          "type": "address"
        },
        {
          "internalType": "uint256",
          "name": "tokenId",
          "type": "uint256"
        }
      ],
      "name": "approve",
      "outputs": [],
      "stateMutability": "nonpayable",
      "type": "function"
    },
    {
      "inputs": [
        {
          "internalType": "address",
          "name": "owner",
          "type": "address"
        }
      ],
      "name": "balanceOf",
      "outputs": [
        {
          "internalType": "uint256",
          "name": "",
          "type": "uint256"
        }
      ],
      "stateMutability": "view",
      "type": "function"
    },
    {
      "inputs": [
        {
          "internalType": "uint256",
          "name": "tokenId",
          "type": "uint256"
        }
      ],
      "name": "getApproved",
      "outputs": [
        {
          "internalType": "address",
          "name": "",
          "type": "address"
        }
      ],
      "stateMutability": "view",
      "type": "function"
    },
    {
      "inputs": [
        {
          "internalType": "address",
          "name": "owner",
          "type": "address"
        },
        {
          "internalType": "address",
          "name": "operator",
          "type": "address"
        }
      ],
      "name": "isApprovedForAll",
      "outputs": [
        {
          "internalType": "bool",
          "name": "",
          "type": "bool"
        }
      ],
      "stateMutability": "view",
      "type": "function"
    },
    {
      "inputs": [],
      "name": "name",
      "outputs": [
        {
          "internalType": "string",
          "name": "",
          "type": "string"
        }
      ],
      "stateMutability": "view",
      "type": "function"
    },
    {
      "inputs": [
        {
          "internalType": "uint256",
          "name": "tokenId",
          "type": "uint256"
        }
      ],
      "name": "ownerOf",
      "outputs": [
        {
          "internalType": "address",
          "name": "",
          "type": "address"
        }
      ],
      "stateMutability": "view",
      "type": "function"
    },
    {
      "inputs": [
        {
          "internalType": "address",
          "name": "from",
          "type": "address"
        },
        {
          "internalType": "address",
          "name": "to",
          "type": "address"
        },
        {
          "internalType": "uint256",
          "name": "tokenId",
          "type": "uint256"
        }
      ],
      "name": "safeTransferFrom",
      "outputs": [],
      "stateMutability": "nonpayable",
      "type": "function"
    },
    {
      "inputs": [
        {
          "internalType": "address",
          "name": "from",
          "type": "address"
        },
        {
          "internalType": "address",
          "name": "to",
          "type": "address"
        },
        {
          "internalType": "uint256",
          "name": "tokenId",
          "type": "uint256"
        },
        {
          "internalType": "bytes",
          "name": "_data",
          "type": "bytes"
        }
      ],
      "name": "safeTransferFrom",
      "outputs": [],
      "stateMutability": "nonpayable",
      "type": "function"
    },
    {
      "inputs": [
        {
          "internalType": "address",
          "name": "operator",
          "type": "address"
        },
        {
          "internalType": "bool",
          "name": "approved",
          "type": "bool"
        }
      ],
      "name": "setApprovalForAll",
      "outputs": [],
      "stateMutability": "nonpayable",
      "type": "function"
    },
    {
      "inputs": [],
      "name": "symbol",
      "outputs": [
        {
          "internalType": "string",
          "name": "",
          "type": "string"
        }
      ],
      "stateMutability": "view",
      "type": "function"
    },
    {
      "inputs": [
        {
          "internalType": "uint256",
          "name": "index",
          "type": "uint256"
        }
      ],
      "name": "tokenByIndex",
      "outputs": [
        {
          "internalType": "uint256",
          "name": "",
          "type": "uint256"
        }
      ],
      "stateMutability": "view",
      "type": "function"
    },
    {
      "inputs": [
        {
          "internalType": "address",
          "name": "owner",
          "type": "address"
        },
        {
          "internalType": "uint256",
          "name": "index",
          "type": "uint256"
        }
      ],
      "name": "tokenOfOwnerByIndex",
      "outputs": [
        {
          "internalType": "uint256",
          "name": "",
          "type": "uint256"
        }
      ],
      "stateMutability": "view",
      "type": "function"
    },
    {
      "inputs": [],
      "name": "totalSupply",
      "outputs": [
        {
          "internalType": "uint256",
          "name": "",
          "type": "uint256"
        }
      ],
      "stateMutability": "view",
      "type": "function"
    },
    {
      "inputs": [
        {
          "internalType": "address",
          "name": "from",
          "type": "address"
        },
        {
          "internalType": "address",
          "name": "to",
          "type": "address"
        },
        {
          "internalType": "uint256",
          "name": "tokenId",
          "type": "uint256"
        }
      ],
      "name": "transferFrom",
      "outputs": [],
      "stateMutability": "nonpayable",
      "type": "function"
    },
    {
      "inputs": [
        {
          "internalType": "address",
          "name": "to",
          "type": "address"
        },
        {
          "internalType": "string",
          "name": "uri",
          "type": "string"
        }
      ],
      "name": "safeMint",
      "outputs": [],
      "stateMutability": "nonpayable",
      "type": "function"
    },
    {
      "inputs": [
        {
          "internalType": "uint256",
          "name": "tokenId",
          "type": "uint256"
        }
      ],
      "name": "tokenURI",
      "outputs": [
        {
          "internalType": "string",
          "name": "",
          "type": "string"
        }
      ],
      "stateMutability": "view",
      "type": "function"
    },
    {
      "inputs": [
        {
          "internalType": "bytes4",
          "name": "interfaceId",
          "type": "bytes4"
        }
      ],
      "name": "supportsInterface",
      "outputs": [
        {
          "internalType": "bool",
          "name": "",
          "type": "bool"
        }
      ],
      "stateMutability": "view",
      "type": "function"
    }
  ],
  "bytecode": "0x60806040526064600c553480156200001657600080fd5b506040518060400160405280600781526020017f436f6f6c4e4654000000000000000000000000000000000000000000000000008152506040518060400160405280600481526020017f434e46540000000000000000000000000000000000000000000000000000000081525081600090805190602001906200009b929190620000bd565b508060019080519060200190620000b4929190620000bd565b505050620001d2565b828054620000cb906200016d565b90600052602060002090601f016020900481019282620000ef57600085556200013b565b82601f106200010a57805160ff19168380011785556200013b565b828001600101855582156200013b579182015b828111156200013a5782518255916020019190600101906200011d565b5b5090506200014a91906200014e565b5090565b5b80821115620001695760008160009055506001016200014f565b5090565b600060028204905060018216806200018657607f821691505b602082108114156200019d576200019c620001a3565b5b50919050565b7f4e487b7100000000000000000000000000000000000000000000000000000000600052602260045260246000fd5b6134ef80620001e26000396000f3fe608060405234801561001057600080fd5b506004361061010b5760003560e01c80634f6ccce7116100a2578063a22cb46511610071578063a22cb465146102de578063b88d4fde146102fa578063c87b56dd14610316578063d204c45e14610346578063e985e9c5146103625761010b565b80634f6ccce7146102305780636352211e1461026057806370a082311461029057806395d89b41146102c05761010b565b806318160ddd116100de57806318160ddd146101aa57806323b872dd146101c85780632f745c59146101e457806342842e0e146102145761010b565b806301ffc9a71461011057806306fdde0314610140578063081812fc1461015e578063095ea7b31461018e575b600080fd5b61012a6004803603810190610125919061240c565b610392565b604051610137919061287b565b60405180910390f35b6101486103a4565b6040516101559190612896565b60405180910390f35b6101786004803603810190610173919061245e565b610436565b6040516101859190612814565b60405180910390f35b6101a860048036038101906101a391906123d0565b6104bb565b005b6101b26105d3565b6040516101bf9190612b18565b60405180910390f35b6101e260048036038101906101dd9190612276565b6105e0565b005b6101fe60048036038101906101f991906123d0565b610640565b60405161020b9190612b18565b60405180910390f35b61022e60048036038101906102299190612276565b6106e5565b005b61024a6004803603810190610245919061245e565b610705565b6040516102579190612b18565b60405180910390f35b61027a6004803603810190610275919061245e565b61079c565b6040516102879190612814565b60405180910390f35b6102aa60048036038101906102a59190612211565b61084e565b6040516102b79190612b18565b60405180910390f35b6102c8610906565b6040516102d59190612896565b60405180910390f35b6102f860048036038101906102f39190612340565b610998565b005b610314600480360381019061030f91906122c5565b6109ae565b005b610330600480360381019061032b919061245e565b610a10565b60405161033d9190612896565b60405180910390f35b610360600480360381019061035b919061237c565b610a22565b005b61037c6004803603810190610377919061223a565b610a98565b604051610389919061287b565b60405180910390f35b600061039d82610b2c565b9050919050565b6060600080546103b390612d6e565b80601f01602080910402602001604051908101604052809291908181526020018280546103df90612d6e565b801561042c5780601f106104015761010080835404028352916020019161042c565b820191906000526020600020905b81548152906001019060200180831161040f57829003601f168201915b5050505050905090565b600061044182610ba6565b610480576040517f08c379a000000000000000000000000000000000000000000000000000000000815260040161047790612a78565b60405180910390fd5b6004600083815260200190815260200160002060009054906101000a900473ffffffffffffffffffffffffffffffffffffffff169050919050565b60006104c68261079c565b90508073ffffffffffffffffffffffffffffffffffffffff168373ffffffffffffffffffffffffffffffffffffffff161415610537576040517f08c379a000000000000000000000000000000000000000000000000000000000815260040161052e90612ab8565b60405180910390fd5b8073ffffffffffffffffffffffffffffffffffffffff16610556610c12565b73ffffffffffffffffffffffffffffffffffffffff16148061058557506105848161057f610c12565b610a98565b5b6105c4576040517f08c379a00000000000000000000000000000000000000000000000000000000081526004016105bb906129b8565b60405180910390fd5b6105ce8383610c1a565b505050565b6000600880549050905090565b6105f16105eb610c12565b82610cd3565b610630576040517f08c379a000000000000000000000000000000000000000000000000000000000815260040161062790612ad8565b60405180910390fd5b61063b838383610db1565b505050565b600061064b8361084e565b821061068c576040517f08c379a0000000000000000000000000000000000000000000000000000000008152600401610683906128b8565b60405180910390fd5b600660008473ffffffffffffffffffffffffffffffffffffffff1673ffffffffffffffffffffffffffffffffffffffff168152602001908152602001600020600083815260200190815260200160002054905092915050565b610700838383604051806020016040528060008152506109ae565b505050565b600061070f6105d3565b8210610750576040517f08c379a000000000000000000000000000000000000000000000000000000000815260040161074790612af8565b60405180910390fd5b6008828154811061078a577f4e487b7100000000000000000000000000000000000000000000000000000000600052603260045260246000fd5b90600052602060002001549050919050565b6000806002600084815260200190815260200160002060009054906101000a900473ffffffffffffffffffffffffffffffffffffffff169050600073ffffffffffffffffffffffffffffffffffffffff168173ffffffffffffffffffffffffffffffffffffffff161415610845576040517f08c379a000000000000000000000000000000000000000000000000000000000815260040161083c906129f8565b60405180910390fd5b80915050919050565b60008073ffffffffffffffffffffffffffffffffffffffff168273ffffffffffffffffffffffffffffffffffffffff1614156108bf576040517f08c379a00000000000000000000000000000000000000000000000000000000081526004016108b6906129d8565b60405180910390fd5b600360008373ffffffffffffffffffffffffffffffffffffffff1673ffffffffffffffffffffffffffffffffffffffff168152602001908152602001600020549050919050565b60606001805461091590612d6e565b80601f016020809104026020016040519081016040528092919081815260200182805461094190612d6e565b801561098e5780601f106109635761010080835404028352916020019161098e565b820191906000526020600020905b81548152906001019060200180831161097157829003601f168201915b5050505050905090565b6109aa6109a3610c12565b8383611018565b5050565b6109bf6109b9610c12565b83610cd3565b6109fe576040517f08c379a00000000000000000000000000000000000000000000000000000000081526004016109f590612ad8565b60405180910390fd5b610a0a84848484611185565b50505050565b6060610a1b826111e1565b9050919050565b6000610a2e600b611333565b9050600c54811115610a75576040517f08c379a0000000000000000000000000000000000000000000000000000000008152600401610a6c90612998565b60405180910390fd5b610a7f600b611341565b610a898382611357565b610a938183611375565b505050565b6000600560008473ffffffffffffffffffffffffffffffffffffffff1673ffffffffffffffffffffffffffffffffffffffff16815260200190815260200160002060008373ffffffffffffffffffffffffffffffffffffffff1673ffffffffffffffffffffffffffffffffffffffff16815260200190815260200160002060009054906101000a900460ff16905092915050565b60007f780e9d63000000000000000000000000000000000000000000000000000000007bffffffffffffffffffffffffffffffffffffffffffffffffffffffff1916827bffffffffffffffffffffffffffffffffffffffffffffffffffffffff19161480610b9f5750610b9e826113e9565b5b9050919050565b60008073ffffffffffffffffffffffffffffffffffffffff166002600084815260200190815260200160002060009054906101000a900473ffffffffffffffffffffffffffffffffffffffff1673ffffffffffffffffffffffffffffffffffffffff1614159050919050565b600033905090565b816004600083815260200190815260200160002060006101000a81548173ffffffffffffffffffffffffffffffffffffffff021916908373ffffffffffffffffffffffffffffffffffffffff160217905550808273ffffffffffffffffffffffffffffffffffffffff16610c8d8361079c565b73ffffffffffffffffffffffffffffffffffffffff167f8c5be1e5ebec7d5bd14f71427d1e84f3dd0314c0f7b2291e5b200ac8c7c3b92560405160405180910390a45050565b6000610cde82610ba6565b610d1d576040517f08c379a0000000000000000000000000000000000000000000000000000000008152600401610d1490612978565b60405180910390fd5b6000610d288361079c565b90508073ffffffffffffffffffffffffffffffffffffffff168473ffffffffffffffffffffffffffffffffffffffff161480610d9757508373ffffffffffffffffffffffffffffffffffffffff16610d7f84610436565b73ffffffffffffffffffffffffffffffffffffffff16145b80610da85750610da78185610a98565b5b91505092915050565b8273ffffffffffffffffffffffffffffffffffffffff16610dd18261079c565b73ffffffffffffffffffffffffffffffffffffffff1614610e27576040517f08c379a0000000000000000000000000000000000000000000000000000000008152600401610e1e906128f8565b60405180910390fd5b600073ffffffffffffffffffffffffffffffffffffffff168273ffffffffffffffffffffffffffffffffffffffff161415610e97576040517f08c379a0000000000000000000000000000000000000000000000000000000008152600401610e8e90612938565b60405180910390fd5b610ea28383836114cb565b610ead600082610c1a565b6001600360008573ffffffffffffffffffffffffffffffffffffffff1673ffffffffffffffffffffffffffffffffffffffff1681526020019081526020016000206000828254610efd9190612c84565b925050819055506001600360008473ffffffffffffffffffffffffffffffffffffffff1673ffffffffffffffffffffffffffffffffffffffff1681526020019081526020016000206000828254610f549190612bfd565b92505081905550816002600083815260200190815260200160002060006101000a81548173ffffffffffffffffffffffffffffffffffffffff021916908373ffffffffffffffffffffffffffffffffffffffff160217905550808273ffffffffffffffffffffffffffffffffffffffff168473ffffffffffffffffffffffffffffffffffffffff167fddf252ad1be2c89b69c2b068fc378daa952ba7f163c4a11628f55a4df523b3ef60405160405180910390a46110138383836114db565b505050565b8173ffffffffffffffffffffffffffffffffffffffff168373ffffffffffffffffffffffffffffffffffffffff161415611087576040517f08c379a000000000000000000000000000000000000000000000000000000000815260040161107e90612958565b60405180910390fd5b80600560008573ffffffffffffffffffffffffffffffffffffffff1673ffffffffffffffffffffffffffffffffffffffff16815260200190815260200160002060008473ffffffffffffffffffffffffffffffffffffffff1673ffffffffffffffffffffffffffffffffffffffff16815260200190815260200160002060006101000a81548160ff0219169083151502179055508173ffffffffffffffffffffffffffffffffffffffff168373ffffffffffffffffffffffffffffffffffffffff167f17307eab39ab6107e8899845ad3d59bd9653f200f220920489ca2b5937696c3183604051611178919061287b565b60405180910390a3505050565b611190848484610db1565b61119c848484846114e0565b6111db576040517f08c379a00000000000000000000000000000000000000000000000000000000081526004016111d2906128d8565b60405180910390fd5b50505050565b60606111ec82610ba6565b61122b576040517f08c379a000000000000000000000000000000000000000000000000000000000815260040161122290612a58565b60405180910390fd5b6000600a6000848152602001908152602001600020805461124b90612d6e565b80601f016020809104026020016040519081016040528092919081815260200182805461127790612d6e565b80156112c45780601f10611299576101008083540402835291602001916112c4565b820191906000526020600020905b8154815290600101906020018083116112a757829003601f168201915b5050505050905060006112d5611677565b90506000815114156112eb57819250505061132e565b6000825111156113205780826040516020016113089291906127f0565b6040516020818303038152906040529250505061132e565b6113298461168e565b925050505b919050565b600081600001549050919050565b6001816000016000828254019250508190555050565b611371828260405180602001604052806000815250611735565b5050565b61137e82610ba6565b6113bd576040517f08c379a00000000000000000000000000000000000000000000000000000000081526004016113b490612a18565b60405180910390fd5b80600a600084815260200190815260200160002090805190602001906113e4929190612035565b505050565b60007f80ac58cd000000000000000000000000000000000000000000000000000000007bffffffffffffffffffffffffffffffffffffffffffffffffffffffff1916827bffffffffffffffffffffffffffffffffffffffffffffffffffffffff191614806114b457507f5b5e139f000000000000000000000000000000000000000000000000000000007bffffffffffffffffffffffffffffffffffffffffffffffffffffffff1916827bffffffffffffffffffffffffffffffffffffffffffffffffffffffff1916145b806114c457506114c382611790565b5b9050919050565b6114d68383836117fa565b505050565b505050565b60006115018473ffffffffffffffffffffffffffffffffffffffff1661190e565b1561166a578373ffffffffffffffffffffffffffffffffffffffff1663150b7a0261152a610c12565b8786866040518563ffffffff1660e01b815260040161154c949392919061282f565b602060405180830381600087803b15801561156657600080fd5b505af192505050801561159757506040513d601f19601f820116820180604052508101906115949190612435565b60015b61161a573d80600081146115c7576040519150601f19603f3d011682016040523d82523d6000602084013e6115cc565b606091505b50600081511415611612576040517f08c379a0000000000000000000000000000000000000000000000000000000008152600401611609906128d8565b60405180910390fd5b805181602001fd5b63150b7a0260e01b7bffffffffffffffffffffffffffffffffffffffffffffffffffffffff1916817bffffffffffffffffffffffffffffffffffffffffffffffffffffffff19161491505061166f565b600190505b949350505050565b606060405180602001604052806000815250905090565b606061169982610ba6565b6116d8576040517f08c379a00000000000000000000000000000000000000000000000000000000081526004016116cf90612a98565b60405180910390fd5b60006116e2611677565b90506000815111611702576040518060200160405280600081525061172d565b8061170c84611931565b60405160200161171d9291906127f0565b6040516020818303038152906040525b915050919050565b61173f8383611ade565b61174c60008484846114e0565b61178b576040517f08c379a0000000000000000000000000000000000000000000000000000000008152600401611782906128d8565b60405180910390fd5b505050565b60007f01ffc9a7000000000000000000000000000000000000000000000000000000007bffffffffffffffffffffffffffffffffffffffffffffffffffffffff1916827bffffffffffffffffffffffffffffffffffffffffffffffffffffffff1916149050919050565b611805838383611cb8565b600073ffffffffffffffffffffffffffffffffffffffff168373ffffffffffffffffffffffffffffffffffffffff1614156118485761184381611cbd565b611887565b8173ffffffffffffffffffffffffffffffffffffffff168373ffffffffffffffffffffffffffffffffffffffff1614611886576118858382611d06565b5b5b600073ffffffffffffffffffffffffffffffffffffffff168273ffffffffffffffffffffffffffffffffffffffff1614156118ca576118c581611e73565b611909565b8273ffffffffffffffffffffffffffffffffffffffff168273ffffffffffffffffffffffffffffffffffffffff1614611908576119078282611fb6565b5b5b505050565b6000808273ffffffffffffffffffffffffffffffffffffffff163b119050919050565b60606000821415611979576040518060400160405280600181526020017f30000000000000000000000000000000000000000000000000000000000000008152509050611ad9565b600082905060005b600082146119ab57808061199490612dd1565b915050600a826119a49190612c53565b9150611981565b60008167ffffffffffffffff8111156119ed577f4e487b7100000000000000000000000000000000000000000000000000000000600052604160045260246000fd5b6040519080825280601f01601f191660200182016040528015611a1f5781602001600182028036833780820191505090505b5090505b60008514611ad257600182611a389190612c84565b9150600a85611a479190612e1a565b6030611a539190612bfd565b60f81b818381518110611a8f577f4e487b7100000000000000000000000000000000000000000000000000000000600052603260045260246000fd5b60200101907effffffffffffffffffffffffffffffffffffffffffffffffffffffffffffff1916908160001a905350600a85611acb9190612c53565b9450611a23565b8093505050505b919050565b600073ffffffffffffffffffffffffffffffffffffffff168273ffffffffffffffffffffffffffffffffffffffff161415611b4e576040517f08c379a0000000000000000000000000000000000000000000000000000000008152600401611b4590612a38565b60405180910390fd5b611b5781610ba6565b15611b97576040517f08c379a0000000000000000000000000000000000000000000000000000000008152600401611b8e90612918565b60405180910390fd5b611ba3600083836114cb565b6001600360008473ffffffffffffffffffffffffffffffffffffffff1673ffffffffffffffffffffffffffffffffffffffff1681526020019081526020016000206000828254611bf39190612bfd565b92505081905550816002600083815260200190815260200160002060006101000a81548173ffffffffffffffffffffffffffffffffffffffff021916908373ffffffffffffffffffffffffffffffffffffffff160217905550808273ffffffffffffffffffffffffffffffffffffffff16600073ffffffffffffffffffffffffffffffffffffffff167fddf252ad1be2c89b69c2b068fc378daa952ba7f163c4a11628f55a4df523b3ef60405160405180910390a4611cb4600083836114db565b5050565b505050565b6008805490506009600083815260200190815260200160002081905550600881908060018154018082558091505060019003906000526020600020016000909190919091505550565b60006001611d138461084e565b611d1d9190612c84565b9050600060076000848152602001908152602001600020549050818114611e02576000600660008673ffffffffffffffffffffffffffffffffffffffff1673ffffffffffffffffffffffffffffffffffffffff168152602001908152602001600020600084815260200190815260200160002054905080600660008773ffffffffffffffffffffffffffffffffffffffff1673ffffffffffffffffffffffffffffffffffffffff168152602001908152602001600020600084815260200190815260200160002081905550816007600083815260200190815260200160002081905550505b6007600084815260200190815260200160002060009055600660008573ffffffffffffffffffffffffffffffffffffffff1673ffffffffffffffffffffffffffffffffffffffff16815260200190815260200160002060008381526020019081526020016000206000905550505050565b60006001600880549050611e879190612c84565b9050600060096000848152602001908152602001600020549050600060088381548110611edd577f4e487b7100000000000000000000000000000000000000000000000000000000600052603260045260246000fd5b906000526020600020015490508060088381548110611f25577f4e487b7100000000000000000000000000000000000000000000000000000000600052603260045260246000fd5b906000526020600020018190555081600960008381526020019081526020016000208190555060096000858152602001908152602001600020600090556008805480611f9a577f4e487b7100000000000000000000000000000000000000000000000000000000600052603160045260246000fd5b6001900381819060005260206000200160009055905550505050565b6000611fc18361084e565b905081600660008573ffffffffffffffffffffffffffffffffffffffff1673ffffffffffffffffffffffffffffffffffffffff168152602001908152602001600020600083815260200190815260200160002081905550806007600084815260200190815260200160002081905550505050565b82805461204190612d6e565b90600052602060002090601f01602090048101928261206357600085556120aa565b82601f1061207c57805160ff19168380011785556120aa565b828001600101855582156120aa579182015b828111156120a957825182559160200191906001019061208e565b5b5090506120b791906120bb565b5090565b5b808211156120d45760008160009055506001016120bc565b5090565b60006120eb6120e684612b58565b612b33565b90508281526020810184848401111561210357600080fd5b61210e848285612d2c565b509392505050565b600061212961212484612b89565b612b33565b90508281526020810184848401111561214157600080fd5b61214c848285612d2c565b509392505050565b6000813590506121638161345d565b92915050565b60008135905061217881613474565b92915050565b60008135905061218d8161348b565b92915050565b6000815190506121a28161348b565b92915050565b600082601f8301126121b957600080fd5b81356121c98482602086016120d8565b91505092915050565b600082601f8301126121e357600080fd5b81356121f3848260208601612116565b91505092915050565b60008135905061220b816134a2565b92915050565b60006020828403121561222357600080fd5b600061223184828501612154565b91505092915050565b6000806040838503121561224d57600080fd5b600061225b85828601612154565b925050602061226c85828601612154565b9150509250929050565b60008060006060848603121561228b57600080fd5b600061229986828701612154565b93505060206122aa86828701612154565b92505060406122bb868287016121fc565b9150509250925092565b600080600080608085870312156122db57600080fd5b60006122e987828801612154565b94505060206122fa87828801612154565b935050604061230b878288016121fc565b925050606085013567ffffffffffffffff81111561232857600080fd5b612334878288016121a8565b91505092959194509250565b6000806040838503121561235357600080fd5b600061236185828601612154565b925050602061237285828601612169565b9150509250929050565b6000806040838503121561238f57600080fd5b600061239d85828601612154565b925050602083013567ffffffffffffffff8111156123ba57600080fd5b6123c6858286016121d2565b9150509250929050565b600080604083850312156123e357600080fd5b60006123f185828601612154565b9250506020612402858286016121fc565b9150509250929050565b60006020828403121561241e57600080fd5b600061242c8482850161217e565b91505092915050565b60006020828403121561244757600080fd5b600061245584828501612193565b91505092915050565b60006020828403121561247057600080fd5b600061247e848285016121fc565b91505092915050565b61249081612cb8565b82525050565b61249f81612cca565b82525050565b60006124b082612bba565b6124ba8185612bd0565b93506124ca818560208601612d3b565b6124d381612f07565b840191505092915050565b60006124e982612bc5565b6124f38185612be1565b9350612503818560208601612d3b565b61250c81612f07565b840191505092915050565b600061252282612bc5565b61252c8185612bf2565b935061253c818560208601612d3b565b80840191505092915050565b6000612555602b83612be1565b915061256082612f18565b604082019050919050565b6000612578603283612be1565b915061258382612f67565b604082019050919050565b600061259b602583612be1565b91506125a682612fb6565b604082019050919050565b60006125be601c83612be1565b91506125c982613005565b602082019050919050565b60006125e1602483612be1565b91506125ec8261302e565b604082019050919050565b6000612604601983612be1565b915061260f8261307d565b602082019050919050565b6000612627602c83612be1565b9150612632826130a6565b604082019050919050565b600061264a601683612be1565b9150612655826130f5565b602082019050919050565b600061266d603883612be1565b91506126788261311e565b604082019050919050565b6000612690602a83612be1565b915061269b8261316d565b604082019050919050565b60006126b3602983612be1565b91506126be826131bc565b604082019050919050565b60006126d6602e83612be1565b91506126e18261320b565b604082019050919050565b60006126f9602083612be1565b91506127048261325a565b602082019050919050565b600061271c603183612be1565b915061272782613283565b604082019050919050565b600061273f602c83612be1565b915061274a826132d2565b604082019050919050565b6000612762602f83612be1565b915061276d82613321565b604082019050919050565b6000612785602183612be1565b915061279082613370565b604082019050919050565b60006127a8603183612be1565b91506127b3826133bf565b604082019050919050565b60006127cb602c83612be1565b91506127d68261340e565b604082019050919050565b6127ea81612d22565b82525050565b60006127fc8285612517565b91506128088284612517565b91508190509392505050565b60006020820190506128296000830184612487565b92915050565b60006080820190506128446000830187612487565b6128516020830186612487565b61285e60408301856127e1565b818103606083015261287081846124a5565b905095945050505050565b60006020820190506128906000830184612496565b92915050565b600060208201905081810360008301526128b081846124de565b905092915050565b600060208201905081810360008301526128d181612548565b9050919050565b600060208201905081810360008301526128f18161256b565b9050919050565b600060208201905081810360008301526129118161258e565b9050919050565b60006020820190508181036000830152612931816125b1565b9050919050565b60006020820190508181036000830152612951816125d4565b9050919050565b60006020820190508181036000830152612971816125f7565b9050919050565b600060208201905081810360008301526129918161261a565b9050919050565b600060208201905081810360008301526129b18161263d565b9050919050565b600060208201905081810360008301526129d181612660565b9050919050565b600060208201905081810360008301526129f181612683565b9050919050565b60006020820190508181036000830152612a11816126a6565b9050919050565b60006020820190508181036000830152612a31816126c9565b9050919050565b60006020820190508181036000830152612a51816126ec565b9050919050565b60006020820190508181036000830152612a718161270f565b9050919050565b60006020820190508181036000830152612a9181612732565b9050919050565b60006020820190508181036000830152612ab181612755565b9050919050565b60006020820190508181036000830152612ad181612778565b9050919050565b60006020820190508181036000830152612af18161279b565b9050919050565b60006020820190508181036000830152612b11816127be565b9050919050565b6000602082019050612b2d60008301846127e1565b92915050565b6000612b3d612b4e565b9050612b498282612da0565b919050565b6000604051905090565b600067ffffffffffffffff821115612b7357612b72612ed8565b5b612b7c82612f07565b9050602081019050919050565b600067ffffffffffffffff821115612ba457612ba3612ed8565b5b612bad82612f07565b9050602081019050919050565b600081519050919050565b600081519050919050565b600082825260208201905092915050565b600082825260208201905092915050565b600081905092915050565b6000612c0882612d22565b9150612c1383612d22565b9250827fffffffffffffffffffffffffffffffffffffffffffffffffffffffffffffffff03821115612c4857612c47612e4b565b5b828201905092915050565b6000612c5e82612d22565b9150612c6983612d22565b925082612c7957612c78612e7a565b5b828204905092915050565b6000612c8f82612d22565b9150612c9a83612d22565b925082821015612cad57612cac612e4b565b5b828203905092915050565b6000612cc382612d02565b9050919050565b60008115159050919050565b60007fffffffff0000000000000000000000000000000000000000000000000000000082169050919050565b600073ffffffffffffffffffffffffffffffffffffffff82169050919050565b6000819050919050565b82818337600083830152505050565b60005b83811015612d59578082015181840152602081019050612d3e565b83811115612d68576000848401525b50505050565b60006002820490506001821680612d8657607f821691505b60208210811415612d9a57612d99612ea9565b5b50919050565b612da982612f07565b810181811067ffffffffffffffff82111715612dc857612dc7612ed8565b5b80604052505050565b6000612ddc82612d22565b91507fffffffffffffffffffffffffffffffffffffffffffffffffffffffffffffffff821415612e0f57612e0e612e4b565b5b600182019050919050565b6000612e2582612d22565b9150612e3083612d22565b925082612e4057612e3f612e7a565b5b828206905092915050565b7f4e487b7100000000000000000000000000000000000000000000000000000000600052601160045260246000fd5b7f4e487b7100000000000000000000000000000000000000000000000000000000600052601260045260246000fd5b7f4e487b7100000000000000000000000000000000000000000000000000000000600052602260045260246000fd5b7f4e487b7100000000000000000000000000000000000000000000000000000000600052604160045260246000fd5b6000601f19601f8301169050919050565b7f455243373231456e756d657261626c653a206f776e657220696e646578206f7560008201527f74206f6620626f756e6473000000000000000000000000000000000000000000602082015250565b7f4552433732313a207472616e7366657220746f206e6f6e20455243373231526560008201527f63656976657220696d706c656d656e7465720000000000000000000000000000602082015250565b7f4552433732313a207472616e736665722066726f6d20696e636f72726563742060008201527f6f776e6572000000000000000000000000000000000000000000000000000000602082015250565b7f4552433732313a20746f6b656e20616c7265616479206d696e74656400000000600082015250565b7f4552433732313a207472616e7366657220746f20746865207a65726f2061646460008201527f7265737300000000000000000000000000000000000000000000000000000000602082015250565b7f4552433732313a20617070726f766520746f2063616c6c657200000000000000600082015250565b7f4552433732313a206f70657261746f7220717565727920666f72206e6f6e657860008201527f697374656e7420746f6b656e0000000000000000000000000000000000000000602082015250565b7f436f6f6c4e4654732061726520736f6c64206f75742100000000000000000000600082015250565b7f4552433732313a20617070726f76652063616c6c6572206973206e6f74206f7760008201527f6e6572206e6f7220617070726f76656420666f7220616c6c0000000000000000602082015250565b7f4552433732313a2062616c616e636520717565727920666f7220746865207a6560008201527f726f206164647265737300000000000000000000000000000000000000000000602082015250565b7f4552433732313a206f776e657220717565727920666f72206e6f6e657869737460008201527f656e7420746f6b656e0000000000000000000000000000000000000000000000602082015250565b7f45524337323155524953746f726167653a2055524920736574206f66206e6f6e60008201527f6578697374656e7420746f6b656e000000000000000000000000000000000000602082015250565b7f4552433732313a206d696e7420746f20746865207a65726f2061646472657373600082015250565b7f45524337323155524953746f726167653a2055524920717565727920666f722060008201527f6e6f6e6578697374656e7420746f6b656e000000000000000000000000000000602082015250565b7f4552433732313a20617070726f76656420717565727920666f72206e6f6e657860008201527f697374656e7420746f6b656e0000000000000000000000000000000000000000602082015250565b7f4552433732314d657461646174613a2055524920717565727920666f72206e6f60008201527f6e6578697374656e7420746f6b656e0000000000000000000000000000000000602082015250565b7f4552433732313a20617070726f76616c20746f2063757272656e74206f776e6560008201527f7200000000000000000000000000000000000000000000000000000000000000602082015250565b7f4552433732313a207472616e736665722063616c6c6572206973206e6f74206f60008201527f776e6572206e6f7220617070726f766564000000000000000000000000000000602082015250565b7f455243373231456e756d657261626c653a20676c6f62616c20696e646578206f60008201527f7574206f6620626f756e64730000000000000000000000000000000000000000602082015250565b61346681612cb8565b811461347157600080fd5b50565b61347d81612cca565b811461348857600080fd5b50565b61349481612cd6565b811461349f57600080fd5b50565b6134ab81612d22565b81146134b657600080fd5b5056fea26469706673582212209156f64213abd408194c8ed9a7ebb585c0764f44972d5a3078a92358ee33c86964736f6c63430008040033",
  "immutableReferences": {},
  "source": "// SPDX-License-Identifier: MIT\r\npragma solidity ^0.8.0;\r\n\r\nimport \"@openzeppelin/contracts/token/ERC721/ERC721.sol\";\r\nimport \"@openzeppelin/contracts/token/ERC721/extensions/ERC721Enumerable.sol\";\r\nimport \"@openzeppelin/contracts/token/ERC721/extensions/ERC721URIStorage.sol\";\r\nimport \"@openzeppelin/contracts/utils/Counters.sol\";\r\n\r\ncontract BasicNFT is ERC721, ERC721Enumerable, ERC721URIStorage {\r\n    using Counters for Counters.Counter;    // Initialize the counter library\r\n\r\n    // Initialize a counter variable, private means that only this smart contract can access it. \r\n    Counters.Counter private _tokenIdCounter;\r\n\r\n    uint256 MAX_SUPPLY = 100;\r\n\r\n    constructor() ERC721(\"CoolNFT\", \"CNFT\") {}\r\n\r\n    // This function mint the NFT to the receiving address.\r\n    // Increments the token ID and associates it. \r\n    // Associates the token URI\r\n    function safeMint(address to, string memory uri) public {\r\n        uint256 tokenId = _tokenIdCounter.current();\r\n        require(tokenId <= MAX_SUPPLY, \"CoolNFTs are sold out!\");\r\n        _tokenIdCounter.increment();\r\n        _safeMint(to, tokenId);\r\n        _setTokenURI(tokenId, uri);\r\n    }\r\n\r\n    // The following functions are overrides required by Solidity.\r\n\r\n    function _beforeTokenTransfer(address from, address to, uint256 tokenId)\r\n        internal\r\n        override(ERC721, ERC721Enumerable)\r\n    {\r\n        super._beforeTokenTransfer(from, to, tokenId);\r\n    }\r\n\r\n\r\n    function _burn(uint256 tokenId) internal override(ERC721, ERC721URIStorage) {\r\n        super._burn(tokenId);\r\n    }\r\n\r\n\r\n    function tokenURI(uint256 tokenId)\r\n        public\r\n        view\r\n        override(ERC721, ERC721URIStorage)\r\n        returns (string memory)\r\n    {\r\n        return super.tokenURI(tokenId);\r\n    }\r\n\r\n\r\n    function supportsInterface(bytes4 interfaceId)\r\n        public\r\n        view\r\n        override(ERC721, ERC721Enumerable)\r\n        returns (bool)\r\n    {\r\n        return super.supportsInterface(interfaceId);\r\n    }\r\n}\r\n",
  "sourcePath": "C:\\Users\\jcord\\Documents\\Master_BC\\PigCoinsNFTs\\src\\contracts\\MyNFT.sol",
  "compiler": {
    "name": "solc",
    "version": "0.8.4+commit.c7e474f2.Emscripten.clang"
  },
  "schemaVersion": "3.4.16",
  "updatedAt": "2024-04-16T09:18:23.445Z",
  "devdoc": {
    "kind": "dev",
    "methods": {
      "approve(address,uint256)": {
        "details": "See {IERC721-approve}."
      },
      "balanceOf(address)": {
        "details": "See {IERC721-balanceOf}."
      },
      "getApproved(uint256)": {
        "details": "See {IERC721-getApproved}."
      },
      "isApprovedForAll(address,address)": {
        "details": "See {IERC721-isApprovedForAll}."
      },
      "name()": {
        "details": "See {IERC721Metadata-name}."
      },
      "ownerOf(uint256)": {
        "details": "See {IERC721-ownerOf}."
      },
      "safeTransferFrom(address,address,uint256)": {
        "details": "See {IERC721-safeTransferFrom}."
      },
      "safeTransferFrom(address,address,uint256,bytes)": {
        "details": "See {IERC721-safeTransferFrom}."
      },
      "setApprovalForAll(address,bool)": {
        "details": "See {IERC721-setApprovalForAll}."
      },
      "symbol()": {
        "details": "See {IERC721Metadata-symbol}."
      },
      "tokenByIndex(uint256)": {
        "details": "See {IERC721Enumerable-tokenByIndex}."
      },
      "tokenOfOwnerByIndex(address,uint256)": {
        "details": "See {IERC721Enumerable-tokenOfOwnerByIndex}."
      },
      "totalSupply()": {
        "details": "See {IERC721Enumerable-totalSupply}."
      },
      "transferFrom(address,address,uint256)": {
        "details": "See {IERC721-transferFrom}."
      }
    },
    "version": 1
  },
  "userdoc": {
    "kind": "user",
    "methods": {},
    "version": 1
  }
}