{
  "contractName": "ChemiCoin",
  "abi": [
    {
      "inputs": [],
      "stateMutability": "nonpayable",
      "type": "constructor"
    },
    {
      "anonymous": false,
      "inputs": [
        {
          "indexed": true,
          "internalType": "address",
          "name": "owner",
          "type": "address"
        },
        {
          "indexed": true,
          "internalType": "address",
          "name": "spender",
          "type": "address"
        },
        {
          "indexed": false,
          "internalType": "uint256",
          "name": "value",
          "type": "uint256"
        }
      ],
      "name": "Approval",
      "type": "event"
    },
    {
      "anonymous": false,
      "inputs": [
        {
          "indexed": true,
          "internalType": "address",
          "name": "from",
          "type": "address"
        },
        {
          "indexed": false,
          "internalType": "uint256",
          "name": "amount",
          "type": "uint256"
        }
      ],
      "name": "Burn",
      "type": "event"
    },
    {
      "anonymous": false,
      "inputs": [
        {
          "indexed": true,
          "internalType": "address",
          "name": "to",
          "type": "address"
        },
        {
          "indexed": false,
          "internalType": "uint256",
          "name": "amount",
          "type": "uint256"
        }
      ],
      "name": "Mint",
      "type": "event"
    },
    {
      "anonymous": false,
      "inputs": [
        {
          "indexed": true,
          "internalType": "address",
          "name": "previousOwner",
          "type": "address"
        },
        {
          "indexed": true,
          "internalType": "address",
          "name": "newOwner",
          "type": "address"
        }
      ],
      "name": "OwnershipTransferred",
      "type": "event"
    },
    {
      "anonymous": false,
      "inputs": [
        {
          "indexed": true,
          "internalType": "address",
          "name": "staker",
          "type": "address"
        },
        {
          "indexed": false,
          "internalType": "uint256",
          "name": "amount",
          "type": "uint256"
        }
      ],
      "name": "RewardClaimed",
      "type": "event"
    },
    {
      "anonymous": false,
      "inputs": [
        {
          "indexed": true,
          "internalType": "address",
          "name": "staker",
          "type": "address"
        },
        {
          "indexed": false,
          "internalType": "uint256",
          "name": "amount",
          "type": "uint256"
        }
      ],
      "name": "Staked",
      "type": "event"
    },
    {
      "anonymous": false,
      "inputs": [
        {
          "indexed": false,
          "internalType": "address",
          "name": "buyer",
          "type": "address"
        },
        {
          "indexed": false,
          "internalType": "uint256",
          "name": "amount",
          "type": "uint256"
        },
        {
          "indexed": false,
          "internalType": "uint256",
          "name": "tokensReceived",
          "type": "uint256"
        }
      ],
      "name": "TokensPurchased",
      "type": "event"
    },
    {
      "anonymous": false,
      "inputs": [
        {
          "indexed": true,
          "internalType": "address",
          "name": "from",
          "type": "address"
        },
        {
          "indexed": true,
          "internalType": "address",
          "name": "to",
          "type": "address"
        },
        {
          "indexed": false,
          "internalType": "uint256",
          "name": "value",
          "type": "uint256"
        }
      ],
      "name": "Transfer",
      "type": "event"
    },
    {
      "anonymous": false,
      "inputs": [
        {
          "indexed": true,
          "internalType": "address",
          "name": "staker",
          "type": "address"
        },
        {
          "indexed": false,
          "internalType": "uint256",
          "name": "amount",
          "type": "uint256"
        }
      ],
      "name": "Unstaked",
      "type": "event"
    },
    {
      "inputs": [],
      "name": "APY",
      "outputs": [
        {
          "internalType": "uint256",
          "name": "",
          "type": "uint256"
        }
      ],
      "stateMutability": "view",
      "type": "function"
    },
    {
      "inputs": [
        {
          "internalType": "address",
          "name": "owner",
          "type": "address"
        },
        {
          "internalType": "address",
          "name": "spender",
          "type": "address"
        }
      ],
      "name": "allowance",
      "outputs": [
        {
          "internalType": "uint256",
          "name": "",
          "type": "uint256"
        }
      ],
      "stateMutability": "view",
      "type": "function"
    },
    {
      "inputs": [
        {
          "internalType": "address",
          "name": "spender",
          "type": "address"
        },
        {
          "internalType": "uint256",
          "name": "amount",
          "type": "uint256"
        }
      ],
      "name": "approve",
      "outputs": [
        {
          "internalType": "bool",
          "name": "",
          "type": "bool"
        }
      ],
      "stateMutability": "nonpayable",
      "type": "function"
    },
    {
      "inputs": [
        {
          "internalType": "address",
          "name": "account",
          "type": "address"
        }
      ],
      "name": "balanceOf",
      "outputs": [
        {
          "internalType": "uint256",
          "name": "",
          "type": "uint256"
        }
      ],
      "stateMutability": "view",
      "type": "function"
    },
    {
      "inputs": [],
      "name": "decimals",
      "outputs": [
        {
          "internalType": "uint8",
          "name": "",
          "type": "uint8"
        }
      ],
      "stateMutability": "view",
      "type": "function"
    },
    {
      "inputs": [
        {
          "internalType": "address",
          "name": "spender",
          "type": "address"
        },
        {
          "internalType": "uint256",
          "name": "subtractedValue",
          "type": "uint256"
        }
      ],
      "name": "decreaseAllowance",
      "outputs": [
        {
          "internalType": "bool",
          "name": "",
          "type": "bool"
        }
      ],
      "stateMutability": "nonpayable",
      "type": "function"
    },
    {
      "inputs": [
        {
          "internalType": "address",
          "name": "spender",
          "type": "address"
        },
        {
          "internalType": "uint256",
          "name": "addedValue",
          "type": "uint256"
        }
      ],
      "name": "increaseAllowance",
      "outputs": [
        {
          "internalType": "bool",
          "name": "",
          "type": "bool"
        }
      ],
      "stateMutability": "nonpayable",
      "type": "function"
    },
    {
      "inputs": [
        {
          "internalType": "address",
          "name": "",
          "type": "address"
        }
      ],
      "name": "lastRewardClaimTime",
      "outputs": [
        {
          "internalType": "uint256",
          "name": "",
          "type": "uint256"
        }
      ],
      "stateMutability": "view",
      "type": "function"
    },
    {
      "inputs": [],
      "name": "name",
      "outputs": [
        {
          "internalType": "string",
          "name": "",
          "type": "string"
        }
      ],
      "stateMutability": "view",
      "type": "function"
    },
    {
      "inputs": [],
      "name": "owner",
      "outputs": [
        {
          "internalType": "address",
          "name": "",
          "type": "address"
        }
      ],
      "stateMutability": "view",
      "type": "function"
    },
    {
      "inputs": [],
      "name": "renounceOwnership",
      "outputs": [],
      "stateMutability": "nonpayable",
      "type": "function"
    },
    {
      "inputs": [
        {
          "internalType": "address",
          "name": "",
          "type": "address"
        }
      ],
      "name": "rewardsBalance",
      "outputs": [
        {
          "internalType": "uint256",
          "name": "",
          "type": "uint256"
        }
      ],
      "stateMutability": "view",
      "type": "function"
    },
    {
      "inputs": [
        {
          "internalType": "address",
          "name": "",
          "type": "address"
        }
      ],
      "name": "stakingBalance",
      "outputs": [
        {
          "internalType": "uint256",
          "name": "",
          "type": "uint256"
        }
      ],
      "stateMutability": "view",
      "type": "function"
    },
    {
      "inputs": [],
      "name": "symbol",
      "outputs": [
        {
          "internalType": "string",
          "name": "",
          "type": "string"
        }
      ],
      "stateMutability": "view",
      "type": "function"
    },
    {
      "inputs": [],
      "name": "totalSupply",
      "outputs": [
        {
          "internalType": "uint256",
          "name": "",
          "type": "uint256"
        }
      ],
      "stateMutability": "view",
      "type": "function"
    },
    {
      "inputs": [
        {
          "internalType": "address",
          "name": "to",
          "type": "address"
        },
        {
          "internalType": "uint256",
          "name": "amount",
          "type": "uint256"
        }
      ],
      "name": "transfer",
      "outputs": [
        {
          "internalType": "bool",
          "name": "",
          "type": "bool"
        }
      ],
      "stateMutability": "nonpayable",
      "type": "function"
    },
    {
      "inputs": [
        {
          "internalType": "address",
          "name": "from",
          "type": "address"
        },
        {
          "internalType": "address",
          "name": "to",
          "type": "address"
        },
        {
          "internalType": "uint256",
          "name": "amount",
          "type": "uint256"
        }
      ],
      "name": "transferFrom",
      "outputs": [
        {
          "internalType": "bool",
          "name": "",
          "type": "bool"
        }
      ],
      "stateMutability": "nonpayable",
      "type": "function"
    },
    {
      "inputs": [
        {
          "internalType": "address",
          "name": "newOwner",
          "type": "address"
        }
      ],
      "name": "transferOwnership",
      "outputs": [],
      "stateMutability": "nonpayable",
      "type": "function"
    },
    {
      "stateMutability": "payable",
      "type": "receive"
    },
    {
      "inputs": [
        {
          "internalType": "address",
          "name": "_account",
          "type": "address"
        }
      ],
      "name": "balanceTokens",
      "outputs": [
        {
          "internalType": "uint256",
          "name": "",
          "type": "uint256"
        }
      ],
      "stateMutability": "view",
      "type": "function"
    },
    {
      "inputs": [],
      "name": "balanceTokensSC",
      "outputs": [
        {
          "internalType": "uint256",
          "name": "",
          "type": "uint256"
        }
      ],
      "stateMutability": "view",
      "type": "function"
    },
    {
      "inputs": [
        {
          "internalType": "address",
          "name": "to",
          "type": "address"
        },
        {
          "internalType": "uint256",
          "name": "amount",
          "type": "uint256"
        }
      ],
      "name": "mint",
      "outputs": [],
      "stateMutability": "nonpayable",
      "type": "function"
    },
    {
      "inputs": [
        {
          "internalType": "uint256",
          "name": "amount",
          "type": "uint256"
        }
      ],
      "name": "burn",
      "outputs": [],
      "stateMutability": "payable",
      "type": "function"
    },
    {
      "inputs": [
        {
          "internalType": "uint256",
          "name": "tokensToBuy",
          "type": "uint256"
        }
      ],
      "name": "buyTokens",
      "outputs": [],
      "stateMutability": "payable",
      "type": "function"
    },
    {
      "inputs": [],
      "name": "buyTokens2",
      "outputs": [],
      "stateMutability": "payable",
      "type": "function"
    },
    {
      "inputs": [],
      "name": "buyTokens3",
      "outputs": [],
      "stateMutability": "payable",
      "type": "function"
    },
    {
      "inputs": [
        {
          "internalType": "uint256",
          "name": "amount",
          "type": "uint256"
        }
      ],
      "name": "stake",
      "outputs": [],
      "stateMutability": "nonpayable",
      "type": "function"
    },
    {
      "inputs": [
        {
          "internalType": "uint256",
          "name": "amount",
          "type": "uint256"
        }
      ],
      "name": "unstake",
      "outputs": [],
      "stateMutability": "nonpayable",
      "type": "function"
    },
    {
      "inputs": [],
      "name": "claimReward",
      "outputs": [],
      "stateMutability": "nonpayable",
      "type": "function"
    },
    {
      "inputs": [],
      "name": "withdrawReward",
      "outputs": [],
      "stateMutability": "nonpayable",
      "type": "function"
    },
    {
      "inputs": [
        {
          "internalType": "address",
          "name": "account",
          "type": "address"
        }
      ],
      "name": "getStakingBalance",
      "outputs": [
        {
          "internalType": "uint256",
          "name": "",
          "type": "uint256"
        }
      ],
      "stateMutability": "view",
      "type": "function"
    },
    {
      "inputs": [
        {
          "internalType": "address",
          "name": "account",
          "type": "address"
        }
      ],
      "name": "getRewardsBalance",
      "outputs": [
        {
          "internalType": "uint256",
          "name": "",
          "type": "uint256"
        }
      ],
      "stateMutability": "view",
      "type": "function"
    }
  ],
  "bytecode": "0x60806040523480156200001157600080fd5b506040518060400160405280600781526020017f506967436f696e000000000000000000000000000000000000000000000000008152506040518060400160405280600381526020017f504947000000000000000000000000000000000000000000000000000000000081525081600390805190602001906200009692919062000345565b508060049080519060200190620000af92919062000345565b505050620000d2620000c6620000f460201b60201c565b620000fc60201b60201c565b620000ee3069021e19e0c9bab2400000620001c260201b60201c565b620005a1565b600033905090565b6000600560009054906101000a900473ffffffffffffffffffffffffffffffffffffffff16905081600560006101000a81548173ffffffffffffffffffffffffffffffffffffffff021916908373ffffffffffffffffffffffffffffffffffffffff1602179055508173ffffffffffffffffffffffffffffffffffffffff168173ffffffffffffffffffffffffffffffffffffffff167f8be0079c531659141344cd1fd0a4f28419497f9722a3daafe3b4186f6b6457e060405160405180910390a35050565b600073ffffffffffffffffffffffffffffffffffffffff168273ffffffffffffffffffffffffffffffffffffffff16141562000235576040517f08c379a00000000000000000000000000000000000000000000000000000000081526004016200022c906200042d565b60405180910390fd5b62000249600083836200033b60201b60201c565b80600260008282546200025d91906200047d565b92505081905550806000808473ffffffffffffffffffffffffffffffffffffffff1673ffffffffffffffffffffffffffffffffffffffff1681526020019081526020016000206000828254620002b491906200047d565b925050819055508173ffffffffffffffffffffffffffffffffffffffff16600073ffffffffffffffffffffffffffffffffffffffff167fddf252ad1be2c89b69c2b068fc378daa952ba7f163c4a11628f55a4df523b3ef836040516200031b91906200044f565b60405180910390a362000337600083836200034060201b60201c565b5050565b505050565b505050565b8280546200035390620004e4565b90600052602060002090601f016020900481019282620003775760008555620003c3565b82601f106200039257805160ff1916838001178555620003c3565b82800160010185558215620003c3579182015b82811115620003c2578251825591602001919060010190620003a5565b5b509050620003d29190620003d6565b5090565b5b80821115620003f1576000816000905550600101620003d7565b5090565b600062000404601f836200046c565b9150620004118262000578565b602082019050919050565b6200042781620004da565b82525050565b600060208201905081810360008301526200044881620003f5565b9050919050565b60006020820190506200046660008301846200041c565b92915050565b600082825260208201905092915050565b60006200048a82620004da565b91506200049783620004da565b9250827fffffffffffffffffffffffffffffffffffffffffffffffffffffffffffffffff03821115620004cf57620004ce6200051a565b5b828201905092915050565b6000819050919050565b60006002820490506001821680620004fd57607f821691505b6020821081141562000514576200051362000549565b5b50919050565b7f4e487b7100000000000000000000000000000000000000000000000000000000600052601160045260246000fd5b7f4e487b7100000000000000000000000000000000000000000000000000000000600052602260045260246000fd5b7f45524332303a206d696e7420746f20746865207a65726f206164647265737300600082015250565b612fdb80620005b16000396000f3fe6080604052600436106101dc5760003560e01c8063715018a611610102578063a9059cbb11610095578063dd62ed3e11610064578063dd62ed3e14610695578063ef8bd305146106d2578063f2fde38b146106fd578063f9b4527a14610726576101e3565b8063a9059cbb146105ed578063b04ef9c21461062a578063b88a802f14610667578063c885bc581461067e576101e3565b806392ef10d8116100d157806392ef10d81461053157806395d89b411461055c578063a457c2d714610587578063a694fc3a146105c4576101e3565b8063715018a614610475578063896bdac81461048c5780638a67f4bf146104c95780638da5cb5b14610506576101e3565b8063352186c01161017a57806342966c681161014957806342966c68146103a257806345bc78ab146103be5780636c430dbb146103fb57806370a0823114610438576101e3565b8063352186c0146103165780633610724e14610320578063395093511461033c57806340c10f1914610379576101e3565b80631fa2fa4e116101b65780631fa2fa4e1461027b57806323b872dd146102855780632e17de78146102c2578063313ce567146102eb576101e3565b806306fdde03146101e8578063095ea7b31461021357806318160ddd14610250576101e3565b366101e357005b600080fd5b3480156101f457600080fd5b506101fd610763565b60405161020a91906125af565b60405180910390f35b34801561021f57600080fd5b5061023a600480360381019061023591906121cf565b6107f5565b6040516102479190612594565b60405180910390f35b34801561025c57600080fd5b50610265610818565b6040516102729190612831565b60405180910390f35b610283610822565b005b34801561029157600080fd5b506102ac60048036038101906102a79190612180565b6108be565b6040516102b99190612594565b60405180910390f35b3480156102ce57600080fd5b506102e960048036038101906102e4919061220b565b6108ed565b005b3480156102f757600080fd5b50610300610a64565b60405161030d919061284c565b60405180910390f35b61031e610a6d565b005b61033a6004803603810190610335919061220b565b610adb565b005b34801561034857600080fd5b50610363600480360381019061035e91906121cf565b610bdb565b6040516103709190612594565b60405180910390f35b34801561038557600080fd5b506103a0600480360381019061039b91906121cf565b610c85565b005b6103bc60048036038101906103b7919061220b565b610d5d565b005b3480156103ca57600080fd5b506103e560048036038101906103e0919061211b565b610db8565b6040516103f29190612831565b60405180910390f35b34801561040757600080fd5b50610422600480360381019061041d919061211b565b610dd0565b60405161042f9190612831565b60405180910390f35b34801561044457600080fd5b5061045f600480360381019061045a919061211b565b610de8565b60405161046c9190612831565b60405180910390f35b34801561048157600080fd5b5061048a610e30565b005b34801561049857600080fd5b506104b360048036038101906104ae919061211b565b610eb8565b6040516104c09190612831565b60405180910390f35b3480156104d557600080fd5b506104f060048036038101906104eb919061211b565b610ed0565b6040516104fd9190612831565b60405180910390f35b34801561051257600080fd5b5061051b610f19565b6040516105289190612542565b60405180910390f35b34801561053d57600080fd5b50610546610f43565b6040516105539190612831565b60405180910390f35b34801561056857600080fd5b50610571610f53565b60405161057e91906125af565b60405180910390f35b34801561059357600080fd5b506105ae60048036038101906105a991906121cf565b610fe5565b6040516105bb9190612594565b60405180910390f35b3480156105d057600080fd5b506105eb60048036038101906105e6919061220b565b6110cf565b005b3480156105f957600080fd5b50610614600480360381019061060f91906121cf565b61128b565b6040516106219190612594565b60405180910390f35b34801561063657600080fd5b50610651600480360381019061064c919061211b565b6112ae565b60405161065e9190612831565b60405180910390f35b34801561067357600080fd5b5061067c6112f7565b005b34801561068a57600080fd5b5061069361151f565b005b3480156106a157600080fd5b506106bc60048036038101906106b79190612144565b611674565b6040516106c99190612831565b60405180910390f35b3480156106de57600080fd5b506106e76116fb565b6040516106f49190612831565b60405180910390f35b34801561070957600080fd5b50610724600480360381019061071f919061211b565b611700565b005b34801561073257600080fd5b5061074d6004803603810190610748919061211b565b6117f8565b60405161075a9190612831565b60405180910390f35b60606003805461077290612a20565b80601f016020809104026020016040519081016040528092919081815260200182805461079e90612a20565b80156107eb5780601f106107c0576101008083540402835291602001916107eb565b820191906000526020600020905b8154815290600101906020018083116107ce57829003601f168201915b5050505050905090565b60008061080061180a565b905061080d818585611812565b600191505092915050565b6000600254905090565b60003490506000606482610836919061290a565b90503373ffffffffffffffffffffffffffffffffffffffff166108fc829081150290604051600060405180830381858888f1935050505015801561087e573d6000803e3d6000fd5b507f8fafebcaf9d154343dad25669bfa277f4fbacd7ac6b0c4fed522580e040a0f333383836040516108b29392919061255d565b60405180910390a15050565b6000806108c961180a565b90506108d68582856119dd565b6108e1858585611a69565b60019150509392505050565b60008111610930576040517f08c379a000000000000000000000000000000000000000000000000000000000815260040161092790612691565b60405180910390fd5b80600660003373ffffffffffffffffffffffffffffffffffffffff1673ffffffffffffffffffffffffffffffffffffffff1681526020019081526020016000205410156109b2576040517f08c379a00000000000000000000000000000000000000000000000000000000081526004016109a9906126f1565b60405180910390fd5b80600660003373ffffffffffffffffffffffffffffffffffffffff1673ffffffffffffffffffffffffffffffffffffffff1681526020019081526020016000206000828254610a019190612964565b92505081905550610a13303383611a69565b3373ffffffffffffffffffffffffffffffffffffffff167f0f5bb82176feb1b5e747e28471aa92156a04d9f3ab9f45f28e2d704232b93f7582604051610a599190612831565b60405180910390a250565b60006012905090565b6000662386f26fc10000905060008134610a8791906128d9565b905060008111610acc576040517f08c379a0000000000000000000000000000000000000000000000000000000008152600401610ac390612611565b60405180910390fd5b610ad7303383611a69565b5050565b60008111610b1e576040517f08c379a0000000000000000000000000000000000000000000000000000000008152600401610b15906127d1565b60405180910390fd5b60006064670de0b6b3a764000083610b36919061290a565b610b4091906128d9565b905080341015610b85576040517f08c379a0000000000000000000000000000000000000000000000000000000008152600401610b7c90612611565b60405180910390fd5b3073ffffffffffffffffffffffffffffffffffffffff166108fc829081150290604051600060405180830381858888f19350505050158015610bcb573d6000803e3d6000fd5b50610bd7303384611a69565b5050565b600080610be661180a565b9050610c7a818585600160008673ffffffffffffffffffffffffffffffffffffffff1673ffffffffffffffffffffffffffffffffffffffff16815260200190815260200160002060008973ffffffffffffffffffffffffffffffffffffffff1673ffffffffffffffffffffffffffffffffffffffff16815260200190815260200160002054610c759190612883565b611812565b600191505092915050565b610c8d61180a565b73ffffffffffffffffffffffffffffffffffffffff16610cab610f19565b73ffffffffffffffffffffffffffffffffffffffff1614610d01576040517f08c379a0000000000000000000000000000000000000000000000000000000008152600401610cf890612731565b60405180910390fd5b610d0b8282611cea565b8173ffffffffffffffffffffffffffffffffffffffff167f0f6798a560793a54c3bcfe86a93cde1e73087d944c0ea20544137d412139688582604051610d519190612831565b60405180910390a25050565b610d673382611e4a565b3373ffffffffffffffffffffffffffffffffffffffff167fcc16f5dbb4873280815c1ee09dbd06736cffcc184412cf7a71a0fdb75d397ca582604051610dad9190612831565b60405180910390a250565b60066020528060005260406000206000915090505481565b60086020528060005260406000206000915090505481565b60008060008373ffffffffffffffffffffffffffffffffffffffff1673ffffffffffffffffffffffffffffffffffffffff168152602001908152602001600020549050919050565b610e3861180a565b73ffffffffffffffffffffffffffffffffffffffff16610e56610f19565b73ffffffffffffffffffffffffffffffffffffffff1614610eac576040517f08c379a0000000000000000000000000000000000000000000000000000000008152600401610ea390612731565b60405180910390fd5b610eb66000612021565b565b60076020528060005260406000206000915090505481565b6000600760008373ffffffffffffffffffffffffffffffffffffffff1673ffffffffffffffffffffffffffffffffffffffff168152602001908152602001600020549050919050565b6000600560009054906101000a900473ffffffffffffffffffffffffffffffffffffffff16905090565b6000610f4e30610de8565b905090565b606060048054610f6290612a20565b80601f0160208091040260200160405190810160405280929190818152602001828054610f8e90612a20565b8015610fdb5780601f10610fb057610100808354040283529160200191610fdb565b820191906000526020600020905b815481529060010190602001808311610fbe57829003601f168201915b5050505050905090565b600080610ff061180a565b90506000600160008373ffffffffffffffffffffffffffffffffffffffff1673ffffffffffffffffffffffffffffffffffffffff16815260200190815260200160002060008673ffffffffffffffffffffffffffffffffffffffff1673ffffffffffffffffffffffffffffffffffffffff168152602001908152602001600020549050838110156110b6576040517f08c379a00000000000000000000000000000000000000000000000000000000081526004016110ad906127f1565b60405180910390fd5b6110c38286868403611812565b60019250505092915050565b60008111611112576040517f08c379a000000000000000000000000000000000000000000000000000000000815260040161110990612691565b60405180910390fd5b8061111c33610de8565b101561115d576040517f08c379a0000000000000000000000000000000000000000000000000000000008152600401611154906126d1565b60405180910390fd5b42600860003373ffffffffffffffffffffffffffffffffffffffff1673ffffffffffffffffffffffffffffffffffffffff1681526020019081526020016000208190555080600660003373ffffffffffffffffffffffffffffffffffffffff1673ffffffffffffffffffffffffffffffffffffffff168152602001908152602001600020546111ec9190612883565b600660003373ffffffffffffffffffffffffffffffffffffffff1673ffffffffffffffffffffffffffffffffffffffff1681526020019081526020016000208190555061123a333083611a69565b3373ffffffffffffffffffffffffffffffffffffffff167f9e71bc8eea02a63969f509818f2dafb9254532904319f9dbda79b67bd34a5f3d826040516112809190612831565b60405180910390a250565b60008061129661180a565b90506112a3818585611a69565b600191505092915050565b6000600660008373ffffffffffffffffffffffffffffffffffffffff1673ffffffffffffffffffffffffffffffffffffffff168152602001908152602001600020549050919050565b6000600860003373ffffffffffffffffffffffffffffffffffffffff1673ffffffffffffffffffffffffffffffffffffffff16815260200190815260200160002054141561137a576040517f08c379a000000000000000000000000000000000000000000000000000000000815260040161137190612751565b60405180910390fd5b6000600860003373ffffffffffffffffffffffffffffffffffffffff1673ffffffffffffffffffffffffffffffffffffffff16815260200190815260200160002054426113c79190612964565b905060006301e13380600a83600660003373ffffffffffffffffffffffffffffffffffffffff1673ffffffffffffffffffffffffffffffffffffffff1681526020019081526020016000205461141d919061290a565b611427919061290a565b61143191906128d9565b905080600760003373ffffffffffffffffffffffffffffffffffffffff1673ffffffffffffffffffffffffffffffffffffffff16815260200190815260200160002060008282546114829190612883565b9250508190555042600860003373ffffffffffffffffffffffffffffffffffffffff1673ffffffffffffffffffffffffffffffffffffffff168152602001908152602001600020819055503373ffffffffffffffffffffffffffffffffffffffff167f106f923f993c2149d49b4255ff723acafa1f2d94393f561d3eda32ae348f7241826040516115139190612831565b60405180910390a25050565b6000600760003373ffffffffffffffffffffffffffffffffffffffff1673ffffffffffffffffffffffffffffffffffffffff16815260200190815260200160002054116115a1576040517f08c379a000000000000000000000000000000000000000000000000000000000815260040161159890612711565b60405180910390fd5b6000600760003373ffffffffffffffffffffffffffffffffffffffff1673ffffffffffffffffffffffffffffffffffffffff1681526020019081526020016000205490506000600760003373ffffffffffffffffffffffffffffffffffffffff1673ffffffffffffffffffffffffffffffffffffffff168152602001908152602001600020819055503373ffffffffffffffffffffffffffffffffffffffff166108fc829081150290604051600060405180830381858888f19350505050158015611670573d6000803e3d6000fd5b5050565b6000600160008473ffffffffffffffffffffffffffffffffffffffff1673ffffffffffffffffffffffffffffffffffffffff16815260200190815260200160002060008373ffffffffffffffffffffffffffffffffffffffff1673ffffffffffffffffffffffffffffffffffffffff16815260200190815260200160002054905092915050565b600a81565b61170861180a565b73ffffffffffffffffffffffffffffffffffffffff16611726610f19565b73ffffffffffffffffffffffffffffffffffffffff161461177c576040517f08c379a000000000000000000000000000000000000000000000000000000000815260040161177390612731565b60405180910390fd5b600073ffffffffffffffffffffffffffffffffffffffff168173ffffffffffffffffffffffffffffffffffffffff1614156117ec576040517f08c379a00000000000000000000000000000000000000000000000000000000081526004016117e390612631565b60405180910390fd5b6117f581612021565b50565b600061180382610de8565b9050919050565b600033905090565b600073ffffffffffffffffffffffffffffffffffffffff168373ffffffffffffffffffffffffffffffffffffffff161415611882576040517f08c379a0000000000000000000000000000000000000000000000000000000008152600401611879906127b1565b60405180910390fd5b600073ffffffffffffffffffffffffffffffffffffffff168273ffffffffffffffffffffffffffffffffffffffff1614156118f2576040517f08c379a00000000000000000000000000000000000000000000000000000000081526004016118e990612651565b60405180910390fd5b80600160008573ffffffffffffffffffffffffffffffffffffffff1673ffffffffffffffffffffffffffffffffffffffff16815260200190815260200160002060008473ffffffffffffffffffffffffffffffffffffffff1673ffffffffffffffffffffffffffffffffffffffff168152602001908152602001600020819055508173ffffffffffffffffffffffffffffffffffffffff168373ffffffffffffffffffffffffffffffffffffffff167f8c5be1e5ebec7d5bd14f71427d1e84f3dd0314c0f7b2291e5b200ac8c7c3b925836040516119d09190612831565b60405180910390a3505050565b60006119e98484611674565b90507fffffffffffffffffffffffffffffffffffffffffffffffffffffffffffffffff8114611a635781811015611a55576040517f08c379a0000000000000000000000000000000000000000000000000000000008152600401611a4c90612671565b60405180910390fd5b611a628484848403611812565b5b50505050565b600073ffffffffffffffffffffffffffffffffffffffff168373ffffffffffffffffffffffffffffffffffffffff161415611ad9576040517f08c379a0000000000000000000000000000000000000000000000000000000008152600401611ad090612791565b60405180910390fd5b600073ffffffffffffffffffffffffffffffffffffffff168273ffffffffffffffffffffffffffffffffffffffff161415611b49576040517f08c379a0000000000000000000000000000000000000000000000000000000008152600401611b40906125d1565b60405180910390fd5b611b548383836120e7565b60008060008573ffffffffffffffffffffffffffffffffffffffff1673ffffffffffffffffffffffffffffffffffffffff16815260200190815260200160002054905081811015611bda576040517f08c379a0000000000000000000000000000000000000000000000000000000008152600401611bd1906126b1565b60405180910390fd5b8181036000808673ffffffffffffffffffffffffffffffffffffffff1673ffffffffffffffffffffffffffffffffffffffff16815260200190815260200160002081905550816000808573ffffffffffffffffffffffffffffffffffffffff1673ffffffffffffffffffffffffffffffffffffffff1681526020019081526020016000206000828254611c6d9190612883565b925050819055508273ffffffffffffffffffffffffffffffffffffffff168473ffffffffffffffffffffffffffffffffffffffff167fddf252ad1be2c89b69c2b068fc378daa952ba7f163c4a11628f55a4df523b3ef84604051611cd19190612831565b60405180910390a3611ce48484846120ec565b50505050565b600073ffffffffffffffffffffffffffffffffffffffff168273ffffffffffffffffffffffffffffffffffffffff161415611d5a576040517f08c379a0000000000000000000000000000000000000000000000000000000008152600401611d5190612811565b60405180910390fd5b611d66600083836120e7565b8060026000828254611d789190612883565b92505081905550806000808473ffffffffffffffffffffffffffffffffffffffff1673ffffffffffffffffffffffffffffffffffffffff1681526020019081526020016000206000828254611dcd9190612883565b925050819055508173ffffffffffffffffffffffffffffffffffffffff16600073ffffffffffffffffffffffffffffffffffffffff167fddf252ad1be2c89b69c2b068fc378daa952ba7f163c4a11628f55a4df523b3ef83604051611e329190612831565b60405180910390a3611e46600083836120ec565b5050565b600073ffffffffffffffffffffffffffffffffffffffff168273ffffffffffffffffffffffffffffffffffffffff161415611eba576040517f08c379a0000000000000000000000000000000000000000000000000000000008152600401611eb190612771565b60405180910390fd5b611ec6826000836120e7565b60008060008473ffffffffffffffffffffffffffffffffffffffff1673ffffffffffffffffffffffffffffffffffffffff16815260200190815260200160002054905081811015611f4c576040517f08c379a0000000000000000000000000000000000000000000000000000000008152600401611f43906125f1565b60405180910390fd5b8181036000808573ffffffffffffffffffffffffffffffffffffffff1673ffffffffffffffffffffffffffffffffffffffff168152602001908152602001600020819055508160026000828254611fa39190612964565b92505081905550600073ffffffffffffffffffffffffffffffffffffffff168373ffffffffffffffffffffffffffffffffffffffff167fddf252ad1be2c89b69c2b068fc378daa952ba7f163c4a11628f55a4df523b3ef846040516120089190612831565b60405180910390a361201c836000846120ec565b505050565b6000600560009054906101000a900473ffffffffffffffffffffffffffffffffffffffff16905081600560006101000a81548173ffffffffffffffffffffffffffffffffffffffff021916908373ffffffffffffffffffffffffffffffffffffffff1602179055508173ffffffffffffffffffffffffffffffffffffffff168173ffffffffffffffffffffffffffffffffffffffff167f8be0079c531659141344cd1fd0a4f28419497f9722a3daafe3b4186f6b6457e060405160405180910390a35050565b505050565b505050565b60008135905061210081612f77565b92915050565b60008135905061211581612f8e565b92915050565b60006020828403121561212d57600080fd5b600061213b848285016120f1565b91505092915050565b6000806040838503121561215757600080fd5b6000612165858286016120f1565b9250506020612176858286016120f1565b9150509250929050565b60008060006060848603121561219557600080fd5b60006121a3868287016120f1565b93505060206121b4868287016120f1565b92505060406121c586828701612106565b9150509250925092565b600080604083850312156121e257600080fd5b60006121f0858286016120f1565b925050602061220185828601612106565b9150509250929050565b60006020828403121561221d57600080fd5b600061222b84828501612106565b91505092915050565b61223d81612998565b82525050565b61224c816129aa565b82525050565b600061225d82612867565b6122678185612872565b93506122778185602086016129ed565b61228081612adf565b840191505092915050565b6000612298602383612872565b91506122a382612af0565b604082019050919050565b60006122bb602283612872565b91506122c682612b3f565b604082019050919050565b60006122de601583612872565b91506122e982612b8e565b602082019050919050565b6000612301602683612872565b915061230c82612bb7565b604082019050919050565b6000612324602283612872565b915061232f82612c06565b604082019050919050565b6000612347601d83612872565b915061235282612c55565b602082019050919050565b600061236a601d83612872565b915061237582612c7e565b602082019050919050565b600061238d602683612872565b915061239882612ca7565b604082019050919050565b60006123b0601483612872565b91506123bb82612cf6565b602082019050919050565b60006123d3601b83612872565b91506123de82612d1f565b602082019050919050565b60006123f6601683612872565b915061240182612d48565b602082019050919050565b6000612419602083612872565b915061242482612d71565b602082019050919050565b600061243c601383612872565b915061244782612d9a565b602082019050919050565b600061245f602183612872565b915061246a82612dc3565b604082019050919050565b6000612482602583612872565b915061248d82612e12565b604082019050919050565b60006124a5602483612872565b91506124b082612e61565b604082019050919050565b60006124c8602283612872565b91506124d382612eb0565b604082019050919050565b60006124eb602583612872565b91506124f682612eff565b604082019050919050565b600061250e601f83612872565b915061251982612f4e565b602082019050919050565b61252d816129d6565b82525050565b61253c816129e0565b82525050565b60006020820190506125576000830184612234565b92915050565b60006060820190506125726000830186612234565b61257f6020830185612524565b61258c6040830184612524565b949350505050565b60006020820190506125a96000830184612243565b92915050565b600060208201905081810360008301526125c98184612252565b905092915050565b600060208201905081810360008301526125ea8161228b565b9050919050565b6000602082019050818103600083015261260a816122ae565b9050919050565b6000602082019050818103600083015261262a816122d1565b9050919050565b6000602082019050818103600083015261264a816122f4565b9050919050565b6000602082019050818103600083015261266a81612317565b9050919050565b6000602082019050818103600083015261268a8161233a565b9050919050565b600060208201905081810360008301526126aa8161235d565b9050919050565b600060208201905081810360008301526126ca81612380565b9050919050565b600060208201905081810360008301526126ea816123a3565b9050919050565b6000602082019050818103600083015261270a816123c6565b9050919050565b6000602082019050818103600083015261272a816123e9565b9050919050565b6000602082019050818103600083015261274a8161240c565b9050919050565b6000602082019050818103600083015261276a8161242f565b9050919050565b6000602082019050818103600083015261278a81612452565b9050919050565b600060208201905081810360008301526127aa81612475565b9050919050565b600060208201905081810360008301526127ca81612498565b9050919050565b600060208201905081810360008301526127ea816124bb565b9050919050565b6000602082019050818103600083015261280a816124de565b9050919050565b6000602082019050818103600083015261282a81612501565b9050919050565b60006020820190506128466000830184612524565b92915050565b60006020820190506128616000830184612533565b92915050565b600081519050919050565b600082825260208201905092915050565b600061288e826129d6565b9150612899836129d6565b9250827fffffffffffffffffffffffffffffffffffffffffffffffffffffffffffffffff038211156128ce576128cd612a52565b5b828201905092915050565b60006128e4826129d6565b91506128ef836129d6565b9250826128ff576128fe612a81565b5b828204905092915050565b6000612915826129d6565b9150612920836129d6565b9250817fffffffffffffffffffffffffffffffffffffffffffffffffffffffffffffffff048311821515161561295957612958612a52565b5b828202905092915050565b600061296f826129d6565b915061297a836129d6565b92508282101561298d5761298c612a52565b5b828203905092915050565b60006129a3826129b6565b9050919050565b60008115159050919050565b600073ffffffffffffffffffffffffffffffffffffffff82169050919050565b6000819050919050565b600060ff82169050919050565b60005b83811015612a0b5780820151818401526020810190506129f0565b83811115612a1a576000848401525b50505050565b60006002820490506001821680612a3857607f821691505b60208210811415612a4c57612a4b612ab0565b5b50919050565b7f4e487b7100000000000000000000000000000000000000000000000000000000600052601160045260246000fd5b7f4e487b7100000000000000000000000000000000000000000000000000000000600052601260045260246000fd5b7f4e487b7100000000000000000000000000000000000000000000000000000000600052602260045260246000fd5b6000601f19601f8301169050919050565b7f45524332303a207472616e7366657220746f20746865207a65726f206164647260008201527f6573730000000000000000000000000000000000000000000000000000000000602082015250565b7f45524332303a206275726e20616d6f756e7420657863656564732062616c616e60008201527f6365000000000000000000000000000000000000000000000000000000000000602082015250565b7f496e73756666696369656e74204554482073656e740000000000000000000000600082015250565b7f4f776e61626c653a206e6577206f776e657220697320746865207a65726f206160008201527f6464726573730000000000000000000000000000000000000000000000000000602082015250565b7f45524332303a20617070726f766520746f20746865207a65726f20616464726560008201527f7373000000000000000000000000000000000000000000000000000000000000602082015250565b7f45524332303a20696e73756666696369656e7420616c6c6f77616e6365000000600082015250565b7f416d6f756e74206d7573742062652067726561746572207468616e2030000000600082015250565b7f45524332303a207472616e7366657220616d6f756e742065786365656473206260008201527f616c616e63650000000000000000000000000000000000000000000000000000602082015250565b7f496e73756666696369656e742062616c616e6365000000000000000000000000600082015250565b7f496e73756666696369656e74207374616b65642062616c616e63650000000000600082015250565b7f4e6f207265776172647320746f20776974686472617700000000000000000000600082015250565b7f4f776e61626c653a2063616c6c6572206973206e6f7420746865206f776e6572600082015250565b7f4e6f2072657761726420617661696c61626c6500000000000000000000000000600082015250565b7f45524332303a206275726e2066726f6d20746865207a65726f2061646472657360008201527f7300000000000000000000000000000000000000000000000000000000000000602082015250565b7f45524332303a207472616e736665722066726f6d20746865207a65726f20616460008201527f6472657373000000000000000000000000000000000000000000000000000000602082015250565b7f45524332303a20617070726f76652066726f6d20746865207a65726f2061646460008201527f7265737300000000000000000000000000000000000000000000000000000000602082015250565b7f746f6b656e73546f427579206d7573742062652067726561746572207468616e60008201527f2030000000000000000000000000000000000000000000000000000000000000602082015250565b7f45524332303a2064656372656173656420616c6c6f77616e63652062656c6f7760008201527f207a65726f000000000000000000000000000000000000000000000000000000602082015250565b7f45524332303a206d696e7420746f20746865207a65726f206164647265737300600082015250565b612f8081612998565b8114612f8b57600080fd5b50565b612f97816129d6565b8114612fa257600080fd5b5056fea26469706673582212201359e97f07b8eca114390455b0886c47001fb118abea468bebcf29a3dd50830364736f6c63430008040033",
  "immutableReferences": {},
  "source": "\r\npragma solidity ^0.8.4;\r\n\r\n\r\n// SPDX-License-Identifier: MIT\r\nimport \"@openzeppelin/contracts/token/ERC20/ERC20.sol\";\r\nimport \"@openzeppelin/contracts/token/ERC721/ERC721.sol\";\r\nimport \"@openzeppelin/contracts/access/Ownable.sol\";\r\n\r\n\r\n\r\ncontract ChemiCoin is ERC20, Ownable {\r\n\r\n\r\n    //uint256 public constant MAX_SUPPLY = 1000000 * 10**18; // Max total supply of Chemicoins\r\n    mapping(address => uint256) public stakingBalance;\r\n    mapping(address => uint256) public rewardsBalance;\r\n    mapping(address => uint256) public lastRewardClaimTime;\r\n\r\n    event Mint(address indexed to, uint256 amount);\r\n    event Burn(address indexed from, uint256 amount);\r\n    event Staked(address indexed staker, uint256 amount);\r\n    event Unstaked(address indexed staker, uint256 amount);\r\n    event RewardClaimed(address indexed staker, uint256 amount);\r\n    // Evento para registrar la compra de tokens\r\n    event TokensPurchased(address buyer, uint256 amount, uint256 tokensReceived);\r\n\r\n    constructor() ERC20('PigCoin', 'PIG') {\r\n    \r\n        _mint(address(this), 10000 * 10**18);\r\n    }\r\n\r\n    // Visualizacion del balance de tokens ERC-20 de un usuario\r\n    function balanceTokens(address _account) public view returns (uint256){\r\n        return balanceOf(_account);\r\n    }\r\n    \r\n        // Visualizacion del balance de tokens ERC-20 del Smart Contract\r\n    function balanceTokensSC() public view returns (uint256){\r\n        return balanceOf(address(this));\r\n    }\r\n\r\n    function mint(address to, uint256 amount) external onlyOwner {\r\n        //require((totalSupply() + amount) <= MAX_SUPPLY, \"Exceeds max supply\");\r\n        _mint(to, amount);\r\n        emit Mint(to, amount);\r\n    }\r\n\r\n    function burn(uint256 amount) external payable {\r\n        _burn(msg.sender, amount);\r\n        emit Burn(msg.sender, amount);\r\n    }\r\n\r\n    // Funcin para que los usuarios compren tokens\r\n    function buyTokens(uint256 tokensToBuy) public payable {\r\n        require(tokensToBuy > 0, \"tokensToBuy must be greater than 0\");\r\n\r\n        // Calcular el monto de ETH necesario para comprar los tokens (0.01 ETH por token)\r\n        uint256 amount = tokensToBuy * 1 ether / 100;\r\n\r\n        // Verificar si se ha enviado suficiente ETH\r\n        require(msg.value >= amount, \"Insufficient ETH sent\");\r\n\r\n        // Transferir ETH al contrato\r\n        payable(address(this)).transfer(amount);\r\n\r\n        // Transferir tokens al comprador\r\n        _transfer(address(this), msg.sender, tokensToBuy);\r\n    }\r\n\r\n    // Funcin para que los usuarios compren tokens\r\n    function buyTokens2() public payable {\r\n        // Calcular el monto de ETH necesario para comprar un token (0.01 ETH por token)\r\n        uint256 tokenPrice = 0.01 ether;\r\n    \r\n        // Calcular la cantidad de tokens que se comprarn en funcin del valor de msg.value\r\n        uint256 tokensToBuy = msg.value / tokenPrice;\r\n    \r\n        // Verificar si se ha enviado suficiente ETH para comprar al menos un token\r\n        require(tokensToBuy > 0, \"Insufficient ETH sent\");\r\n\r\n        // Transferir tokens al comprador\r\n        _transfer(address(this), msg.sender, tokensToBuy);\r\n    }\r\n\r\n    // Funcin para que los usuarios compren tokens\r\n    function buyTokens3() external payable {\r\n        // Obtiene el monto de ETH enviado por el comprador\r\n        uint256 ethAmount = msg.value;\r\n    \r\n        // Calcula la cantidad de tokens a recibir (por ejemplo, 1 ETH = 100 tokens)\r\n        uint256 tokenAmount = ethAmount * 100; // Suponiendo que 1 ETH equivale a 100 tokens\r\n\r\n        // Transfiere los tokens al comprador\r\n        payable(msg.sender).transfer(tokenAmount);\r\n\r\n        // Emite el evento\r\n        emit TokensPurchased(msg.sender, ethAmount, tokenAmount);\r\n    }\r\n\r\n    function stake(uint256 amount) external {\r\n        require(amount > 0, \"Amount must be greater than 0\");\r\n        require(balanceOf(msg.sender) >= amount, \"Insufficient balance\");\r\n        // Actualizar el tiempo del ltimo stake del 'msg.sender'\r\n        lastRewardClaimTime[msg.sender] = block.timestamp;\r\n        stakingBalance[msg.sender] = stakingBalance[msg.sender] + amount; //.add(amount);\r\n        _transfer(msg.sender, address(this), amount);\r\n        emit Staked(msg.sender, amount);\r\n    }\r\n\r\nfunction unstake(uint256 amount) external {\r\n    require(amount > 0, \"Amount must be greater than 0\");\r\n    require(stakingBalance[msg.sender] >= amount, \"Insufficient staked balance\");\r\n    \r\n    // Restar la cantidad 'amount' del balance de staking del 'msg.sender'\r\n    stakingBalance[msg.sender] -= amount;\r\n    \r\n    // Transferir la cantidad 'amount' de tokens desde el contrato al 'msg.sender'\r\n    _transfer(address(this), msg.sender, amount);\r\n    \r\n    emit Unstaked(msg.sender, amount);\r\n}\r\n\r\nuint256 constant public APY = 10; // 10% APY\r\n\r\n// Funcin para reclamar recompensa\r\nfunction claimReward() external {\r\n    require(lastRewardClaimTime[msg.sender] != 0, \"No reward available\");\r\n    \r\n    uint256 timeElapsed = block.timestamp - lastRewardClaimTime[msg.sender];\r\n    uint256 reward = stakingBalance[msg.sender] * timeElapsed * APY / (365 days); // Calcular recompensa basada en tiempo y APY\r\n    rewardsBalance[msg.sender] += reward;\r\n    lastRewardClaimTime[msg.sender] = block.timestamp; // Actualizar el tiempo de la ltima reclamacin\r\n    \r\n    emit RewardClaimed(msg.sender, reward);\r\n}\r\n\r\n// Funcin para retirar recompensa\r\nfunction withdrawReward() external {\r\n    require(rewardsBalance[msg.sender] > 0, \"No rewards to withdraw\");\r\n    \r\n    uint256 reward = rewardsBalance[msg.sender];\r\n    rewardsBalance[msg.sender] = 0;\r\n    payable(msg.sender).transfer(reward);\r\n}\r\n\r\nfunction calculateReward(address account) internal view returns (uint256) {\r\n    uint256 timeElapsed = block.timestamp - lastRewardClaimTime[account];\r\n    uint256 reward = (stakingBalance[account] * APY * timeElapsed) / (365 * 24 * 60 * 60 * 100); // APY * timeElapsed / 365 days\r\n    return reward;\r\n}\r\n\r\n    // Funcin para obtener el saldo de tokens en staking de un usuario\r\n    function getStakingBalance(address account) public view returns (uint256) {\r\n        return stakingBalance[account];\r\n    }\r\n\r\n    // Funcin para obtener el saldo de recompensas acumuladas de un usuario\r\n    function getRewardsBalance(address account) public view returns (uint256) {\r\n        return rewardsBalance[account];\r\n    }\r\n    \r\n    receive() external payable {\r\n        // Funcin de respaldo para aceptar Ether\r\n    }\r\n\r\n}\r\n",
  "sourcePath": "C:\\Users\\jcord\\Documents\\Master_BC\\PigCoins\\src\\contracts\\ChemiCoin.sol",
  "compiler": {
    "name": "solc",
    "version": "0.8.4+commit.c7e474f2.Emscripten.clang"
  },
  "schemaVersion": "3.4.16",
  "updatedAt": "2024-03-21T17:11:43.648Z",
  "devdoc": {
    "kind": "dev",
    "methods": {
      "allowance(address,address)": {
        "details": "See {IERC20-allowance}."
      },
      "approve(address,uint256)": {
        "details": "See {IERC20-approve}. NOTE: If `amount` is the maximum `uint256`, the allowance is not updated on `transferFrom`. This is semantically equivalent to an infinite approval. Requirements: - `spender` cannot be the zero address."
      },
      "balanceOf(address)": {
        "details": "See {IERC20-balanceOf}."
      },
      "decimals()": {
        "details": "Returns the number of decimals used to get its user representation. For example, if `decimals` equals `2`, a balance of `505` tokens should be displayed to a user as `5.05` (`505 / 10 ** 2`). Tokens usually opt for a value of 18, imitating the relationship between Ether and Wei. This is the value {ERC20} uses, unless this function is overridden; NOTE: This information is only used for _display_ purposes: it in no way affects any of the arithmetic of the contract, including {IERC20-balanceOf} and {IERC20-transfer}."
      },
      "decreaseAllowance(address,uint256)": {
        "details": "Atomically decreases the allowance granted to `spender` by the caller. This is an alternative to {approve} that can be used as a mitigation for problems described in {IERC20-approve}. Emits an {Approval} event indicating the updated allowance. Requirements: - `spender` cannot be the zero address. - `spender` must have allowance for the caller of at least `subtractedValue`."
      },
      "increaseAllowance(address,uint256)": {
        "details": "Atomically increases the allowance granted to `spender` by the caller. This is an alternative to {approve} that can be used as a mitigation for problems described in {IERC20-approve}. Emits an {Approval} event indicating the updated allowance. Requirements: - `spender` cannot be the zero address."
      },
      "name()": {
        "details": "Returns the name of the token."
      },
      "owner()": {
        "details": "Returns the address of the current owner."
      },
      "renounceOwnership()": {
        "details": "Leaves the contract without owner. It will not be possible to call `onlyOwner` functions anymore. Can only be called by the current owner. NOTE: Renouncing ownership will leave the contract without an owner, thereby removing any functionality that is only available to the owner."
      },
      "symbol()": {
        "details": "Returns the symbol of the token, usually a shorter version of the name."
      },
      "totalSupply()": {
        "details": "See {IERC20-totalSupply}."
      },
      "transfer(address,uint256)": {
        "details": "See {IERC20-transfer}. Requirements: - `to` cannot be the zero address. - the caller must have a balance of at least `amount`."
      },
      "transferFrom(address,address,uint256)": {
        "details": "See {IERC20-transferFrom}. Emits an {Approval} event indicating the updated allowance. This is not required by the EIP. See the note at the beginning of {ERC20}. NOTE: Does not update the allowance if the current allowance is the maximum `uint256`. Requirements: - `from` and `to` cannot be the zero address. - `from` must have a balance of at least `amount`. - the caller must have allowance for ``from``'s tokens of at least `amount`."
      },
      "transferOwnership(address)": {
        "details": "Transfers ownership of the contract to a new account (`newOwner`). Can only be called by the current owner."
      }
    },
    "version": 1
  },
  "userdoc": {
    "kind": "user",
    "methods": {},
    "version": 1
  }
}