{
  "contractName": "ChemiCoin",
  "abi": [
    {
      "inputs": [
        {
          "internalType": "string",
          "name": "_name",
          "type": "string"
        },
        {
          "internalType": "string",
          "name": "_symbol",
          "type": "string"
        },
        {
          "internalType": "address",
          "name": "initialOwner",
          "type": "address"
        }
      ],
      "stateMutability": "nonpayable",
      "type": "constructor"
    },
    {
      "inputs": [
        {
          "internalType": "address",
          "name": "spender",
          "type": "address"
        },
        {
          "internalType": "uint256",
          "name": "allowance",
          "type": "uint256"
        },
        {
          "internalType": "uint256",
          "name": "needed",
          "type": "uint256"
        }
      ],
      "name": "ERC20InsufficientAllowance",
      "type": "error"
    },
    {
      "inputs": [
        {
          "internalType": "address",
          "name": "sender",
          "type": "address"
        },
        {
          "internalType": "uint256",
          "name": "balance",
          "type": "uint256"
        },
        {
          "internalType": "uint256",
          "name": "needed",
          "type": "uint256"
        }
      ],
      "name": "ERC20InsufficientBalance",
      "type": "error"
    },
    {
      "inputs": [
        {
          "internalType": "address",
          "name": "approver",
          "type": "address"
        }
      ],
      "name": "ERC20InvalidApprover",
      "type": "error"
    },
    {
      "inputs": [
        {
          "internalType": "address",
          "name": "receiver",
          "type": "address"
        }
      ],
      "name": "ERC20InvalidReceiver",
      "type": "error"
    },
    {
      "inputs": [
        {
          "internalType": "address",
          "name": "sender",
          "type": "address"
        }
      ],
      "name": "ERC20InvalidSender",
      "type": "error"
    },
    {
      "inputs": [
        {
          "internalType": "address",
          "name": "spender",
          "type": "address"
        }
      ],
      "name": "ERC20InvalidSpender",
      "type": "error"
    },
    {
      "inputs": [
        {
          "internalType": "address",
          "name": "owner",
          "type": "address"
        }
      ],
      "name": "OwnableInvalidOwner",
      "type": "error"
    },
    {
      "inputs": [
        {
          "internalType": "address",
          "name": "account",
          "type": "address"
        }
      ],
      "name": "OwnableUnauthorizedAccount",
      "type": "error"
    },
    {
      "anonymous": false,
      "inputs": [
        {
          "indexed": true,
          "internalType": "address",
          "name": "owner",
          "type": "address"
        },
        {
          "indexed": true,
          "internalType": "address",
          "name": "spender",
          "type": "address"
        },
        {
          "indexed": false,
          "internalType": "uint256",
          "name": "value",
          "type": "uint256"
        }
      ],
      "name": "Approval",
      "type": "event"
    },
    {
      "anonymous": false,
      "inputs": [
        {
          "indexed": true,
          "internalType": "address",
          "name": "from",
          "type": "address"
        },
        {
          "indexed": false,
          "internalType": "uint256",
          "name": "amount",
          "type": "uint256"
        }
      ],
      "name": "Burn",
      "type": "event"
    },
    {
      "anonymous": false,
      "inputs": [
        {
          "indexed": true,
          "internalType": "address",
          "name": "to",
          "type": "address"
        },
        {
          "indexed": false,
          "internalType": "uint256",
          "name": "amount",
          "type": "uint256"
        }
      ],
      "name": "Mint",
      "type": "event"
    },
    {
      "anonymous": false,
      "inputs": [
        {
          "indexed": true,
          "internalType": "address",
          "name": "previousOwner",
          "type": "address"
        },
        {
          "indexed": true,
          "internalType": "address",
          "name": "newOwner",
          "type": "address"
        }
      ],
      "name": "OwnershipTransferred",
      "type": "event"
    },
    {
      "anonymous": false,
      "inputs": [
        {
          "indexed": true,
          "internalType": "address",
          "name": "staker",
          "type": "address"
        },
        {
          "indexed": false,
          "internalType": "uint256",
          "name": "amount",
          "type": "uint256"
        }
      ],
      "name": "RewardClaimed",
      "type": "event"
    },
    {
      "anonymous": false,
      "inputs": [
        {
          "indexed": true,
          "internalType": "address",
          "name": "staker",
          "type": "address"
        },
        {
          "indexed": false,
          "internalType": "uint256",
          "name": "amount",
          "type": "uint256"
        }
      ],
      "name": "Staked",
      "type": "event"
    },
    {
      "anonymous": false,
      "inputs": [
        {
          "indexed": false,
          "internalType": "address",
          "name": "buyer",
          "type": "address"
        },
        {
          "indexed": false,
          "internalType": "uint256",
          "name": "amount",
          "type": "uint256"
        },
        {
          "indexed": false,
          "internalType": "uint256",
          "name": "tokensReceived",
          "type": "uint256"
        }
      ],
      "name": "TokensPurchased",
      "type": "event"
    },
    {
      "anonymous": false,
      "inputs": [
        {
          "indexed": true,
          "internalType": "address",
          "name": "from",
          "type": "address"
        },
        {
          "indexed": true,
          "internalType": "address",
          "name": "to",
          "type": "address"
        },
        {
          "indexed": false,
          "internalType": "uint256",
          "name": "value",
          "type": "uint256"
        }
      ],
      "name": "Transfer",
      "type": "event"
    },
    {
      "anonymous": false,
      "inputs": [
        {
          "indexed": true,
          "internalType": "address",
          "name": "staker",
          "type": "address"
        },
        {
          "indexed": false,
          "internalType": "uint256",
          "name": "amount",
          "type": "uint256"
        }
      ],
      "name": "Unstaked",
      "type": "event"
    },
    {
      "inputs": [],
      "name": "APY",
      "outputs": [
        {
          "internalType": "uint256",
          "name": "",
          "type": "uint256"
        }
      ],
      "stateMutability": "view",
      "type": "function"
    },
    {
      "inputs": [
        {
          "internalType": "address",
          "name": "owner",
          "type": "address"
        },
        {
          "internalType": "address",
          "name": "spender",
          "type": "address"
        }
      ],
      "name": "allowance",
      "outputs": [
        {
          "internalType": "uint256",
          "name": "",
          "type": "uint256"
        }
      ],
      "stateMutability": "view",
      "type": "function"
    },
    {
      "inputs": [
        {
          "internalType": "address",
          "name": "spender",
          "type": "address"
        },
        {
          "internalType": "uint256",
          "name": "value",
          "type": "uint256"
        }
      ],
      "name": "approve",
      "outputs": [
        {
          "internalType": "bool",
          "name": "",
          "type": "bool"
        }
      ],
      "stateMutability": "nonpayable",
      "type": "function"
    },
    {
      "inputs": [
        {
          "internalType": "address",
          "name": "account",
          "type": "address"
        }
      ],
      "name": "balanceOf",
      "outputs": [
        {
          "internalType": "uint256",
          "name": "",
          "type": "uint256"
        }
      ],
      "stateMutability": "view",
      "type": "function"
    },
    {
      "inputs": [],
      "name": "decimals",
      "outputs": [
        {
          "internalType": "uint8",
          "name": "",
          "type": "uint8"
        }
      ],
      "stateMutability": "view",
      "type": "function"
    },
    {
      "inputs": [
        {
          "internalType": "address",
          "name": "",
          "type": "address"
        }
      ],
      "name": "lastRewardClaimTime",
      "outputs": [
        {
          "internalType": "uint256",
          "name": "",
          "type": "uint256"
        }
      ],
      "stateMutability": "view",
      "type": "function"
    },
    {
      "inputs": [],
      "name": "name",
      "outputs": [
        {
          "internalType": "string",
          "name": "",
          "type": "string"
        }
      ],
      "stateMutability": "view",
      "type": "function"
    },
    {
      "inputs": [],
      "name": "owner",
      "outputs": [
        {
          "internalType": "address",
          "name": "",
          "type": "address"
        }
      ],
      "stateMutability": "view",
      "type": "function"
    },
    {
      "inputs": [],
      "name": "renounceOwnership",
      "outputs": [],
      "stateMutability": "nonpayable",
      "type": "function"
    },
    {
      "inputs": [
        {
          "internalType": "address",
          "name": "",
          "type": "address"
        }
      ],
      "name": "rewardsBalance",
      "outputs": [
        {
          "internalType": "uint256",
          "name": "",
          "type": "uint256"
        }
      ],
      "stateMutability": "view",
      "type": "function"
    },
    {
      "inputs": [
        {
          "internalType": "address",
          "name": "",
          "type": "address"
        }
      ],
      "name": "stakingBalance",
      "outputs": [
        {
          "internalType": "uint256",
          "name": "",
          "type": "uint256"
        }
      ],
      "stateMutability": "view",
      "type": "function"
    },
    {
      "inputs": [],
      "name": "symbol",
      "outputs": [
        {
          "internalType": "string",
          "name": "",
          "type": "string"
        }
      ],
      "stateMutability": "view",
      "type": "function"
    },
    {
      "inputs": [],
      "name": "totalSupply",
      "outputs": [
        {
          "internalType": "uint256",
          "name": "",
          "type": "uint256"
        }
      ],
      "stateMutability": "view",
      "type": "function"
    },
    {
      "inputs": [
        {
          "internalType": "address",
          "name": "to",
          "type": "address"
        },
        {
          "internalType": "uint256",
          "name": "value",
          "type": "uint256"
        }
      ],
      "name": "transfer",
      "outputs": [
        {
          "internalType": "bool",
          "name": "",
          "type": "bool"
        }
      ],
      "stateMutability": "nonpayable",
      "type": "function"
    },
    {
      "inputs": [
        {
          "internalType": "address",
          "name": "from",
          "type": "address"
        },
        {
          "internalType": "address",
          "name": "to",
          "type": "address"
        },
        {
          "internalType": "uint256",
          "name": "value",
          "type": "uint256"
        }
      ],
      "name": "transferFrom",
      "outputs": [
        {
          "internalType": "bool",
          "name": "",
          "type": "bool"
        }
      ],
      "stateMutability": "nonpayable",
      "type": "function"
    },
    {
      "inputs": [
        {
          "internalType": "address",
          "name": "newOwner",
          "type": "address"
        }
      ],
      "name": "transferOwnership",
      "outputs": [],
      "stateMutability": "nonpayable",
      "type": "function"
    },
    {
      "stateMutability": "payable",
      "type": "receive"
    },
    {
      "inputs": [
        {
          "internalType": "address",
          "name": "to",
          "type": "address"
        },
        {
          "internalType": "uint256",
          "name": "amount",
          "type": "uint256"
        }
      ],
      "name": "mint",
      "outputs": [],
      "stateMutability": "nonpayable",
      "type": "function"
    },
    {
      "inputs": [
        {
          "internalType": "uint256",
          "name": "amount",
          "type": "uint256"
        }
      ],
      "name": "burn",
      "outputs": [],
      "stateMutability": "payable",
      "type": "function"
    },
    {
      "inputs": [
        {
          "internalType": "uint256",
          "name": "tokensToBuy",
          "type": "uint256"
        }
      ],
      "name": "buyTokens",
      "outputs": [],
      "stateMutability": "payable",
      "type": "function"
    },
    {
      "inputs": [],
      "name": "buyTokens2",
      "outputs": [],
      "stateMutability": "payable",
      "type": "function"
    },
    {
      "inputs": [],
      "name": "buyTokens3",
      "outputs": [],
      "stateMutability": "payable",
      "type": "function"
    },
    {
      "inputs": [
        {
          "internalType": "uint256",
          "name": "amount",
          "type": "uint256"
        }
      ],
      "name": "stake",
      "outputs": [],
      "stateMutability": "nonpayable",
      "type": "function"
    },
    {
      "inputs": [
        {
          "internalType": "uint256",
          "name": "amount",
          "type": "uint256"
        }
      ],
      "name": "unstake",
      "outputs": [],
      "stateMutability": "nonpayable",
      "type": "function"
    },
    {
      "inputs": [],
      "name": "claimReward",
      "outputs": [],
      "stateMutability": "nonpayable",
      "type": "function"
    },
    {
      "inputs": [],
      "name": "withdrawReward",
      "outputs": [],
      "stateMutability": "nonpayable",
      "type": "function"
    },
    {
      "inputs": [
        {
          "internalType": "address",
          "name": "account",
          "type": "address"
        }
      ],
      "name": "getStakingBalance",
      "outputs": [
        {
          "internalType": "uint256",
          "name": "",
          "type": "uint256"
        }
      ],
      "stateMutability": "view",
      "type": "function"
    },
    {
      "inputs": [
        {
          "internalType": "address",
          "name": "account",
          "type": "address"
        }
      ],
      "name": "getRewardsBalance",
      "outputs": [
        {
          "internalType": "uint256",
          "name": "",
          "type": "uint256"
        }
      ],
      "stateMutability": "view",
      "type": "function"
    }
  ],
  "bytecode": "0x608060405234801562000010575f80fd5b5060405162002e5938038062002e59833981810160405281019062000036919062000660565b80838381600390816200004a91906200092e565b5080600490816200005c91906200092e565b5050505f73ffffffffffffffffffffffffffffffffffffffff168173ffffffffffffffffffffffffffffffffffffffff1603620000d2575f6040517f1e4fbdf7000000000000000000000000000000000000000000000000000000008152600401620000c9919062000a23565b60405180910390fd5b620000e3816200010960201b60201c565b50620001003069021e19e0c9bab2400000620001cc60201b60201c565b50505062000b0c565b5f60055f9054906101000a900473ffffffffffffffffffffffffffffffffffffffff1690508160055f6101000a81548173ffffffffffffffffffffffffffffffffffffffff021916908373ffffffffffffffffffffffffffffffffffffffff1602179055508173ffffffffffffffffffffffffffffffffffffffff168173ffffffffffffffffffffffffffffffffffffffff167f8be0079c531659141344cd1fd0a4f28419497f9722a3daafe3b4186f6b6457e060405160405180910390a35050565b5f73ffffffffffffffffffffffffffffffffffffffff168273ffffffffffffffffffffffffffffffffffffffff16036200023f575f6040517fec442f0500000000000000000000000000000000000000000000000000000000815260040162000236919062000a23565b60405180910390fd5b620002525f83836200025660201b60201c565b5050565b5f73ffffffffffffffffffffffffffffffffffffffff168373ffffffffffffffffffffffffffffffffffffffff1603620002aa578060025f8282546200029d919062000a6b565b925050819055506200037b565b5f805f8573ffffffffffffffffffffffffffffffffffffffff1673ffffffffffffffffffffffffffffffffffffffff1681526020019081526020015f205490508181101562000336578381836040517fe450d38c0000000000000000000000000000000000000000000000000000000081526004016200032d9392919062000ab6565b60405180910390fd5b8181035f808673ffffffffffffffffffffffffffffffffffffffff1673ffffffffffffffffffffffffffffffffffffffff1681526020019081526020015f2081905550505b5f73ffffffffffffffffffffffffffffffffffffffff168273ffffffffffffffffffffffffffffffffffffffff1603620003c4578060025f82825403925050819055506200040e565b805f808473ffffffffffffffffffffffffffffffffffffffff1673ffffffffffffffffffffffffffffffffffffffff1681526020019081526020015f205f82825401925050819055505b8173ffffffffffffffffffffffffffffffffffffffff168373ffffffffffffffffffffffffffffffffffffffff167fddf252ad1be2c89b69c2b068fc378daa952ba7f163c4a11628f55a4df523b3ef836040516200046d919062000af1565b60405180910390a3505050565b5f604051905090565b5f80fd5b5f80fd5b5f80fd5b5f80fd5b5f601f19601f8301169050919050565b7f4e487b71000000000000000000000000000000000000000000000000000000005f52604160045260245ffd5b620004db8262000493565b810181811067ffffffffffffffff82111715620004fd57620004fc620004a3565b5b80604052505050565b5f620005116200047a565b90506200051f8282620004d0565b919050565b5f67ffffffffffffffff821115620005415762000540620004a3565b5b6200054c8262000493565b9050602081019050919050565b5f5b83811015620005785780820151818401526020810190506200055b565b5f8484015250505050565b5f62000599620005938462000524565b62000506565b905082815260208101848484011115620005b857620005b76200048f565b5b620005c584828562000559565b509392505050565b5f82601f830112620005e457620005e36200048b565b5b8151620005f684826020860162000583565b91505092915050565b5f73ffffffffffffffffffffffffffffffffffffffff82169050919050565b5f6200062a82620005ff565b9050919050565b6200063c816200061e565b811462000647575f80fd5b50565b5f815190506200065a8162000631565b92915050565b5f805f606084860312156200067a576200067962000483565b5b5f84015167ffffffffffffffff8111156200069a576200069962000487565b5b620006a886828701620005cd565b935050602084015167ffffffffffffffff811115620006cc57620006cb62000487565b5b620006da86828701620005cd565b9250506040620006ed868287016200064a565b9150509250925092565b5f81519050919050565b7f4e487b71000000000000000000000000000000000000000000000000000000005f52602260045260245ffd5b5f60028204905060018216806200074657607f821691505b6020821081036200075c576200075b62000701565b5b50919050565b5f819050815f5260205f209050919050565b5f6020601f8301049050919050565b5f82821b905092915050565b5f60088302620007c07fffffffffffffffffffffffffffffffffffffffffffffffffffffffffffffffff8262000783565b620007cc868362000783565b95508019841693508086168417925050509392505050565b5f819050919050565b5f819050919050565b5f62000816620008106200080a84620007e4565b620007ed565b620007e4565b9050919050565b5f819050919050565b6200083183620007f6565b6200084962000840826200081d565b8484546200078f565b825550505050565b5f90565b6200085f62000851565b6200086c81848462000826565b505050565b5b818110156200089357620008875f8262000855565b60018101905062000872565b5050565b601f821115620008e257620008ac8162000762565b620008b78462000774565b81016020851015620008c7578190505b620008df620008d68562000774565b83018262000871565b50505b505050565b5f82821c905092915050565b5f620009045f1984600802620008e7565b1980831691505092915050565b5f6200091e8383620008f3565b9150826002028217905092915050565b6200093982620006f7565b67ffffffffffffffff811115620009555762000954620004a3565b5b6200096182546200072e565b6200096e82828562000897565b5f60209050601f831160018114620009a4575f84156200098f578287015190505b6200099b858262000911565b86555062000a0a565b601f198416620009b48662000762565b5f5b82811015620009dd57848901518255600182019150602085019450602081019050620009b6565b86831015620009fd5784890151620009f9601f891682620008f3565b8355505b6001600288020188555050505b505050505050565b62000a1d816200061e565b82525050565b5f60208201905062000a385f83018462000a12565b92915050565b7f4e487b71000000000000000000000000000000000000000000000000000000005f52601160045260245ffd5b5f62000a7782620007e4565b915062000a8483620007e4565b925082820190508082111562000a9f5762000a9e62000a3e565b5b92915050565b62000ab081620007e4565b82525050565b5f60608201905062000acb5f83018662000a12565b62000ada602083018562000aa5565b62000ae9604083018462000aa5565b949350505050565b5f60208201905062000b065f83018462000aa5565b92915050565b61233f8062000b1a5f395ff3fe60806040526004361061019f575f3560e01c806370a08231116100eb578063a9059cbb11610089578063c885bc5811610063578063c885bc5814610588578063dd62ed3e1461059e578063ef8bd305146105da578063f2fde38b14610604576101a6565b8063a9059cbb146104fa578063b04ef9c214610536578063b88a802f14610572576101a6565b80638a67f4bf116100c55780638a67f4bf146104425780638da5cb5b1461047e57806395d89b41146104a8578063a694fc3a146104d2576101a6565b806370a08231146103b4578063715018a6146103f0578063896bdac814610406576101a6565b8063313ce5671161015857806340c10f191161013257806340c10f19146102f857806342966c681461032057806345bc78ab1461033c5780636c430dbb14610378576101a6565b8063313ce567146102a8578063352186c0146102d25780633610724e146102dc576101a6565b806306fdde03146101aa578063095ea7b3146101d457806318160ddd146102105780631fa2fa4e1461023a57806323b872dd146102445780632e17de7814610280576101a6565b366101a657005b5f80fd5b3480156101b5575f80fd5b506101be61062c565b6040516101cb9190611bbe565b60405180910390f35b3480156101df575f80fd5b506101fa60048036038101906101f59190611c6f565b6106bc565b6040516102079190611cc7565b60405180910390f35b34801561021b575f80fd5b506102246106de565b6040516102319190611cef565b60405180910390f35b6102426106e7565b005b34801561024f575f80fd5b5061026a60048036038101906102659190611d08565b61077e565b6040516102779190611cc7565b60405180910390f35b34801561028b575f80fd5b506102a660048036038101906102a19190611d58565b6107ac565b005b3480156102b3575f80fd5b506102bc61091d565b6040516102c99190611d9e565b60405180910390f35b6102da610925565b005b6102f660048036038101906102f19190611d58565b610990565b005b348015610303575f80fd5b5061031e60048036038101906103199190611c6f565b610a8b565b005b61033a60048036038101906103359190611d58565b610aef565b005b348015610347575f80fd5b50610362600480360381019061035d9190611db7565b610b4a565b60405161036f9190611cef565b60405180910390f35b348015610383575f80fd5b5061039e60048036038101906103999190611db7565b610b5f565b6040516103ab9190611cef565b60405180910390f35b3480156103bf575f80fd5b506103da60048036038101906103d59190611db7565b610b74565b6040516103e79190611cef565b60405180910390f35b3480156103fb575f80fd5b50610404610bb9565b005b348015610411575f80fd5b5061042c60048036038101906104279190611db7565b610bcc565b6040516104399190611cef565b60405180910390f35b34801561044d575f80fd5b5061046860048036038101906104639190611db7565b610be1565b6040516104759190611cef565b60405180910390f35b348015610489575f80fd5b50610492610c27565b60405161049f9190611df1565b60405180910390f35b3480156104b3575f80fd5b506104bc610c4f565b6040516104c99190611bbe565b60405180910390f35b3480156104dd575f80fd5b506104f860048036038101906104f39190611d58565b610cdf565b005b348015610505575f80fd5b50610520600480360381019061051b9190611c6f565b610e94565b60405161052d9190611cc7565b60405180910390f35b348015610541575f80fd5b5061055c60048036038101906105579190611db7565b610eb6565b6040516105699190611cef565b60405180910390f35b34801561057d575f80fd5b50610586610efc565b005b348015610593575f80fd5b5061059c611115565b005b3480156105a9575f80fd5b506105c460048036038101906105bf9190611e0a565b61125e565b6040516105d19190611cef565b60405180910390f35b3480156105e5575f80fd5b506105ee6112e0565b6040516105fb9190611cef565b60405180910390f35b34801561060f575f80fd5b5061062a60048036038101906106259190611db7565b6112e5565b005b60606003805461063b90611e75565b80601f016020809104026020016040519081016040528092919081815260200182805461066790611e75565b80156106b25780601f10610689576101008083540402835291602001916106b2565b820191905f5260205f20905b81548152906001019060200180831161069557829003601f168201915b5050505050905090565b5f806106c6611369565b90506106d3818585611370565b600191505092915050565b5f600254905090565b5f3490505f6064826106f99190611ed2565b90503373ffffffffffffffffffffffffffffffffffffffff166108fc8290811502906040515f60405180830381858888f1935050505015801561073e573d5f803e3d5ffd5b507f8fafebcaf9d154343dad25669bfa277f4fbacd7ac6b0c4fed522580e040a0f3333838360405161077293929190611f13565b60405180910390a15050565b5f80610788611369565b9050610795858285611382565b6107a0858585611414565b60019150509392505050565b5f81116107ee576040517f08c379a00000000000000000000000000000000000000000000000000000000081526004016107e590611f92565b60405180910390fd5b8060075f3373ffffffffffffffffffffffffffffffffffffffff1673ffffffffffffffffffffffffffffffffffffffff1681526020019081526020015f2054101561086e576040517f08c379a000000000000000000000000000000000000000000000000000000000815260040161086590611ffa565b60405180910390fd5b8060075f3373ffffffffffffffffffffffffffffffffffffffff1673ffffffffffffffffffffffffffffffffffffffff1681526020019081526020015f205f8282546108ba9190612018565b925050819055506108cc303383611414565b3373ffffffffffffffffffffffffffffffffffffffff167f0f5bb82176feb1b5e747e28471aa92156a04d9f3ab9f45f28e2d704232b93f75826040516109129190611cef565b60405180910390a250565b5f6012905090565b5f662386f26fc1000090505f813461093d9190612078565b90505f8111610981576040517f08c379a0000000000000000000000000000000000000000000000000000000008152600401610978906120f2565b60405180910390fd5b61098c303383611414565b5050565b5f81116109d2576040517f08c379a00000000000000000000000000000000000000000000000000000000081526004016109c990612180565b60405180910390fd5b5f6064670de0b6b3a7640000836109e99190611ed2565b6109f39190612078565b905080341015610a38576040517f08c379a0000000000000000000000000000000000000000000000000000000008152600401610a2f906120f2565b60405180910390fd5b3073ffffffffffffffffffffffffffffffffffffffff166108fc8290811502906040515f60405180830381858888f19350505050158015610a7b573d5f803e3d5ffd5b50610a87303384611414565b5050565b610a93611504565b610a9d828261158b565b8173ffffffffffffffffffffffffffffffffffffffff167f0f6798a560793a54c3bcfe86a93cde1e73087d944c0ea20544137d412139688582604051610ae39190611cef565b60405180910390a25050565b610af9338261160a565b3373ffffffffffffffffffffffffffffffffffffffff167fcc16f5dbb4873280815c1ee09dbd06736cffcc184412cf7a71a0fdb75d397ca582604051610b3f9190611cef565b60405180910390a250565b6007602052805f5260405f205f915090505481565b6009602052805f5260405f205f915090505481565b5f805f8373ffffffffffffffffffffffffffffffffffffffff1673ffffffffffffffffffffffffffffffffffffffff1681526020019081526020015f20549050919050565b610bc1611504565b610bca5f611689565b565b6008602052805f5260405f205f915090505481565b5f60085f8373ffffffffffffffffffffffffffffffffffffffff1673ffffffffffffffffffffffffffffffffffffffff1681526020019081526020015f20549050919050565b5f60055f9054906101000a900473ffffffffffffffffffffffffffffffffffffffff16905090565b606060048054610c5e90611e75565b80601f0160208091040260200160405190810160405280929190818152602001828054610c8a90611e75565b8015610cd55780601f10610cac57610100808354040283529160200191610cd5565b820191905f5260205f20905b815481529060010190602001808311610cb857829003601f168201915b5050505050905090565b5f8111610d21576040517f08c379a0000000000000000000000000000000000000000000000000000000008152600401610d1890611f92565b60405180910390fd5b80610d2b33610b74565b1015610d6c576040517f08c379a0000000000000000000000000000000000000000000000000000000008152600401610d63906121e8565b60405180910390fd5b4260095f3373ffffffffffffffffffffffffffffffffffffffff1673ffffffffffffffffffffffffffffffffffffffff1681526020019081526020015f20819055508060075f3373ffffffffffffffffffffffffffffffffffffffff1673ffffffffffffffffffffffffffffffffffffffff1681526020019081526020015f2054610df79190612206565b60075f3373ffffffffffffffffffffffffffffffffffffffff1673ffffffffffffffffffffffffffffffffffffffff1681526020019081526020015f2081905550610e43333083611414565b3373ffffffffffffffffffffffffffffffffffffffff167f9e71bc8eea02a63969f509818f2dafb9254532904319f9dbda79b67bd34a5f3d82604051610e899190611cef565b60405180910390a250565b5f80610e9e611369565b9050610eab818585611414565b600191505092915050565b5f60075f8373ffffffffffffffffffffffffffffffffffffffff1673ffffffffffffffffffffffffffffffffffffffff1681526020019081526020015f20549050919050565b5f60095f3373ffffffffffffffffffffffffffffffffffffffff1673ffffffffffffffffffffffffffffffffffffffff1681526020019081526020015f205403610f7b576040517f08c379a0000000000000000000000000000000000000000000000000000000008152600401610f7290612283565b60405180910390fd5b5f60095f3373ffffffffffffffffffffffffffffffffffffffff1673ffffffffffffffffffffffffffffffffffffffff1681526020019081526020015f205442610fc59190612018565b90505f6301e13380600a8360075f3373ffffffffffffffffffffffffffffffffffffffff1673ffffffffffffffffffffffffffffffffffffffff1681526020019081526020015f20546110189190611ed2565b6110229190611ed2565b61102c9190612078565b90508060085f3373ffffffffffffffffffffffffffffffffffffffff1673ffffffffffffffffffffffffffffffffffffffff1681526020019081526020015f205f82825461107a9190612206565b925050819055504260095f3373ffffffffffffffffffffffffffffffffffffffff1673ffffffffffffffffffffffffffffffffffffffff1681526020019081526020015f20819055503373ffffffffffffffffffffffffffffffffffffffff167f106f923f993c2149d49b4255ff723acafa1f2d94393f561d3eda32ae348f7241826040516111099190611cef565b60405180910390a25050565b5f60085f3373ffffffffffffffffffffffffffffffffffffffff1673ffffffffffffffffffffffffffffffffffffffff1681526020019081526020015f205411611194576040517f08c379a000000000000000000000000000000000000000000000000000000000815260040161118b906122eb565b60405180910390fd5b5f60085f3373ffffffffffffffffffffffffffffffffffffffff1673ffffffffffffffffffffffffffffffffffffffff1681526020019081526020015f205490505f60085f3373ffffffffffffffffffffffffffffffffffffffff1673ffffffffffffffffffffffffffffffffffffffff1681526020019081526020015f20819055503373ffffffffffffffffffffffffffffffffffffffff166108fc8290811502906040515f60405180830381858888f1935050505015801561125a573d5f803e3d5ffd5b5050565b5f60015f8473ffffffffffffffffffffffffffffffffffffffff1673ffffffffffffffffffffffffffffffffffffffff1681526020019081526020015f205f8373ffffffffffffffffffffffffffffffffffffffff1673ffffffffffffffffffffffffffffffffffffffff1681526020019081526020015f2054905092915050565b600a81565b6112ed611504565b5f73ffffffffffffffffffffffffffffffffffffffff168173ffffffffffffffffffffffffffffffffffffffff160361135d575f6040517f1e4fbdf70000000000000000000000000000000000000000000000000000000081526004016113549190611df1565b60405180910390fd5b61136681611689565b50565b5f33905090565b61137d838383600161174c565b505050565b5f61138d848461125e565b90507fffffffffffffffffffffffffffffffffffffffffffffffffffffffffffffffff811461140e57818110156113ff578281836040517ffb8f41b20000000000000000000000000000000000000000000000000000000081526004016113f693929190611f13565b60405180910390fd5b61140d84848484035f61174c565b5b50505050565b5f73ffffffffffffffffffffffffffffffffffffffff168373ffffffffffffffffffffffffffffffffffffffff1603611484575f6040517f96c6fd1e00000000000000000000000000000000000000000000000000000000815260040161147b9190611df1565b60405180910390fd5b5f73ffffffffffffffffffffffffffffffffffffffff168273ffffffffffffffffffffffffffffffffffffffff16036114f4575f6040517fec442f050000000000000000000000000000000000000000000000000000000081526004016114eb9190611df1565b60405180910390fd5b6114ff83838361191b565b505050565b61150c611369565b73ffffffffffffffffffffffffffffffffffffffff1661152a610c27565b73ffffffffffffffffffffffffffffffffffffffff16146115895761154d611369565b6040517f118cdaa70000000000000000000000000000000000000000000000000000000081526004016115809190611df1565b60405180910390fd5b565b5f73ffffffffffffffffffffffffffffffffffffffff168273ffffffffffffffffffffffffffffffffffffffff16036115fb575f6040517fec442f050000000000000000000000000000000000000000000000000000000081526004016115f29190611df1565b60405180910390fd5b6116065f838361191b565b5050565b5f73ffffffffffffffffffffffffffffffffffffffff168273ffffffffffffffffffffffffffffffffffffffff160361167a575f6040517f96c6fd1e0000000000000000000000000000000000000000000000000000000081526004016116719190611df1565b60405180910390fd5b611685825f8361191b565b5050565b5f60055f9054906101000a900473ffffffffffffffffffffffffffffffffffffffff1690508160055f6101000a81548173ffffffffffffffffffffffffffffffffffffffff021916908373ffffffffffffffffffffffffffffffffffffffff1602179055508173ffffffffffffffffffffffffffffffffffffffff168173ffffffffffffffffffffffffffffffffffffffff167f8be0079c531659141344cd1fd0a4f28419497f9722a3daafe3b4186f6b6457e060405160405180910390a35050565b5f73ffffffffffffffffffffffffffffffffffffffff168473ffffffffffffffffffffffffffffffffffffffff16036117bc575f6040517fe602df050000000000000000000000000000000000000000000000000000000081526004016117b39190611df1565b60405180910390fd5b5f73ffffffffffffffffffffffffffffffffffffffff168373ffffffffffffffffffffffffffffffffffffffff160361182c575f6040517f94280d620000000000000000000000000000000000000000000000000000000081526004016118239190611df1565b60405180910390fd5b8160015f8673ffffffffffffffffffffffffffffffffffffffff1673ffffffffffffffffffffffffffffffffffffffff1681526020019081526020015f205f8573ffffffffffffffffffffffffffffffffffffffff1673ffffffffffffffffffffffffffffffffffffffff1681526020019081526020015f20819055508015611915578273ffffffffffffffffffffffffffffffffffffffff168473ffffffffffffffffffffffffffffffffffffffff167f8c5be1e5ebec7d5bd14f71427d1e84f3dd0314c0f7b2291e5b200ac8c7c3b9258460405161190c9190611cef565b60405180910390a35b50505050565b5f73ffffffffffffffffffffffffffffffffffffffff168373ffffffffffffffffffffffffffffffffffffffff160361196b578060025f82825461195f9190612206565b92505081905550611a39565b5f805f8573ffffffffffffffffffffffffffffffffffffffff1673ffffffffffffffffffffffffffffffffffffffff1681526020019081526020015f20549050818110156119f4578381836040517fe450d38c0000000000000000000000000000000000000000000000000000000081526004016119eb93929190611f13565b60405180910390fd5b8181035f808673ffffffffffffffffffffffffffffffffffffffff1673ffffffffffffffffffffffffffffffffffffffff1681526020019081526020015f2081905550505b5f73ffffffffffffffffffffffffffffffffffffffff168273ffffffffffffffffffffffffffffffffffffffff1603611a80578060025f8282540392505081905550611aca565b805f808473ffffffffffffffffffffffffffffffffffffffff1673ffffffffffffffffffffffffffffffffffffffff1681526020019081526020015f205f82825401925050819055505b8173ffffffffffffffffffffffffffffffffffffffff168373ffffffffffffffffffffffffffffffffffffffff167fddf252ad1be2c89b69c2b068fc378daa952ba7f163c4a11628f55a4df523b3ef83604051611b279190611cef565b60405180910390a3505050565b5f81519050919050565b5f82825260208201905092915050565b5f5b83811015611b6b578082015181840152602081019050611b50565b5f8484015250505050565b5f601f19601f8301169050919050565b5f611b9082611b34565b611b9a8185611b3e565b9350611baa818560208601611b4e565b611bb381611b76565b840191505092915050565b5f6020820190508181035f830152611bd68184611b86565b905092915050565b5f80fd5b5f73ffffffffffffffffffffffffffffffffffffffff82169050919050565b5f611c0b82611be2565b9050919050565b611c1b81611c01565b8114611c25575f80fd5b50565b5f81359050611c3681611c12565b92915050565b5f819050919050565b611c4e81611c3c565b8114611c58575f80fd5b50565b5f81359050611c6981611c45565b92915050565b5f8060408385031215611c8557611c84611bde565b5b5f611c9285828601611c28565b9250506020611ca385828601611c5b565b9150509250929050565b5f8115159050919050565b611cc181611cad565b82525050565b5f602082019050611cda5f830184611cb8565b92915050565b611ce981611c3c565b82525050565b5f602082019050611d025f830184611ce0565b92915050565b5f805f60608486031215611d1f57611d1e611bde565b5b5f611d2c86828701611c28565b9350506020611d3d86828701611c28565b9250506040611d4e86828701611c5b565b9150509250925092565b5f60208284031215611d6d57611d6c611bde565b5b5f611d7a84828501611c5b565b91505092915050565b5f60ff82169050919050565b611d9881611d83565b82525050565b5f602082019050611db15f830184611d8f565b92915050565b5f60208284031215611dcc57611dcb611bde565b5b5f611dd984828501611c28565b91505092915050565b611deb81611c01565b82525050565b5f602082019050611e045f830184611de2565b92915050565b5f8060408385031215611e2057611e1f611bde565b5b5f611e2d85828601611c28565b9250506020611e3e85828601611c28565b9150509250929050565b7f4e487b71000000000000000000000000000000000000000000000000000000005f52602260045260245ffd5b5f6002820490506001821680611e8c57607f821691505b602082108103611e9f57611e9e611e48565b5b50919050565b7f4e487b71000000000000000000000000000000000000000000000000000000005f52601160045260245ffd5b5f611edc82611c3c565b9150611ee783611c3c565b9250828202611ef581611c3c565b91508282048414831517611f0c57611f0b611ea5565b5b5092915050565b5f606082019050611f265f830186611de2565b611f336020830185611ce0565b611f406040830184611ce0565b949350505050565b7f416d6f756e74206d7573742062652067726561746572207468616e20300000005f82015250565b5f611f7c601d83611b3e565b9150611f8782611f48565b602082019050919050565b5f6020820190508181035f830152611fa981611f70565b9050919050565b7f496e73756666696369656e74207374616b65642062616c616e636500000000005f82015250565b5f611fe4601b83611b3e565b9150611fef82611fb0565b602082019050919050565b5f6020820190508181035f83015261201181611fd8565b9050919050565b5f61202282611c3c565b915061202d83611c3c565b925082820390508181111561204557612044611ea5565b5b92915050565b7f4e487b71000000000000000000000000000000000000000000000000000000005f52601260045260245ffd5b5f61208282611c3c565b915061208d83611c3c565b92508261209d5761209c61204b565b5b828204905092915050565b7f496e73756666696369656e74204554482073656e7400000000000000000000005f82015250565b5f6120dc601583611b3e565b91506120e7826120a8565b602082019050919050565b5f6020820190508181035f830152612109816120d0565b9050919050565b7f746f6b656e73546f427579206d7573742062652067726561746572207468616e5f8201527f2030000000000000000000000000000000000000000000000000000000000000602082015250565b5f61216a602283611b3e565b915061217582612110565b604082019050919050565b5f6020820190508181035f8301526121978161215e565b9050919050565b7f496e73756666696369656e742062616c616e63650000000000000000000000005f82015250565b5f6121d2601483611b3e565b91506121dd8261219e565b602082019050919050565b5f6020820190508181035f8301526121ff816121c6565b9050919050565b5f61221082611c3c565b915061221b83611c3c565b925082820190508082111561223357612232611ea5565b5b92915050565b7f4e6f2072657761726420617661696c61626c65000000000000000000000000005f82015250565b5f61226d601383611b3e565b915061227882612239565b602082019050919050565b5f6020820190508181035f83015261229a81612261565b9050919050565b7f4e6f207265776172647320746f207769746864726177000000000000000000005f82015250565b5f6122d5601683611b3e565b91506122e0826122a1565b602082019050919050565b5f6020820190508181035f830152612302816122c9565b905091905056fea264697066735822122000d3ac4f5c14e6485e199b3d8d15ae2bc3d2b8af3c012e8888893344a965bd5264736f6c63430008140033",
  "immutableReferences": {},
  "source": "\r\n\r\n/**\r\n *Submitted for verification at Etherscan.io on 2023-12-17\r\n*/\r\n\r\n// SPDX-License-Identifier: MIT\r\npragma solidity ^0.8.20;\r\n\r\n/**\r\n * @dev Provides tracking nonces for addresses. Nonces will only increment.\r\n */\r\nabstract contract Nonces {\r\n    /**\r\n     * @dev The nonce used for an `account` is not the expected current nonce.\r\n     */\r\n    error InvalidAccountNonce(address account, uint256 currentNonce);\r\n\r\n    mapping(address account => uint256) private _nonces;\r\n\r\n    /**\r\n     * @dev Returns the next unused nonce for an address.\r\n     */\r\n    function nonces(address owner) public view virtual returns (uint256) {\r\n        return _nonces[owner];\r\n    }\r\n\r\n    /**\r\n     * @dev Consumes a nonce.\r\n     *\r\n     * Returns the current value and increments nonce.\r\n     */\r\n    function _useNonce(address owner) internal virtual returns (uint256) {\r\n        // For each account, the nonce has an initial value of 0, can only be incremented by one, and cannot be\r\n        // decremented or reset. This guarantees that the nonce never overflows.\r\n        unchecked {\r\n            // It is important to do x++ and not ++x here.\r\n            return _nonces[owner]++;\r\n        }\r\n    }\r\n\r\n    /**\r\n     * @dev Same as {_useNonce} but checking that `nonce` is the next valid for `owner`.\r\n     */\r\n    function _useCheckedNonce(address owner, uint256 nonce) internal virtual {\r\n        uint256 current = _useNonce(owner);\r\n        if (nonce != current) {\r\n            revert InvalidAccountNonce(owner, current);\r\n        }\r\n    }\r\n}\r\n\r\n// File: @openzeppelin/contracts/interfaces/IERC5267.sol\r\n\r\n\r\n// OpenZeppelin Contracts (last updated v5.0.0) (interfaces/IERC5267.sol)\r\n\r\npragma solidity ^0.8.20;\r\n\r\ninterface IERC5267 {\r\n    /**\r\n     * @dev MAY be emitted to signal that the domain could have changed.\r\n     */\r\n    event EIP712DomainChanged();\r\n\r\n    /**\r\n     * @dev returns the fields and values that describe the domain separator used by this contract for EIP-712\r\n     * signature.\r\n     */\r\n    function eip712Domain()\r\n        external\r\n        view\r\n        returns (\r\n            bytes1 fields,\r\n            string memory name,\r\n            string memory version,\r\n            uint256 chainId,\r\n            address verifyingContract,\r\n            bytes32 salt,\r\n            uint256[] memory extensions\r\n        );\r\n}\r\n\r\n// File: @openzeppelin/contracts/utils/StorageSlot.sol\r\n\r\n\r\n// OpenZeppelin Contracts (last updated v5.0.0) (utils/StorageSlot.sol)\r\n// This file was procedurally generated from scripts/generate/templates/StorageSlot.js.\r\n\r\npragma solidity ^0.8.20;\r\n\r\n/**\r\n * @dev Library for reading and writing primitive types to specific storage slots.\r\n *\r\n * Storage slots are often used to avoid storage conflict when dealing with upgradeable contracts.\r\n * This library helps with reading and writing to such slots without the need for inline assembly.\r\n *\r\n * The functions in this library return Slot structs that contain a `value` member that can be used to read or write.\r\n *\r\n * Example usage to set ERC1967 implementation slot:\r\n * ```solidity\r\n * contract ERC1967 {\r\n *     bytes32 internal constant _IMPLEMENTATION_SLOT = 0x360894a13ba1a3210667c828492db98dca3e2076cc3735a920a3ca505d382bbc;\r\n *\r\n *     function _getImplementation() internal view returns (address) {\r\n *         return StorageSlot.getAddressSlot(_IMPLEMENTATION_SLOT).value;\r\n *     }\r\n *\r\n *     function _setImplementation(address newImplementation) internal {\r\n *         require(newImplementation.code.length > 0);\r\n *         StorageSlot.getAddressSlot(_IMPLEMENTATION_SLOT).value = newImplementation;\r\n *     }\r\n * }\r\n * ```\r\n */\r\nlibrary StorageSlot {\r\n    struct AddressSlot {\r\n        address value;\r\n    }\r\n\r\n    struct BooleanSlot {\r\n        bool value;\r\n    }\r\n\r\n    struct Bytes32Slot {\r\n        bytes32 value;\r\n    }\r\n\r\n    struct Uint256Slot {\r\n        uint256 value;\r\n    }\r\n\r\n    struct StringSlot {\r\n        string value;\r\n    }\r\n\r\n    struct BytesSlot {\r\n        bytes value;\r\n    }\r\n\r\n    /**\r\n     * @dev Returns an `AddressSlot` with member `value` located at `slot`.\r\n     */\r\n    function getAddressSlot(bytes32 slot) internal pure returns (AddressSlot storage r) {\r\n        /// @solidity memory-safe-assembly\r\n        assembly {\r\n            r.slot := slot\r\n        }\r\n    }\r\n\r\n    /**\r\n     * @dev Returns an `BooleanSlot` with member `value` located at `slot`.\r\n     */\r\n    function getBooleanSlot(bytes32 slot) internal pure returns (BooleanSlot storage r) {\r\n        /// @solidity memory-safe-assembly\r\n        assembly {\r\n            r.slot := slot\r\n        }\r\n    }\r\n\r\n    /**\r\n     * @dev Returns an `Bytes32Slot` with member `value` located at `slot`.\r\n     */\r\n    function getBytes32Slot(bytes32 slot) internal pure returns (Bytes32Slot storage r) {\r\n        /// @solidity memory-safe-assembly\r\n        assembly {\r\n            r.slot := slot\r\n        }\r\n    }\r\n\r\n    /**\r\n     * @dev Returns an `Uint256Slot` with member `value` located at `slot`.\r\n     */\r\n    function getUint256Slot(bytes32 slot) internal pure returns (Uint256Slot storage r) {\r\n        /// @solidity memory-safe-assembly\r\n        assembly {\r\n            r.slot := slot\r\n        }\r\n    }\r\n\r\n    /**\r\n     * @dev Returns an `StringSlot` with member `value` located at `slot`.\r\n     */\r\n    function getStringSlot(bytes32 slot) internal pure returns (StringSlot storage r) {\r\n        /// @solidity memory-safe-assembly\r\n        assembly {\r\n            r.slot := slot\r\n        }\r\n    }\r\n\r\n    /**\r\n     * @dev Returns an `StringSlot` representation of the string storage pointer `store`.\r\n     */\r\n    function getStringSlot(string storage store) internal pure returns (StringSlot storage r) {\r\n        /// @solidity memory-safe-assembly\r\n        assembly {\r\n            r.slot := store.slot\r\n        }\r\n    }\r\n\r\n    /**\r\n     * @dev Returns an `BytesSlot` with member `value` located at `slot`.\r\n     */\r\n    function getBytesSlot(bytes32 slot) internal pure returns (BytesSlot storage r) {\r\n        /// @solidity memory-safe-assembly\r\n        assembly {\r\n            r.slot := slot\r\n        }\r\n    }\r\n\r\n    /**\r\n     * @dev Returns an `BytesSlot` representation of the bytes storage pointer `store`.\r\n     */\r\n    function getBytesSlot(bytes storage store) internal pure returns (BytesSlot storage r) {\r\n        /// @solidity memory-safe-assembly\r\n        assembly {\r\n            r.slot := store.slot\r\n        }\r\n    }\r\n}\r\n\r\n// File: @openzeppelin/contracts/utils/ShortStrings.sol\r\n\r\n\r\n// OpenZeppelin Contracts (last updated v5.0.0) (utils/ShortStrings.sol)\r\n\r\npragma solidity ^0.8.20;\r\n\r\n\r\n// | string  | 0xAAAAAAAAAAAAAAAAAAAAAAAAAAAAAAAAAAAAAAAAAAAAAAAAAAAAAAAAAAAAAA   |\r\n// | length  | 0x                                                              BB |\r\ntype ShortString is bytes32;\r\n\r\n/**\r\n * @dev This library provides functions to convert short memory strings\r\n * into a `ShortString` type that can be used as an immutable variable.\r\n *\r\n * Strings of arbitrary length can be optimized using this library if\r\n * they are short enough (up to 31 bytes) by packing them with their\r\n * length (1 byte) in a single EVM word (32 bytes). Additionally, a\r\n * fallback mechanism can be used for every other case.\r\n *\r\n * Usage example:\r\n *\r\n * ```solidity\r\n * contract Named {\r\n *     using ShortStrings for *;\r\n *\r\n *     ShortString private immutable _name;\r\n *     string private _nameFallback;\r\n *\r\n *     constructor(string memory contractName) {\r\n *         _name = contractName.toShortStringWithFallback(_nameFallback);\r\n *     }\r\n *\r\n *     function name() external view returns (string memory) {\r\n *         return _name.toStringWithFallback(_nameFallback);\r\n *     }\r\n * }\r\n * ```\r\n */\r\nlibrary ShortStrings {\r\n    // Used as an identifier for strings longer than 31 bytes.\r\n    bytes32 private constant FALLBACK_SENTINEL = 0x00000000000000000000000000000000000000000000000000000000000000FF;\r\n\r\n    error StringTooLong(string str);\r\n    error InvalidShortString();\r\n\r\n    /**\r\n     * @dev Encode a string of at most 31 chars into a `ShortString`.\r\n     *\r\n     * This will trigger a `StringTooLong` error is the input string is too long.\r\n     */\r\n    function toShortString(string memory str) internal pure returns (ShortString) {\r\n        bytes memory bstr = bytes(str);\r\n        if (bstr.length > 31) {\r\n            revert StringTooLong(str);\r\n        }\r\n        return ShortString.wrap(bytes32(uint256(bytes32(bstr)) | bstr.length));\r\n    }\r\n\r\n    /**\r\n     * @dev Decode a `ShortString` back to a \"normal\" string.\r\n     */\r\n    function toString(ShortString sstr) internal pure returns (string memory) {\r\n        uint256 len = byteLength(sstr);\r\n        // using `new string(len)` would work locally but is not memory safe.\r\n        string memory str = new string(32);\r\n        /// @solidity memory-safe-assembly\r\n        assembly {\r\n            mstore(str, len)\r\n            mstore(add(str, 0x20), sstr)\r\n        }\r\n        return str;\r\n    }\r\n\r\n    /**\r\n     * @dev Return the length of a `ShortString`.\r\n     */\r\n    function byteLength(ShortString sstr) internal pure returns (uint256) {\r\n        uint256 result = uint256(ShortString.unwrap(sstr)) & 0xFF;\r\n        if (result > 31) {\r\n            revert InvalidShortString();\r\n        }\r\n        return result;\r\n    }\r\n\r\n    /**\r\n     * @dev Encode a string into a `ShortString`, or write it to storage if it is too long.\r\n     */\r\n    function toShortStringWithFallback(string memory value, string storage store) internal returns (ShortString) {\r\n        if (bytes(value).length < 32) {\r\n            return toShortString(value);\r\n        } else {\r\n            StorageSlot.getStringSlot(store).value = value;\r\n            return ShortString.wrap(FALLBACK_SENTINEL);\r\n        }\r\n    }\r\n\r\n    /**\r\n     * @dev Decode a string that was encoded to `ShortString` or written to storage using {setWithFallback}.\r\n     */\r\n    function toStringWithFallback(ShortString value, string storage store) internal pure returns (string memory) {\r\n        if (ShortString.unwrap(value) != FALLBACK_SENTINEL) {\r\n            return toString(value);\r\n        } else {\r\n            return store;\r\n        }\r\n    }\r\n\r\n    /**\r\n     * @dev Return the length of a string that was encoded to `ShortString` or written to storage using\r\n     * {setWithFallback}.\r\n     *\r\n     * WARNING: This will return the \"byte length\" of the string. This may not reflect the actual length in terms of\r\n     * actual characters as the UTF-8 encoding of a single character can span over multiple bytes.\r\n     */\r\n    function byteLengthWithFallback(ShortString value, string storage store) internal view returns (uint256) {\r\n        if (ShortString.unwrap(value) != FALLBACK_SENTINEL) {\r\n            return byteLength(value);\r\n        } else {\r\n            return bytes(store).length;\r\n        }\r\n    }\r\n}\r\n\r\n// File: @openzeppelin/contracts/utils/math/SignedMath.sol\r\n\r\n\r\n// OpenZeppelin Contracts (last updated v5.0.0) (utils/math/SignedMath.sol)\r\n\r\npragma solidity ^0.8.20;\r\n\r\n/**\r\n * @dev Standard signed math utilities missing in the Solidity language.\r\n */\r\nlibrary SignedMath {\r\n    /**\r\n     * @dev Returns the largest of two signed numbers.\r\n     */\r\n    function max(int256 a, int256 b) internal pure returns (int256) {\r\n        return a > b ? a : b;\r\n    }\r\n\r\n    /**\r\n     * @dev Returns the smallest of two signed numbers.\r\n     */\r\n    function min(int256 a, int256 b) internal pure returns (int256) {\r\n        return a < b ? a : b;\r\n    }\r\n\r\n    /**\r\n     * @dev Returns the average of two signed numbers without overflow.\r\n     * The result is rounded towards zero.\r\n     */\r\n    function average(int256 a, int256 b) internal pure returns (int256) {\r\n        // Formula from the book \"Hacker's Delight\"\r\n        int256 x = (a & b) + ((a ^ b) >> 1);\r\n        return x + (int256(uint256(x) >> 255) & (a ^ b));\r\n    }\r\n\r\n    /**\r\n     * @dev Returns the absolute unsigned value of a signed value.\r\n     */\r\n    function abs(int256 n) internal pure returns (uint256) {\r\n        unchecked {\r\n            // must be unchecked in order to support `n = type(int256).min`\r\n            return uint256(n >= 0 ? n : -n);\r\n        }\r\n    }\r\n}\r\n\r\n// File: @openzeppelin/contracts/utils/math/Math.sol\r\n\r\n\r\n// OpenZeppelin Contracts (last updated v5.0.0) (utils/math/Math.sol)\r\n\r\npragma solidity ^0.8.20;\r\n\r\n/**\r\n * @dev Standard math utilities missing in the Solidity language.\r\n */\r\nlibrary Math {\r\n    /**\r\n     * @dev Muldiv operation overflow.\r\n     */\r\n    error MathOverflowedMulDiv();\r\n\r\n    enum Rounding {\r\n        Floor, // Toward negative infinity\r\n        Ceil, // Toward positive infinity\r\n        Trunc, // Toward zero\r\n        Expand // Away from zero\r\n    }\r\n\r\n    /**\r\n     * @dev Returns the addition of two unsigned integers, with an overflow flag.\r\n     */\r\n    function tryAdd(uint256 a, uint256 b) internal pure returns (bool, uint256) {\r\n        unchecked {\r\n            uint256 c = a + b;\r\n            if (c < a) return (false, 0);\r\n            return (true, c);\r\n        }\r\n    }\r\n\r\n    /**\r\n     * @dev Returns the subtraction of two unsigned integers, with an overflow flag.\r\n     */\r\n    function trySub(uint256 a, uint256 b) internal pure returns (bool, uint256) {\r\n        unchecked {\r\n            if (b > a) return (false, 0);\r\n            return (true, a - b);\r\n        }\r\n    }\r\n\r\n    /**\r\n     * @dev Returns the multiplication of two unsigned integers, with an overflow flag.\r\n     */\r\n    function tryMul(uint256 a, uint256 b) internal pure returns (bool, uint256) {\r\n        unchecked {\r\n            // Gas optimization: this is cheaper than requiring 'a' not being zero, but the\r\n            // benefit is lost if 'b' is also tested.\r\n            // See: https://github.com/OpenZeppelin/openzeppelin-contracts/pull/522\r\n            if (a == 0) return (true, 0);\r\n            uint256 c = a * b;\r\n            if (c / a != b) return (false, 0);\r\n            return (true, c);\r\n        }\r\n    }\r\n\r\n    /**\r\n     * @dev Returns the division of two unsigned integers, with a division by zero flag.\r\n     */\r\n    function tryDiv(uint256 a, uint256 b) internal pure returns (bool, uint256) {\r\n        unchecked {\r\n            if (b == 0) return (false, 0);\r\n            return (true, a / b);\r\n        }\r\n    }\r\n\r\n    /**\r\n     * @dev Returns the remainder of dividing two unsigned integers, with a division by zero flag.\r\n     */\r\n    function tryMod(uint256 a, uint256 b) internal pure returns (bool, uint256) {\r\n        unchecked {\r\n            if (b == 0) return (false, 0);\r\n            return (true, a % b);\r\n        }\r\n    }\r\n\r\n    /**\r\n     * @dev Returns the largest of two numbers.\r\n     */\r\n    function max(uint256 a, uint256 b) internal pure returns (uint256) {\r\n        return a > b ? a : b;\r\n    }\r\n\r\n    /**\r\n     * @dev Returns the smallest of two numbers.\r\n     */\r\n    function min(uint256 a, uint256 b) internal pure returns (uint256) {\r\n        return a < b ? a : b;\r\n    }\r\n\r\n    /**\r\n     * @dev Returns the average of two numbers. The result is rounded towards\r\n     * zero.\r\n     */\r\n    function average(uint256 a, uint256 b) internal pure returns (uint256) {\r\n        // (a + b) / 2 can overflow.\r\n        return (a & b) + (a ^ b) / 2;\r\n    }\r\n\r\n    /**\r\n     * @dev Returns the ceiling of the division of two numbers.\r\n     *\r\n     * This differs from standard division with `/` in that it rounds towards infinity instead\r\n     * of rounding towards zero.\r\n     */\r\n    function ceilDiv(uint256 a, uint256 b) internal pure returns (uint256) {\r\n        if (b == 0) {\r\n            // Guarantee the same behavior as in a regular Solidity division.\r\n            return a / b;\r\n        }\r\n\r\n        // (a + b - 1) / b can overflow on addition, so we distribute.\r\n        return a == 0 ? 0 : (a - 1) / b + 1;\r\n    }\r\n\r\n    /**\r\n     * @notice Calculates floor(x * y / denominator) with full precision. Throws if result overflows a uint256 or\r\n     * denominator == 0.\r\n     * @dev Original credit to Remco Bloemen under MIT license (https://xn--2-umb.com/21/muldiv) with further edits by\r\n     * Uniswap Labs also under MIT license.\r\n     */\r\n    function mulDiv(uint256 x, uint256 y, uint256 denominator) internal pure returns (uint256 result) {\r\n        unchecked {\r\n            // 512-bit multiply [prod1 prod0] = x * y. Compute the product mod 2^256 and mod 2^256 - 1, then use\r\n            // use the Chinese Remainder Theorem to reconstruct the 512 bit result. The result is stored in two 256\r\n            // variables such that product = prod1 * 2^256 + prod0.\r\n            uint256 prod0 = x * y; // Least significant 256 bits of the product\r\n            uint256 prod1; // Most significant 256 bits of the product\r\n            assembly {\r\n                let mm := mulmod(x, y, not(0))\r\n                prod1 := sub(sub(mm, prod0), lt(mm, prod0))\r\n            }\r\n\r\n            // Handle non-overflow cases, 256 by 256 division.\r\n            if (prod1 == 0) {\r\n                // Solidity will revert if denominator == 0, unlike the div opcode on its own.\r\n                // The surrounding unchecked block does not change this fact.\r\n                // See https://docs.soliditylang.org/en/latest/control-structures.html#checked-or-unchecked-arithmetic.\r\n                return prod0 / denominator;\r\n            }\r\n\r\n            // Make sure the result is less than 2^256. Also prevents denominator == 0.\r\n            if (denominator <= prod1) {\r\n                revert MathOverflowedMulDiv();\r\n            }\r\n\r\n            ///////////////////////////////////////////////\r\n            // 512 by 256 division.\r\n            ///////////////////////////////////////////////\r\n\r\n            // Make division exact by subtracting the remainder from [prod1 prod0].\r\n            uint256 remainder;\r\n            assembly {\r\n                // Compute remainder using mulmod.\r\n                remainder := mulmod(x, y, denominator)\r\n\r\n                // Subtract 256 bit number from 512 bit number.\r\n                prod1 := sub(prod1, gt(remainder, prod0))\r\n                prod0 := sub(prod0, remainder)\r\n            }\r\n\r\n            // Factor powers of two out of denominator and compute largest power of two divisor of denominator.\r\n            // Always >= 1. See https://cs.stackexchange.com/q/138556/92363.\r\n\r\n            uint256 twos = denominator & (0 - denominator);\r\n            assembly {\r\n                // Divide denominator by twos.\r\n                denominator := div(denominator, twos)\r\n\r\n                // Divide [prod1 prod0] by twos.\r\n                prod0 := div(prod0, twos)\r\n\r\n                // Flip twos such that it is 2^256 / twos. If twos is zero, then it becomes one.\r\n                twos := add(div(sub(0, twos), twos), 1)\r\n            }\r\n\r\n            // Shift in bits from prod1 into prod0.\r\n            prod0 |= prod1 * twos;\r\n\r\n            // Invert denominator mod 2^256. Now that denominator is an odd number, it has an inverse modulo 2^256 such\r\n            // that denominator * inv = 1 mod 2^256. Compute the inverse by starting with a seed that is correct for\r\n            // four bits. That is, denominator * inv = 1 mod 2^4.\r\n            uint256 inverse = (3 * denominator) ^ 2;\r\n\r\n            // Use the Newton-Raphson iteration to improve the precision. Thanks to Hensel's lifting lemma, this also\r\n            // works in modular arithmetic, doubling the correct bits in each step.\r\n            inverse *= 2 - denominator * inverse; // inverse mod 2^8\r\n            inverse *= 2 - denominator * inverse; // inverse mod 2^16\r\n            inverse *= 2 - denominator * inverse; // inverse mod 2^32\r\n            inverse *= 2 - denominator * inverse; // inverse mod 2^64\r\n            inverse *= 2 - denominator * inverse; // inverse mod 2^128\r\n            inverse *= 2 - denominator * inverse; // inverse mod 2^256\r\n\r\n            // Because the division is now exact we can divide by multiplying with the modular inverse of denominator.\r\n            // This will give us the correct result modulo 2^256. Since the preconditions guarantee that the outcome is\r\n            // less than 2^256, this is the final result. We don't need to compute the high bits of the result and prod1\r\n            // is no longer required.\r\n            result = prod0 * inverse;\r\n            return result;\r\n        }\r\n    }\r\n\r\n    /**\r\n     * @notice Calculates x * y / denominator with full precision, following the selected rounding direction.\r\n     */\r\n    function mulDiv(uint256 x, uint256 y, uint256 denominator, Rounding rounding) internal pure returns (uint256) {\r\n        uint256 result = mulDiv(x, y, denominator);\r\n        if (unsignedRoundsUp(rounding) && mulmod(x, y, denominator) > 0) {\r\n            result += 1;\r\n        }\r\n        return result;\r\n    }\r\n\r\n    /**\r\n     * @dev Returns the square root of a number. If the number is not a perfect square, the value is rounded\r\n     * towards zero.\r\n     *\r\n     * Inspired by Henry S. Warren, Jr.'s \"Hacker's Delight\" (Chapter 11).\r\n     */\r\n    function sqrt(uint256 a) internal pure returns (uint256) {\r\n        if (a == 0) {\r\n            return 0;\r\n        }\r\n\r\n        // For our first guess, we get the biggest power of 2 which is smaller than the square root of the target.\r\n        //\r\n        // We know that the \"msb\" (most significant bit) of our target number `a` is a power of 2 such that we have\r\n        // `msb(a) <= a < 2*msb(a)`. This value can be written `msb(a)=2**k` with `k=log2(a)`.\r\n        //\r\n        // This can be rewritten `2**log2(a) <= a < 2**(log2(a) + 1)`\r\n        //  `sqrt(2**k) <= sqrt(a) < sqrt(2**(k+1))`\r\n        //  `2**(k/2) <= sqrt(a) < 2**((k+1)/2) <= 2**(k/2 + 1)`\r\n        //\r\n        // Consequently, `2**(log2(a) / 2)` is a good first approximation of `sqrt(a)` with at least 1 correct bit.\r\n        uint256 result = 1 << (log2(a) >> 1);\r\n\r\n        // At this point `result` is an estimation with one bit of precision. We know the true value is a uint128,\r\n        // since it is the square root of a uint256. Newton's method converges quadratically (precision doubles at\r\n        // every iteration). We thus need at most 7 iteration to turn our partial result with one bit of precision\r\n        // into the expected uint128 result.\r\n        unchecked {\r\n            result = (result + a / result) >> 1;\r\n            result = (result + a / result) >> 1;\r\n            result = (result + a / result) >> 1;\r\n            result = (result + a / result) >> 1;\r\n            result = (result + a / result) >> 1;\r\n            result = (result + a / result) >> 1;\r\n            result = (result + a / result) >> 1;\r\n            return min(result, a / result);\r\n        }\r\n    }\r\n\r\n    /**\r\n     * @notice Calculates sqrt(a), following the selected rounding direction.\r\n     */\r\n    function sqrt(uint256 a, Rounding rounding) internal pure returns (uint256) {\r\n        unchecked {\r\n            uint256 result = sqrt(a);\r\n            return result + (unsignedRoundsUp(rounding) && result * result < a ? 1 : 0);\r\n        }\r\n    }\r\n\r\n    /**\r\n     * @dev Return the log in base 2 of a positive value rounded towards zero.\r\n     * Returns 0 if given 0.\r\n     */\r\n    function log2(uint256 value) internal pure returns (uint256) {\r\n        uint256 result = 0;\r\n        unchecked {\r\n            if (value >> 128 > 0) {\r\n                value >>= 128;\r\n                result += 128;\r\n            }\r\n            if (value >> 64 > 0) {\r\n                value >>= 64;\r\n                result += 64;\r\n            }\r\n            if (value >> 32 > 0) {\r\n                value >>= 32;\r\n                result += 32;\r\n            }\r\n            if (value >> 16 > 0) {\r\n                value >>= 16;\r\n                result += 16;\r\n            }\r\n            if (value >> 8 > 0) {\r\n                value >>= 8;\r\n                result += 8;\r\n            }\r\n            if (value >> 4 > 0) {\r\n                value >>= 4;\r\n                result += 4;\r\n            }\r\n            if (value >> 2 > 0) {\r\n                value >>= 2;\r\n                result += 2;\r\n            }\r\n            if (value >> 1 > 0) {\r\n                result += 1;\r\n            }\r\n        }\r\n        return result;\r\n    }\r\n\r\n    /**\r\n     * @dev Return the log in base 2, following the selected rounding direction, of a positive value.\r\n     * Returns 0 if given 0.\r\n     */\r\n    function log2(uint256 value, Rounding rounding) internal pure returns (uint256) {\r\n        unchecked {\r\n            uint256 result = log2(value);\r\n            return result + (unsignedRoundsUp(rounding) && 1 << result < value ? 1 : 0);\r\n        }\r\n    }\r\n\r\n    /**\r\n     * @dev Return the log in base 10 of a positive value rounded towards zero.\r\n     * Returns 0 if given 0.\r\n     */\r\n    function log10(uint256 value) internal pure returns (uint256) {\r\n        uint256 result = 0;\r\n        unchecked {\r\n            if (value >= 10 ** 64) {\r\n                value /= 10 ** 64;\r\n                result += 64;\r\n            }\r\n            if (value >= 10 ** 32) {\r\n                value /= 10 ** 32;\r\n                result += 32;\r\n            }\r\n            if (value >= 10 ** 16) {\r\n                value /= 10 ** 16;\r\n                result += 16;\r\n            }\r\n            if (value >= 10 ** 8) {\r\n                value /= 10 ** 8;\r\n                result += 8;\r\n            }\r\n            if (value >= 10 ** 4) {\r\n                value /= 10 ** 4;\r\n                result += 4;\r\n            }\r\n            if (value >= 10 ** 2) {\r\n                value /= 10 ** 2;\r\n                result += 2;\r\n            }\r\n            if (value >= 10 ** 1) {\r\n                result += 1;\r\n            }\r\n        }\r\n        return result;\r\n    }\r\n\r\n    /**\r\n     * @dev Return the log in base 10, following the selected rounding direction, of a positive value.\r\n     * Returns 0 if given 0.\r\n     */\r\n    function log10(uint256 value, Rounding rounding) internal pure returns (uint256) {\r\n        unchecked {\r\n            uint256 result = log10(value);\r\n            return result + (unsignedRoundsUp(rounding) && 10 ** result < value ? 1 : 0);\r\n        }\r\n    }\r\n\r\n    /**\r\n     * @dev Return the log in base 256 of a positive value rounded towards zero.\r\n     * Returns 0 if given 0.\r\n     *\r\n     * Adding one to the result gives the number of pairs of hex symbols needed to represent `value` as a hex string.\r\n     */\r\n    function log256(uint256 value) internal pure returns (uint256) {\r\n        uint256 result = 0;\r\n        unchecked {\r\n            if (value >> 128 > 0) {\r\n                value >>= 128;\r\n                result += 16;\r\n            }\r\n            if (value >> 64 > 0) {\r\n                value >>= 64;\r\n                result += 8;\r\n            }\r\n            if (value >> 32 > 0) {\r\n                value >>= 32;\r\n                result += 4;\r\n            }\r\n            if (value >> 16 > 0) {\r\n                value >>= 16;\r\n                result += 2;\r\n            }\r\n            if (value >> 8 > 0) {\r\n                result += 1;\r\n            }\r\n        }\r\n        return result;\r\n    }\r\n\r\n    /**\r\n     * @dev Return the log in base 256, following the selected rounding direction, of a positive value.\r\n     * Returns 0 if given 0.\r\n     */\r\n    function log256(uint256 value, Rounding rounding) internal pure returns (uint256) {\r\n        unchecked {\r\n            uint256 result = log256(value);\r\n            return result + (unsignedRoundsUp(rounding) && 1 << (result << 3) < value ? 1 : 0);\r\n        }\r\n    }\r\n\r\n    /**\r\n     * @dev Returns whether a provided rounding mode is considered rounding up for unsigned integers.\r\n     */\r\n    function unsignedRoundsUp(Rounding rounding) internal pure returns (bool) {\r\n        return uint8(rounding) % 2 == 1;\r\n    }\r\n}\r\n\r\n// File: @openzeppelin/contracts/utils/Strings.sol\r\n\r\n\r\n// OpenZeppelin Contracts (last updated v5.0.0) (utils/Strings.sol)\r\n\r\npragma solidity ^0.8.20;\r\n\r\n\r\n\r\n/**\r\n * @dev String operations.\r\n */\r\nlibrary Strings {\r\n    bytes16 private constant HEX_DIGITS = \"0123456789abcdef\";\r\n    uint8 private constant ADDRESS_LENGTH = 20;\r\n\r\n    /**\r\n     * @dev The `value` string doesn't fit in the specified `length`.\r\n     */\r\n    error StringsInsufficientHexLength(uint256 value, uint256 length);\r\n\r\n    /**\r\n     * @dev Converts a `uint256` to its ASCII `string` decimal representation.\r\n     */\r\n    function toString(uint256 value) internal pure returns (string memory) {\r\n        unchecked {\r\n            uint256 length = Math.log10(value) + 1;\r\n            string memory buffer = new string(length);\r\n            uint256 ptr;\r\n            /// @solidity memory-safe-assembly\r\n            assembly {\r\n                ptr := add(buffer, add(32, length))\r\n            }\r\n            while (true) {\r\n                ptr--;\r\n                /// @solidity memory-safe-assembly\r\n                assembly {\r\n                    mstore8(ptr, byte(mod(value, 10), HEX_DIGITS))\r\n                }\r\n                value /= 10;\r\n                if (value == 0) break;\r\n            }\r\n            return buffer;\r\n        }\r\n    }\r\n\r\n    /**\r\n     * @dev Converts a `int256` to its ASCII `string` decimal representation.\r\n     */\r\n    function toStringSigned(int256 value) internal pure returns (string memory) {\r\n        return string.concat(value < 0 ? \"-\" : \"\", toString(SignedMath.abs(value)));\r\n    }\r\n\r\n    /**\r\n     * @dev Converts a `uint256` to its ASCII `string` hexadecimal representation.\r\n     */\r\n    function toHexString(uint256 value) internal pure returns (string memory) {\r\n        unchecked {\r\n            return toHexString(value, Math.log256(value) + 1);\r\n        }\r\n    }\r\n\r\n    /**\r\n     * @dev Converts a `uint256` to its ASCII `string` hexadecimal representation with fixed length.\r\n     */\r\n    function toHexString(uint256 value, uint256 length) internal pure returns (string memory) {\r\n        uint256 localValue = value;\r\n        bytes memory buffer = new bytes(2 * length + 2);\r\n        buffer[0] = \"0\";\r\n        buffer[1] = \"x\";\r\n        for (uint256 i = 2 * length + 1; i > 1; --i) {\r\n            buffer[i] = HEX_DIGITS[localValue & 0xf];\r\n            localValue >>= 4;\r\n        }\r\n        if (localValue != 0) {\r\n            revert StringsInsufficientHexLength(value, length);\r\n        }\r\n        return string(buffer);\r\n    }\r\n\r\n    /**\r\n     * @dev Converts an `address` with fixed length of 20 bytes to its not checksummed ASCII `string` hexadecimal\r\n     * representation.\r\n     */\r\n    function toHexString(address addr) internal pure returns (string memory) {\r\n        return toHexString(uint256(uint160(addr)), ADDRESS_LENGTH);\r\n    }\r\n\r\n    /**\r\n     * @dev Returns true if the two strings are equal.\r\n     */\r\n    function equal(string memory a, string memory b) internal pure returns (bool) {\r\n        return bytes(a).length == bytes(b).length && keccak256(bytes(a)) == keccak256(bytes(b));\r\n    }\r\n}\r\n\r\n// File: @openzeppelin/contracts/utils/cryptography/MessageHashUtils.sol\r\n\r\n\r\n// OpenZeppelin Contracts (last updated v5.0.0) (utils/cryptography/MessageHashUtils.sol)\r\n\r\npragma solidity ^0.8.20;\r\n\r\n\r\n/**\r\n * @dev Signature message hash utilities for producing digests to be consumed by {ECDSA} recovery or signing.\r\n *\r\n * The library provides methods for generating a hash of a message that conforms to the\r\n * https://eips.ethereum.org/EIPS/eip-191[EIP 191] and https://eips.ethereum.org/EIPS/eip-712[EIP 712]\r\n * specifications.\r\n */\r\nlibrary MessageHashUtils {\r\n    /**\r\n     * @dev Returns the keccak256 digest of an EIP-191 signed data with version\r\n     * `0x45` (`personal_sign` messages).\r\n     *\r\n     * The digest is calculated by prefixing a bytes32 `messageHash` with\r\n     * `\"\\x19Ethereum Signed Message:\\n32\"` and hashing the result. It corresponds with the\r\n     * hash signed when using the https://eth.wiki/json-rpc/API#eth_sign[`eth_sign`] JSON-RPC method.\r\n     *\r\n     * NOTE: The `messageHash` parameter is intended to be the result of hashing a raw message with\r\n     * keccak256, although any bytes32 value can be safely used because the final digest will\r\n     * be re-hashed.\r\n     *\r\n     * See {ECDSA-recover}.\r\n     */\r\n    function toEthSignedMessageHash(bytes32 messageHash) internal pure returns (bytes32 digest) {\r\n        /// @solidity memory-safe-assembly\r\n        assembly {\r\n            mstore(0x00, \"\\x19Ethereum Signed Message:\\n32\") // 32 is the bytes-length of messageHash\r\n            mstore(0x1c, messageHash) // 0x1c (28) is the length of the prefix\r\n            digest := keccak256(0x00, 0x3c) // 0x3c is the length of the prefix (0x1c) + messageHash (0x20)\r\n        }\r\n    }\r\n\r\n    /**\r\n     * @dev Returns the keccak256 digest of an EIP-191 signed data with version\r\n     * `0x45` (`personal_sign` messages).\r\n     *\r\n     * The digest is calculated by prefixing an arbitrary `message` with\r\n     * `\"\\x19Ethereum Signed Message:\\n\" + len(message)` and hashing the result. It corresponds with the\r\n     * hash signed when using the https://eth.wiki/json-rpc/API#eth_sign[`eth_sign`] JSON-RPC method.\r\n     *\r\n     * See {ECDSA-recover}.\r\n     */\r\n    function toEthSignedMessageHash(bytes memory message) internal pure returns (bytes32) {\r\n        return\r\n            keccak256(bytes.concat(\"\\x19Ethereum Signed Message:\\n\", bytes(Strings.toString(message.length)), message));\r\n    }\r\n\r\n    /**\r\n     * @dev Returns the keccak256 digest of an EIP-191 signed data with version\r\n     * `0x00` (data with intended validator).\r\n     *\r\n     * The digest is calculated by prefixing an arbitrary `data` with `\"\\x19\\x00\"` and the intended\r\n     * `validator` address. Then hashing the result.\r\n     *\r\n     * See {ECDSA-recover}.\r\n     */\r\n    function toDataWithIntendedValidatorHash(address validator, bytes memory data) internal pure returns (bytes32) {\r\n        return keccak256(abi.encodePacked(hex\"19_00\", validator, data));\r\n    }\r\n\r\n    /**\r\n     * @dev Returns the keccak256 digest of an EIP-712 typed data (EIP-191 version `0x01`).\r\n     *\r\n     * The digest is calculated from a `domainSeparator` and a `structHash`, by prefixing them with\r\n     * `\\x19\\x01` and hashing the result. It corresponds to the hash signed by the\r\n     * https://eips.ethereum.org/EIPS/eip-712[`eth_signTypedData`] JSON-RPC method as part of EIP-712.\r\n     *\r\n     * See {ECDSA-recover}.\r\n     */\r\n    function toTypedDataHash(bytes32 domainSeparator, bytes32 structHash) internal pure returns (bytes32 digest) {\r\n        /// @solidity memory-safe-assembly\r\n        assembly {\r\n            let ptr := mload(0x40)\r\n            mstore(ptr, hex\"19_01\")\r\n            mstore(add(ptr, 0x02), domainSeparator)\r\n            mstore(add(ptr, 0x22), structHash)\r\n            digest := keccak256(ptr, 0x42)\r\n        }\r\n    }\r\n}\r\n\r\n// File: @openzeppelin/contracts/utils/cryptography/EIP712.sol\r\n\r\n\r\n// OpenZeppelin Contracts (last updated v5.0.0) (utils/cryptography/EIP712.sol)\r\n\r\npragma solidity ^0.8.20;\r\n\r\n\r\n\r\n\r\n/**\r\n * @dev https://eips.ethereum.org/EIPS/eip-712[EIP 712] is a standard for hashing and signing of typed structured data.\r\n *\r\n * The encoding scheme specified in the EIP requires a domain separator and a hash of the typed structured data, whose\r\n * encoding is very generic and therefore its implementation in Solidity is not feasible, thus this contract\r\n * does not implement the encoding itself. Protocols need to implement the type-specific encoding they need in order to\r\n * produce the hash of their typed data using a combination of `abi.encode` and `keccak256`.\r\n *\r\n * This contract implements the EIP 712 domain separator ({_domainSeparatorV4}) that is used as part of the encoding\r\n * scheme, and the final step of the encoding to obtain the message digest that is then signed via ECDSA\r\n * ({_hashTypedDataV4}).\r\n *\r\n * The implementation of the domain separator was designed to be as efficient as possible while still properly updating\r\n * the chain id to protect against replay attacks on an eventual fork of the chain.\r\n *\r\n * NOTE: This contract implements the version of the encoding known as \"v4\", as implemented by the JSON RPC method\r\n * https://docs.metamask.io/guide/signing-data.html[`eth_signTypedDataV4` in MetaMask].\r\n *\r\n * NOTE: In the upgradeable version of this contract, the cached values will correspond to the address, and the domain\r\n * separator of the implementation contract. This will cause the {_domainSeparatorV4} function to always rebuild the\r\n * separator from the immutable values, which is cheaper than accessing a cached version in cold storage.\r\n *\r\n * @custom:oz-upgrades-unsafe-allow state-variable-immutable\r\n */\r\nabstract contract EIP712 is IERC5267 {\r\n    using ShortStrings for *;\r\n\r\n    bytes32 private constant TYPE_HASH =\r\n        keccak256(\"EIP712Domain(string name,string version,uint256 chainId,address verifyingContract)\");\r\n\r\n    // Cache the domain separator as an immutable value, but also store the chain id that it corresponds to, in order to\r\n    // invalidate the cached domain separator if the chain id changes.\r\n    bytes32 private immutable _cachedDomainSeparator;\r\n    uint256 private immutable _cachedChainId;\r\n    address private immutable _cachedThis;\r\n\r\n    bytes32 private immutable _hashedName;\r\n    bytes32 private immutable _hashedVersion;\r\n\r\n    ShortString private immutable _name;\r\n    ShortString private immutable _version;\r\n    string private _nameFallback;\r\n    string private _versionFallback;\r\n\r\n    /**\r\n     * @dev Initializes the domain separator and parameter caches.\r\n     *\r\n     * The meaning of `name` and `version` is specified in\r\n     * https://eips.ethereum.org/EIPS/eip-712#definition-of-domainseparator[EIP 712]:\r\n     *\r\n     * - `name`: the user readable name of the signing domain, i.e. the name of the DApp or the protocol.\r\n     * - `version`: the current major version of the signing domain.\r\n     *\r\n     * NOTE: These parameters cannot be changed except through a xref:learn::upgrading-smart-contracts.adoc[smart\r\n     * contract upgrade].\r\n     */\r\n    constructor(string memory name, string memory version) {\r\n        _name = name.toShortStringWithFallback(_nameFallback);\r\n        _version = version.toShortStringWithFallback(_versionFallback);\r\n        _hashedName = keccak256(bytes(name));\r\n        _hashedVersion = keccak256(bytes(version));\r\n\r\n        _cachedChainId = block.chainid;\r\n        _cachedDomainSeparator = _buildDomainSeparator();\r\n        _cachedThis = address(this);\r\n    }\r\n\r\n    /**\r\n     * @dev Returns the domain separator for the current chain.\r\n     */\r\n    function _domainSeparatorV4() internal view returns (bytes32) {\r\n        if (address(this) == _cachedThis && block.chainid == _cachedChainId) {\r\n            return _cachedDomainSeparator;\r\n        } else {\r\n            return _buildDomainSeparator();\r\n        }\r\n    }\r\n\r\n    function _buildDomainSeparator() private view returns (bytes32) {\r\n        return keccak256(abi.encode(TYPE_HASH, _hashedName, _hashedVersion, block.chainid, address(this)));\r\n    }\r\n\r\n    /**\r\n     * @dev Given an already https://eips.ethereum.org/EIPS/eip-712#definition-of-hashstruct[hashed struct], this\r\n     * function returns the hash of the fully encoded EIP712 message for this domain.\r\n     *\r\n     * This hash can be used together with {ECDSA-recover} to obtain the signer of a message. For example:\r\n     *\r\n     * ```solidity\r\n     * bytes32 digest = _hashTypedDataV4(keccak256(abi.encode(\r\n     *     keccak256(\"Mail(address to,string contents)\"),\r\n     *     mailTo,\r\n     *     keccak256(bytes(mailContents))\r\n     * )));\r\n     * address signer = ECDSA.recover(digest, signature);\r\n     * ```\r\n     */\r\n    function _hashTypedDataV4(bytes32 structHash) internal view virtual returns (bytes32) {\r\n        return MessageHashUtils.toTypedDataHash(_domainSeparatorV4(), structHash);\r\n    }\r\n\r\n    /**\r\n     * @dev See {IERC-5267}.\r\n     */\r\n    function eip712Domain()\r\n        public\r\n        view\r\n        virtual\r\n        returns (\r\n            bytes1 fields,\r\n            string memory name,\r\n            string memory version,\r\n            uint256 chainId,\r\n            address verifyingContract,\r\n            bytes32 salt,\r\n            uint256[] memory extensions\r\n        )\r\n    {\r\n        return (\r\n            hex\"0f\", // 01111\r\n            _EIP712Name(),\r\n            _EIP712Version(),\r\n            block.chainid,\r\n            address(this),\r\n            bytes32(0),\r\n            new uint256[](0)\r\n        );\r\n    }\r\n\r\n    /**\r\n     * @dev The name parameter for the EIP712 domain.\r\n     *\r\n     * NOTE: By default this function reads _name which is an immutable value.\r\n     * It only reads from storage if necessary (in case the value is too large to fit in a ShortString).\r\n     */\r\n    // solhint-disable-next-line func-name-mixedcase\r\n    function _EIP712Name() internal view returns (string memory) {\r\n        return _name.toStringWithFallback(_nameFallback);\r\n    }\r\n\r\n    /**\r\n     * @dev The version parameter for the EIP712 domain.\r\n     *\r\n     * NOTE: By default this function reads _version which is an immutable value.\r\n     * It only reads from storage if necessary (in case the value is too large to fit in a ShortString).\r\n     */\r\n    // solhint-disable-next-line func-name-mixedcase\r\n    function _EIP712Version() internal view returns (string memory) {\r\n        return _version.toStringWithFallback(_versionFallback);\r\n    }\r\n}\r\n\r\n// File: @openzeppelin/contracts/utils/cryptography/ECDSA.sol\r\n\r\n\r\n// OpenZeppelin Contracts (last updated v5.0.0) (utils/cryptography/ECDSA.sol)\r\n\r\npragma solidity ^0.8.20;\r\n\r\n/**\r\n * @dev Elliptic Curve Digital Signature Algorithm (ECDSA) operations.\r\n *\r\n * These functions can be used to verify that a message was signed by the holder\r\n * of the private keys of a given address.\r\n */\r\nlibrary ECDSA {\r\n    enum RecoverError {\r\n        NoError,\r\n        InvalidSignature,\r\n        InvalidSignatureLength,\r\n        InvalidSignatureS\r\n    }\r\n\r\n    /**\r\n     * @dev The signature derives the `address(0)`.\r\n     */\r\n    error ECDSAInvalidSignature();\r\n\r\n    /**\r\n     * @dev The signature has an invalid length.\r\n     */\r\n    error ECDSAInvalidSignatureLength(uint256 length);\r\n\r\n    /**\r\n     * @dev The signature has an S value that is in the upper half order.\r\n     */\r\n    error ECDSAInvalidSignatureS(bytes32 s);\r\n\r\n    /**\r\n     * @dev Returns the address that signed a hashed message (`hash`) with `signature` or an error. This will not\r\n     * return address(0) without also returning an error description. Errors are documented using an enum (error type)\r\n     * and a bytes32 providing additional information about the error.\r\n     *\r\n     * If no error is returned, then the address can be used for verification purposes.\r\n     *\r\n     * The `ecrecover` EVM precompile allows for malleable (non-unique) signatures:\r\n     * this function rejects them by requiring the `s` value to be in the lower\r\n     * half order, and the `v` value to be either 27 or 28.\r\n     *\r\n     * IMPORTANT: `hash` _must_ be the result of a hash operation for the\r\n     * verification to be secure: it is possible to craft signatures that\r\n     * recover to arbitrary addresses for non-hashed data. A safe way to ensure\r\n     * this is by receiving a hash of the original message (which may otherwise\r\n     * be too long), and then calling {MessageHashUtils-toEthSignedMessageHash} on it.\r\n     *\r\n     * Documentation for signature generation:\r\n     * - with https://web3js.readthedocs.io/en/v1.3.4/web3-eth-accounts.html#sign[Web3.js]\r\n     * - with https://docs.ethers.io/v5/api/signer/#Signer-signMessage[ethers]\r\n     */\r\n    function tryRecover(bytes32 hash, bytes memory signature) internal pure returns (address, RecoverError, bytes32) {\r\n        if (signature.length == 65) {\r\n            bytes32 r;\r\n            bytes32 s;\r\n            uint8 v;\r\n            // ecrecover takes the signature parameters, and the only way to get them\r\n            // currently is to use assembly.\r\n            /// @solidity memory-safe-assembly\r\n            assembly {\r\n                r := mload(add(signature, 0x20))\r\n                s := mload(add(signature, 0x40))\r\n                v := byte(0, mload(add(signature, 0x60)))\r\n            }\r\n            return tryRecover(hash, v, r, s);\r\n        } else {\r\n            return (address(0), RecoverError.InvalidSignatureLength, bytes32(signature.length));\r\n        }\r\n    }\r\n\r\n    /**\r\n     * @dev Returns the address that signed a hashed message (`hash`) with\r\n     * `signature`. This address can then be used for verification purposes.\r\n     *\r\n     * The `ecrecover` EVM precompile allows for malleable (non-unique) signatures:\r\n     * this function rejects them by requiring the `s` value to be in the lower\r\n     * half order, and the `v` value to be either 27 or 28.\r\n     *\r\n     * IMPORTANT: `hash` _must_ be the result of a hash operation for the\r\n     * verification to be secure: it is possible to craft signatures that\r\n     * recover to arbitrary addresses for non-hashed data. A safe way to ensure\r\n     * this is by receiving a hash of the original message (which may otherwise\r\n     * be too long), and then calling {MessageHashUtils-toEthSignedMessageHash} on it.\r\n     */\r\n    function recover(bytes32 hash, bytes memory signature) internal pure returns (address) {\r\n        (address recovered, RecoverError error, bytes32 errorArg) = tryRecover(hash, signature);\r\n        _throwError(error, errorArg);\r\n        return recovered;\r\n    }\r\n\r\n    /**\r\n     * @dev Overload of {ECDSA-tryRecover} that receives the `r` and `vs` short-signature fields separately.\r\n     *\r\n     * See https://eips.ethereum.org/EIPS/eip-2098[EIP-2098 short signatures]\r\n     */\r\n    function tryRecover(bytes32 hash, bytes32 r, bytes32 vs) internal pure returns (address, RecoverError, bytes32) {\r\n        unchecked {\r\n            bytes32 s = vs & bytes32(0x7fffffffffffffffffffffffffffffffffffffffffffffffffffffffffffffff);\r\n            // We do not check for an overflow here since the shift operation results in 0 or 1.\r\n            uint8 v = uint8((uint256(vs) >> 255) + 27);\r\n            return tryRecover(hash, v, r, s);\r\n        }\r\n    }\r\n\r\n    /**\r\n     * @dev Overload of {ECDSA-recover} that receives the `r and `vs` short-signature fields separately.\r\n     */\r\n    function recover(bytes32 hash, bytes32 r, bytes32 vs) internal pure returns (address) {\r\n        (address recovered, RecoverError error, bytes32 errorArg) = tryRecover(hash, r, vs);\r\n        _throwError(error, errorArg);\r\n        return recovered;\r\n    }\r\n\r\n    /**\r\n     * @dev Overload of {ECDSA-tryRecover} that receives the `v`,\r\n     * `r` and `s` signature fields separately.\r\n     */\r\n    function tryRecover(\r\n        bytes32 hash,\r\n        uint8 v,\r\n        bytes32 r,\r\n        bytes32 s\r\n    ) internal pure returns (address, RecoverError, bytes32) {\r\n        // EIP-2 still allows signature malleability for ecrecover(). Remove this possibility and make the signature\r\n        // unique. Appendix F in the Ethereum Yellow paper (https://ethereum.github.io/yellowpaper/paper.pdf), defines\r\n        // the valid range for s in (301): 0 < s < secp256k1n  2 + 1, and for v in (302): v  {27, 28}. Most\r\n        // signatures from current libraries generate a unique signature with an s-value in the lower half order.\r\n        //\r\n        // If your library generates malleable signatures, such as s-values in the upper range, calculate a new s-value\r\n        // with 0xFFFFFFFFFFFFFFFFFFFFFFFFFFFFFFFEBAAEDCE6AF48A03BBFD25E8CD0364141 - s1 and flip v from 27 to 28 or\r\n        // vice versa. If your library also generates signatures with 0/1 for v instead 27/28, add 27 to v to accept\r\n        // these malleable signatures as well.\r\n        if (uint256(s) > 0x7FFFFFFFFFFFFFFFFFFFFFFFFFFFFFFF5D576E7357A4501DDFE92F46681B20A0) {\r\n            return (address(0), RecoverError.InvalidSignatureS, s);\r\n        }\r\n\r\n        // If the signature is valid (and not malleable), return the signer address\r\n        address signer = ecrecover(hash, v, r, s);\r\n        if (signer == address(0)) {\r\n            return (address(0), RecoverError.InvalidSignature, bytes32(0));\r\n        }\r\n\r\n        return (signer, RecoverError.NoError, bytes32(0));\r\n    }\r\n\r\n    /**\r\n     * @dev Overload of {ECDSA-recover} that receives the `v`,\r\n     * `r` and `s` signature fields separately.\r\n     */\r\n    function recover(bytes32 hash, uint8 v, bytes32 r, bytes32 s) internal pure returns (address) {\r\n        (address recovered, RecoverError error, bytes32 errorArg) = tryRecover(hash, v, r, s);\r\n        _throwError(error, errorArg);\r\n        return recovered;\r\n    }\r\n\r\n    /**\r\n     * @dev Optionally reverts with the corresponding custom error according to the `error` argument provided.\r\n     */\r\n    function _throwError(RecoverError error, bytes32 errorArg) private pure {\r\n        if (error == RecoverError.NoError) {\r\n            return; // no error: do nothing\r\n        } else if (error == RecoverError.InvalidSignature) {\r\n            revert ECDSAInvalidSignature();\r\n        } else if (error == RecoverError.InvalidSignatureLength) {\r\n            revert ECDSAInvalidSignatureLength(uint256(errorArg));\r\n        } else if (error == RecoverError.InvalidSignatureS) {\r\n            revert ECDSAInvalidSignatureS(errorArg);\r\n        }\r\n    }\r\n}\r\n\r\n// File: @openzeppelin/contracts/token/ERC20/extensions/IERC20Permit.sol\r\n\r\n\r\n// OpenZeppelin Contracts (last updated v5.0.0) (token/ERC20/extensions/IERC20Permit.sol)\r\n\r\npragma solidity ^0.8.20;\r\n\r\n/**\r\n * @dev Interface of the ERC20 Permit extension allowing approvals to be made via signatures, as defined in\r\n * https://eips.ethereum.org/EIPS/eip-2612[EIP-2612].\r\n *\r\n * Adds the {permit} method, which can be used to change an account's ERC20 allowance (see {IERC20-allowance}) by\r\n * presenting a message signed by the account. By not relying on {IERC20-approve}, the token holder account doesn't\r\n * need to send a transaction, and thus is not required to hold Ether at all.\r\n *\r\n * ==== Security Considerations\r\n *\r\n * There are two important considerations concerning the use of `permit`. The first is that a valid permit signature\r\n * expresses an allowance, and it should not be assumed to convey additional meaning. In particular, it should not be\r\n * considered as an intention to spend the allowance in any specific way. The second is that because permits have\r\n * built-in replay protection and can be submitted by anyone, they can be frontrun. A protocol that uses permits should\r\n * take this into consideration and allow a `permit` call to fail. Combining these two aspects, a pattern that may be\r\n * generally recommended is:\r\n *\r\n * ```solidity\r\n * function doThingWithPermit(..., uint256 value, uint256 deadline, uint8 v, bytes32 r, bytes32 s) public {\r\n *     try token.permit(msg.sender, address(this), value, deadline, v, r, s) {} catch {}\r\n *     doThing(..., value);\r\n * }\r\n *\r\n * function doThing(..., uint256 value) public {\r\n *     token.safeTransferFrom(msg.sender, address(this), value);\r\n *     ...\r\n * }\r\n * ```\r\n *\r\n * Observe that: 1) `msg.sender` is used as the owner, leaving no ambiguity as to the signer intent, and 2) the use of\r\n * `try/catch` allows the permit to fail and makes the code tolerant to frontrunning. (See also\r\n * {SafeERC20-safeTransferFrom}).\r\n *\r\n * Additionally, note that smart contract wallets (such as Argent or Safe) are not able to produce permit signatures, so\r\n * contracts should have entry points that don't rely on permit.\r\n */\r\ninterface IERC20Permit {\r\n    /**\r\n     * @dev Sets `value` as the allowance of `spender` over ``owner``'s tokens,\r\n     * given ``owner``'s signed approval.\r\n     *\r\n     * IMPORTANT: The same issues {IERC20-approve} has related to transaction\r\n     * ordering also apply here.\r\n     *\r\n     * Emits an {Approval} event.\r\n     *\r\n     * Requirements:\r\n     *\r\n     * - `spender` cannot be the zero address.\r\n     * - `deadline` must be a timestamp in the future.\r\n     * - `v`, `r` and `s` must be a valid `secp256k1` signature from `owner`\r\n     * over the EIP712-formatted function arguments.\r\n     * - the signature must use ``owner``'s current nonce (see {nonces}).\r\n     *\r\n     * For more information on the signature format, see the\r\n     * https://eips.ethereum.org/EIPS/eip-2612#specification[relevant EIP\r\n     * section].\r\n     *\r\n     * CAUTION: See Security Considerations above.\r\n     */\r\n    function permit(\r\n        address owner,\r\n        address spender,\r\n        uint256 value,\r\n        uint256 deadline,\r\n        uint8 v,\r\n        bytes32 r,\r\n        bytes32 s\r\n    ) external;\r\n\r\n    /**\r\n     * @dev Returns the current nonce for `owner`. This value must be\r\n     * included whenever a signature is generated for {permit}.\r\n     *\r\n     * Every successful call to {permit} increases ``owner``'s nonce by one. This\r\n     * prevents a signature from being used multiple times.\r\n     */\r\n    function nonces(address owner) external view returns (uint256);\r\n\r\n    /**\r\n     * @dev Returns the domain separator used in the encoding of the signature for {permit}, as defined by {EIP712}.\r\n     */\r\n    // solhint-disable-next-line func-name-mixedcase\r\n    function DOMAIN_SEPARATOR() external view returns (bytes32);\r\n}\r\n\r\n// File: @openzeppelin/contracts/interfaces/draft-IERC6093.sol\r\n\r\n\r\n// OpenZeppelin Contracts (last updated v5.0.0) (interfaces/draft-IERC6093.sol)\r\npragma solidity ^0.8.20;\r\n\r\n/**\r\n * @dev Standard ERC20 Errors\r\n * Interface of the https://eips.ethereum.org/EIPS/eip-6093[ERC-6093] custom errors for ERC20 tokens.\r\n */\r\ninterface IERC20Errors {\r\n    /**\r\n     * @dev Indicates an error related to the current `balance` of a `sender`. Used in transfers.\r\n     * @param sender Address whose tokens are being transferred.\r\n     * @param balance Current balance for the interacting account.\r\n     * @param needed Minimum amount required to perform a transfer.\r\n     */\r\n    error ERC20InsufficientBalance(address sender, uint256 balance, uint256 needed);\r\n\r\n    /**\r\n     * @dev Indicates a failure with the token `sender`. Used in transfers.\r\n     * @param sender Address whose tokens are being transferred.\r\n     */\r\n    error ERC20InvalidSender(address sender);\r\n\r\n    /**\r\n     * @dev Indicates a failure with the token `receiver`. Used in transfers.\r\n     * @param receiver Address to which tokens are being transferred.\r\n     */\r\n    error ERC20InvalidReceiver(address receiver);\r\n\r\n    /**\r\n     * @dev Indicates a failure with the `spender`s `allowance`. Used in transfers.\r\n     * @param spender Address that may be allowed to operate on tokens without being their owner.\r\n     * @param allowance Amount of tokens a `spender` is allowed to operate with.\r\n     * @param needed Minimum amount required to perform a transfer.\r\n     */\r\n    error ERC20InsufficientAllowance(address spender, uint256 allowance, uint256 needed);\r\n\r\n    /**\r\n     * @dev Indicates a failure with the `approver` of a token to be approved. Used in approvals.\r\n     * @param approver Address initiating an approval operation.\r\n     */\r\n    error ERC20InvalidApprover(address approver);\r\n\r\n    /**\r\n     * @dev Indicates a failure with the `spender` to be approved. Used in approvals.\r\n     * @param spender Address that may be allowed to operate on tokens without being their owner.\r\n     */\r\n    error ERC20InvalidSpender(address spender);\r\n}\r\n\r\n/**\r\n * @dev Standard ERC721 Errors\r\n * Interface of the https://eips.ethereum.org/EIPS/eip-6093[ERC-6093] custom errors for ERC721 tokens.\r\n */\r\ninterface IERC721Errors {\r\n    /**\r\n     * @dev Indicates that an address can't be an owner. For example, `address(0)` is a forbidden owner in EIP-20.\r\n     * Used in balance queries.\r\n     * @param owner Address of the current owner of a token.\r\n     */\r\n    error ERC721InvalidOwner(address owner);\r\n\r\n    /**\r\n     * @dev Indicates a `tokenId` whose `owner` is the zero address.\r\n     * @param tokenId Identifier number of a token.\r\n     */\r\n    error ERC721NonexistentToken(uint256 tokenId);\r\n\r\n    /**\r\n     * @dev Indicates an error related to the ownership over a particular token. Used in transfers.\r\n     * @param sender Address whose tokens are being transferred.\r\n     * @param tokenId Identifier number of a token.\r\n     * @param owner Address of the current owner of a token.\r\n     */\r\n    error ERC721IncorrectOwner(address sender, uint256 tokenId, address owner);\r\n\r\n    /**\r\n     * @dev Indicates a failure with the token `sender`. Used in transfers.\r\n     * @param sender Address whose tokens are being transferred.\r\n     */\r\n    error ERC721InvalidSender(address sender);\r\n\r\n    /**\r\n     * @dev Indicates a failure with the token `receiver`. Used in transfers.\r\n     * @param receiver Address to which tokens are being transferred.\r\n     */\r\n    error ERC721InvalidReceiver(address receiver);\r\n\r\n    /**\r\n     * @dev Indicates a failure with the `operator`s approval. Used in transfers.\r\n     * @param operator Address that may be allowed to operate on tokens without being their owner.\r\n     * @param tokenId Identifier number of a token.\r\n     */\r\n    error ERC721InsufficientApproval(address operator, uint256 tokenId);\r\n\r\n    /**\r\n     * @dev Indicates a failure with the `approver` of a token to be approved. Used in approvals.\r\n     * @param approver Address initiating an approval operation.\r\n     */\r\n    error ERC721InvalidApprover(address approver);\r\n\r\n    /**\r\n     * @dev Indicates a failure with the `operator` to be approved. Used in approvals.\r\n     * @param operator Address that may be allowed to operate on tokens without being their owner.\r\n     */\r\n    error ERC721InvalidOperator(address operator);\r\n}\r\n\r\n/**\r\n * @dev Standard ERC1155 Errors\r\n * Interface of the https://eips.ethereum.org/EIPS/eip-6093[ERC-6093] custom errors for ERC1155 tokens.\r\n */\r\ninterface IERC1155Errors {\r\n    /**\r\n     * @dev Indicates an error related to the current `balance` of a `sender`. Used in transfers.\r\n     * @param sender Address whose tokens are being transferred.\r\n     * @param balance Current balance for the interacting account.\r\n     * @param needed Minimum amount required to perform a transfer.\r\n     * @param tokenId Identifier number of a token.\r\n     */\r\n    error ERC1155InsufficientBalance(address sender, uint256 balance, uint256 needed, uint256 tokenId);\r\n\r\n    /**\r\n     * @dev Indicates a failure with the token `sender`. Used in transfers.\r\n     * @param sender Address whose tokens are being transferred.\r\n     */\r\n    error ERC1155InvalidSender(address sender);\r\n\r\n    /**\r\n     * @dev Indicates a failure with the token `receiver`. Used in transfers.\r\n     * @param receiver Address to which tokens are being transferred.\r\n     */\r\n    error ERC1155InvalidReceiver(address receiver);\r\n\r\n    /**\r\n     * @dev Indicates a failure with the `operator`s approval. Used in transfers.\r\n     * @param operator Address that may be allowed to operate on tokens without being their owner.\r\n     * @param owner Address of the current owner of a token.\r\n     */\r\n    error ERC1155MissingApprovalForAll(address operator, address owner);\r\n\r\n    /**\r\n     * @dev Indicates a failure with the `approver` of a token to be approved. Used in approvals.\r\n     * @param approver Address initiating an approval operation.\r\n     */\r\n    error ERC1155InvalidApprover(address approver);\r\n\r\n    /**\r\n     * @dev Indicates a failure with the `operator` to be approved. Used in approvals.\r\n     * @param operator Address that may be allowed to operate on tokens without being their owner.\r\n     */\r\n    error ERC1155InvalidOperator(address operator);\r\n\r\n    /**\r\n     * @dev Indicates an array length mismatch between ids and values in a safeBatchTransferFrom operation.\r\n     * Used in batch transfers.\r\n     * @param idsLength Length of the array of token identifiers\r\n     * @param valuesLength Length of the array of token amounts\r\n     */\r\n    error ERC1155InvalidArrayLength(uint256 idsLength, uint256 valuesLength);\r\n}\r\n\r\n// File: @openzeppelin/contracts/utils/Context.sol\r\n\r\n\r\n// OpenZeppelin Contracts (last updated v5.0.1) (utils/Context.sol)\r\n\r\npragma solidity ^0.8.20;\r\n\r\n/**\r\n * @dev Provides information about the current execution context, including the\r\n * sender of the transaction and its data. While these are generally available\r\n * via msg.sender and msg.data, they should not be accessed in such a direct\r\n * manner, since when dealing with meta-transactions the account sending and\r\n * paying for execution may not be the actual sender (as far as an application\r\n * is concerned).\r\n *\r\n * This contract is only required for intermediate, library-like contracts.\r\n */\r\nabstract contract Context {\r\n    function _msgSender() internal view virtual returns (address) {\r\n        return msg.sender;\r\n    }\r\n\r\n    function _msgData() internal view virtual returns (bytes calldata) {\r\n        return msg.data;\r\n    }\r\n\r\n    function _contextSuffixLength() internal view virtual returns (uint256) {\r\n        return 0;\r\n    }\r\n}\r\n\r\n// File: @openzeppelin/contracts/access/Ownable.sol\r\n\r\n\r\n// OpenZeppelin Contracts (last updated v5.0.0) (access/Ownable.sol)\r\n\r\npragma solidity ^0.8.20;\r\n\r\n\r\n/**\r\n * @dev Contract module which provides a basic access control mechanism, where\r\n * there is an account (an owner) that can be granted exclusive access to\r\n * specific functions.\r\n *\r\n * The initial owner is set to the address provided by the deployer. This can\r\n * later be changed with {transferOwnership}.\r\n *\r\n * This module is used through inheritance. It will make available the modifier\r\n * `onlyOwner`, which can be applied to your functions to restrict their use to\r\n * the owner.\r\n */\r\nabstract contract Ownable is Context {\r\n    address private _owner;\r\n\r\n    /**\r\n     * @dev The caller account is not authorized to perform an operation.\r\n     */\r\n    error OwnableUnauthorizedAccount(address account);\r\n\r\n    /**\r\n     * @dev The owner is not a valid owner account. (eg. `address(0)`)\r\n     */\r\n    error OwnableInvalidOwner(address owner);\r\n\r\n    event OwnershipTransferred(address indexed previousOwner, address indexed newOwner);\r\n\r\n    /**\r\n     * @dev Initializes the contract setting the address provided by the deployer as the initial owner.\r\n     */\r\n    constructor(address initialOwner) {\r\n        if (initialOwner == address(0)) {\r\n            revert OwnableInvalidOwner(address(0));\r\n        }\r\n        _transferOwnership(initialOwner);\r\n    }\r\n\r\n    /**\r\n     * @dev Throws if called by any account other than the owner.\r\n     */\r\n    modifier onlyOwner() {\r\n        _checkOwner();\r\n        _;\r\n    }\r\n\r\n    /**\r\n     * @dev Returns the address of the current owner.\r\n     */\r\n    function owner() public view virtual returns (address) {\r\n        return _owner;\r\n    }\r\n\r\n    /**\r\n     * @dev Throws if the sender is not the owner.\r\n     */\r\n    function _checkOwner() internal view virtual {\r\n        if (owner() != _msgSender()) {\r\n            revert OwnableUnauthorizedAccount(_msgSender());\r\n        }\r\n    }\r\n\r\n    /**\r\n     * @dev Leaves the contract without owner. It will not be possible to call\r\n     * `onlyOwner` functions. Can only be called by the current owner.\r\n     *\r\n     * NOTE: Renouncing ownership will leave the contract without an owner,\r\n     * thereby disabling any functionality that is only available to the owner.\r\n     */\r\n    function renounceOwnership() public virtual onlyOwner {\r\n        _transferOwnership(address(0));\r\n    }\r\n\r\n    /**\r\n     * @dev Transfers ownership of the contract to a new account (`newOwner`).\r\n     * Can only be called by the current owner.\r\n     */\r\n    function transferOwnership(address newOwner) public virtual onlyOwner {\r\n        if (newOwner == address(0)) {\r\n            revert OwnableInvalidOwner(address(0));\r\n        }\r\n        _transferOwnership(newOwner);\r\n    }\r\n\r\n    /**\r\n     * @dev Transfers ownership of the contract to a new account (`newOwner`).\r\n     * Internal function without access restriction.\r\n     */\r\n    function _transferOwnership(address newOwner) internal virtual {\r\n        address oldOwner = _owner;\r\n        _owner = newOwner;\r\n        emit OwnershipTransferred(oldOwner, newOwner);\r\n    }\r\n}\r\n\r\n// File: @openzeppelin/contracts/utils/Pausable.sol\r\n\r\n\r\n// OpenZeppelin Contracts (last updated v5.0.0) (utils/Pausable.sol)\r\n\r\npragma solidity ^0.8.20;\r\n\r\n\r\n/**\r\n * @dev Contract module which allows children to implement an emergency stop\r\n * mechanism that can be triggered by an authorized account.\r\n *\r\n * This module is used through inheritance. It will make available the\r\n * modifiers `whenNotPaused` and `whenPaused`, which can be applied to\r\n * the functions of your contract. Note that they will not be pausable by\r\n * simply including this module, only once the modifiers are put in place.\r\n */\r\nabstract contract Pausable is Context {\r\n    bool private _paused;\r\n\r\n    /**\r\n     * @dev Emitted when the pause is triggered by `account`.\r\n     */\r\n    event Paused(address account);\r\n\r\n    /**\r\n     * @dev Emitted when the pause is lifted by `account`.\r\n     */\r\n    event Unpaused(address account);\r\n\r\n    /**\r\n     * @dev The operation failed because the contract is paused.\r\n     */\r\n    error EnforcedPause();\r\n\r\n    /**\r\n     * @dev The operation failed because the contract is not paused.\r\n     */\r\n    error ExpectedPause();\r\n\r\n    /**\r\n     * @dev Initializes the contract in unpaused state.\r\n     */\r\n    constructor() {\r\n        _paused = false;\r\n    }\r\n\r\n    /**\r\n     * @dev Modifier to make a function callable only when the contract is not paused.\r\n     *\r\n     * Requirements:\r\n     *\r\n     * - The contract must not be paused.\r\n     */\r\n    modifier whenNotPaused() {\r\n        _requireNotPaused();\r\n        _;\r\n    }\r\n\r\n    /**\r\n     * @dev Modifier to make a function callable only when the contract is paused.\r\n     *\r\n     * Requirements:\r\n     *\r\n     * - The contract must be paused.\r\n     */\r\n    modifier whenPaused() {\r\n        _requirePaused();\r\n        _;\r\n    }\r\n\r\n    /**\r\n     * @dev Returns true if the contract is paused, and false otherwise.\r\n     */\r\n    function paused() public view virtual returns (bool) {\r\n        return _paused;\r\n    }\r\n\r\n    /**\r\n     * @dev Throws if the contract is paused.\r\n     */\r\n    function _requireNotPaused() internal view virtual {\r\n        if (paused()) {\r\n            revert EnforcedPause();\r\n        }\r\n    }\r\n\r\n    /**\r\n     * @dev Throws if the contract is not paused.\r\n     */\r\n    function _requirePaused() internal view virtual {\r\n        if (!paused()) {\r\n            revert ExpectedPause();\r\n        }\r\n    }\r\n\r\n    /**\r\n     * @dev Triggers stopped state.\r\n     *\r\n     * Requirements:\r\n     *\r\n     * - The contract must not be paused.\r\n     */\r\n    function _pause() internal virtual whenNotPaused {\r\n        _paused = true;\r\n        emit Paused(_msgSender());\r\n    }\r\n\r\n    /**\r\n     * @dev Returns to normal state.\r\n     *\r\n     * Requirements:\r\n     *\r\n     * - The contract must be paused.\r\n     */\r\n    function _unpause() internal virtual whenPaused {\r\n        _paused = false;\r\n        emit Unpaused(_msgSender());\r\n    }\r\n}\r\n\r\n// File: @openzeppelin/contracts/token/ERC20/IERC20.sol\r\n\r\n\r\n// OpenZeppelin Contracts (last updated v5.0.0) (token/ERC20/IERC20.sol)\r\n\r\npragma solidity ^0.8.20;\r\n\r\n/**\r\n * @dev Interface of the ERC20 standard as defined in the EIP.\r\n */\r\ninterface IERC20 {\r\n    /**\r\n     * @dev Emitted when `value` tokens are moved from one account (`from`) to\r\n     * another (`to`).\r\n     *\r\n     * Note that `value` may be zero.\r\n     */\r\n    event Transfer(address indexed from, address indexed to, uint256 value);\r\n\r\n    /**\r\n     * @dev Emitted when the allowance of a `spender` for an `owner` is set by\r\n     * a call to {approve}. `value` is the new allowance.\r\n     */\r\n    event Approval(address indexed owner, address indexed spender, uint256 value);\r\n\r\n    /**\r\n     * @dev Returns the value of tokens in existence.\r\n     */\r\n    function totalSupply() external view returns (uint256);\r\n\r\n    /**\r\n     * @dev Returns the value of tokens owned by `account`.\r\n     */\r\n    function balanceOf(address account) external view returns (uint256);\r\n\r\n    /**\r\n     * @dev Moves a `value` amount of tokens from the caller's account to `to`.\r\n     *\r\n     * Returns a boolean value indicating whether the operation succeeded.\r\n     *\r\n     * Emits a {Transfer} event.\r\n     */\r\n    function transfer(address to, uint256 value) external returns (bool);\r\n\r\n    /**\r\n     * @dev Returns the remaining number of tokens that `spender` will be\r\n     * allowed to spend on behalf of `owner` through {transferFrom}. This is\r\n     * zero by default.\r\n     *\r\n     * This value changes when {approve} or {transferFrom} are called.\r\n     */\r\n    function allowance(address owner, address spender) external view returns (uint256);\r\n\r\n    /**\r\n     * @dev Sets a `value` amount of tokens as the allowance of `spender` over the\r\n     * caller's tokens.\r\n     *\r\n     * Returns a boolean value indicating whether the operation succeeded.\r\n     *\r\n     * IMPORTANT: Beware that changing an allowance with this method brings the risk\r\n     * that someone may use both the old and the new allowance by unfortunate\r\n     * transaction ordering. One possible solution to mitigate this race\r\n     * condition is to first reduce the spender's allowance to 0 and set the\r\n     * desired value afterwards:\r\n     * https://github.com/ethereum/EIPs/issues/20#issuecomment-263524729\r\n     *\r\n     * Emits an {Approval} event.\r\n     */\r\n    function approve(address spender, uint256 value) external returns (bool);\r\n\r\n    /**\r\n     * @dev Moves a `value` amount of tokens from `from` to `to` using the\r\n     * allowance mechanism. `value` is then deducted from the caller's\r\n     * allowance.\r\n     *\r\n     * Returns a boolean value indicating whether the operation succeeded.\r\n     *\r\n     * Emits a {Transfer} event.\r\n     */\r\n    function transferFrom(address from, address to, uint256 value) external returns (bool);\r\n}\r\n\r\n// File: @openzeppelin/contracts/token/ERC20/extensions/IERC20Metadata.sol\r\n\r\n\r\n// OpenZeppelin Contracts (last updated v5.0.0) (token/ERC20/extensions/IERC20Metadata.sol)\r\n\r\npragma solidity ^0.8.20;\r\n\r\n\r\n/**\r\n * @dev Interface for the optional metadata functions from the ERC20 standard.\r\n */\r\ninterface IERC20Metadata is IERC20 {\r\n    /**\r\n     * @dev Returns the name of the token.\r\n     */\r\n    function name() external view returns (string memory);\r\n\r\n    /**\r\n     * @dev Returns the symbol of the token.\r\n     */\r\n    function symbol() external view returns (string memory);\r\n\r\n    /**\r\n     * @dev Returns the decimals places of the token.\r\n     */\r\n    function decimals() external view returns (uint8);\r\n}\r\n\r\n// File: @openzeppelin/contracts/token/ERC20/ERC20.sol\r\n\r\n\r\n// OpenZeppelin Contracts (last updated v5.0.0) (token/ERC20/ERC20.sol)\r\n\r\npragma solidity ^0.8.20;\r\n\r\n\r\n\r\n\r\n\r\n/**\r\n * @dev Implementation of the {IERC20} interface.\r\n *\r\n * This implementation is agnostic to the way tokens are created. This means\r\n * that a supply mechanism has to be added in a derived contract using {_mint}.\r\n *\r\n * TIP: For a detailed writeup see our guide\r\n * https://forum.openzeppelin.com/t/how-to-implement-erc20-supply-mechanisms/226[How\r\n * to implement supply mechanisms].\r\n *\r\n * The default value of {decimals} is 18. To change this, you should override\r\n * this function so it returns a different value.\r\n *\r\n * We have followed general OpenZeppelin Contracts guidelines: functions revert\r\n * instead returning `false` on failure. This behavior is nonetheless\r\n * conventional and does not conflict with the expectations of ERC20\r\n * applications.\r\n *\r\n * Additionally, an {Approval} event is emitted on calls to {transferFrom}.\r\n * This allows applications to reconstruct the allowance for all accounts just\r\n * by listening to said events. Other implementations of the EIP may not emit\r\n * these events, as it isn't required by the specification.\r\n */\r\nabstract contract ERC20 is Context, IERC20, IERC20Metadata, IERC20Errors {\r\n    mapping(address account => uint256) private _balances;\r\n\r\n    mapping(address account => mapping(address spender => uint256)) private _allowances;\r\n\r\n    uint256 private _totalSupply;\r\n\r\n    string private _name;\r\n    string private _symbol;\r\n\r\n    /**\r\n     * @dev Sets the values for {name} and {symbol}.\r\n     *\r\n     * All two of these values are immutable: they can only be set once during\r\n     * construction.\r\n     */\r\n    constructor(string memory name_, string memory symbol_) {\r\n        _name = name_;\r\n        _symbol = symbol_;\r\n    }\r\n\r\n    /**\r\n     * @dev Returns the name of the token.\r\n     */\r\n    function name() public view virtual returns (string memory) {\r\n        return _name;\r\n    }\r\n\r\n    /**\r\n     * @dev Returns the symbol of the token, usually a shorter version of the\r\n     * name.\r\n     */\r\n    function symbol() public view virtual returns (string memory) {\r\n        return _symbol;\r\n    }\r\n\r\n    /**\r\n     * @dev Returns the number of decimals used to get its user representation.\r\n     * For example, if `decimals` equals `2`, a balance of `505` tokens should\r\n     * be displayed to a user as `5.05` (`505 / 10 ** 2`).\r\n     *\r\n     * Tokens usually opt for a value of 18, imitating the relationship between\r\n     * Ether and Wei. This is the default value returned by this function, unless\r\n     * it's overridden.\r\n     *\r\n     * NOTE: This information is only used for _display_ purposes: it in\r\n     * no way affects any of the arithmetic of the contract, including\r\n     * {IERC20-balanceOf} and {IERC20-transfer}.\r\n     */\r\n    function decimals() public view virtual returns (uint8) {\r\n        return 18;\r\n    }\r\n\r\n    /**\r\n     * @dev See {IERC20-totalSupply}.\r\n     */\r\n    function totalSupply() public view virtual returns (uint256) {\r\n        return _totalSupply;\r\n    }\r\n\r\n    /**\r\n     * @dev See {IERC20-balanceOf}.\r\n     */\r\n    function balanceOf(address account) public view virtual returns (uint256) {\r\n        return _balances[account];\r\n    }\r\n\r\n    /**\r\n     * @dev See {IERC20-transfer}.\r\n     *\r\n     * Requirements:\r\n     *\r\n     * - `to` cannot be the zero address.\r\n     * - the caller must have a balance of at least `value`.\r\n     */\r\n    function transfer(address to, uint256 value) public virtual returns (bool) {\r\n        address owner = _msgSender();\r\n        _transfer(owner, to, value);\r\n        return true;\r\n    }\r\n\r\n    /**\r\n     * @dev See {IERC20-allowance}.\r\n     */\r\n    function allowance(address owner, address spender) public view virtual returns (uint256) {\r\n        return _allowances[owner][spender];\r\n    }\r\n\r\n    /**\r\n     * @dev See {IERC20-approve}.\r\n     *\r\n     * NOTE: If `value` is the maximum `uint256`, the allowance is not updated on\r\n     * `transferFrom`. This is semantically equivalent to an infinite approval.\r\n     *\r\n     * Requirements:\r\n     *\r\n     * - `spender` cannot be the zero address.\r\n     */\r\n    function approve(address spender, uint256 value) public virtual returns (bool) {\r\n        address owner = _msgSender();\r\n        _approve(owner, spender, value);\r\n        return true;\r\n    }\r\n\r\n    /**\r\n     * @dev See {IERC20-transferFrom}.\r\n     *\r\n     * Emits an {Approval} event indicating the updated allowance. This is not\r\n     * required by the EIP. See the note at the beginning of {ERC20}.\r\n     *\r\n     * NOTE: Does not update the allowance if the current allowance\r\n     * is the maximum `uint256`.\r\n     *\r\n     * Requirements:\r\n     *\r\n     * - `from` and `to` cannot be the zero address.\r\n     * - `from` must have a balance of at least `value`.\r\n     * - the caller must have allowance for ``from``'s tokens of at least\r\n     * `value`.\r\n     */\r\n    function transferFrom(address from, address to, uint256 value) public virtual returns (bool) {\r\n        address spender = _msgSender();\r\n        _spendAllowance(from, spender, value);\r\n        _transfer(from, to, value);\r\n        return true;\r\n    }\r\n\r\n    /**\r\n     * @dev Moves a `value` amount of tokens from `from` to `to`.\r\n     *\r\n     * This internal function is equivalent to {transfer}, and can be used to\r\n     * e.g. implement automatic token fees, slashing mechanisms, etc.\r\n     *\r\n     * Emits a {Transfer} event.\r\n     *\r\n     * NOTE: This function is not virtual, {_update} should be overridden instead.\r\n     */\r\n    function _transfer(address from, address to, uint256 value) internal {\r\n        if (from == address(0)) {\r\n            revert ERC20InvalidSender(address(0));\r\n        }\r\n        if (to == address(0)) {\r\n            revert ERC20InvalidReceiver(address(0));\r\n        }\r\n        _update(from, to, value);\r\n    }\r\n\r\n    /**\r\n     * @dev Transfers a `value` amount of tokens from `from` to `to`, or alternatively mints (or burns) if `from`\r\n     * (or `to`) is the zero address. All customizations to transfers, mints, and burns should be done by overriding\r\n     * this function.\r\n     *\r\n     * Emits a {Transfer} event.\r\n     */\r\n    function _update(address from, address to, uint256 value) internal virtual {\r\n        if (from == address(0)) {\r\n            // Overflow check required: The rest of the code assumes that totalSupply never overflows\r\n            _totalSupply += value;\r\n        } else {\r\n            uint256 fromBalance = _balances[from];\r\n            if (fromBalance < value) {\r\n                revert ERC20InsufficientBalance(from, fromBalance, value);\r\n            }\r\n            unchecked {\r\n                // Overflow not possible: value <= fromBalance <= totalSupply.\r\n                _balances[from] = fromBalance - value;\r\n            }\r\n        }\r\n\r\n        if (to == address(0)) {\r\n            unchecked {\r\n                // Overflow not possible: value <= totalSupply or value <= fromBalance <= totalSupply.\r\n                _totalSupply -= value;\r\n            }\r\n        } else {\r\n            unchecked {\r\n                // Overflow not possible: balance + value is at most totalSupply, which we know fits into a uint256.\r\n                _balances[to] += value;\r\n            }\r\n        }\r\n\r\n        emit Transfer(from, to, value);\r\n    }\r\n\r\n    /**\r\n     * @dev Creates a `value` amount of tokens and assigns them to `account`, by transferring it from address(0).\r\n     * Relies on the `_update` mechanism\r\n     *\r\n     * Emits a {Transfer} event with `from` set to the zero address.\r\n     *\r\n     * NOTE: This function is not virtual, {_update} should be overridden instead.\r\n     */\r\n    function _mint(address account, uint256 value) internal {\r\n        if (account == address(0)) {\r\n            revert ERC20InvalidReceiver(address(0));\r\n        }\r\n        _update(address(0), account, value);\r\n    }\r\n\r\n    /**\r\n     * @dev Destroys a `value` amount of tokens from `account`, lowering the total supply.\r\n     * Relies on the `_update` mechanism.\r\n     *\r\n     * Emits a {Transfer} event with `to` set to the zero address.\r\n     *\r\n     * NOTE: This function is not virtual, {_update} should be overridden instead\r\n     */\r\n    function _burn(address account, uint256 value) internal {\r\n        if (account == address(0)) {\r\n            revert ERC20InvalidSender(address(0));\r\n        }\r\n        _update(account, address(0), value);\r\n    }\r\n\r\n    /**\r\n     * @dev Sets `value` as the allowance of `spender` over the `owner` s tokens.\r\n     *\r\n     * This internal function is equivalent to `approve`, and can be used to\r\n     * e.g. set automatic allowances for certain subsystems, etc.\r\n     *\r\n     * Emits an {Approval} event.\r\n     *\r\n     * Requirements:\r\n     *\r\n     * - `owner` cannot be the zero address.\r\n     * - `spender` cannot be the zero address.\r\n     *\r\n     * Overrides to this logic should be done to the variant with an additional `bool emitEvent` argument.\r\n     */\r\n    function _approve(address owner, address spender, uint256 value) internal {\r\n        _approve(owner, spender, value, true);\r\n    }\r\n\r\n    /**\r\n     * @dev Variant of {_approve} with an optional flag to enable or disable the {Approval} event.\r\n     *\r\n     * By default (when calling {_approve}) the flag is set to true. On the other hand, approval changes made by\r\n     * `_spendAllowance` during the `transferFrom` operation set the flag to false. This saves gas by not emitting any\r\n     * `Approval` event during `transferFrom` operations.\r\n     *\r\n     * Anyone who wishes to continue emitting `Approval` events on the`transferFrom` operation can force the flag to\r\n     * true using the following override:\r\n     * ```\r\n     * function _approve(address owner, address spender, uint256 value, bool) internal virtual override {\r\n     *     super._approve(owner, spender, value, true);\r\n     * }\r\n     * ```\r\n     *\r\n     * Requirements are the same as {_approve}.\r\n     */\r\n    function _approve(address owner, address spender, uint256 value, bool emitEvent) internal virtual {\r\n        if (owner == address(0)) {\r\n            revert ERC20InvalidApprover(address(0));\r\n        }\r\n        if (spender == address(0)) {\r\n            revert ERC20InvalidSpender(address(0));\r\n        }\r\n        _allowances[owner][spender] = value;\r\n        if (emitEvent) {\r\n            emit Approval(owner, spender, value);\r\n        }\r\n    }\r\n\r\n    /**\r\n     * @dev Updates `owner` s allowance for `spender` based on spent `value`.\r\n     *\r\n     * Does not update the allowance value in case of infinite allowance.\r\n     * Revert if not enough allowance is available.\r\n     *\r\n     * Does not emit an {Approval} event.\r\n     */\r\n    function _spendAllowance(address owner, address spender, uint256 value) internal virtual {\r\n        uint256 currentAllowance = allowance(owner, spender);\r\n        if (currentAllowance != type(uint256).max) {\r\n            if (currentAllowance < value) {\r\n                revert ERC20InsufficientAllowance(spender, currentAllowance, value);\r\n            }\r\n            unchecked {\r\n                _approve(owner, spender, currentAllowance - value, false);\r\n            }\r\n        }\r\n    }\r\n}\r\n\r\n// File: @openzeppelin/contracts/token/ERC20/extensions/ERC20Permit.sol\r\n\r\n\r\n// OpenZeppelin Contracts (last updated v5.0.0) (token/ERC20/extensions/ERC20Permit.sol)\r\n\r\npragma solidity ^0.8.20;\r\n\r\n\r\n\r\n\r\n\r\n\r\n/**\r\n * @dev Implementation of the ERC20 Permit extension allowing approvals to be made via signatures, as defined in\r\n * https://eips.ethereum.org/EIPS/eip-2612[EIP-2612].\r\n *\r\n * Adds the {permit} method, which can be used to change an account's ERC20 allowance (see {IERC20-allowance}) by\r\n * presenting a message signed by the account. By not relying on `{IERC20-approve}`, the token holder account doesn't\r\n * need to send a transaction, and thus is not required to hold Ether at all.\r\n */\r\nabstract contract ERC20Permit is ERC20, IERC20Permit, EIP712, Nonces {\r\n    bytes32 private constant PERMIT_TYPEHASH =\r\n        keccak256(\"Permit(address owner,address spender,uint256 value,uint256 nonce,uint256 deadline)\");\r\n\r\n    /**\r\n     * @dev Permit deadline has expired.\r\n     */\r\n    error ERC2612ExpiredSignature(uint256 deadline);\r\n\r\n    /**\r\n     * @dev Mismatched signature.\r\n     */\r\n    error ERC2612InvalidSigner(address signer, address owner);\r\n\r\n    /**\r\n     * @dev Initializes the {EIP712} domain separator using the `name` parameter, and setting `version` to `\"1\"`.\r\n     *\r\n     * It's a good idea to use the same `name` that is defined as the ERC20 token name.\r\n     */\r\n    constructor(string memory name) EIP712(name, \"1\") {}\r\n\r\n    /**\r\n     * @inheritdoc IERC20Permit\r\n     */\r\n    function permit(\r\n        address owner,\r\n        address spender,\r\n        uint256 value,\r\n        uint256 deadline,\r\n        uint8 v,\r\n        bytes32 r,\r\n        bytes32 s\r\n    ) public virtual {\r\n        if (block.timestamp > deadline) {\r\n            revert ERC2612ExpiredSignature(deadline);\r\n        }\r\n\r\n        bytes32 structHash = keccak256(abi.encode(PERMIT_TYPEHASH, owner, spender, value, _useNonce(owner), deadline));\r\n\r\n        bytes32 hash = _hashTypedDataV4(structHash);\r\n\r\n        address signer = ECDSA.recover(hash, v, r, s);\r\n        if (signer != owner) {\r\n            revert ERC2612InvalidSigner(signer, owner);\r\n        }\r\n\r\n        _approve(owner, spender, value);\r\n    }\r\n\r\n    /**\r\n     * @inheritdoc IERC20Permit\r\n     */\r\n    function nonces(address owner) public view virtual override(IERC20Permit, Nonces) returns (uint256) {\r\n        return super.nonces(owner);\r\n    }\r\n\r\n    /**\r\n     * @inheritdoc IERC20Permit\r\n     */\r\n    // solhint-disable-next-line func-name-mixedcase\r\n    function DOMAIN_SEPARATOR() external view virtual returns (bytes32) {\r\n        return _domainSeparatorV4();\r\n    }\r\n}\r\n\r\n// File: @openzeppelin/contracts/token/ERC20/extensions/ERC20Pausable.sol\r\n\r\n\r\n// OpenZeppelin Contracts (last updated v5.0.0) (token/ERC20/extensions/ERC20Pausable.sol)\r\n\r\npragma solidity ^0.8.20;\r\n\r\n\r\n\r\n/**\r\n * @dev ERC20 token with pausable token transfers, minting and burning.\r\n *\r\n * Useful for scenarios such as preventing trades until the end of an evaluation\r\n * period, or having an emergency switch for freezing all token transfers in the\r\n * event of a large bug.\r\n *\r\n * IMPORTANT: This contract does not include public pause and unpause functions. In\r\n * addition to inheriting this contract, you must define both functions, invoking the\r\n * {Pausable-_pause} and {Pausable-_unpause} internal functions, with appropriate\r\n * access control, e.g. using {AccessControl} or {Ownable}. Not doing so will\r\n * make the contract pause mechanism of the contract unreachable, and thus unusable.\r\n */\r\nabstract contract ERC20Pausable is ERC20, Pausable {\r\n    /**\r\n     * @dev See {ERC20-_update}.\r\n     *\r\n     * Requirements:\r\n     *\r\n     * - the contract must not be paused.\r\n     */\r\n    function _update(address from, address to, uint256 value) internal virtual override whenNotPaused {\r\n        super._update(from, to, value);\r\n    }\r\n}\r\n\r\n// File: @openzeppelin/contracts/token/ERC20/extensions/ERC20Burnable.sol\r\n\r\n\r\n// OpenZeppelin Contracts (last updated v5.0.0) (token/ERC20/extensions/ERC20Burnable.sol)\r\n\r\npragma solidity ^0.8.20;\r\n\r\n\r\n\r\n/**\r\n * @dev Extension of {ERC20} that allows token holders to destroy both their own\r\n * tokens and those that they have an allowance for, in a way that can be\r\n * recognized off-chain (via event analysis).\r\n */\r\nabstract contract ERC20Burnable is Context, ERC20 {\r\n    /**\r\n     * @dev Destroys a `value` amount of tokens from the caller.\r\n     *\r\n     * See {ERC20-_burn}.\r\n     */\r\n    function burn(uint256 value) public virtual {\r\n        _burn(_msgSender(), value);\r\n    }\r\n\r\n    /**\r\n     * @dev Destroys a `value` amount of tokens from `account`, deducting from\r\n     * the caller's allowance.\r\n     *\r\n     * See {ERC20-_burn} and {ERC20-allowance}.\r\n     *\r\n     * Requirements:\r\n     *\r\n     * - the caller must have allowance for ``accounts``'s tokens of at least\r\n     * `value`.\r\n     */\r\n    function burnFrom(address account, uint256 value) public virtual {\r\n        _spendAllowance(account, _msgSender(), value);\r\n        _burn(account, value);\r\n    }\r\n}\r\n\r\n\r\npragma solidity ^0.8.20;\r\n\r\ncontract ChemiCoin is ERC20, Ownable {\r\n\r\n    // Declara una variable para el contrato ERC20\r\n    IERC20 private _token;\r\n    //uint256 public constant MAX_SUPPLY = 1000000 * 10**18; // Max total supply of Chemicoins\r\n    mapping(address => uint256) public stakingBalance;\r\n    mapping(address => uint256) public rewardsBalance;\r\n    mapping(address => uint256) public lastRewardClaimTime;\r\n\r\n    event Mint(address indexed to, uint256 amount);\r\n    event Burn(address indexed from, uint256 amount);\r\n    event Staked(address indexed staker, uint256 amount);\r\n    event Unstaked(address indexed staker, uint256 amount);\r\n    event RewardClaimed(address indexed staker, uint256 amount);\r\n    // Evento para registrar la compra de tokens\r\n    event TokensPurchased(address buyer, uint256 amount, uint256 tokensReceived);\r\n\r\n    constructor(string memory _name, string memory _symbol, address initialOwner) ERC20(_name, _symbol) Ownable(initialOwner) {\r\n    \r\n        _mint(address(this), 10000 * 10**18);\r\n    }\r\n\r\n    function mint(address to, uint256 amount) external onlyOwner {\r\n        //require((totalSupply() + amount) <= MAX_SUPPLY, \"Exceeds max supply\");\r\n        _mint(to, amount);\r\n        emit Mint(to, amount);\r\n    }\r\n\r\n    function burn(uint256 amount) external payable {\r\n        _burn(msg.sender, amount);\r\n        emit Burn(msg.sender, amount);\r\n    }\r\n\r\n    // Funcin para que los usuarios compren tokens\r\n    function buyTokens(uint256 tokensToBuy) public payable {\r\n        require(tokensToBuy > 0, \"tokensToBuy must be greater than 0\");\r\n\r\n        // Calcular el monto de ETH necesario para comprar los tokens (0.01 ETH por token)\r\n        uint256 amount = tokensToBuy * 1 ether / 100;\r\n\r\n        // Verificar si se ha enviado suficiente ETH\r\n        require(msg.value >= amount, \"Insufficient ETH sent\");\r\n\r\n        // Transferir ETH al contrato\r\n        payable(address(this)).transfer(amount);\r\n\r\n        // Transferir tokens al comprador\r\n        _transfer(address(this), msg.sender, tokensToBuy);\r\n    }\r\n\r\n    // Funcin para que los usuarios compren tokens\r\n    function buyTokens2() public payable {\r\n        // Calcular el monto de ETH necesario para comprar un token (0.01 ETH por token)\r\n        uint256 tokenPrice = 0.01 ether;\r\n    \r\n        // Calcular la cantidad de tokens que se comprarn en funcin del valor de msg.value\r\n        uint256 tokensToBuy = msg.value / tokenPrice;\r\n    \r\n        // Verificar si se ha enviado suficiente ETH para comprar al menos un token\r\n        require(tokensToBuy > 0, \"Insufficient ETH sent\");\r\n\r\n        // Transferir tokens al comprador\r\n        _transfer(address(this), msg.sender, tokensToBuy);\r\n    }\r\n\r\n    // Funcin para que los usuarios compren tokens\r\n    function buyTokens3() external payable {\r\n        // Obtiene el monto de ETH enviado por el comprador\r\n        uint256 ethAmount = msg.value;\r\n    \r\n        // Calcula la cantidad de tokens a recibir (por ejemplo, 1 ETH = 100 tokens)\r\n        uint256 tokenAmount = ethAmount * 100; // Suponiendo que 1 ETH equivale a 100 tokens\r\n\r\n        // Transfiere los tokens al comprador\r\n        payable(msg.sender).transfer(tokenAmount);\r\n\r\n        // Emite el evento\r\n        emit TokensPurchased(msg.sender, ethAmount, tokenAmount);\r\n    }\r\n\r\n    function stake(uint256 amount) external {\r\n        require(amount > 0, \"Amount must be greater than 0\");\r\n        require(balanceOf(msg.sender) >= amount, \"Insufficient balance\");\r\n        // Actualizar el tiempo del ltimo stake del 'msg.sender'\r\n        lastRewardClaimTime[msg.sender] = block.timestamp;\r\n        stakingBalance[msg.sender] = stakingBalance[msg.sender] + amount; //.add(amount);\r\n        _transfer(msg.sender, address(this), amount);\r\n        emit Staked(msg.sender, amount);\r\n    }\r\n\r\nfunction unstake(uint256 amount) external {\r\n    require(amount > 0, \"Amount must be greater than 0\");\r\n    require(stakingBalance[msg.sender] >= amount, \"Insufficient staked balance\");\r\n    \r\n    // Restar la cantidad 'amount' del balance de staking del 'msg.sender'\r\n    stakingBalance[msg.sender] -= amount;\r\n    \r\n    // Transferir la cantidad 'amount' de tokens desde el contrato al 'msg.sender'\r\n    _transfer(address(this), msg.sender, amount);\r\n    \r\n    emit Unstaked(msg.sender, amount);\r\n}\r\n\r\nuint256 constant public APY = 10; // 10% APY\r\n\r\n// Funcin para reclamar recompensa\r\nfunction claimReward() external {\r\n    require(lastRewardClaimTime[msg.sender] != 0, \"No reward available\");\r\n    \r\n    uint256 timeElapsed = block.timestamp - lastRewardClaimTime[msg.sender];\r\n    uint256 reward = stakingBalance[msg.sender] * timeElapsed * APY / (365 days); // Calcular recompensa basada en tiempo y APY\r\n    rewardsBalance[msg.sender] += reward;\r\n    lastRewardClaimTime[msg.sender] = block.timestamp; // Actualizar el tiempo de la ltima reclamacin\r\n    \r\n    emit RewardClaimed(msg.sender, reward);\r\n}\r\n\r\n// Funcin para retirar recompensa\r\nfunction withdrawReward() external {\r\n    require(rewardsBalance[msg.sender] > 0, \"No rewards to withdraw\");\r\n    \r\n    uint256 reward = rewardsBalance[msg.sender];\r\n    rewardsBalance[msg.sender] = 0;\r\n    payable(msg.sender).transfer(reward);\r\n}\r\n\r\nfunction calculateReward(address account) internal view returns (uint256) {\r\n    uint256 timeElapsed = block.timestamp - lastRewardClaimTime[account];\r\n    uint256 reward = (stakingBalance[account] * APY * timeElapsed) / (365 * 24 * 60 * 60 * 100); // APY * timeElapsed / 365 days\r\n    return reward;\r\n}\r\n\r\n    // Funcin para obtener el saldo de tokens en staking de un usuario\r\n    function getStakingBalance(address account) public view returns (uint256) {\r\n        return stakingBalance[account];\r\n    }\r\n\r\n    // Funcin para obtener el saldo de recompensas acumuladas de un usuario\r\n    function getRewardsBalance(address account) public view returns (uint256) {\r\n        return rewardsBalance[account];\r\n    }\r\n    receive() external payable {\r\n        // Funcin de respaldo para aceptar Ether\r\n    }\r\n\r\n}\r\n",
  "sourcePath": "C:\\Users\\jcord\\Documents\\Master_BC\\PigCoins\\src\\contracts\\ChemiCoin.sol",
  "compiler": {
    "name": "solc",
    "version": "0.8.20+commit.a1b79de6.Emscripten.clang"
  },
  "schemaVersion": "3.4.16",
  "updatedAt": "2024-03-21T11:06:33.539Z",
  "devdoc": {
    "errors": {
      "ERC20InsufficientAllowance(address,uint256,uint256)": [
        {
          "details": "Indicates a failure with the `spender`s `allowance`. Used in transfers.",
          "params": {
            "allowance": "Amount of tokens a `spender` is allowed to operate with.",
            "needed": "Minimum amount required to perform a transfer.",
            "spender": "Address that may be allowed to operate on tokens without being their owner."
          }
        }
      ],
      "ERC20InsufficientBalance(address,uint256,uint256)": [
        {
          "details": "Indicates an error related to the current `balance` of a `sender`. Used in transfers.",
          "params": {
            "balance": "Current balance for the interacting account.",
            "needed": "Minimum amount required to perform a transfer.",
            "sender": "Address whose tokens are being transferred."
          }
        }
      ],
      "ERC20InvalidApprover(address)": [
        {
          "details": "Indicates a failure with the `approver` of a token to be approved. Used in approvals.",
          "params": {
            "approver": "Address initiating an approval operation."
          }
        }
      ],
      "ERC20InvalidReceiver(address)": [
        {
          "details": "Indicates a failure with the token `receiver`. Used in transfers.",
          "params": {
            "receiver": "Address to which tokens are being transferred."
          }
        }
      ],
      "ERC20InvalidSender(address)": [
        {
          "details": "Indicates a failure with the token `sender`. Used in transfers.",
          "params": {
            "sender": "Address whose tokens are being transferred."
          }
        }
      ],
      "ERC20InvalidSpender(address)": [
        {
          "details": "Indicates a failure with the `spender` to be approved. Used in approvals.",
          "params": {
            "spender": "Address that may be allowed to operate on tokens without being their owner."
          }
        }
      ],
      "OwnableInvalidOwner(address)": [
        {
          "details": "The owner is not a valid owner account. (eg. `address(0)`)"
        }
      ],
      "OwnableUnauthorizedAccount(address)": [
        {
          "details": "The caller account is not authorized to perform an operation."
        }
      ]
    },
    "events": {
      "Approval(address,address,uint256)": {
        "details": "Emitted when the allowance of a `spender` for an `owner` is set by a call to {approve}. `value` is the new allowance."
      },
      "Transfer(address,address,uint256)": {
        "details": "Emitted when `value` tokens are moved from one account (`from`) to another (`to`). Note that `value` may be zero."
      }
    },
    "kind": "dev",
    "methods": {
      "allowance(address,address)": {
        "details": "See {IERC20-allowance}."
      },
      "approve(address,uint256)": {
        "details": "See {IERC20-approve}. NOTE: If `value` is the maximum `uint256`, the allowance is not updated on `transferFrom`. This is semantically equivalent to an infinite approval. Requirements: - `spender` cannot be the zero address."
      },
      "balanceOf(address)": {
        "details": "See {IERC20-balanceOf}."
      },
      "decimals()": {
        "details": "Returns the number of decimals used to get its user representation. For example, if `decimals` equals `2`, a balance of `505` tokens should be displayed to a user as `5.05` (`505 / 10 ** 2`). Tokens usually opt for a value of 18, imitating the relationship between Ether and Wei. This is the default value returned by this function, unless it's overridden. NOTE: This information is only used for _display_ purposes: it in no way affects any of the arithmetic of the contract, including {IERC20-balanceOf} and {IERC20-transfer}."
      },
      "name()": {
        "details": "Returns the name of the token."
      },
      "owner()": {
        "details": "Returns the address of the current owner."
      },
      "renounceOwnership()": {
        "details": "Leaves the contract without owner. It will not be possible to call `onlyOwner` functions. Can only be called by the current owner. NOTE: Renouncing ownership will leave the contract without an owner, thereby disabling any functionality that is only available to the owner."
      },
      "symbol()": {
        "details": "Returns the symbol of the token, usually a shorter version of the name."
      },
      "totalSupply()": {
        "details": "See {IERC20-totalSupply}."
      },
      "transfer(address,uint256)": {
        "details": "See {IERC20-transfer}. Requirements: - `to` cannot be the zero address. - the caller must have a balance of at least `value`."
      },
      "transferFrom(address,address,uint256)": {
        "details": "See {IERC20-transferFrom}. Emits an {Approval} event indicating the updated allowance. This is not required by the EIP. See the note at the beginning of {ERC20}. NOTE: Does not update the allowance if the current allowance is the maximum `uint256`. Requirements: - `from` and `to` cannot be the zero address. - `from` must have a balance of at least `value`. - the caller must have allowance for ``from``'s tokens of at least `value`."
      },
      "transferOwnership(address)": {
        "details": "Transfers ownership of the contract to a new account (`newOwner`). Can only be called by the current owner."
      }
    },
    "version": 1
  },
  "userdoc": {
    "kind": "user",
    "methods": {},
    "version": 1
  }
}