{
  "contractName": "ChemiCoin",
  "abi": [
    {
      "inputs": [],
      "stateMutability": "nonpayable",
      "type": "constructor"
    },
    {
      "anonymous": false,
      "inputs": [
        {
          "indexed": true,
          "internalType": "address",
          "name": "owner",
          "type": "address"
        },
        {
          "indexed": true,
          "internalType": "address",
          "name": "spender",
          "type": "address"
        },
        {
          "indexed": false,
          "internalType": "uint256",
          "name": "value",
          "type": "uint256"
        }
      ],
      "name": "Approval",
      "type": "event"
    },
    {
      "anonymous": false,
      "inputs": [
        {
          "indexed": true,
          "internalType": "address",
          "name": "from",
          "type": "address"
        },
        {
          "indexed": false,
          "internalType": "uint256",
          "name": "amount",
          "type": "uint256"
        }
      ],
      "name": "Burn",
      "type": "event"
    },
    {
      "anonymous": false,
      "inputs": [
        {
          "indexed": true,
          "internalType": "address",
          "name": "to",
          "type": "address"
        },
        {
          "indexed": false,
          "internalType": "uint256",
          "name": "amount",
          "type": "uint256"
        }
      ],
      "name": "Mint",
      "type": "event"
    },
    {
      "anonymous": false,
      "inputs": [
        {
          "indexed": true,
          "internalType": "address",
          "name": "previousOwner",
          "type": "address"
        },
        {
          "indexed": true,
          "internalType": "address",
          "name": "newOwner",
          "type": "address"
        }
      ],
      "name": "OwnershipTransferred",
      "type": "event"
    },
    {
      "anonymous": false,
      "inputs": [
        {
          "indexed": true,
          "internalType": "address",
          "name": "staker",
          "type": "address"
        },
        {
          "indexed": false,
          "internalType": "uint256",
          "name": "amount",
          "type": "uint256"
        }
      ],
      "name": "RewardClaimed",
      "type": "event"
    },
    {
      "anonymous": false,
      "inputs": [
        {
          "indexed": true,
          "internalType": "address",
          "name": "staker",
          "type": "address"
        },
        {
          "indexed": false,
          "internalType": "uint256",
          "name": "amount",
          "type": "uint256"
        }
      ],
      "name": "Staked",
      "type": "event"
    },
    {
      "anonymous": false,
      "inputs": [
        {
          "indexed": false,
          "internalType": "address",
          "name": "buyer",
          "type": "address"
        },
        {
          "indexed": false,
          "internalType": "uint256",
          "name": "amount",
          "type": "uint256"
        },
        {
          "indexed": false,
          "internalType": "uint256",
          "name": "tokensReceived",
          "type": "uint256"
        }
      ],
      "name": "TokensPurchased",
      "type": "event"
    },
    {
      "anonymous": false,
      "inputs": [
        {
          "indexed": true,
          "internalType": "address",
          "name": "from",
          "type": "address"
        },
        {
          "indexed": true,
          "internalType": "address",
          "name": "to",
          "type": "address"
        },
        {
          "indexed": false,
          "internalType": "uint256",
          "name": "value",
          "type": "uint256"
        }
      ],
      "name": "Transfer",
      "type": "event"
    },
    {
      "anonymous": false,
      "inputs": [
        {
          "indexed": true,
          "internalType": "address",
          "name": "staker",
          "type": "address"
        },
        {
          "indexed": false,
          "internalType": "uint256",
          "name": "amount",
          "type": "uint256"
        }
      ],
      "name": "Unstaked",
      "type": "event"
    },
    {
      "inputs": [],
      "name": "APY",
      "outputs": [
        {
          "internalType": "uint256",
          "name": "",
          "type": "uint256"
        }
      ],
      "stateMutability": "view",
      "type": "function"
    },
    {
      "inputs": [
        {
          "internalType": "address",
          "name": "owner",
          "type": "address"
        },
        {
          "internalType": "address",
          "name": "spender",
          "type": "address"
        }
      ],
      "name": "allowance",
      "outputs": [
        {
          "internalType": "uint256",
          "name": "",
          "type": "uint256"
        }
      ],
      "stateMutability": "view",
      "type": "function"
    },
    {
      "inputs": [
        {
          "internalType": "address",
          "name": "spender",
          "type": "address"
        },
        {
          "internalType": "uint256",
          "name": "amount",
          "type": "uint256"
        }
      ],
      "name": "approve",
      "outputs": [
        {
          "internalType": "bool",
          "name": "",
          "type": "bool"
        }
      ],
      "stateMutability": "nonpayable",
      "type": "function"
    },
    {
      "inputs": [
        {
          "internalType": "address",
          "name": "account",
          "type": "address"
        }
      ],
      "name": "balanceOf",
      "outputs": [
        {
          "internalType": "uint256",
          "name": "",
          "type": "uint256"
        }
      ],
      "stateMutability": "view",
      "type": "function"
    },
    {
      "inputs": [],
      "name": "decimals",
      "outputs": [
        {
          "internalType": "uint8",
          "name": "",
          "type": "uint8"
        }
      ],
      "stateMutability": "view",
      "type": "function"
    },
    {
      "inputs": [
        {
          "internalType": "address",
          "name": "spender",
          "type": "address"
        },
        {
          "internalType": "uint256",
          "name": "subtractedValue",
          "type": "uint256"
        }
      ],
      "name": "decreaseAllowance",
      "outputs": [
        {
          "internalType": "bool",
          "name": "",
          "type": "bool"
        }
      ],
      "stateMutability": "nonpayable",
      "type": "function"
    },
    {
      "inputs": [
        {
          "internalType": "address",
          "name": "spender",
          "type": "address"
        },
        {
          "internalType": "uint256",
          "name": "addedValue",
          "type": "uint256"
        }
      ],
      "name": "increaseAllowance",
      "outputs": [
        {
          "internalType": "bool",
          "name": "",
          "type": "bool"
        }
      ],
      "stateMutability": "nonpayable",
      "type": "function"
    },
    {
      "inputs": [
        {
          "internalType": "address",
          "name": "",
          "type": "address"
        }
      ],
      "name": "lastRewardClaimTime",
      "outputs": [
        {
          "internalType": "uint256",
          "name": "",
          "type": "uint256"
        }
      ],
      "stateMutability": "view",
      "type": "function"
    },
    {
      "inputs": [],
      "name": "name",
      "outputs": [
        {
          "internalType": "string",
          "name": "",
          "type": "string"
        }
      ],
      "stateMutability": "view",
      "type": "function"
    },
    {
      "inputs": [],
      "name": "owner",
      "outputs": [
        {
          "internalType": "address",
          "name": "",
          "type": "address"
        }
      ],
      "stateMutability": "view",
      "type": "function"
    },
    {
      "inputs": [],
      "name": "renounceOwnership",
      "outputs": [],
      "stateMutability": "nonpayable",
      "type": "function"
    },
    {
      "inputs": [
        {
          "internalType": "address",
          "name": "",
          "type": "address"
        }
      ],
      "name": "rewardsBalance",
      "outputs": [
        {
          "internalType": "uint256",
          "name": "",
          "type": "uint256"
        }
      ],
      "stateMutability": "view",
      "type": "function"
    },
    {
      "inputs": [
        {
          "internalType": "address",
          "name": "",
          "type": "address"
        }
      ],
      "name": "stakingBalance",
      "outputs": [
        {
          "internalType": "uint256",
          "name": "",
          "type": "uint256"
        }
      ],
      "stateMutability": "view",
      "type": "function"
    },
    {
      "inputs": [],
      "name": "symbol",
      "outputs": [
        {
          "internalType": "string",
          "name": "",
          "type": "string"
        }
      ],
      "stateMutability": "view",
      "type": "function"
    },
    {
      "inputs": [],
      "name": "totalSupply",
      "outputs": [
        {
          "internalType": "uint256",
          "name": "",
          "type": "uint256"
        }
      ],
      "stateMutability": "view",
      "type": "function"
    },
    {
      "inputs": [
        {
          "internalType": "address",
          "name": "to",
          "type": "address"
        },
        {
          "internalType": "uint256",
          "name": "amount",
          "type": "uint256"
        }
      ],
      "name": "transfer",
      "outputs": [
        {
          "internalType": "bool",
          "name": "",
          "type": "bool"
        }
      ],
      "stateMutability": "nonpayable",
      "type": "function"
    },
    {
      "inputs": [
        {
          "internalType": "address",
          "name": "from",
          "type": "address"
        },
        {
          "internalType": "address",
          "name": "to",
          "type": "address"
        },
        {
          "internalType": "uint256",
          "name": "amount",
          "type": "uint256"
        }
      ],
      "name": "transferFrom",
      "outputs": [
        {
          "internalType": "bool",
          "name": "",
          "type": "bool"
        }
      ],
      "stateMutability": "nonpayable",
      "type": "function"
    },
    {
      "inputs": [
        {
          "internalType": "address",
          "name": "newOwner",
          "type": "address"
        }
      ],
      "name": "transferOwnership",
      "outputs": [],
      "stateMutability": "nonpayable",
      "type": "function"
    },
    {
      "stateMutability": "payable",
      "type": "receive"
    },
    {
      "inputs": [],
      "name": "balanceTokensSC",
      "outputs": [
        {
          "internalType": "uint256",
          "name": "",
          "type": "uint256"
        }
      ],
      "stateMutability": "view",
      "type": "function"
    },
    {
      "inputs": [
        {
          "internalType": "address",
          "name": "to",
          "type": "address"
        },
        {
          "internalType": "uint256",
          "name": "amount",
          "type": "uint256"
        }
      ],
      "name": "mint",
      "outputs": [],
      "stateMutability": "nonpayable",
      "type": "function"
    },
    {
      "inputs": [
        {
          "internalType": "uint256",
          "name": "amount",
          "type": "uint256"
        }
      ],
      "name": "burn",
      "outputs": [],
      "stateMutability": "payable",
      "type": "function"
    },
    {
      "inputs": [
        {
          "internalType": "uint256",
          "name": "tokensToBuy",
          "type": "uint256"
        }
      ],
      "name": "buyTokens",
      "outputs": [],
      "stateMutability": "payable",
      "type": "function"
    },
    {
      "inputs": [],
      "name": "buyTokens2",
      "outputs": [],
      "stateMutability": "payable",
      "type": "function"
    },
    {
      "inputs": [],
      "name": "buyTokens3",
      "outputs": [],
      "stateMutability": "payable",
      "type": "function"
    },
    {
      "inputs": [
        {
          "internalType": "uint256",
          "name": "amount",
          "type": "uint256"
        }
      ],
      "name": "stake",
      "outputs": [],
      "stateMutability": "nonpayable",
      "type": "function"
    },
    {
      "inputs": [
        {
          "internalType": "uint256",
          "name": "amount",
          "type": "uint256"
        }
      ],
      "name": "unstake",
      "outputs": [],
      "stateMutability": "nonpayable",
      "type": "function"
    },
    {
      "inputs": [],
      "name": "claimReward",
      "outputs": [],
      "stateMutability": "nonpayable",
      "type": "function"
    },
    {
      "inputs": [],
      "name": "withdrawReward",
      "outputs": [],
      "stateMutability": "nonpayable",
      "type": "function"
    },
    {
      "inputs": [
        {
          "internalType": "address",
          "name": "account",
          "type": "address"
        }
      ],
      "name": "getStakingBalance",
      "outputs": [
        {
          "internalType": "uint256",
          "name": "",
          "type": "uint256"
        }
      ],
      "stateMutability": "view",
      "type": "function"
    },
    {
      "inputs": [
        {
          "internalType": "address",
          "name": "account",
          "type": "address"
        }
      ],
      "name": "getRewardsBalance",
      "outputs": [
        {
          "internalType": "uint256",
          "name": "",
          "type": "uint256"
        }
      ],
      "stateMutability": "view",
      "type": "function"
    }
  ],
  "bytecode": "0x60806040523480156200001157600080fd5b506040518060400160405280600781526020017f506967436f696e000000000000000000000000000000000000000000000000008152506040518060400160405280600381526020017f504947000000000000000000000000000000000000000000000000000000000081525081600390805190602001906200009692919062000345565b508060049080519060200190620000af92919062000345565b505050620000d2620000c6620000f460201b60201c565b620000fc60201b60201c565b620000ee3069021e19e0c9bab2400000620001c260201b60201c565b620005a1565b600033905090565b6000600560009054906101000a900473ffffffffffffffffffffffffffffffffffffffff16905081600560006101000a81548173ffffffffffffffffffffffffffffffffffffffff021916908373ffffffffffffffffffffffffffffffffffffffff1602179055508173ffffffffffffffffffffffffffffffffffffffff168173ffffffffffffffffffffffffffffffffffffffff167f8be0079c531659141344cd1fd0a4f28419497f9722a3daafe3b4186f6b6457e060405160405180910390a35050565b600073ffffffffffffffffffffffffffffffffffffffff168273ffffffffffffffffffffffffffffffffffffffff16141562000235576040517f08c379a00000000000000000000000000000000000000000000000000000000081526004016200022c906200042d565b60405180910390fd5b62000249600083836200033b60201b60201c565b80600260008282546200025d91906200047d565b92505081905550806000808473ffffffffffffffffffffffffffffffffffffffff1673ffffffffffffffffffffffffffffffffffffffff1681526020019081526020016000206000828254620002b491906200047d565b925050819055508173ffffffffffffffffffffffffffffffffffffffff16600073ffffffffffffffffffffffffffffffffffffffff167fddf252ad1be2c89b69c2b068fc378daa952ba7f163c4a11628f55a4df523b3ef836040516200031b91906200044f565b60405180910390a362000337600083836200034060201b60201c565b5050565b505050565b505050565b8280546200035390620004e4565b90600052602060002090601f016020900481019282620003775760008555620003c3565b82601f106200039257805160ff1916838001178555620003c3565b82800160010185558215620003c3579182015b82811115620003c2578251825591602001919060010190620003a5565b5b509050620003d29190620003d6565b5090565b5b80821115620003f1576000816000905550600101620003d7565b5090565b600062000404601f836200046c565b9150620004118262000578565b602082019050919050565b6200042781620004da565b82525050565b600060208201905081810360008301526200044881620003f5565b9050919050565b60006020820190506200046660008301846200041c565b92915050565b600082825260208201905092915050565b60006200048a82620004da565b91506200049783620004da565b9250827fffffffffffffffffffffffffffffffffffffffffffffffffffffffffffffffff03821115620004cf57620004ce6200051a565b5b828201905092915050565b6000819050919050565b60006002820490506001821680620004fd57607f821691505b6020821081141562000514576200051362000549565b5b50919050565b7f4e487b7100000000000000000000000000000000000000000000000000000000600052601160045260246000fd5b7f4e487b7100000000000000000000000000000000000000000000000000000000600052602260045260246000fd5b7f45524332303a206d696e7420746f20746865207a65726f206164647265737300600082015250565b612f8180620005b16000396000f3fe6080604052600436106101d15760003560e01c8063715018a6116100f7578063a694fc3a11610095578063c885bc5811610064578063c885bc5814610673578063dd62ed3e1461068a578063ef8bd305146106c7578063f2fde38b146106f2576101d8565b8063a694fc3a146105b9578063a9059cbb146105e2578063b04ef9c21461061f578063b88a802f1461065c576101d8565b80638da5cb5b116100d15780638da5cb5b146104fb57806392ef10d81461052657806395d89b4114610551578063a457c2d71461057c576101d8565b8063715018a61461046a578063896bdac8146104815780638a67f4bf146104be576101d8565b8063352186c01161016f57806342966c681161013e57806342966c681461039757806345bc78ab146103b35780636c430dbb146103f057806370a082311461042d576101d8565b8063352186c01461030b5780633610724e14610315578063395093511461033157806340c10f191461036e576101d8565b80631fa2fa4e116101ab5780631fa2fa4e1461027057806323b872dd1461027a5780632e17de78146102b7578063313ce567146102e0576101d8565b806306fdde03146101dd578063095ea7b31461020857806318160ddd14610245576101d8565b366101d857005b600080fd5b3480156101e957600080fd5b506101f261071b565b6040516101ff9190612555565b60405180910390f35b34801561021457600080fd5b5061022f600480360381019061022a9190612175565b6107ad565b60405161023c919061253a565b60405180910390f35b34801561025157600080fd5b5061025a6107d0565b60405161026791906127d7565b60405180910390f35b6102786107da565b005b34801561028657600080fd5b506102a1600480360381019061029c9190612126565b610876565b6040516102ae919061253a565b60405180910390f35b3480156102c357600080fd5b506102de60048036038101906102d991906121b1565b6108a5565b005b3480156102ec57600080fd5b506102f5610a1c565b60405161030291906127f2565b60405180910390f35b610313610a25565b005b61032f600480360381019061032a91906121b1565b610a93565b005b34801561033d57600080fd5b5061035860048036038101906103539190612175565b610b93565b604051610365919061253a565b60405180910390f35b34801561037a57600080fd5b5061039560048036038101906103909190612175565b610c3d565b005b6103b160048036038101906103ac91906121b1565b610d15565b005b3480156103bf57600080fd5b506103da60048036038101906103d591906120c1565b610d70565b6040516103e791906127d7565b60405180910390f35b3480156103fc57600080fd5b50610417600480360381019061041291906120c1565b610d88565b60405161042491906127d7565b60405180910390f35b34801561043957600080fd5b50610454600480360381019061044f91906120c1565b610da0565b60405161046191906127d7565b60405180910390f35b34801561047657600080fd5b5061047f610de8565b005b34801561048d57600080fd5b506104a860048036038101906104a391906120c1565b610e70565b6040516104b591906127d7565b60405180910390f35b3480156104ca57600080fd5b506104e560048036038101906104e091906120c1565b610e88565b6040516104f291906127d7565b60405180910390f35b34801561050757600080fd5b50610510610ed1565b60405161051d91906124e8565b60405180910390f35b34801561053257600080fd5b5061053b610efb565b60405161054891906127d7565b60405180910390f35b34801561055d57600080fd5b50610566610f0b565b6040516105739190612555565b60405180910390f35b34801561058857600080fd5b506105a3600480360381019061059e9190612175565b610f9d565b6040516105b0919061253a565b60405180910390f35b3480156105c557600080fd5b506105e060048036038101906105db91906121b1565b611087565b005b3480156105ee57600080fd5b5061060960048036038101906106049190612175565b611243565b604051610616919061253a565b60405180910390f35b34801561062b57600080fd5b50610646600480360381019061064191906120c1565b611266565b60405161065391906127d7565b60405180910390f35b34801561066857600080fd5b506106716112af565b005b34801561067f57600080fd5b506106886114d7565b005b34801561069657600080fd5b506106b160048036038101906106ac91906120ea565b61162c565b6040516106be91906127d7565b60405180910390f35b3480156106d357600080fd5b506106dc6116b3565b6040516106e991906127d7565b60405180910390f35b3480156106fe57600080fd5b50610719600480360381019061071491906120c1565b6116b8565b005b60606003805461072a906129c6565b80601f0160208091040260200160405190810160405280929190818152602001828054610756906129c6565b80156107a35780601f10610778576101008083540402835291602001916107a3565b820191906000526020600020905b81548152906001019060200180831161078657829003601f168201915b5050505050905090565b6000806107b86117b0565b90506107c58185856117b8565b600191505092915050565b6000600254905090565b600034905060006064826107ee91906128b0565b90503373ffffffffffffffffffffffffffffffffffffffff166108fc829081150290604051600060405180830381858888f19350505050158015610836573d6000803e3d6000fd5b507f8fafebcaf9d154343dad25669bfa277f4fbacd7ac6b0c4fed522580e040a0f3333838360405161086a93929190612503565b60405180910390a15050565b6000806108816117b0565b905061088e858285611983565b610899858585611a0f565b60019150509392505050565b600081116108e8576040517f08c379a00000000000000000000000000000000000000000000000000000000081526004016108df90612637565b60405180910390fd5b80600660003373ffffffffffffffffffffffffffffffffffffffff1673ffffffffffffffffffffffffffffffffffffffff16815260200190815260200160002054101561096a576040517f08c379a000000000000000000000000000000000000000000000000000000000815260040161096190612697565b60405180910390fd5b80600660003373ffffffffffffffffffffffffffffffffffffffff1673ffffffffffffffffffffffffffffffffffffffff16815260200190815260200160002060008282546109b9919061290a565b925050819055506109cb303383611a0f565b3373ffffffffffffffffffffffffffffffffffffffff167f0f5bb82176feb1b5e747e28471aa92156a04d9f3ab9f45f28e2d704232b93f7582604051610a1191906127d7565b60405180910390a250565b60006012905090565b6000662386f26fc10000905060008134610a3f919061287f565b905060008111610a84576040517f08c379a0000000000000000000000000000000000000000000000000000000008152600401610a7b906125b7565b60405180910390fd5b610a8f303383611a0f565b5050565b60008111610ad6576040517f08c379a0000000000000000000000000000000000000000000000000000000008152600401610acd90612777565b60405180910390fd5b60006064670de0b6b3a764000083610aee91906128b0565b610af8919061287f565b905080341015610b3d576040517f08c379a0000000000000000000000000000000000000000000000000000000008152600401610b34906125b7565b60405180910390fd5b3073ffffffffffffffffffffffffffffffffffffffff166108fc829081150290604051600060405180830381858888f19350505050158015610b83573d6000803e3d6000fd5b50610b8f303384611a0f565b5050565b600080610b9e6117b0565b9050610c32818585600160008673ffffffffffffffffffffffffffffffffffffffff1673ffffffffffffffffffffffffffffffffffffffff16815260200190815260200160002060008973ffffffffffffffffffffffffffffffffffffffff1673ffffffffffffffffffffffffffffffffffffffff16815260200190815260200160002054610c2d9190612829565b6117b8565b600191505092915050565b610c456117b0565b73ffffffffffffffffffffffffffffffffffffffff16610c63610ed1565b73ffffffffffffffffffffffffffffffffffffffff1614610cb9576040517f08c379a0000000000000000000000000000000000000000000000000000000008152600401610cb0906126d7565b60405180910390fd5b610cc38282611c90565b8173ffffffffffffffffffffffffffffffffffffffff167f0f6798a560793a54c3bcfe86a93cde1e73087d944c0ea20544137d412139688582604051610d0991906127d7565b60405180910390a25050565b610d1f3382611df0565b3373ffffffffffffffffffffffffffffffffffffffff167fcc16f5dbb4873280815c1ee09dbd06736cffcc184412cf7a71a0fdb75d397ca582604051610d6591906127d7565b60405180910390a250565b60066020528060005260406000206000915090505481565b60086020528060005260406000206000915090505481565b60008060008373ffffffffffffffffffffffffffffffffffffffff1673ffffffffffffffffffffffffffffffffffffffff168152602001908152602001600020549050919050565b610df06117b0565b73ffffffffffffffffffffffffffffffffffffffff16610e0e610ed1565b73ffffffffffffffffffffffffffffffffffffffff1614610e64576040517f08c379a0000000000000000000000000000000000000000000000000000000008152600401610e5b906126d7565b60405180910390fd5b610e6e6000611fc7565b565b60076020528060005260406000206000915090505481565b6000600760008373ffffffffffffffffffffffffffffffffffffffff1673ffffffffffffffffffffffffffffffffffffffff168152602001908152602001600020549050919050565b6000600560009054906101000a900473ffffffffffffffffffffffffffffffffffffffff16905090565b6000610f0630610da0565b905090565b606060048054610f1a906129c6565b80601f0160208091040260200160405190810160405280929190818152602001828054610f46906129c6565b8015610f935780601f10610f6857610100808354040283529160200191610f93565b820191906000526020600020905b815481529060010190602001808311610f7657829003601f168201915b5050505050905090565b600080610fa86117b0565b90506000600160008373ffffffffffffffffffffffffffffffffffffffff1673ffffffffffffffffffffffffffffffffffffffff16815260200190815260200160002060008673ffffffffffffffffffffffffffffffffffffffff1673ffffffffffffffffffffffffffffffffffffffff1681526020019081526020016000205490508381101561106e576040517f08c379a000000000000000000000000000000000000000000000000000000000815260040161106590612797565b60405180910390fd5b61107b82868684036117b8565b60019250505092915050565b600081116110ca576040517f08c379a00000000000000000000000000000000000000000000000000000000081526004016110c190612637565b60405180910390fd5b806110d433610da0565b1015611115576040517f08c379a000000000000000000000000000000000000000000000000000000000815260040161110c90612677565b60405180910390fd5b42600860003373ffffffffffffffffffffffffffffffffffffffff1673ffffffffffffffffffffffffffffffffffffffff1681526020019081526020016000208190555080600660003373ffffffffffffffffffffffffffffffffffffffff1673ffffffffffffffffffffffffffffffffffffffff168152602001908152602001600020546111a49190612829565b600660003373ffffffffffffffffffffffffffffffffffffffff1673ffffffffffffffffffffffffffffffffffffffff168152602001908152602001600020819055506111f2333083611a0f565b3373ffffffffffffffffffffffffffffffffffffffff167f9e71bc8eea02a63969f509818f2dafb9254532904319f9dbda79b67bd34a5f3d8260405161123891906127d7565b60405180910390a250565b60008061124e6117b0565b905061125b818585611a0f565b600191505092915050565b6000600660008373ffffffffffffffffffffffffffffffffffffffff1673ffffffffffffffffffffffffffffffffffffffff168152602001908152602001600020549050919050565b6000600860003373ffffffffffffffffffffffffffffffffffffffff1673ffffffffffffffffffffffffffffffffffffffff168152602001908152602001600020541415611332576040517f08c379a0000000000000000000000000000000000000000000000000000000008152600401611329906126f7565b60405180910390fd5b6000600860003373ffffffffffffffffffffffffffffffffffffffff1673ffffffffffffffffffffffffffffffffffffffff168152602001908152602001600020544261137f919061290a565b905060006301e13380600a83600660003373ffffffffffffffffffffffffffffffffffffffff1673ffffffffffffffffffffffffffffffffffffffff168152602001908152602001600020546113d591906128b0565b6113df91906128b0565b6113e9919061287f565b905080600760003373ffffffffffffffffffffffffffffffffffffffff1673ffffffffffffffffffffffffffffffffffffffff168152602001908152602001600020600082825461143a9190612829565b9250508190555042600860003373ffffffffffffffffffffffffffffffffffffffff1673ffffffffffffffffffffffffffffffffffffffff168152602001908152602001600020819055503373ffffffffffffffffffffffffffffffffffffffff167f106f923f993c2149d49b4255ff723acafa1f2d94393f561d3eda32ae348f7241826040516114cb91906127d7565b60405180910390a25050565b6000600760003373ffffffffffffffffffffffffffffffffffffffff1673ffffffffffffffffffffffffffffffffffffffff1681526020019081526020016000205411611559576040517f08c379a0000000000000000000000000000000000000000000000000000000008152600401611550906126b7565b60405180910390fd5b6000600760003373ffffffffffffffffffffffffffffffffffffffff1673ffffffffffffffffffffffffffffffffffffffff1681526020019081526020016000205490506000600760003373ffffffffffffffffffffffffffffffffffffffff1673ffffffffffffffffffffffffffffffffffffffff168152602001908152602001600020819055503373ffffffffffffffffffffffffffffffffffffffff166108fc829081150290604051600060405180830381858888f19350505050158015611628573d6000803e3d6000fd5b5050565b6000600160008473ffffffffffffffffffffffffffffffffffffffff1673ffffffffffffffffffffffffffffffffffffffff16815260200190815260200160002060008373ffffffffffffffffffffffffffffffffffffffff1673ffffffffffffffffffffffffffffffffffffffff16815260200190815260200160002054905092915050565b600a81565b6116c06117b0565b73ffffffffffffffffffffffffffffffffffffffff166116de610ed1565b73ffffffffffffffffffffffffffffffffffffffff1614611734576040517f08c379a000000000000000000000000000000000000000000000000000000000815260040161172b906126d7565b60405180910390fd5b600073ffffffffffffffffffffffffffffffffffffffff168173ffffffffffffffffffffffffffffffffffffffff1614156117a4576040517f08c379a000000000000000000000000000000000000000000000000000000000815260040161179b906125d7565b60405180910390fd5b6117ad81611fc7565b50565b600033905090565b600073ffffffffffffffffffffffffffffffffffffffff168373ffffffffffffffffffffffffffffffffffffffff161415611828576040517f08c379a000000000000000000000000000000000000000000000000000000000815260040161181f90612757565b60405180910390fd5b600073ffffffffffffffffffffffffffffffffffffffff168273ffffffffffffffffffffffffffffffffffffffff161415611898576040517f08c379a000000000000000000000000000000000000000000000000000000000815260040161188f906125f7565b60405180910390fd5b80600160008573ffffffffffffffffffffffffffffffffffffffff1673ffffffffffffffffffffffffffffffffffffffff16815260200190815260200160002060008473ffffffffffffffffffffffffffffffffffffffff1673ffffffffffffffffffffffffffffffffffffffff168152602001908152602001600020819055508173ffffffffffffffffffffffffffffffffffffffff168373ffffffffffffffffffffffffffffffffffffffff167f8c5be1e5ebec7d5bd14f71427d1e84f3dd0314c0f7b2291e5b200ac8c7c3b9258360405161197691906127d7565b60405180910390a3505050565b600061198f848461162c565b90507fffffffffffffffffffffffffffffffffffffffffffffffffffffffffffffffff8114611a0957818110156119fb576040517f08c379a00000000000000000000000000000000000000000000000000000000081526004016119f290612617565b60405180910390fd5b611a0884848484036117b8565b5b50505050565b600073ffffffffffffffffffffffffffffffffffffffff168373ffffffffffffffffffffffffffffffffffffffff161415611a7f576040517f08c379a0000000000000000000000000000000000000000000000000000000008152600401611a7690612737565b60405180910390fd5b600073ffffffffffffffffffffffffffffffffffffffff168273ffffffffffffffffffffffffffffffffffffffff161415611aef576040517f08c379a0000000000000000000000000000000000000000000000000000000008152600401611ae690612577565b60405180910390fd5b611afa83838361208d565b60008060008573ffffffffffffffffffffffffffffffffffffffff1673ffffffffffffffffffffffffffffffffffffffff16815260200190815260200160002054905081811015611b80576040517f08c379a0000000000000000000000000000000000000000000000000000000008152600401611b7790612657565b60405180910390fd5b8181036000808673ffffffffffffffffffffffffffffffffffffffff1673ffffffffffffffffffffffffffffffffffffffff16815260200190815260200160002081905550816000808573ffffffffffffffffffffffffffffffffffffffff1673ffffffffffffffffffffffffffffffffffffffff1681526020019081526020016000206000828254611c139190612829565b925050819055508273ffffffffffffffffffffffffffffffffffffffff168473ffffffffffffffffffffffffffffffffffffffff167fddf252ad1be2c89b69c2b068fc378daa952ba7f163c4a11628f55a4df523b3ef84604051611c7791906127d7565b60405180910390a3611c8a848484612092565b50505050565b600073ffffffffffffffffffffffffffffffffffffffff168273ffffffffffffffffffffffffffffffffffffffff161415611d00576040517f08c379a0000000000000000000000000000000000000000000000000000000008152600401611cf7906127b7565b60405180910390fd5b611d0c6000838361208d565b8060026000828254611d1e9190612829565b92505081905550806000808473ffffffffffffffffffffffffffffffffffffffff1673ffffffffffffffffffffffffffffffffffffffff1681526020019081526020016000206000828254611d739190612829565b925050819055508173ffffffffffffffffffffffffffffffffffffffff16600073ffffffffffffffffffffffffffffffffffffffff167fddf252ad1be2c89b69c2b068fc378daa952ba7f163c4a11628f55a4df523b3ef83604051611dd891906127d7565b60405180910390a3611dec60008383612092565b5050565b600073ffffffffffffffffffffffffffffffffffffffff168273ffffffffffffffffffffffffffffffffffffffff161415611e60576040517f08c379a0000000000000000000000000000000000000000000000000000000008152600401611e5790612717565b60405180910390fd5b611e6c8260008361208d565b60008060008473ffffffffffffffffffffffffffffffffffffffff1673ffffffffffffffffffffffffffffffffffffffff16815260200190815260200160002054905081811015611ef2576040517f08c379a0000000000000000000000000000000000000000000000000000000008152600401611ee990612597565b60405180910390fd5b8181036000808573ffffffffffffffffffffffffffffffffffffffff1673ffffffffffffffffffffffffffffffffffffffff168152602001908152602001600020819055508160026000828254611f49919061290a565b92505081905550600073ffffffffffffffffffffffffffffffffffffffff168373ffffffffffffffffffffffffffffffffffffffff167fddf252ad1be2c89b69c2b068fc378daa952ba7f163c4a11628f55a4df523b3ef84604051611fae91906127d7565b60405180910390a3611fc283600084612092565b505050565b6000600560009054906101000a900473ffffffffffffffffffffffffffffffffffffffff16905081600560006101000a81548173ffffffffffffffffffffffffffffffffffffffff021916908373ffffffffffffffffffffffffffffffffffffffff1602179055508173ffffffffffffffffffffffffffffffffffffffff168173ffffffffffffffffffffffffffffffffffffffff167f8be0079c531659141344cd1fd0a4f28419497f9722a3daafe3b4186f6b6457e060405160405180910390a35050565b505050565b505050565b6000813590506120a681612f1d565b92915050565b6000813590506120bb81612f34565b92915050565b6000602082840312156120d357600080fd5b60006120e184828501612097565b91505092915050565b600080604083850312156120fd57600080fd5b600061210b85828601612097565b925050602061211c85828601612097565b9150509250929050565b60008060006060848603121561213b57600080fd5b600061214986828701612097565b935050602061215a86828701612097565b925050604061216b868287016120ac565b9150509250925092565b6000806040838503121561218857600080fd5b600061219685828601612097565b92505060206121a7858286016120ac565b9150509250929050565b6000602082840312156121c357600080fd5b60006121d1848285016120ac565b91505092915050565b6121e38161293e565b82525050565b6121f281612950565b82525050565b60006122038261280d565b61220d8185612818565b935061221d818560208601612993565b61222681612a85565b840191505092915050565b600061223e602383612818565b915061224982612a96565b604082019050919050565b6000612261602283612818565b915061226c82612ae5565b604082019050919050565b6000612284601583612818565b915061228f82612b34565b602082019050919050565b60006122a7602683612818565b91506122b282612b5d565b604082019050919050565b60006122ca602283612818565b91506122d582612bac565b604082019050919050565b60006122ed601d83612818565b91506122f882612bfb565b602082019050919050565b6000612310601d83612818565b915061231b82612c24565b602082019050919050565b6000612333602683612818565b915061233e82612c4d565b604082019050919050565b6000612356601483612818565b915061236182612c9c565b602082019050919050565b6000612379601b83612818565b915061238482612cc5565b602082019050919050565b600061239c601683612818565b91506123a782612cee565b602082019050919050565b60006123bf602083612818565b91506123ca82612d17565b602082019050919050565b60006123e2601383612818565b91506123ed82612d40565b602082019050919050565b6000612405602183612818565b915061241082612d69565b604082019050919050565b6000612428602583612818565b915061243382612db8565b604082019050919050565b600061244b602483612818565b915061245682612e07565b604082019050919050565b600061246e602283612818565b915061247982612e56565b604082019050919050565b6000612491602583612818565b915061249c82612ea5565b604082019050919050565b60006124b4601f83612818565b91506124bf82612ef4565b602082019050919050565b6124d38161297c565b82525050565b6124e281612986565b82525050565b60006020820190506124fd60008301846121da565b92915050565b600060608201905061251860008301866121da565b61252560208301856124ca565b61253260408301846124ca565b949350505050565b600060208201905061254f60008301846121e9565b92915050565b6000602082019050818103600083015261256f81846121f8565b905092915050565b6000602082019050818103600083015261259081612231565b9050919050565b600060208201905081810360008301526125b081612254565b9050919050565b600060208201905081810360008301526125d081612277565b9050919050565b600060208201905081810360008301526125f08161229a565b9050919050565b60006020820190508181036000830152612610816122bd565b9050919050565b60006020820190508181036000830152612630816122e0565b9050919050565b6000602082019050818103600083015261265081612303565b9050919050565b6000602082019050818103600083015261267081612326565b9050919050565b6000602082019050818103600083015261269081612349565b9050919050565b600060208201905081810360008301526126b08161236c565b9050919050565b600060208201905081810360008301526126d08161238f565b9050919050565b600060208201905081810360008301526126f0816123b2565b9050919050565b60006020820190508181036000830152612710816123d5565b9050919050565b60006020820190508181036000830152612730816123f8565b9050919050565b600060208201905081810360008301526127508161241b565b9050919050565b600060208201905081810360008301526127708161243e565b9050919050565b6000602082019050818103600083015261279081612461565b9050919050565b600060208201905081810360008301526127b081612484565b9050919050565b600060208201905081810360008301526127d0816124a7565b9050919050565b60006020820190506127ec60008301846124ca565b92915050565b600060208201905061280760008301846124d9565b92915050565b600081519050919050565b600082825260208201905092915050565b60006128348261297c565b915061283f8361297c565b9250827fffffffffffffffffffffffffffffffffffffffffffffffffffffffffffffffff03821115612874576128736129f8565b5b828201905092915050565b600061288a8261297c565b91506128958361297c565b9250826128a5576128a4612a27565b5b828204905092915050565b60006128bb8261297c565b91506128c68361297c565b9250817fffffffffffffffffffffffffffffffffffffffffffffffffffffffffffffffff04831182151516156128ff576128fe6129f8565b5b828202905092915050565b60006129158261297c565b91506129208361297c565b925082821015612933576129326129f8565b5b828203905092915050565b60006129498261295c565b9050919050565b60008115159050919050565b600073ffffffffffffffffffffffffffffffffffffffff82169050919050565b6000819050919050565b600060ff82169050919050565b60005b838110156129b1578082015181840152602081019050612996565b838111156129c0576000848401525b50505050565b600060028204905060018216806129de57607f821691505b602082108114156129f2576129f1612a56565b5b50919050565b7f4e487b7100000000000000000000000000000000000000000000000000000000600052601160045260246000fd5b7f4e487b7100000000000000000000000000000000000000000000000000000000600052601260045260246000fd5b7f4e487b7100000000000000000000000000000000000000000000000000000000600052602260045260246000fd5b6000601f19601f8301169050919050565b7f45524332303a207472616e7366657220746f20746865207a65726f206164647260008201527f6573730000000000000000000000000000000000000000000000000000000000602082015250565b7f45524332303a206275726e20616d6f756e7420657863656564732062616c616e60008201527f6365000000000000000000000000000000000000000000000000000000000000602082015250565b7f496e73756666696369656e74204554482073656e740000000000000000000000600082015250565b7f4f776e61626c653a206e6577206f776e657220697320746865207a65726f206160008201527f6464726573730000000000000000000000000000000000000000000000000000602082015250565b7f45524332303a20617070726f766520746f20746865207a65726f20616464726560008201527f7373000000000000000000000000000000000000000000000000000000000000602082015250565b7f45524332303a20696e73756666696369656e7420616c6c6f77616e6365000000600082015250565b7f416d6f756e74206d7573742062652067726561746572207468616e2030000000600082015250565b7f45524332303a207472616e7366657220616d6f756e742065786365656473206260008201527f616c616e63650000000000000000000000000000000000000000000000000000602082015250565b7f496e73756666696369656e742062616c616e6365000000000000000000000000600082015250565b7f496e73756666696369656e74207374616b65642062616c616e63650000000000600082015250565b7f4e6f207265776172647320746f20776974686472617700000000000000000000600082015250565b7f4f776e61626c653a2063616c6c6572206973206e6f7420746865206f776e6572600082015250565b7f4e6f2072657761726420617661696c61626c6500000000000000000000000000600082015250565b7f45524332303a206275726e2066726f6d20746865207a65726f2061646472657360008201527f7300000000000000000000000000000000000000000000000000000000000000602082015250565b7f45524332303a207472616e736665722066726f6d20746865207a65726f20616460008201527f6472657373000000000000000000000000000000000000000000000000000000602082015250565b7f45524332303a20617070726f76652066726f6d20746865207a65726f2061646460008201527f7265737300000000000000000000000000000000000000000000000000000000602082015250565b7f746f6b656e73546f427579206d7573742062652067726561746572207468616e60008201527f2030000000000000000000000000000000000000000000000000000000000000602082015250565b7f45524332303a2064656372656173656420616c6c6f77616e63652062656c6f7760008201527f207a65726f000000000000000000000000000000000000000000000000000000602082015250565b7f45524332303a206d696e7420746f20746865207a65726f206164647265737300600082015250565b612f268161293e565b8114612f3157600080fd5b50565b612f3d8161297c565b8114612f4857600080fd5b5056fea264697066735822122023e51540c33f78409abe0d86672b3af9b9fef10e90cccc5bd737182df690db9b64736f6c63430008040033",
  "immutableReferences": {},
  "source": "\r\npragma solidity ^0.8.4;\r\n\r\n\r\n// SPDX-License-Identifier: MIT\r\nimport \"@openzeppelin/contracts/token/ERC20/ERC20.sol\";\r\nimport \"@openzeppelin/contracts/token/ERC721/ERC721.sol\";\r\nimport \"@openzeppelin/contracts/access/Ownable.sol\";\r\n\r\n\r\n\r\ncontract ChemiCoin is ERC20, Ownable {\r\n\r\n\r\n    //uint256 public constant MAX_SUPPLY = 1000000 * 10**18; // Max total supply of Chemicoins\r\n    mapping(address => uint256) public stakingBalance;\r\n    mapping(address => uint256) public rewardsBalance;\r\n    mapping(address => uint256) public lastRewardClaimTime;\r\n\r\n    event Mint(address indexed to, uint256 amount);\r\n    event Burn(address indexed from, uint256 amount);\r\n    event Staked(address indexed staker, uint256 amount);\r\n    event Unstaked(address indexed staker, uint256 amount);\r\n    event RewardClaimed(address indexed staker, uint256 amount);\r\n    // Evento para registrar la compra de tokens\r\n    event TokensPurchased(address buyer, uint256 amount, uint256 tokensReceived);\r\n\r\n    constructor() ERC20('PigCoin', 'PIG') {\r\n    \r\n        _mint(address(this), 10000 * 10**18);\r\n    }\r\n\r\n\r\n        // Visualizacion del balance de tokens ERC-20 del Smart Contract\r\n    function balanceTokensSC() public view returns (uint256){\r\n        return balanceOf(address(this));\r\n    }\r\n\r\n    function mint(address to, uint256 amount) external onlyOwner {\r\n        //require((totalSupply() + amount) <= MAX_SUPPLY, \"Exceeds max supply\");\r\n        _mint(to, amount);\r\n        emit Mint(to, amount);\r\n    }\r\n\r\n    function burn(uint256 amount) external payable {\r\n        _burn(msg.sender, amount);\r\n        emit Burn(msg.sender, amount);\r\n    }\r\n\r\n    // Funcin para que los usuarios compren tokens\r\n    function buyTokens(uint256 tokensToBuy) public payable {\r\n        require(tokensToBuy > 0, \"tokensToBuy must be greater than 0\");\r\n\r\n        // Calcular el monto de ETH necesario para comprar los tokens (0.01 ETH por token)\r\n        uint256 amount = tokensToBuy * 1 ether / 100;\r\n\r\n        // Verificar si se ha enviado suficiente ETH\r\n        require(msg.value >= amount, \"Insufficient ETH sent\");\r\n\r\n        // Transferir ETH al contrato\r\n        payable(address(this)).transfer(amount);\r\n\r\n        // Transferir tokens al comprador\r\n        _transfer(address(this), msg.sender, tokensToBuy);\r\n    }\r\n\r\n    // Funcin para que los usuarios compren tokens\r\n    function buyTokens2() public payable {\r\n        // Calcular el monto de ETH necesario para comprar un token (0.01 ETH por token)\r\n        uint256 tokenPrice = 0.01 ether;\r\n    \r\n        // Calcular la cantidad de tokens que se comprarn en funcin del valor de msg.value\r\n        uint256 tokensToBuy = msg.value / tokenPrice;\r\n    \r\n        // Verificar si se ha enviado suficiente ETH para comprar al menos un token\r\n        require(tokensToBuy > 0, \"Insufficient ETH sent\");\r\n\r\n        // Transferir tokens al comprador\r\n        _transfer(address(this), msg.sender, tokensToBuy);\r\n    }\r\n\r\n    // Funcin para que los usuarios compren tokens\r\n    function buyTokens3() external payable {\r\n        // Obtiene el monto de ETH enviado por el comprador\r\n        uint256 ethAmount = msg.value;\r\n    \r\n        // Calcula la cantidad de tokens a recibir (por ejemplo, 1 ETH = 100 tokens)\r\n        uint256 tokenAmount = ethAmount * 100; // Suponiendo que 1 ETH equivale a 100 tokens\r\n\r\n        // Transfiere los tokens al comprador\r\n        payable(msg.sender).transfer(tokenAmount);\r\n\r\n        // Emite el evento\r\n        emit TokensPurchased(msg.sender, ethAmount, tokenAmount);\r\n    }\r\n\r\n    function stake(uint256 amount) external {\r\n        require(amount > 0, \"Amount must be greater than 0\");\r\n        require(balanceOf(msg.sender) >= amount, \"Insufficient balance\");\r\n        // Actualizar el tiempo del ltimo stake del 'msg.sender'\r\n        lastRewardClaimTime[msg.sender] = block.timestamp;\r\n        stakingBalance[msg.sender] = stakingBalance[msg.sender] + amount; //.add(amount);\r\n        _transfer(msg.sender, address(this), amount);\r\n        emit Staked(msg.sender, amount);\r\n    }\r\n\r\nfunction unstake(uint256 amount) external {\r\n    require(amount > 0, \"Amount must be greater than 0\");\r\n    require(stakingBalance[msg.sender] >= amount, \"Insufficient staked balance\");\r\n    \r\n    // Restar la cantidad 'amount' del balance de staking del 'msg.sender'\r\n    stakingBalance[msg.sender] -= amount;\r\n    \r\n    // Transferir la cantidad 'amount' de tokens desde el contrato al 'msg.sender'\r\n    _transfer(address(this), msg.sender, amount);\r\n    \r\n    emit Unstaked(msg.sender, amount);\r\n}\r\n\r\nuint256 constant public APY = 10; // 10% APY\r\n\r\n// Funcin para reclamar recompensa\r\nfunction claimReward() external {\r\n    require(lastRewardClaimTime[msg.sender] != 0, \"No reward available\");\r\n    \r\n    uint256 timeElapsed = block.timestamp - lastRewardClaimTime[msg.sender];\r\n    uint256 reward = stakingBalance[msg.sender] * timeElapsed * APY / (365 days); // Calcular recompensa basada en tiempo y APY\r\n    rewardsBalance[msg.sender] += reward;\r\n    lastRewardClaimTime[msg.sender] = block.timestamp; // Actualizar el tiempo de la ltima reclamacin\r\n    \r\n    emit RewardClaimed(msg.sender, reward);\r\n}\r\n\r\n// Funcin para retirar recompensa\r\nfunction withdrawReward() external {\r\n    require(rewardsBalance[msg.sender] > 0, \"No rewards to withdraw\");\r\n    \r\n    uint256 reward = rewardsBalance[msg.sender];\r\n    rewardsBalance[msg.sender] = 0;\r\n    payable(msg.sender).transfer(reward);\r\n}\r\n\r\nfunction calculateReward(address account) internal view returns (uint256) {\r\n    uint256 timeElapsed = block.timestamp - lastRewardClaimTime[account];\r\n    uint256 reward = (stakingBalance[account] * APY * timeElapsed) / (365 * 24 * 60 * 60 * 100); // APY * timeElapsed / 365 days\r\n    return reward;\r\n}\r\n\r\n    // Funcin para obtener el saldo de tokens en staking de un usuario\r\n    function getStakingBalance(address account) public view returns (uint256) {\r\n        return stakingBalance[account];\r\n    }\r\n\r\n    // Funcin para obtener el saldo de recompensas acumuladas de un usuario\r\n    function getRewardsBalance(address account) public view returns (uint256) {\r\n        return rewardsBalance[account];\r\n    }\r\n    \r\n    receive() external payable {\r\n        // Funcin de respaldo para aceptar Ether\r\n    }\r\n\r\n}\r\n",
  "sourcePath": "C:\\Users\\jcord\\Documents\\Master_BC\\PigCoins\\src\\contracts\\ChemiCoin.sol",
  "compiler": {
    "name": "solc",
    "version": "0.8.4+commit.c7e474f2.Emscripten.clang"
  },
  "schemaVersion": "3.4.16",
  "updatedAt": "2024-03-21T15:39:48.162Z",
  "devdoc": {
    "kind": "dev",
    "methods": {
      "allowance(address,address)": {
        "details": "See {IERC20-allowance}."
      },
      "approve(address,uint256)": {
        "details": "See {IERC20-approve}. NOTE: If `amount` is the maximum `uint256`, the allowance is not updated on `transferFrom`. This is semantically equivalent to an infinite approval. Requirements: - `spender` cannot be the zero address."
      },
      "balanceOf(address)": {
        "details": "See {IERC20-balanceOf}."
      },
      "decimals()": {
        "details": "Returns the number of decimals used to get its user representation. For example, if `decimals` equals `2`, a balance of `505` tokens should be displayed to a user as `5.05` (`505 / 10 ** 2`). Tokens usually opt for a value of 18, imitating the relationship between Ether and Wei. This is the value {ERC20} uses, unless this function is overridden; NOTE: This information is only used for _display_ purposes: it in no way affects any of the arithmetic of the contract, including {IERC20-balanceOf} and {IERC20-transfer}."
      },
      "decreaseAllowance(address,uint256)": {
        "details": "Atomically decreases the allowance granted to `spender` by the caller. This is an alternative to {approve} that can be used as a mitigation for problems described in {IERC20-approve}. Emits an {Approval} event indicating the updated allowance. Requirements: - `spender` cannot be the zero address. - `spender` must have allowance for the caller of at least `subtractedValue`."
      },
      "increaseAllowance(address,uint256)": {
        "details": "Atomically increases the allowance granted to `spender` by the caller. This is an alternative to {approve} that can be used as a mitigation for problems described in {IERC20-approve}. Emits an {Approval} event indicating the updated allowance. Requirements: - `spender` cannot be the zero address."
      },
      "name()": {
        "details": "Returns the name of the token."
      },
      "owner()": {
        "details": "Returns the address of the current owner."
      },
      "renounceOwnership()": {
        "details": "Leaves the contract without owner. It will not be possible to call `onlyOwner` functions anymore. Can only be called by the current owner. NOTE: Renouncing ownership will leave the contract without an owner, thereby removing any functionality that is only available to the owner."
      },
      "symbol()": {
        "details": "Returns the symbol of the token, usually a shorter version of the name."
      },
      "totalSupply()": {
        "details": "See {IERC20-totalSupply}."
      },
      "transfer(address,uint256)": {
        "details": "See {IERC20-transfer}. Requirements: - `to` cannot be the zero address. - the caller must have a balance of at least `amount`."
      },
      "transferFrom(address,address,uint256)": {
        "details": "See {IERC20-transferFrom}. Emits an {Approval} event indicating the updated allowance. This is not required by the EIP. See the note at the beginning of {ERC20}. NOTE: Does not update the allowance if the current allowance is the maximum `uint256`. Requirements: - `from` and `to` cannot be the zero address. - `from` must have a balance of at least `amount`. - the caller must have allowance for ``from``'s tokens of at least `amount`."
      },
      "transferOwnership(address)": {
        "details": "Transfers ownership of the contract to a new account (`newOwner`). Can only be called by the current owner."
      }
    },
    "version": 1
  },
  "userdoc": {
    "kind": "user",
    "methods": {},
    "version": 1
  }
}