{
  "contractName": "ChemiCoin",
  "abi": [
    {
      "inputs": [],
      "stateMutability": "nonpayable",
      "type": "constructor"
    },
    {
      "anonymous": false,
      "inputs": [
        {
          "indexed": true,
          "internalType": "address",
          "name": "owner",
          "type": "address"
        },
        {
          "indexed": true,
          "internalType": "address",
          "name": "spender",
          "type": "address"
        },
        {
          "indexed": false,
          "internalType": "uint256",
          "name": "value",
          "type": "uint256"
        }
      ],
      "name": "Approval",
      "type": "event"
    },
    {
      "anonymous": false,
      "inputs": [
        {
          "indexed": true,
          "internalType": "address",
          "name": "from",
          "type": "address"
        },
        {
          "indexed": false,
          "internalType": "uint256",
          "name": "amount",
          "type": "uint256"
        }
      ],
      "name": "Burn",
      "type": "event"
    },
    {
      "anonymous": false,
      "inputs": [
        {
          "indexed": true,
          "internalType": "address",
          "name": "to",
          "type": "address"
        },
        {
          "indexed": false,
          "internalType": "uint256",
          "name": "amount",
          "type": "uint256"
        }
      ],
      "name": "Mint",
      "type": "event"
    },
    {
      "anonymous": false,
      "inputs": [
        {
          "indexed": true,
          "internalType": "address",
          "name": "previousOwner",
          "type": "address"
        },
        {
          "indexed": true,
          "internalType": "address",
          "name": "newOwner",
          "type": "address"
        }
      ],
      "name": "OwnershipTransferred",
      "type": "event"
    },
    {
      "anonymous": false,
      "inputs": [
        {
          "indexed": true,
          "internalType": "address",
          "name": "staker",
          "type": "address"
        },
        {
          "indexed": false,
          "internalType": "uint256",
          "name": "amount",
          "type": "uint256"
        }
      ],
      "name": "RewardClaimed",
      "type": "event"
    },
    {
      "anonymous": false,
      "inputs": [
        {
          "indexed": true,
          "internalType": "address",
          "name": "staker",
          "type": "address"
        },
        {
          "indexed": false,
          "internalType": "uint256",
          "name": "amount",
          "type": "uint256"
        }
      ],
      "name": "Staked",
      "type": "event"
    },
    {
      "anonymous": false,
      "inputs": [
        {
          "indexed": false,
          "internalType": "address",
          "name": "buyer",
          "type": "address"
        },
        {
          "indexed": false,
          "internalType": "uint256",
          "name": "amount",
          "type": "uint256"
        },
        {
          "indexed": false,
          "internalType": "uint256",
          "name": "tokensReceived",
          "type": "uint256"
        }
      ],
      "name": "TokensPurchased",
      "type": "event"
    },
    {
      "anonymous": false,
      "inputs": [
        {
          "indexed": true,
          "internalType": "address",
          "name": "from",
          "type": "address"
        },
        {
          "indexed": true,
          "internalType": "address",
          "name": "to",
          "type": "address"
        },
        {
          "indexed": false,
          "internalType": "uint256",
          "name": "value",
          "type": "uint256"
        }
      ],
      "name": "Transfer",
      "type": "event"
    },
    {
      "anonymous": false,
      "inputs": [
        {
          "indexed": true,
          "internalType": "address",
          "name": "staker",
          "type": "address"
        },
        {
          "indexed": false,
          "internalType": "uint256",
          "name": "amount",
          "type": "uint256"
        }
      ],
      "name": "Unstaked",
      "type": "event"
    },
    {
      "inputs": [],
      "name": "APY",
      "outputs": [
        {
          "internalType": "uint256",
          "name": "",
          "type": "uint256"
        }
      ],
      "stateMutability": "view",
      "type": "function"
    },
    {
      "inputs": [
        {
          "internalType": "address",
          "name": "owner",
          "type": "address"
        },
        {
          "internalType": "address",
          "name": "spender",
          "type": "address"
        }
      ],
      "name": "allowance",
      "outputs": [
        {
          "internalType": "uint256",
          "name": "",
          "type": "uint256"
        }
      ],
      "stateMutability": "view",
      "type": "function"
    },
    {
      "inputs": [
        {
          "internalType": "address",
          "name": "spender",
          "type": "address"
        },
        {
          "internalType": "uint256",
          "name": "amount",
          "type": "uint256"
        }
      ],
      "name": "approve",
      "outputs": [
        {
          "internalType": "bool",
          "name": "",
          "type": "bool"
        }
      ],
      "stateMutability": "nonpayable",
      "type": "function"
    },
    {
      "inputs": [
        {
          "internalType": "address",
          "name": "account",
          "type": "address"
        }
      ],
      "name": "balanceOf",
      "outputs": [
        {
          "internalType": "uint256",
          "name": "",
          "type": "uint256"
        }
      ],
      "stateMutability": "view",
      "type": "function"
    },
    {
      "inputs": [
        {
          "internalType": "address",
          "name": "spender",
          "type": "address"
        },
        {
          "internalType": "uint256",
          "name": "subtractedValue",
          "type": "uint256"
        }
      ],
      "name": "decreaseAllowance",
      "outputs": [
        {
          "internalType": "bool",
          "name": "",
          "type": "bool"
        }
      ],
      "stateMutability": "nonpayable",
      "type": "function"
    },
    {
      "inputs": [
        {
          "internalType": "address",
          "name": "spender",
          "type": "address"
        },
        {
          "internalType": "uint256",
          "name": "addedValue",
          "type": "uint256"
        }
      ],
      "name": "increaseAllowance",
      "outputs": [
        {
          "internalType": "bool",
          "name": "",
          "type": "bool"
        }
      ],
      "stateMutability": "nonpayable",
      "type": "function"
    },
    {
      "inputs": [
        {
          "internalType": "address",
          "name": "",
          "type": "address"
        }
      ],
      "name": "lastRewardClaimTime",
      "outputs": [
        {
          "internalType": "uint256",
          "name": "",
          "type": "uint256"
        }
      ],
      "stateMutability": "view",
      "type": "function"
    },
    {
      "inputs": [],
      "name": "name",
      "outputs": [
        {
          "internalType": "string",
          "name": "",
          "type": "string"
        }
      ],
      "stateMutability": "view",
      "type": "function"
    },
    {
      "inputs": [],
      "name": "owner",
      "outputs": [
        {
          "internalType": "address",
          "name": "",
          "type": "address"
        }
      ],
      "stateMutability": "view",
      "type": "function"
    },
    {
      "inputs": [],
      "name": "renounceOwnership",
      "outputs": [],
      "stateMutability": "nonpayable",
      "type": "function"
    },
    {
      "inputs": [
        {
          "internalType": "address",
          "name": "",
          "type": "address"
        }
      ],
      "name": "rewardsBalance",
      "outputs": [
        {
          "internalType": "uint256",
          "name": "",
          "type": "uint256"
        }
      ],
      "stateMutability": "view",
      "type": "function"
    },
    {
      "inputs": [
        {
          "internalType": "address",
          "name": "",
          "type": "address"
        }
      ],
      "name": "stakingBalance",
      "outputs": [
        {
          "internalType": "uint256",
          "name": "",
          "type": "uint256"
        }
      ],
      "stateMutability": "view",
      "type": "function"
    },
    {
      "inputs": [],
      "name": "symbol",
      "outputs": [
        {
          "internalType": "string",
          "name": "",
          "type": "string"
        }
      ],
      "stateMutability": "view",
      "type": "function"
    },
    {
      "inputs": [],
      "name": "totalSupply",
      "outputs": [
        {
          "internalType": "uint256",
          "name": "",
          "type": "uint256"
        }
      ],
      "stateMutability": "view",
      "type": "function"
    },
    {
      "inputs": [
        {
          "internalType": "address",
          "name": "to",
          "type": "address"
        },
        {
          "internalType": "uint256",
          "name": "amount",
          "type": "uint256"
        }
      ],
      "name": "transfer",
      "outputs": [
        {
          "internalType": "bool",
          "name": "",
          "type": "bool"
        }
      ],
      "stateMutability": "nonpayable",
      "type": "function"
    },
    {
      "inputs": [
        {
          "internalType": "address",
          "name": "from",
          "type": "address"
        },
        {
          "internalType": "address",
          "name": "to",
          "type": "address"
        },
        {
          "internalType": "uint256",
          "name": "amount",
          "type": "uint256"
        }
      ],
      "name": "transferFrom",
      "outputs": [
        {
          "internalType": "bool",
          "name": "",
          "type": "bool"
        }
      ],
      "stateMutability": "nonpayable",
      "type": "function"
    },
    {
      "inputs": [
        {
          "internalType": "address",
          "name": "newOwner",
          "type": "address"
        }
      ],
      "name": "transferOwnership",
      "outputs": [],
      "stateMutability": "nonpayable",
      "type": "function"
    },
    {
      "stateMutability": "payable",
      "type": "receive"
    },
    {
      "inputs": [],
      "name": "decimals",
      "outputs": [
        {
          "internalType": "uint8",
          "name": "",
          "type": "uint8"
        }
      ],
      "stateMutability": "pure",
      "type": "function"
    },
    {
      "inputs": [
        {
          "internalType": "address",
          "name": "_account",
          "type": "address"
        }
      ],
      "name": "balanceTokens",
      "outputs": [
        {
          "internalType": "uint256",
          "name": "",
          "type": "uint256"
        }
      ],
      "stateMutability": "view",
      "type": "function"
    },
    {
      "inputs": [],
      "name": "balanceTokensSC",
      "outputs": [
        {
          "internalType": "uint256",
          "name": "",
          "type": "uint256"
        }
      ],
      "stateMutability": "view",
      "type": "function"
    },
    {
      "inputs": [
        {
          "internalType": "address",
          "name": "to",
          "type": "address"
        },
        {
          "internalType": "uint256",
          "name": "amount",
          "type": "uint256"
        }
      ],
      "name": "mint",
      "outputs": [],
      "stateMutability": "nonpayable",
      "type": "function"
    },
    {
      "inputs": [
        {
          "internalType": "uint256",
          "name": "amount",
          "type": "uint256"
        }
      ],
      "name": "burn",
      "outputs": [],
      "stateMutability": "payable",
      "type": "function"
    },
    {
      "inputs": [
        {
          "internalType": "uint256",
          "name": "tokensToBuy",
          "type": "uint256"
        }
      ],
      "name": "buyTokens",
      "outputs": [],
      "stateMutability": "payable",
      "type": "function"
    },
    {
      "inputs": [],
      "name": "buyTokens2",
      "outputs": [],
      "stateMutability": "payable",
      "type": "function"
    },
    {
      "inputs": [],
      "name": "buyTokens3",
      "outputs": [],
      "stateMutability": "payable",
      "type": "function"
    },
    {
      "inputs": [
        {
          "internalType": "uint256",
          "name": "amount",
          "type": "uint256"
        }
      ],
      "name": "stake",
      "outputs": [],
      "stateMutability": "nonpayable",
      "type": "function"
    },
    {
      "inputs": [
        {
          "internalType": "uint256",
          "name": "amount",
          "type": "uint256"
        }
      ],
      "name": "unstake",
      "outputs": [],
      "stateMutability": "nonpayable",
      "type": "function"
    },
    {
      "inputs": [],
      "name": "claimReward",
      "outputs": [],
      "stateMutability": "nonpayable",
      "type": "function"
    },
    {
      "inputs": [],
      "name": "withdrawReward",
      "outputs": [],
      "stateMutability": "nonpayable",
      "type": "function"
    },
    {
      "inputs": [
        {
          "internalType": "address",
          "name": "account",
          "type": "address"
        }
      ],
      "name": "calculateReward",
      "outputs": [
        {
          "internalType": "uint256",
          "name": "",
          "type": "uint256"
        }
      ],
      "stateMutability": "view",
      "type": "function"
    },
    {
      "inputs": [
        {
          "internalType": "address",
          "name": "account",
          "type": "address"
        }
      ],
      "name": "getStakingBalance",
      "outputs": [
        {
          "internalType": "uint256",
          "name": "",
          "type": "uint256"
        }
      ],
      "stateMutability": "view",
      "type": "function"
    },
    {
      "inputs": [
        {
          "internalType": "address",
          "name": "account",
          "type": "address"
        }
      ],
      "name": "getRewardsBalance",
      "outputs": [
        {
          "internalType": "uint256",
          "name": "",
          "type": "uint256"
        }
      ],
      "stateMutability": "view",
      "type": "function"
    }
  ],
  "bytecode": "0x608060405234801562000010575f80fd5b506040518060400160405280600781526020017f506967436f696e000000000000000000000000000000000000000000000000008152506040518060400160405280600381526020017f504947000000000000000000000000000000000000000000000000000000000081525081600390816200008e919062000589565b508060049081620000a0919062000589565b505050620000c3620000b7620000e160201b60201c565b620000e860201b60201c565b620000db306509184e72a000620001ab60201b60201c565b6200077e565b5f33905090565b5f60055f9054906101000a900473ffffffffffffffffffffffffffffffffffffffff1690508160055f6101000a81548173ffffffffffffffffffffffffffffffffffffffff021916908373ffffffffffffffffffffffffffffffffffffffff1602179055508173ffffffffffffffffffffffffffffffffffffffff168173ffffffffffffffffffffffffffffffffffffffff167f8be0079c531659141344cd1fd0a4f28419497f9722a3daafe3b4186f6b6457e060405160405180910390a35050565b5f73ffffffffffffffffffffffffffffffffffffffff168273ffffffffffffffffffffffffffffffffffffffff16036200021c576040517f08c379a00000000000000000000000000000000000000000000000000000000081526004016200021390620006cb565b60405180910390fd5b6200022f5f83836200031b60201b60201c565b8060025f82825462000242919062000718565b92505081905550805f808473ffffffffffffffffffffffffffffffffffffffff1673ffffffffffffffffffffffffffffffffffffffff1681526020019081526020015f205f82825462000296919062000718565b925050819055508173ffffffffffffffffffffffffffffffffffffffff165f73ffffffffffffffffffffffffffffffffffffffff167fddf252ad1be2c89b69c2b068fc378daa952ba7f163c4a11628f55a4df523b3ef83604051620002fc919062000763565b60405180910390a3620003175f83836200032060201b60201c565b5050565b505050565b505050565b5f81519050919050565b7f4e487b71000000000000000000000000000000000000000000000000000000005f52604160045260245ffd5b7f4e487b71000000000000000000000000000000000000000000000000000000005f52602260045260245ffd5b5f6002820490506001821680620003a157607f821691505b602082108103620003b757620003b66200035c565b5b50919050565b5f819050815f5260205f209050919050565b5f6020601f8301049050919050565b5f82821b905092915050565b5f600883026200041b7fffffffffffffffffffffffffffffffffffffffffffffffffffffffffffffffff82620003de565b620004278683620003de565b95508019841693508086168417925050509392505050565b5f819050919050565b5f819050919050565b5f620004716200046b62000465846200043f565b62000448565b6200043f565b9050919050565b5f819050919050565b6200048c8362000451565b620004a46200049b8262000478565b848454620003ea565b825550505050565b5f90565b620004ba620004ac565b620004c781848462000481565b505050565b5b81811015620004ee57620004e25f82620004b0565b600181019050620004cd565b5050565b601f8211156200053d576200050781620003bd565b6200051284620003cf565b8101602085101562000522578190505b6200053a6200053185620003cf565b830182620004cc565b50505b505050565b5f82821c905092915050565b5f6200055f5f198460080262000542565b1980831691505092915050565b5f6200057983836200054e565b9150826002028217905092915050565b620005948262000325565b67ffffffffffffffff811115620005b057620005af6200032f565b5b620005bc825462000389565b620005c9828285620004f2565b5f60209050601f831160018114620005ff575f8415620005ea578287015190505b620005f685826200056c565b86555062000665565b601f1984166200060f86620003bd565b5f5b82811015620006385784890151825560018201915060208501945060208101905062000611565b8683101562000658578489015162000654601f8916826200054e565b8355505b6001600288020188555050505b505050505050565b5f82825260208201905092915050565b7f45524332303a206d696e7420746f20746865207a65726f2061646472657373005f82015250565b5f620006b3601f836200066d565b9150620006c0826200067d565b602082019050919050565b5f6020820190508181035f830152620006e481620006a5565b9050919050565b7f4e487b71000000000000000000000000000000000000000000000000000000005f52601160045260245ffd5b5f62000724826200043f565b915062000731836200043f565b92508282019050808211156200074c576200074b620006eb565b5b92915050565b6200075d816200043f565b82525050565b5f602082019050620007785f83018462000752565b92915050565b613049806200078c5f395ff3fe6080604052600436106101e6575f3560e01c8063896bdac811610101578063b04ef9c211610094578063dd62ed3e11610063578063dd62ed3e146106c3578063ef8bd305146106ff578063f2fde38b14610729578063f9b4527a14610751576101ed565b8063b04ef9c21461061f578063b88a802f1461065b578063c885bc5814610671578063d82e396214610687576101ed565b806395d89b41116100d057806395d89b4114610555578063a457c2d71461057f578063a694fc3a146105bb578063a9059cbb146105e3576101ed565b8063896bdac8146104895780638a67f4bf146104c55780638da5cb5b1461050157806392ef10d81461052b576101ed565b80633610724e1161017957806345bc78ab1161014857806345bc78ab146103bf5780636c430dbb146103fb57806370a0823114610437578063715018a614610473576101ed565b80633610724e14610323578063395093511461033f57806340c10f191461037b57806342966c68146103a3576101ed565b806323b872dd116101b557806323b872dd1461028b5780632e17de78146102c7578063313ce567146102ef578063352186c014610319576101ed565b806306fdde03146101f1578063095ea7b31461021b57806318160ddd146102575780631fa2fa4e14610281576101ed565b366101ed57005b5f80fd5b3480156101fc575f80fd5b5061020561078d565b6040516102129190612292565b60405180910390f35b348015610226575f80fd5b50610241600480360381019061023c9190612343565b61081d565b60405161024e919061239b565b60405180910390f35b348015610262575f80fd5b5061026b61083f565b60405161027891906123c3565b60405180910390f35b610289610848565b005b348015610296575f80fd5b506102b160048036038101906102ac91906123dc565b6108df565b6040516102be919061239b565b60405180910390f35b3480156102d2575f80fd5b506102ed60048036038101906102e8919061242c565b61090d565b005b3480156102fa575f80fd5b50610303610a91565b6040516103109190612472565b60405180910390f35b610321610a95565b005b61033d6004803603810190610338919061242c565b610b00565b005b34801561034a575f80fd5b5061036560048036038101906103609190612343565b610bfb565b604051610372919061239b565b60405180910390f35b348015610386575f80fd5b506103a1600480360381019061039c9190612343565b610ca0565b005b6103bd60048036038101906103b8919061242c565b610d78565b005b3480156103ca575f80fd5b506103e560048036038101906103e0919061248b565b610dd3565b6040516103f291906123c3565b60405180910390f35b348015610406575f80fd5b50610421600480360381019061041c919061248b565b610de8565b60405161042e91906123c3565b60405180910390f35b348015610442575f80fd5b5061045d6004803603810190610458919061248b565b610dfd565b60405161046a91906123c3565b60405180910390f35b34801561047e575f80fd5b50610487610e42565b005b348015610494575f80fd5b506104af60048036038101906104aa919061248b565b610ec9565b6040516104bc91906123c3565b60405180910390f35b3480156104d0575f80fd5b506104eb60048036038101906104e6919061248b565b610ede565b6040516104f891906123c3565b60405180910390f35b34801561050c575f80fd5b50610515610f24565b60405161052291906124c5565b60405180910390f35b348015610536575f80fd5b5061053f610f4c565b60405161054c91906123c3565b60405180910390f35b348015610560575f80fd5b50610569610f5b565b6040516105769190612292565b60405180910390f35b34801561058a575f80fd5b506105a560048036038101906105a09190612343565b610feb565b6040516105b2919061239b565b60405180910390f35b3480156105c6575f80fd5b506105e160048036038101906105dc919061242c565b6110cf565b005b3480156105ee575f80fd5b5061060960048036038101906106049190612343565b611284565b604051610616919061239b565b60405180910390f35b34801561062a575f80fd5b506106456004803603810190610640919061248b565b6112a6565b60405161065291906123c3565b60405180910390f35b348015610666575f80fd5b5061066f6112ec565b005b34801561067c575f80fd5b50610685611505565b005b348015610692575f80fd5b506106ad60048036038101906106a8919061248b565b611702565b6040516106ba91906123c3565b60405180910390f35b3480156106ce575f80fd5b506106e960048036038101906106e491906124de565b6117c0565b6040516106f691906123c3565b60405180910390f35b34801561070a575f80fd5b50610713611842565b60405161072091906123c3565b60405180910390f35b348015610734575f80fd5b5061074f600480360381019061074a919061248b565b611847565b005b34801561075c575f80fd5b506107776004803603810190610772919061248b565b61193d565b60405161078491906123c3565b60405180910390f35b60606003805461079c90612549565b80601f01602080910402602001604051908101604052809291908181526020018280546107c890612549565b80156108135780601f106107ea57610100808354040283529160200191610813565b820191905f5260205f20905b8154815290600101906020018083116107f657829003601f168201915b5050505050905090565b5f8061082761194e565b9050610834818585611955565b600191505092915050565b5f600254905090565b5f3490505f60648261085a91906125a6565b90503373ffffffffffffffffffffffffffffffffffffffff166108fc8290811502906040515f60405180830381858888f1935050505015801561089f573d5f803e3d5ffd5b507f8fafebcaf9d154343dad25669bfa277f4fbacd7ac6b0c4fed522580e040a0f333383836040516108d3939291906125e7565b60405180910390a15050565b5f806108e961194e565b90506108f6858285611b18565b610901858585611ba3565b60019150509392505050565b5f811161094f576040517f08c379a000000000000000000000000000000000000000000000000000000000815260040161094690612666565b60405180910390fd5b8060065f3373ffffffffffffffffffffffffffffffffffffffff1673ffffffffffffffffffffffffffffffffffffffff1681526020019081526020015f205410156109cf576040517f08c379a00000000000000000000000000000000000000000000000000000000081526004016109c6906126ce565b60405180910390fd5b8060065f3373ffffffffffffffffffffffffffffffffffffffff1673ffffffffffffffffffffffffffffffffffffffff1681526020019081526020015f205f828254610a1b91906126ec565b92505081905550610a403033670de0b6b3a764000084610a3b91906125a6565b611ba3565b3373ffffffffffffffffffffffffffffffffffffffff167f0f5bb82176feb1b5e747e28471aa92156a04d9f3ab9f45f28e2d704232b93f7582604051610a8691906123c3565b60405180910390a250565b5f90565b5f662386f26fc1000090505f8134610aad919061274c565b90505f8111610af1576040517f08c379a0000000000000000000000000000000000000000000000000000000008152600401610ae8906127c6565b60405180910390fd5b610afc303383611ba3565b5050565b5f8111610b42576040517f08c379a0000000000000000000000000000000000000000000000000000000008152600401610b3990612854565b60405180910390fd5b5f6064670de0b6b3a764000083610b5991906125a6565b610b63919061274c565b905080341015610ba8576040517f08c379a0000000000000000000000000000000000000000000000000000000008152600401610b9f906127c6565b60405180910390fd5b3073ffffffffffffffffffffffffffffffffffffffff166108fc8290811502906040515f60405180830381858888f19350505050158015610beb573d5f803e3d5ffd5b50610bf7303384611ba3565b5050565b5f80610c0561194e565b9050610c9581858560015f8673ffffffffffffffffffffffffffffffffffffffff1673ffffffffffffffffffffffffffffffffffffffff1681526020019081526020015f205f8973ffffffffffffffffffffffffffffffffffffffff1673ffffffffffffffffffffffffffffffffffffffff1681526020019081526020015f2054610c909190612872565b611955565b600191505092915050565b610ca861194e565b73ffffffffffffffffffffffffffffffffffffffff16610cc6610f24565b73ffffffffffffffffffffffffffffffffffffffff1614610d1c576040517f08c379a0000000000000000000000000000000000000000000000000000000008152600401610d13906128ef565b60405180910390fd5b610d268282611e18565b8173ffffffffffffffffffffffffffffffffffffffff167f0f6798a560793a54c3bcfe86a93cde1e73087d944c0ea20544137d412139688582604051610d6c91906123c3565b60405180910390a25050565b610d823382611f6f565b3373ffffffffffffffffffffffffffffffffffffffff167fcc16f5dbb4873280815c1ee09dbd06736cffcc184412cf7a71a0fdb75d397ca582604051610dc891906123c3565b60405180910390a250565b6006602052805f5260405f205f915090505481565b6008602052805f5260405f205f915090505481565b5f805f8373ffffffffffffffffffffffffffffffffffffffff1673ffffffffffffffffffffffffffffffffffffffff1681526020019081526020015f20549050919050565b610e4a61194e565b73ffffffffffffffffffffffffffffffffffffffff16610e68610f24565b73ffffffffffffffffffffffffffffffffffffffff1614610ebe576040517f08c379a0000000000000000000000000000000000000000000000000000000008152600401610eb5906128ef565b60405180910390fd5b610ec75f61213b565b565b6007602052805f5260405f205f915090505481565b5f60075f8373ffffffffffffffffffffffffffffffffffffffff1673ffffffffffffffffffffffffffffffffffffffff1681526020019081526020015f20549050919050565b5f60055f9054906101000a900473ffffffffffffffffffffffffffffffffffffffff16905090565b5f610f5630610dfd565b905090565b606060048054610f6a90612549565b80601f0160208091040260200160405190810160405280929190818152602001828054610f9690612549565b8015610fe15780601f10610fb857610100808354040283529160200191610fe1565b820191905f5260205f20905b815481529060010190602001808311610fc457829003601f168201915b5050505050905090565b5f80610ff561194e565b90505f60015f8373ffffffffffffffffffffffffffffffffffffffff1673ffffffffffffffffffffffffffffffffffffffff1681526020019081526020015f205f8673ffffffffffffffffffffffffffffffffffffffff1673ffffffffffffffffffffffffffffffffffffffff1681526020019081526020015f20549050838110156110b6576040517f08c379a00000000000000000000000000000000000000000000000000000000081526004016110ad9061297d565b60405180910390fd5b6110c38286868403611955565b60019250505092915050565b5f8111611111576040517f08c379a000000000000000000000000000000000000000000000000000000000815260040161110890612666565b60405180910390fd5b8061111b33610dfd565b101561115c576040517f08c379a0000000000000000000000000000000000000000000000000000000008152600401611153906129e5565b60405180910390fd5b4260085f3373ffffffffffffffffffffffffffffffffffffffff1673ffffffffffffffffffffffffffffffffffffffff1681526020019081526020015f20819055508060065f3373ffffffffffffffffffffffffffffffffffffffff1673ffffffffffffffffffffffffffffffffffffffff1681526020019081526020015f20546111e79190612872565b60065f3373ffffffffffffffffffffffffffffffffffffffff1673ffffffffffffffffffffffffffffffffffffffff1681526020019081526020015f2081905550611233333083611ba3565b3373ffffffffffffffffffffffffffffffffffffffff167f9e71bc8eea02a63969f509818f2dafb9254532904319f9dbda79b67bd34a5f3d8260405161127991906123c3565b60405180910390a250565b5f8061128e61194e565b905061129b818585611ba3565b600191505092915050565b5f60065f8373ffffffffffffffffffffffffffffffffffffffff1673ffffffffffffffffffffffffffffffffffffffff1681526020019081526020015f20549050919050565b5f60085f3373ffffffffffffffffffffffffffffffffffffffff1673ffffffffffffffffffffffffffffffffffffffff1681526020019081526020015f20540361136b576040517f08c379a000000000000000000000000000000000000000000000000000000000815260040161136290612a4d565b60405180910390fd5b5f60085f3373ffffffffffffffffffffffffffffffffffffffff1673ffffffffffffffffffffffffffffffffffffffff1681526020019081526020015f2054426113b591906126ec565b90505f6301e13380600a8360065f3373ffffffffffffffffffffffffffffffffffffffff1673ffffffffffffffffffffffffffffffffffffffff1681526020019081526020015f205461140891906125a6565b61141291906125a6565b61141c919061274c565b90508060075f3373ffffffffffffffffffffffffffffffffffffffff1673ffffffffffffffffffffffffffffffffffffffff1681526020019081526020015f205f82825461146a9190612872565b925050819055504260085f3373ffffffffffffffffffffffffffffffffffffffff1673ffffffffffffffffffffffffffffffffffffffff1681526020019081526020015f20819055503373ffffffffffffffffffffffffffffffffffffffff167f106f923f993c2149d49b4255ff723acafa1f2d94393f561d3eda32ae348f7241826040516114f991906123c3565b60405180910390a25050565b5f60065f3373ffffffffffffffffffffffffffffffffffffffff1673ffffffffffffffffffffffffffffffffffffffff1681526020019081526020015f205411611584576040517f08c379a000000000000000000000000000000000000000000000000000000000815260040161157b90612ab5565b60405180910390fd5b60085f3373ffffffffffffffffffffffffffffffffffffffff1673ffffffffffffffffffffffffffffffffffffffff1681526020019081526020015f20544211611603576040517f08c379a00000000000000000000000000000000000000000000000000000000081526004016115fa90612ab5565b60405180910390fd5b5f61160d33611702565b90505f60075f3373ffffffffffffffffffffffffffffffffffffffff1673ffffffffffffffffffffffffffffffffffffffff1681526020019081526020015f20819055504260085f3373ffffffffffffffffffffffffffffffffffffffff1673ffffffffffffffffffffffffffffffffffffffff1681526020019081526020015f20819055506116b13033670de0b6b3a7640000846116ac91906125a6565b611ba3565b3373ffffffffffffffffffffffffffffffffffffffff167f106f923f993c2149d49b4255ff723acafa1f2d94393f561d3eda32ae348f7241826040516116f791906123c3565b60405180910390a250565b5f8060085f3373ffffffffffffffffffffffffffffffffffffffff1673ffffffffffffffffffffffffffffffffffffffff1681526020019081526020015f20544261174d91906126ec565b90505f63bbf81e0082600a60065f8873ffffffffffffffffffffffffffffffffffffffff1673ffffffffffffffffffffffffffffffffffffffff1681526020019081526020015f20546117a091906125a6565b6117aa91906125a6565b6117b4919061274c565b90508092505050919050565b5f60015f8473ffffffffffffffffffffffffffffffffffffffff1673ffffffffffffffffffffffffffffffffffffffff1681526020019081526020015f205f8373ffffffffffffffffffffffffffffffffffffffff1673ffffffffffffffffffffffffffffffffffffffff1681526020019081526020015f2054905092915050565b600a81565b61184f61194e565b73ffffffffffffffffffffffffffffffffffffffff1661186d610f24565b73ffffffffffffffffffffffffffffffffffffffff16146118c3576040517f08c379a00000000000000000000000000000000000000000000000000000000081526004016118ba906128ef565b60405180910390fd5b5f73ffffffffffffffffffffffffffffffffffffffff168173ffffffffffffffffffffffffffffffffffffffff1603611931576040517f08c379a000000000000000000000000000000000000000000000000000000000815260040161192890612b43565b60405180910390fd5b61193a8161213b565b50565b5f61194782610dfd565b9050919050565b5f33905090565b5f73ffffffffffffffffffffffffffffffffffffffff168373ffffffffffffffffffffffffffffffffffffffff16036119c3576040517f08c379a00000000000000000000000000000000000000000000000000000000081526004016119ba90612bd1565b60405180910390fd5b5f73ffffffffffffffffffffffffffffffffffffffff168273ffffffffffffffffffffffffffffffffffffffff1603611a31576040517f08c379a0000000000000000000000000000000000000000000000000000000008152600401611a2890612c5f565b60405180910390fd5b8060015f8573ffffffffffffffffffffffffffffffffffffffff1673ffffffffffffffffffffffffffffffffffffffff1681526020019081526020015f205f8473ffffffffffffffffffffffffffffffffffffffff1673ffffffffffffffffffffffffffffffffffffffff1681526020019081526020015f20819055508173ffffffffffffffffffffffffffffffffffffffff168373ffffffffffffffffffffffffffffffffffffffff167f8c5be1e5ebec7d5bd14f71427d1e84f3dd0314c0f7b2291e5b200ac8c7c3b92583604051611b0b91906123c3565b60405180910390a3505050565b5f611b2384846117c0565b90507fffffffffffffffffffffffffffffffffffffffffffffffffffffffffffffffff8114611b9d5781811015611b8f576040517f08c379a0000000000000000000000000000000000000000000000000000000008152600401611b8690612cc7565b60405180910390fd5b611b9c8484848403611955565b5b50505050565b5f73ffffffffffffffffffffffffffffffffffffffff168373ffffffffffffffffffffffffffffffffffffffff1603611c11576040517f08c379a0000000000000000000000000000000000000000000000000000000008152600401611c0890612d55565b60405180910390fd5b5f73ffffffffffffffffffffffffffffffffffffffff168273ffffffffffffffffffffffffffffffffffffffff1603611c7f576040517f08c379a0000000000000000000000000000000000000000000000000000000008152600401611c7690612de3565b60405180910390fd5b611c8a8383836121fe565b5f805f8573ffffffffffffffffffffffffffffffffffffffff1673ffffffffffffffffffffffffffffffffffffffff1681526020019081526020015f2054905081811015611d0d576040517f08c379a0000000000000000000000000000000000000000000000000000000008152600401611d0490612e71565b60405180910390fd5b8181035f808673ffffffffffffffffffffffffffffffffffffffff1673ffffffffffffffffffffffffffffffffffffffff1681526020019081526020015f2081905550815f808573ffffffffffffffffffffffffffffffffffffffff1673ffffffffffffffffffffffffffffffffffffffff1681526020019081526020015f205f828254611d9b9190612872565b925050819055508273ffffffffffffffffffffffffffffffffffffffff168473ffffffffffffffffffffffffffffffffffffffff167fddf252ad1be2c89b69c2b068fc378daa952ba7f163c4a11628f55a4df523b3ef84604051611dff91906123c3565b60405180910390a3611e12848484612203565b50505050565b5f73ffffffffffffffffffffffffffffffffffffffff168273ffffffffffffffffffffffffffffffffffffffff1603611e86576040517f08c379a0000000000000000000000000000000000000000000000000000000008152600401611e7d90612ed9565b60405180910390fd5b611e915f83836121fe565b8060025f828254611ea29190612872565b92505081905550805f808473ffffffffffffffffffffffffffffffffffffffff1673ffffffffffffffffffffffffffffffffffffffff1681526020019081526020015f205f828254611ef49190612872565b925050819055508173ffffffffffffffffffffffffffffffffffffffff165f73ffffffffffffffffffffffffffffffffffffffff167fddf252ad1be2c89b69c2b068fc378daa952ba7f163c4a11628f55a4df523b3ef83604051611f5891906123c3565b60405180910390a3611f6b5f8383612203565b5050565b5f73ffffffffffffffffffffffffffffffffffffffff168273ffffffffffffffffffffffffffffffffffffffff1603611fdd576040517f08c379a0000000000000000000000000000000000000000000000000000000008152600401611fd490612f67565b60405180910390fd5b611fe8825f836121fe565b5f805f8473ffffffffffffffffffffffffffffffffffffffff1673ffffffffffffffffffffffffffffffffffffffff1681526020019081526020015f205490508181101561206b576040517f08c379a000000000000000000000000000000000000000000000000000000000815260040161206290612ff5565b60405180910390fd5b8181035f808573ffffffffffffffffffffffffffffffffffffffff1673ffffffffffffffffffffffffffffffffffffffff1681526020019081526020015f20819055508160025f8282546120bf91906126ec565b925050819055505f73ffffffffffffffffffffffffffffffffffffffff168373ffffffffffffffffffffffffffffffffffffffff167fddf252ad1be2c89b69c2b068fc378daa952ba7f163c4a11628f55a4df523b3ef8460405161212391906123c3565b60405180910390a3612136835f84612203565b505050565b5f60055f9054906101000a900473ffffffffffffffffffffffffffffffffffffffff1690508160055f6101000a81548173ffffffffffffffffffffffffffffffffffffffff021916908373ffffffffffffffffffffffffffffffffffffffff1602179055508173ffffffffffffffffffffffffffffffffffffffff168173ffffffffffffffffffffffffffffffffffffffff167f8be0079c531659141344cd1fd0a4f28419497f9722a3daafe3b4186f6b6457e060405160405180910390a35050565b505050565b505050565b5f81519050919050565b5f82825260208201905092915050565b5f5b8381101561223f578082015181840152602081019050612224565b5f8484015250505050565b5f601f19601f8301169050919050565b5f61226482612208565b61226e8185612212565b935061227e818560208601612222565b6122878161224a565b840191505092915050565b5f6020820190508181035f8301526122aa818461225a565b905092915050565b5f80fd5b5f73ffffffffffffffffffffffffffffffffffffffff82169050919050565b5f6122df826122b6565b9050919050565b6122ef816122d5565b81146122f9575f80fd5b50565b5f8135905061230a816122e6565b92915050565b5f819050919050565b61232281612310565b811461232c575f80fd5b50565b5f8135905061233d81612319565b92915050565b5f8060408385031215612359576123586122b2565b5b5f612366858286016122fc565b92505060206123778582860161232f565b9150509250929050565b5f8115159050919050565b61239581612381565b82525050565b5f6020820190506123ae5f83018461238c565b92915050565b6123bd81612310565b82525050565b5f6020820190506123d65f8301846123b4565b92915050565b5f805f606084860312156123f3576123f26122b2565b5b5f612400868287016122fc565b9350506020612411868287016122fc565b92505060406124228682870161232f565b9150509250925092565b5f60208284031215612441576124406122b2565b5b5f61244e8482850161232f565b91505092915050565b5f60ff82169050919050565b61246c81612457565b82525050565b5f6020820190506124855f830184612463565b92915050565b5f602082840312156124a05761249f6122b2565b5b5f6124ad848285016122fc565b91505092915050565b6124bf816122d5565b82525050565b5f6020820190506124d85f8301846124b6565b92915050565b5f80604083850312156124f4576124f36122b2565b5b5f612501858286016122fc565b9250506020612512858286016122fc565b9150509250929050565b7f4e487b71000000000000000000000000000000000000000000000000000000005f52602260045260245ffd5b5f600282049050600182168061256057607f821691505b6020821081036125735761257261251c565b5b50919050565b7f4e487b71000000000000000000000000000000000000000000000000000000005f52601160045260245ffd5b5f6125b082612310565b91506125bb83612310565b92508282026125c981612310565b915082820484148315176125e0576125df612579565b5b5092915050565b5f6060820190506125fa5f8301866124b6565b61260760208301856123b4565b61261460408301846123b4565b949350505050565b7f416d6f756e74206d7573742062652067726561746572207468616e20300000005f82015250565b5f612650601d83612212565b915061265b8261261c565b602082019050919050565b5f6020820190508181035f83015261267d81612644565b9050919050565b7f496e73756666696369656e74207374616b65642062616c616e636500000000005f82015250565b5f6126b8601b83612212565b91506126c382612684565b602082019050919050565b5f6020820190508181035f8301526126e5816126ac565b9050919050565b5f6126f682612310565b915061270183612310565b925082820390508181111561271957612718612579565b5b92915050565b7f4e487b71000000000000000000000000000000000000000000000000000000005f52601260045260245ffd5b5f61275682612310565b915061276183612310565b9250826127715761277061271f565b5b828204905092915050565b7f496e73756666696369656e74204554482073656e7400000000000000000000005f82015250565b5f6127b0601583612212565b91506127bb8261277c565b602082019050919050565b5f6020820190508181035f8301526127dd816127a4565b9050919050565b7f746f6b656e73546f427579206d7573742062652067726561746572207468616e5f8201527f2030000000000000000000000000000000000000000000000000000000000000602082015250565b5f61283e602283612212565b9150612849826127e4565b604082019050919050565b5f6020820190508181035f83015261286b81612832565b9050919050565b5f61287c82612310565b915061288783612310565b925082820190508082111561289f5761289e612579565b5b92915050565b7f4f776e61626c653a2063616c6c6572206973206e6f7420746865206f776e65725f82015250565b5f6128d9602083612212565b91506128e4826128a5565b602082019050919050565b5f6020820190508181035f830152612906816128cd565b9050919050565b7f45524332303a2064656372656173656420616c6c6f77616e63652062656c6f775f8201527f207a65726f000000000000000000000000000000000000000000000000000000602082015250565b5f612967602583612212565b91506129728261290d565b604082019050919050565b5f6020820190508181035f8301526129948161295b565b9050919050565b7f496e73756666696369656e742062616c616e63650000000000000000000000005f82015250565b5f6129cf601483612212565b91506129da8261299b565b602082019050919050565b5f6020820190508181035f8301526129fc816129c3565b9050919050565b7f4e6f2072657761726420617661696c61626c65000000000000000000000000005f82015250565b5f612a37601383612212565b9150612a4282612a03565b602082019050919050565b5f6020820190508181035f830152612a6481612a2b565b9050919050565b7f4e6f207265776172647320746f207769746864726177000000000000000000005f82015250565b5f612a9f601683612212565b9150612aaa82612a6b565b602082019050919050565b5f6020820190508181035f830152612acc81612a93565b9050919050565b7f4f776e61626c653a206e6577206f776e657220697320746865207a65726f20615f8201527f6464726573730000000000000000000000000000000000000000000000000000602082015250565b5f612b2d602683612212565b9150612b3882612ad3565b604082019050919050565b5f6020820190508181035f830152612b5a81612b21565b9050919050565b7f45524332303a20617070726f76652066726f6d20746865207a65726f206164645f8201527f7265737300000000000000000000000000000000000000000000000000000000602082015250565b5f612bbb602483612212565b9150612bc682612b61565b604082019050919050565b5f6020820190508181035f830152612be881612baf565b9050919050565b7f45524332303a20617070726f766520746f20746865207a65726f2061646472655f8201527f7373000000000000000000000000000000000000000000000000000000000000602082015250565b5f612c49602283612212565b9150612c5482612bef565b604082019050919050565b5f6020820190508181035f830152612c7681612c3d565b9050919050565b7f45524332303a20696e73756666696369656e7420616c6c6f77616e63650000005f82015250565b5f612cb1601d83612212565b9150612cbc82612c7d565b602082019050919050565b5f6020820190508181035f830152612cde81612ca5565b9050919050565b7f45524332303a207472616e736665722066726f6d20746865207a65726f2061645f8201527f6472657373000000000000000000000000000000000000000000000000000000602082015250565b5f612d3f602583612212565b9150612d4a82612ce5565b604082019050919050565b5f6020820190508181035f830152612d6c81612d33565b9050919050565b7f45524332303a207472616e7366657220746f20746865207a65726f20616464725f8201527f6573730000000000000000000000000000000000000000000000000000000000602082015250565b5f612dcd602383612212565b9150612dd882612d73565b604082019050919050565b5f6020820190508181035f830152612dfa81612dc1565b9050919050565b7f45524332303a207472616e7366657220616d6f756e74206578636565647320625f8201527f616c616e63650000000000000000000000000000000000000000000000000000602082015250565b5f612e5b602683612212565b9150612e6682612e01565b604082019050919050565b5f6020820190508181035f830152612e8881612e4f565b9050919050565b7f45524332303a206d696e7420746f20746865207a65726f2061646472657373005f82015250565b5f612ec3601f83612212565b9150612ece82612e8f565b602082019050919050565b5f6020820190508181035f830152612ef081612eb7565b9050919050565b7f45524332303a206275726e2066726f6d20746865207a65726f206164647265735f8201527f7300000000000000000000000000000000000000000000000000000000000000602082015250565b5f612f51602183612212565b9150612f5c82612ef7565b604082019050919050565b5f6020820190508181035f830152612f7e81612f45565b9050919050565b7f45524332303a206275726e20616d6f756e7420657863656564732062616c616e5f8201527f6365000000000000000000000000000000000000000000000000000000000000602082015250565b5f612fdf602283612212565b9150612fea82612f85565b604082019050919050565b5f6020820190508181035f83015261300c81612fd3565b905091905056fea2646970667358221220250e4ebff25a0f0e462393865d729c1dac9ffed40843097911661eebe099f8a864736f6c63430008140033",
  "immutableReferences": {},
  "source": "\r\npragma solidity ^0.8.4;\r\n\r\n\r\n// SPDX-License-Identifier: MIT\r\nimport \"@openzeppelin/contracts/token/ERC20/ERC20.sol\";\r\nimport \"@openzeppelin/contracts/token/ERC721/ERC721.sol\";\r\nimport \"@openzeppelin/contracts/access/Ownable.sol\";\r\n\r\n\r\n\r\ncontract ChemiCoin is ERC20, Ownable {\r\n\r\n\r\n    //uint256 public constant MAX_SUPPLY = 1000000 * 10**18; // Max total supply of Chemicoins\r\n    mapping(address => uint256) public stakingBalance;\r\n    mapping(address => uint256) public rewardsBalance;\r\n    mapping(address => uint256) public lastRewardClaimTime;\r\n\r\n    event Mint(address indexed to, uint256 amount);\r\n    event Burn(address indexed from, uint256 amount);\r\n    event Staked(address indexed staker, uint256 amount);\r\n    event Unstaked(address indexed staker, uint256 amount);\r\n    event RewardClaimed(address indexed staker, uint256 amount);\r\n    // Evento para registrar la compra de tokens\r\n    event TokensPurchased(address buyer, uint256 amount, uint256 tokensReceived);\r\n\r\n    constructor() ERC20('PigCoin', 'PIG') {\r\n    \r\n        _mint(address(this), 10000000000000);\r\n    }\r\n\r\n\r\n    function decimals() public pure override returns (uint8) {\r\n        return 0;\r\n    }\r\n\r\n    // Visualizacion del balance de tokens ERC-20 de un usuario\r\n    function balanceTokens(address _account) public view returns (uint256){\r\n        return balanceOf(_account);\r\n    }\r\n    \r\n        // Visualizacion del balance de tokens ERC-20 del Smart Contract\r\n    function balanceTokensSC() public view returns (uint256){\r\n        return balanceOf(address(this));\r\n    }\r\n\r\n    function mint(address to, uint256 amount) external onlyOwner {\r\n        //require((totalSupply() + amount) <= MAX_SUPPLY, \"Exceeds max supply\");\r\n        _mint(to, amount);\r\n        emit Mint(to, amount);\r\n    }\r\n\r\n    function burn(uint256 amount) external payable {\r\n        _burn(msg.sender, amount);\r\n        emit Burn(msg.sender, amount);\r\n    }\r\n\r\n    // Funcin para que los usuarios compren tokens\r\n    function buyTokens(uint256 tokensToBuy) public payable {\r\n        require(tokensToBuy > 0, \"tokensToBuy must be greater than 0\");\r\n\r\n        // Calcular el monto de ETH necesario para comprar los tokens (0.01 ETH por token)\r\n        uint256 amount = tokensToBuy * 1 ether / 100;\r\n\r\n        // Verificar si se ha enviado suficiente ETH\r\n        require(msg.value >= amount, \"Insufficient ETH sent\");\r\n\r\n        // Transferir ETH al contrato\r\n        payable(address(this)).transfer(amount);\r\n\r\n        // Transferir tokens al comprador\r\n        _transfer(address(this), msg.sender, tokensToBuy);\r\n    }\r\n\r\n    // Funcin para que los usuarios compren tokens\r\n    function buyTokens2() public payable {\r\n        // Calcular el monto de ETH necesario para comprar un token (0.01 ETH por token)\r\n        uint256 tokenPrice = 0.01 ether;\r\n    \r\n        // Calcular la cantidad de tokens que se comprarn en funcin del valor de msg.value\r\n        uint256 tokensToBuy = msg.value / tokenPrice;\r\n    \r\n        // Verificar si se ha enviado suficiente ETH para comprar al menos un token\r\n        require(tokensToBuy > 0, \"Insufficient ETH sent\");\r\n\r\n        // Transferir tokens al comprador\r\n        _transfer(address(this), msg.sender, tokensToBuy);\r\n    }\r\n\r\n    // Funcin para que los usuarios compren tokens\r\n    function buyTokens3() external payable {\r\n        // Obtiene el monto de ETH enviado por el comprador\r\n        uint256 ethAmount = msg.value;\r\n    \r\n        // Calcula la cantidad de tokens a recibir (por ejemplo, 1 ETH = 100 tokens)\r\n        uint256 tokenAmount = ethAmount * 100; // Suponiendo que 1 ETH equivale a 100 tokens\r\n\r\n        // Transfiere los tokens al comprador\r\n        payable(msg.sender).transfer(tokenAmount);\r\n\r\n        // Emite el evento\r\n        emit TokensPurchased(msg.sender, ethAmount, tokenAmount);\r\n    }\r\n\r\n      function stake(uint256 amount) external {\r\n        require(amount > 0, \"Amount must be greater than 0\");\r\n        require(balanceOf(msg.sender) >= amount, \"Insufficient balance\");\r\n        // Actualizar el tiempo del ltimo stake del 'msg.sender'\r\n        lastRewardClaimTime[msg.sender] = block.timestamp;\r\n        stakingBalance[msg.sender] = stakingBalance[msg.sender] + amount; //.add(amount);\r\n        _transfer(msg.sender, address(this), amount);\r\n        emit Staked(msg.sender, amount);\r\n    }\r\n\r\nfunction unstake(uint256 amount) external {\r\n    require(amount > 0, \"Amount must be greater than 0\");\r\n    require(stakingBalance[msg.sender] >= amount, \"Insufficient staked balance\");\r\n    \r\n    // Restar la cantidad 'amount' del balance de staking del 'msg.sender'\r\n    stakingBalance[msg.sender] -= amount;\r\n    \r\n    // Transferir la cantidad 'amount' de tokens desde el contrato al 'msg.sender'\r\n    _transfer(address(this), msg.sender, amount*10**18);\r\n    \r\n    emit Unstaked(msg.sender, amount);\r\n}\r\n\r\nuint256 constant public APY = 10; // 10% APY\r\n\r\n// Funcin para reclamar recompensa\r\nfunction claimReward() external {\r\n    require(lastRewardClaimTime[msg.sender] != 0, \"No reward available\");\r\n    \r\n    uint256 timeElapsed = block.timestamp - lastRewardClaimTime[msg.sender];\r\n    uint256 reward = stakingBalance[msg.sender] * timeElapsed * APY / (365 days); // Calcular recompensa basada en tiempo y APY\r\n    rewardsBalance[msg.sender] += reward;\r\n    lastRewardClaimTime[msg.sender] = block.timestamp; // Actualizar el tiempo de la ltima reclamacin\r\n    \r\n    emit RewardClaimed(msg.sender, reward);\r\n}\r\n\r\n// Funcin para retirar recompensa\r\nfunction withdrawReward() external {\r\n    require(stakingBalance[msg.sender] > 0, \"No rewards to withdraw\");\r\n    require(block.timestamp > lastRewardClaimTime[msg.sender], \"No rewards to withdraw\");\r\n    \r\n    uint256 reward = calculateReward(msg.sender);\r\n    rewardsBalance[msg.sender] = 0; // Establecer el balance de recompensas en cero\r\n    \r\n    // Actualizar el tiempo de la ltima reclamacin\r\n    lastRewardClaimTime[msg.sender] = block.timestamp;\r\n    \r\n    // Transferir la cantidad de tokens de recompensa desde el contrato al msg.sender\r\n    _transfer(address(this), msg.sender, reward*10**18);\r\n    \r\n    emit RewardClaimed(msg.sender, reward);\r\n}\r\n\r\n\r\nfunction calculateReward(address account) public view returns (uint256) {\r\n    uint256 timeElapsed = block.timestamp - lastRewardClaimTime[msg.sender];\r\n    uint256 reward = (stakingBalance[account] * APY * timeElapsed) / (365 * 24 * 60 * 60 * 100); // APY * timeElapsed / 365 days\r\n    return reward;\r\n}\r\n\r\n    // Funcin para obtener el saldo de tokens en staking de un usuario\r\n    function getStakingBalance(address account) public view returns (uint256) {\r\n        return stakingBalance[account];\r\n    }\r\n\r\n    // Funcin para obtener el saldo de recompensas acumuladas de un usuario\r\n    function getRewardsBalance(address account) public view returns (uint256) {\r\n        return rewardsBalance[account];\r\n    }\r\n    \r\n    receive() external payable {\r\n        // Funcin de respaldo para aceptar Ether\r\n    }\r\n\r\n}\r\n",
  "sourcePath": "C:\\Users\\jcord\\Documents\\Master_BC\\PigCoins\\src\\contracts\\ChemiCoin.sol",
  "compiler": {
    "name": "solc",
    "version": "0.8.20+commit.a1b79de6.Emscripten.clang"
  },
  "schemaVersion": "3.4.16",
  "updatedAt": "2024-03-31T17:14:46.864Z",
  "devdoc": {
    "events": {
      "Approval(address,address,uint256)": {
        "details": "Emitted when the allowance of a `spender` for an `owner` is set by a call to {approve}. `value` is the new allowance."
      },
      "Transfer(address,address,uint256)": {
        "details": "Emitted when `value` tokens are moved from one account (`from`) to another (`to`). Note that `value` may be zero."
      }
    },
    "kind": "dev",
    "methods": {
      "allowance(address,address)": {
        "details": "See {IERC20-allowance}."
      },
      "approve(address,uint256)": {
        "details": "See {IERC20-approve}. NOTE: If `amount` is the maximum `uint256`, the allowance is not updated on `transferFrom`. This is semantically equivalent to an infinite approval. Requirements: - `spender` cannot be the zero address."
      },
      "balanceOf(address)": {
        "details": "See {IERC20-balanceOf}."
      },
      "decimals()": {
        "details": "Returns the number of decimals used to get its user representation. For example, if `decimals` equals `2`, a balance of `505` tokens should be displayed to a user as `5.05` (`505 / 10 ** 2`). Tokens usually opt for a value of 18, imitating the relationship between Ether and Wei. This is the value {ERC20} uses, unless this function is overridden; NOTE: This information is only used for _display_ purposes: it in no way affects any of the arithmetic of the contract, including {IERC20-balanceOf} and {IERC20-transfer}."
      },
      "decreaseAllowance(address,uint256)": {
        "details": "Atomically decreases the allowance granted to `spender` by the caller. This is an alternative to {approve} that can be used as a mitigation for problems described in {IERC20-approve}. Emits an {Approval} event indicating the updated allowance. Requirements: - `spender` cannot be the zero address. - `spender` must have allowance for the caller of at least `subtractedValue`."
      },
      "increaseAllowance(address,uint256)": {
        "details": "Atomically increases the allowance granted to `spender` by the caller. This is an alternative to {approve} that can be used as a mitigation for problems described in {IERC20-approve}. Emits an {Approval} event indicating the updated allowance. Requirements: - `spender` cannot be the zero address."
      },
      "name()": {
        "details": "Returns the name of the token."
      },
      "owner()": {
        "details": "Returns the address of the current owner."
      },
      "renounceOwnership()": {
        "details": "Leaves the contract without owner. It will not be possible to call `onlyOwner` functions anymore. Can only be called by the current owner. NOTE: Renouncing ownership will leave the contract without an owner, thereby removing any functionality that is only available to the owner."
      },
      "symbol()": {
        "details": "Returns the symbol of the token, usually a shorter version of the name."
      },
      "totalSupply()": {
        "details": "See {IERC20-totalSupply}."
      },
      "transfer(address,uint256)": {
        "details": "See {IERC20-transfer}. Requirements: - `to` cannot be the zero address. - the caller must have a balance of at least `amount`."
      },
      "transferFrom(address,address,uint256)": {
        "details": "See {IERC20-transferFrom}. Emits an {Approval} event indicating the updated allowance. This is not required by the EIP. See the note at the beginning of {ERC20}. NOTE: Does not update the allowance if the current allowance is the maximum `uint256`. Requirements: - `from` and `to` cannot be the zero address. - `from` must have a balance of at least `amount`. - the caller must have allowance for ``from``'s tokens of at least `amount`."
      },
      "transferOwnership(address)": {
        "details": "Transfers ownership of the contract to a new account (`newOwner`). Can only be called by the current owner."
      }
    },
    "version": 1
  },
  "userdoc": {
    "kind": "user",
    "methods": {},
    "version": 1
  }
}