{
  "contractName": "Loteria",
  "abi": [
    {
      "inputs": [],
      "stateMutability": "nonpayable",
      "type": "constructor"
    },
    {
      "anonymous": false,
      "inputs": [
        {
          "indexed": true,
          "internalType": "address",
          "name": "owner",
          "type": "address"
        },
        {
          "indexed": true,
          "internalType": "address",
          "name": "approved",
          "type": "address"
        },
        {
          "indexed": true,
          "internalType": "uint256",
          "name": "tokenId",
          "type": "uint256"
        }
      ],
      "name": "Approval",
      "type": "event"
    },
    {
      "anonymous": false,
      "inputs": [
        {
          "indexed": true,
          "internalType": "address",
          "name": "owner",
          "type": "address"
        },
        {
          "indexed": true,
          "internalType": "address",
          "name": "operator",
          "type": "address"
        },
        {
          "indexed": false,
          "internalType": "bool",
          "name": "approved",
          "type": "bool"
        }
      ],
      "name": "ApprovalForAll",
      "type": "event"
    },
    {
      "anonymous": false,
      "inputs": [
        {
          "indexed": true,
          "internalType": "address",
          "name": "comprador",
          "type": "address"
        },
        {
          "indexed": false,
          "internalType": "uint256",
          "name": "cantidad",
          "type": "uint256"
        }
      ],
      "name": "Compra",
      "type": "event"
    },
    {
      "anonymous": false,
      "inputs": [
        {
          "indexed": false,
          "internalType": "uint256",
          "name": "boletoGanador",
          "type": "uint256"
        },
        {
          "indexed": false,
          "internalType": "address",
          "name": "ganador",
          "type": "address"
        }
      ],
      "name": "Ganador",
      "type": "event"
    },
    {
      "anonymous": false,
      "inputs": [
        {
          "indexed": true,
          "internalType": "address",
          "name": "aspirante",
          "type": "address"
        }
      ],
      "name": "Registro",
      "type": "event"
    },
    {
      "anonymous": false,
      "inputs": [
        {
          "indexed": true,
          "internalType": "address",
          "name": "from",
          "type": "address"
        },
        {
          "indexed": true,
          "internalType": "address",
          "name": "to",
          "type": "address"
        },
        {
          "indexed": true,
          "internalType": "uint256",
          "name": "tokenId",
          "type": "uint256"
        }
      ],
      "name": "Transfer",
      "type": "event"
    },
    {
      "anonymous": false,
      "inputs": [],
      "name": "saldoRetirado",
      "type": "event"
    },
    {
      "inputs": [
        {
          "internalType": "address",
          "name": "to",
          "type": "address"
        },
        {
          "internalType": "uint256",
          "name": "tokenId",
          "type": "uint256"
        }
      ],
      "name": "approve",
      "outputs": [],
      "stateMutability": "nonpayable",
      "type": "function"
    },
    {
      "inputs": [
        {
          "internalType": "address",
          "name": "owner",
          "type": "address"
        }
      ],
      "name": "balanceOf",
      "outputs": [
        {
          "internalType": "uint256",
          "name": "",
          "type": "uint256"
        }
      ],
      "stateMutability": "view",
      "type": "function",
      "constant": true
    },
    {
      "inputs": [
        {
          "internalType": "uint256",
          "name": "",
          "type": "uint256"
        }
      ],
      "name": "boletosAsignados",
      "outputs": [
        {
          "internalType": "address",
          "name": "",
          "type": "address"
        }
      ],
      "stateMutability": "view",
      "type": "function",
      "constant": true
    },
    {
      "inputs": [
        {
          "internalType": "uint256",
          "name": "tokenId",
          "type": "uint256"
        }
      ],
      "name": "getApproved",
      "outputs": [
        {
          "internalType": "address",
          "name": "",
          "type": "address"
        }
      ],
      "stateMutability": "view",
      "type": "function",
      "constant": true
    },
    {
      "inputs": [
        {
          "internalType": "address",
          "name": "owner",
          "type": "address"
        },
        {
          "internalType": "address",
          "name": "operator",
          "type": "address"
        }
      ],
      "name": "isApprovedForAll",
      "outputs": [
        {
          "internalType": "bool",
          "name": "",
          "type": "bool"
        }
      ],
      "stateMutability": "view",
      "type": "function",
      "constant": true
    },
    {
      "inputs": [],
      "name": "name",
      "outputs": [
        {
          "internalType": "string",
          "name": "",
          "type": "string"
        }
      ],
      "stateMutability": "view",
      "type": "function",
      "constant": true
    },
    {
      "inputs": [
        {
          "internalType": "uint256",
          "name": "tokenId",
          "type": "uint256"
        }
      ],
      "name": "ownerOf",
      "outputs": [
        {
          "internalType": "address",
          "name": "",
          "type": "address"
        }
      ],
      "stateMutability": "view",
      "type": "function",
      "constant": true
    },
    {
      "inputs": [
        {
          "internalType": "address",
          "name": "",
          "type": "address"
        }
      ],
      "name": "participantes",
      "outputs": [
        {
          "internalType": "uint256",
          "name": "idUsuario",
          "type": "uint256"
        },
        {
          "internalType": "uint256",
          "name": "numBoletos",
          "type": "uint256"
        },
        {
          "internalType": "bool",
          "name": "registrado",
          "type": "bool"
        }
      ],
      "stateMutability": "view",
      "type": "function",
      "constant": true
    },
    {
      "inputs": [],
      "name": "propietario",
      "outputs": [
        {
          "internalType": "address",
          "name": "",
          "type": "address"
        }
      ],
      "stateMutability": "view",
      "type": "function",
      "constant": true
    },
    {
      "inputs": [
        {
          "internalType": "address",
          "name": "",
          "type": "address"
        }
      ],
      "name": "registro",
      "outputs": [
        {
          "internalType": "bool",
          "name": "",
          "type": "bool"
        }
      ],
      "stateMutability": "view",
      "type": "function",
      "constant": true
    },
    {
      "inputs": [
        {
          "internalType": "address",
          "name": "from",
          "type": "address"
        },
        {
          "internalType": "address",
          "name": "to",
          "type": "address"
        },
        {
          "internalType": "uint256",
          "name": "tokenId",
          "type": "uint256"
        }
      ],
      "name": "safeTransferFrom",
      "outputs": [],
      "stateMutability": "nonpayable",
      "type": "function"
    },
    {
      "inputs": [
        {
          "internalType": "address",
          "name": "from",
          "type": "address"
        },
        {
          "internalType": "address",
          "name": "to",
          "type": "address"
        },
        {
          "internalType": "uint256",
          "name": "tokenId",
          "type": "uint256"
        },
        {
          "internalType": "bytes",
          "name": "_data",
          "type": "bytes"
        }
      ],
      "name": "safeTransferFrom",
      "outputs": [],
      "stateMutability": "nonpayable",
      "type": "function"
    },
    {
      "inputs": [
        {
          "internalType": "address",
          "name": "operator",
          "type": "address"
        },
        {
          "internalType": "bool",
          "name": "approved",
          "type": "bool"
        }
      ],
      "name": "setApprovalForAll",
      "outputs": [],
      "stateMutability": "nonpayable",
      "type": "function"
    },
    {
      "inputs": [
        {
          "internalType": "bytes4",
          "name": "interfaceId",
          "type": "bytes4"
        }
      ],
      "name": "supportsInterface",
      "outputs": [
        {
          "internalType": "bool",
          "name": "",
          "type": "bool"
        }
      ],
      "stateMutability": "view",
      "type": "function",
      "constant": true
    },
    {
      "inputs": [],
      "name": "symbol",
      "outputs": [
        {
          "internalType": "string",
          "name": "",
          "type": "string"
        }
      ],
      "stateMutability": "view",
      "type": "function",
      "constant": true
    },
    {
      "inputs": [],
      "name": "tokenIdCounter",
      "outputs": [
        {
          "internalType": "uint256",
          "name": "",
          "type": "uint256"
        }
      ],
      "stateMutability": "view",
      "type": "function",
      "constant": true
    },
    {
      "inputs": [
        {
          "internalType": "uint256",
          "name": "tokenId",
          "type": "uint256"
        }
      ],
      "name": "tokenURI",
      "outputs": [
        {
          "internalType": "string",
          "name": "",
          "type": "string"
        }
      ],
      "stateMutability": "view",
      "type": "function",
      "constant": true
    },
    {
      "inputs": [
        {
          "internalType": "address",
          "name": "from",
          "type": "address"
        },
        {
          "internalType": "address",
          "name": "to",
          "type": "address"
        },
        {
          "internalType": "uint256",
          "name": "tokenId",
          "type": "uint256"
        }
      ],
      "name": "transferFrom",
      "outputs": [],
      "stateMutability": "nonpayable",
      "type": "function"
    },
    {
      "inputs": [],
      "name": "registrarUsuario",
      "outputs": [],
      "stateMutability": "nonpayable",
      "type": "function"
    },
    {
      "inputs": [
        {
          "internalType": "uint256",
          "name": "_cantidad",
          "type": "uint256"
        }
      ],
      "name": "comprarBoletos",
      "outputs": [],
      "stateMutability": "payable",
      "type": "function",
      "payable": true
    },
    {
      "inputs": [],
      "name": "balanceDeSC",
      "outputs": [
        {
          "internalType": "uint256",
          "name": "",
          "type": "uint256"
        }
      ],
      "stateMutability": "view",
      "type": "function",
      "constant": true
    },
    {
      "inputs": [
        {
          "internalType": "address",
          "name": "_user",
          "type": "address"
        }
      ],
      "name": "balanceDeUsuario",
      "outputs": [
        {
          "internalType": "uint256",
          "name": "",
          "type": "uint256"
        }
      ],
      "stateMutability": "view",
      "type": "function",
      "constant": true
    },
    {
      "inputs": [
        {
          "internalType": "uint256",
          "name": "_amount",
          "type": "uint256"
        }
      ],
      "name": "withdraw",
      "outputs": [],
      "stateMutability": "nonpayable",
      "type": "function"
    },
    {
      "inputs": [],
      "name": "generarBoletoGanador",
      "outputs": [
        {
          "internalType": "uint256",
          "name": "",
          "type": "uint256"
        }
      ],
      "stateMutability": "view",
      "type": "function",
      "constant": true
    },
    {
      "inputs": [],
      "name": "localizarGanador",
      "outputs": [
        {
          "internalType": "address",
          "name": "",
          "type": "address"
        }
      ],
      "stateMutability": "nonpayable",
      "type": "function"
    },
    {
      "inputs": [],
      "name": "premiarGanador",
      "outputs": [],
      "stateMutability": "payable",
      "type": "function",
      "payable": true
    }
  ],
  "bytecode": "0x60806040523480156200001157600080fd5b506040518060400160405280600781526020017f426f6c65746f73000000000000000000000000000000000000000000000000008152506040518060400160405280600381526020017f434845000000000000000000000000000000000000000000000000000000000081525081600090805190602001906200009692919062000101565b508060019080519060200190620000af92919062000101565b5050506001600a8190555033600660006101000a81548173ffffffffffffffffffffffffffffffffffffffff021916908373ffffffffffffffffffffffffffffffffffffffff16021790555062000216565b8280546200010f90620001b1565b90600052602060002090601f0160209004810192826200013357600085556200017f565b82601f106200014e57805160ff19168380011785556200017f565b828001600101855582156200017f579182015b828111156200017e57825182559160200191906001019062000161565b5b5090506200018e919062000192565b5090565b5b80821115620001ad57600081600090555060010162000193565b5090565b60006002820490506001821680620001ca57607f821691505b60208210811415620001e157620001e0620001e7565b5b50919050565b7f4e487b7100000000000000000000000000000000000000000000000000000000600052602260045260246000fd5b61390780620002266000396000f3fe6080604052600436106101815760003560e01c80636461d743116100d1578063a30c0c531161008a578063e5854cfe11610064578063e5854cfe1461057a578063e985e9c5146105b7578063f3896db5146105f4578063fff71a721461061f57610181565b8063a30c0c53146104d7578063b88d4fde14610514578063c87b56dd1461053d57610181565b80636461d743146103d9578063689d63df1461040457806370a082311461041b57806395d89b411461045857806398bdf6f514610483578063a22cb465146104ae57610181565b80632fffcf961161013e57806342842e0e1161011857806342842e0e1461034d578063454858a91461037657806349ce7f96146103805780636352211e1461039c57610181565b80632fffcf96146102a657806338bc7a35146102e55780633c4f81cd1461032257610181565b806301ffc9a71461018657806306fdde03146101c3578063081812fc146101ee578063095ea7b31461022b57806323b872dd146102545780632e1a7d4d1461027d575b600080fd5b34801561019257600080fd5b506101ad60048036038101906101a89190612762565b61064a565b6040516101ba9190612c53565b60405180910390f35b3480156101cf57600080fd5b506101d861072c565b6040516101e59190612c6e565b60405180910390f35b3480156101fa57600080fd5b50610215600480360381019061021091906127b4565b6107be565b6040516102229190612bec565b60405180910390f35b34801561023757600080fd5b50610252600480360381019061024d9190612726565b610843565b005b34801561026057600080fd5b5061027b60048036038101906102769190612620565b61095b565b005b34801561028957600080fd5b506102a4600480360381019061029f91906127b4565b6109bb565b005b3480156102b257600080fd5b506102cd60048036038101906102c891906125bb565b610acb565b6040516102dc93929190612f34565b60405180910390f35b3480156102f157600080fd5b5061030c600480360381019061030791906127b4565b610b02565b6040516103199190612bec565b60405180910390f35b34801561032e57600080fd5b50610337610b35565b6040516103449190612bec565b60405180910390f35b34801561035957600080fd5b50610374600480360381019061036f9190612620565b610b5b565b005b61037e610b7b565b005b61039a600480360381019061039591906127b4565b610cde565b005b3480156103a857600080fd5b506103c360048036038101906103be91906127b4565b610f3f565b6040516103d09190612bec565b60405180910390f35b3480156103e557600080fd5b506103ee610ff1565b6040516103fb9190612ef0565b60405180910390f35b34801561041057600080fd5b50610419611205565b005b34801561042757600080fd5b50610442600480360381019061043d91906125bb565b6113c6565b60405161044f9190612ef0565b60405180910390f35b34801561046457600080fd5b5061046d61147e565b60405161047a9190612c6e565b60405180910390f35b34801561048f57600080fd5b50610498611510565b6040516104a59190612ef0565b60405180910390f35b3480156104ba57600080fd5b506104d560048036038101906104d091906126ea565b611516565b005b3480156104e357600080fd5b506104fe60048036038101906104f991906125bb565b61152c565b60405161050b9190612c53565b60405180910390f35b34801561052057600080fd5b5061053b6004803603810190610536919061266f565b61154c565b005b34801561054957600080fd5b50610564600480360381019061055f91906127b4565b6115ae565b6040516105719190612c6e565b60405180910390f35b34801561058657600080fd5b506105a1600480360381019061059c91906125bb565b611655565b6040516105ae9190612ef0565b60405180910390f35b3480156105c357600080fd5b506105de60048036038101906105d991906125e4565b611730565b6040516105eb9190612c53565b60405180910390f35b34801561060057600080fd5b506106096117c4565b6040516106169190612ef0565b60405180910390f35b34801561062b57600080fd5b506106346117cc565b6040516106419190612bec565b60405180910390f35b60007f80ac58cd000000000000000000000000000000000000000000000000000000007bffffffffffffffffffffffffffffffffffffffffffffffffffffffff1916827bffffffffffffffffffffffffffffffffffffffffffffffffffffffff1916148061071557507f5b5e139f000000000000000000000000000000000000000000000000000000007bffffffffffffffffffffffffffffffffffffffffffffffffffffffff1916827bffffffffffffffffffffffffffffffffffffffffffffffffffffffff1916145b806107255750610724826118e3565b5b9050919050565b60606000805461073b906131d9565b80601f0160208091040260200160405190810160405280929190818152602001828054610767906131d9565b80156107b45780601f10610789576101008083540402835291602001916107b4565b820191906000526020600020905b81548152906001019060200180831161079757829003601f168201915b5050505050905090565b60006107c98261194d565b610808576040517f08c379a00000000000000000000000000000000000000000000000000000000081526004016107ff90612e10565b60405180910390fd5b6004600083815260200190815260200160002060009054906101000a900473ffffffffffffffffffffffffffffffffffffffff169050919050565b600061084e82610f3f565b90508073ffffffffffffffffffffffffffffffffffffffff168373ffffffffffffffffffffffffffffffffffffffff1614156108bf576040517f08c379a00000000000000000000000000000000000000000000000000000000081526004016108b690612e90565b60405180910390fd5b8073ffffffffffffffffffffffffffffffffffffffff166108de6119b9565b73ffffffffffffffffffffffffffffffffffffffff16148061090d575061090c816109076119b9565b611730565b5b61094c576040517f08c379a000000000000000000000000000000000000000000000000000000000815260040161094390612d90565b60405180910390fd5b61095683836119c1565b505050565b61096c6109666119b9565b82611a7a565b6109ab576040517f08c379a00000000000000000000000000000000000000000000000000000000081526004016109a290612eb0565b60405180910390fd5b6109b6838383611b58565b505050565b600660009054906101000a900473ffffffffffffffffffffffffffffffffffffffff1673ffffffffffffffffffffffffffffffffffffffff163373ffffffffffffffffffffffffffffffffffffffff1614610a4b576040517f08c379a0000000000000000000000000000000000000000000000000000000008152600401610a4290612e30565b60405180910390fd5b610a536117c4565b90503373ffffffffffffffffffffffffffffffffffffffff166108fc829081150290604051600060405180830381858888f19350505050158015610a9b573d6000803e3d6000fd5b507f50c15541318973c879843687a31c66e43b0be2b31848a98ffb49337361df7bf560405160405180910390a150565b60076020528060005260406000206000915090508060000154908060010154908060030160009054906101000a900460ff16905083565b60096020528060005260406000206000915054906101000a900473ffffffffffffffffffffffffffffffffffffffff1681565b600660009054906101000a900473ffffffffffffffffffffffffffffffffffffffff1681565b610b768383836040518060200160405280600081525061154c565b505050565b600660009054906101000a900473ffffffffffffffffffffffffffffffffffffffff1673ffffffffffffffffffffffffffffffffffffffff163373ffffffffffffffffffffffffffffffffffffffff1614610c0b576040517f08c379a0000000000000000000000000000000000000000000000000000000008152600401610c0290612e30565b60405180910390fd5b60004790506000610c1a6117cc565b90508073ffffffffffffffffffffffffffffffffffffffff166108fc6002600185610c45919061308b565b610c4f919061305a565b9081150290604051600060405180830381858888f19350505050158015610c7a573d6000803e3d6000fd5b503373ffffffffffffffffffffffffffffffffffffffff166108fc6002600185610ca4919061308b565b610cae919061305a565b9081150290604051600060405180830381858888f19350505050158015610cd9573d6000803e3d6000fd5b505050565b600760003373ffffffffffffffffffffffffffffffffffffffff1673ffffffffffffffffffffffffffffffffffffffff16815260200190815260200160002060030160009054906101000a900460ff16610d6d576040517f08c379a0000000000000000000000000000000000000000000000000000000008152600401610d6490612c90565b60405180910390fd5b6000670de0b6b3a764000082610d83919061308b565b905080341015610dc8576040517f08c379a0000000000000000000000000000000000000000000000000000000008152600401610dbf90612d10565b60405180910390fd5b60005b82811015610eec576000600a6000815480929190610de89061323c565b919050559050600760003373ffffffffffffffffffffffffffffffffffffffff1673ffffffffffffffffffffffffffffffffffffffff1681526020019081526020016000206001016000815480929190610e419061323c565b9190505550600760003373ffffffffffffffffffffffffffffffffffffffff1673ffffffffffffffffffffffffffffffffffffffff1681526020019081526020016000206002018190806001815401808255809150506001900390600052602060002001600090919091909150556009600082815260200190815260200160002060009054906101000a905050610ed83382611dbf565b508080610ee49061323c565b915050610dcb565b503373ffffffffffffffffffffffffffffffffffffffff167f627b59db5e27b0dd82f2e97a404d7e361068be495bf575bdc714bbe43b3284d783604051610f339190612ef0565b60405180910390a25050565b6000806002600084815260200190815260200160002060009054906101000a900473ffffffffffffffffffffffffffffffffffffffff169050600073ffffffffffffffffffffffffffffffffffffffff168173ffffffffffffffffffffffffffffffffffffffff161415610fe8576040517f08c379a0000000000000000000000000000000000000000000000000000000008152600401610fdf90612dd0565b60405180910390fd5b80915050919050565b6000600660009054906101000a900473ffffffffffffffffffffffffffffffffffffffff1673ffffffffffffffffffffffffffffffffffffffff163373ffffffffffffffffffffffffffffffffffffffff1614611083576040517f08c379a000000000000000000000000000000000000000000000000000000000815260040161107a90612e30565b60405180910390fd5b6000600a5467ffffffffffffffff8111156110c7577f4e487b7100000000000000000000000000000000000000000000000000000000600052604160045260246000fd5b6040519080825280602002602001820160405280156110f55781602001602082028036833780820191505090505b50905060005b600a5481101561116a576001816111129190613004565b82828151811061114b577f4e487b7100000000000000000000000000000000000000000000000000000000600052603260045260246000fd5b60200260200101818152505080806111629061323c565b9150506110fb565b50600060014361117a91906130e5565b40423360405160200161118f93929190612b8b565b6040516020818303038152906040528051906020012060001c90506000600a54826111ba91906132bd565b90508281815181106111f5577f4e487b7100000000000000000000000000000000000000000000000000000000600052603260045260246000fd5b6020026020010151935050505090565b600760003373ffffffffffffffffffffffffffffffffffffffff1673ffffffffffffffffffffffffffffffffffffffff16815260200190815260200160002060030160009054906101000a900460ff1615611295576040517f08c379a000000000000000000000000000000000000000000000000000000000815260040161128c90612ed0565b60405180910390fd5b600a54600760003373ffffffffffffffffffffffffffffffffffffffff1673ffffffffffffffffffffffffffffffffffffffff168152602001908152602001600020600001819055506001600760003373ffffffffffffffffffffffffffffffffffffffff1673ffffffffffffffffffffffffffffffffffffffff16815260200190815260200160002060030160006101000a81548160ff0219169083151502179055506000600760003373ffffffffffffffffffffffffffffffffffffffff1673ffffffffffffffffffffffffffffffffffffffff168152602001908152602001600020600101819055503373ffffffffffffffffffffffffffffffffffffffff167f80be607f5cd85a3033467a4df57d66b5fb695770d4fa01e74648b7940696e04760405160405180910390a2565b60008073ffffffffffffffffffffffffffffffffffffffff168273ffffffffffffffffffffffffffffffffffffffff161415611437576040517f08c379a000000000000000000000000000000000000000000000000000000000815260040161142e90612db0565b60405180910390fd5b600360008373ffffffffffffffffffffffffffffffffffffffff1673ffffffffffffffffffffffffffffffffffffffff168152602001908152602001600020549050919050565b60606001805461148d906131d9565b80601f01602080910402602001604051908101604052809291908181526020018280546114b9906131d9565b80156115065780601f106114db57610100808354040283529160200191611506565b820191906000526020600020905b8154815290600101906020018083116114e957829003601f168201915b5050505050905090565b600a5481565b6115286115216119b9565b8383611f99565b5050565b60086020528060005260406000206000915054906101000a900460ff1681565b61155d6115576119b9565b83611a7a565b61159c576040517f08c379a000000000000000000000000000000000000000000000000000000000815260040161159390612eb0565b60405180910390fd5b6115a884848484612106565b50505050565b60606115b98261194d565b6115f8576040517f08c379a00000000000000000000000000000000000000000000000000000000081526004016115ef90612e70565b60405180910390fd5b6000611602612162565b90506000815111611622576040518060200160405280600081525061164d565b8061162c84612179565b60405160200161163d929190612bc8565b6040516020818303038152906040525b915050919050565b6000600760008373ffffffffffffffffffffffffffffffffffffffff1673ffffffffffffffffffffffffffffffffffffffff16815260200190815260200160002060030160009054906101000a900460ff166116e6576040517f08c379a00000000000000000000000000000000000000000000000000000000081526004016116dd90612e50565b60405180910390fd5b600760008373ffffffffffffffffffffffffffffffffffffffff1673ffffffffffffffffffffffffffffffffffffffff168152602001908152602001600020600101549050919050565b6000600560008473ffffffffffffffffffffffffffffffffffffffff1673ffffffffffffffffffffffffffffffffffffffff16815260200190815260200160002060008373ffffffffffffffffffffffffffffffffffffffff1673ffffffffffffffffffffffffffffffffffffffff16815260200190815260200160002060009054906101000a900460ff16905092915050565b600047905090565b6000600660009054906101000a900473ffffffffffffffffffffffffffffffffffffffff1673ffffffffffffffffffffffffffffffffffffffff163373ffffffffffffffffffffffffffffffffffffffff161461185e576040517f08c379a000000000000000000000000000000000000000000000000000000000815260040161185590612e30565b60405180910390fd5b6000611868610ff1565b905060006009600083815260200190815260200160002060009054906101000a900473ffffffffffffffffffffffffffffffffffffffff1690507f771889eb62f5605e2670c2e4c36a64f50ec33c8ca54e1e0233b47706ec037ce782826040516118d3929190612f0b565b60405180910390a1809250505090565b60007f01ffc9a7000000000000000000000000000000000000000000000000000000007bffffffffffffffffffffffffffffffffffffffffffffffffffffffff1916827bffffffffffffffffffffffffffffffffffffffffffffffffffffffff1916149050919050565b60008073ffffffffffffffffffffffffffffffffffffffff166002600084815260200190815260200160002060009054906101000a900473ffffffffffffffffffffffffffffffffffffffff1673ffffffffffffffffffffffffffffffffffffffff1614159050919050565b600033905090565b816004600083815260200190815260200160002060006101000a81548173ffffffffffffffffffffffffffffffffffffffff021916908373ffffffffffffffffffffffffffffffffffffffff160217905550808273ffffffffffffffffffffffffffffffffffffffff16611a3483610f3f565b73ffffffffffffffffffffffffffffffffffffffff167f8c5be1e5ebec7d5bd14f71427d1e84f3dd0314c0f7b2291e5b200ac8c7c3b92560405160405180910390a45050565b6000611a858261194d565b611ac4576040517f08c379a0000000000000000000000000000000000000000000000000000000008152600401611abb90612d70565b60405180910390fd5b6000611acf83610f3f565b90508073ffffffffffffffffffffffffffffffffffffffff168473ffffffffffffffffffffffffffffffffffffffff161480611b3e57508373ffffffffffffffffffffffffffffffffffffffff16611b26846107be565b73ffffffffffffffffffffffffffffffffffffffff16145b80611b4f5750611b4e8185611730565b5b91505092915050565b8273ffffffffffffffffffffffffffffffffffffffff16611b7882610f3f565b73ffffffffffffffffffffffffffffffffffffffff1614611bce576040517f08c379a0000000000000000000000000000000000000000000000000000000008152600401611bc590612cd0565b60405180910390fd5b600073ffffffffffffffffffffffffffffffffffffffff168273ffffffffffffffffffffffffffffffffffffffff161415611c3e576040517f08c379a0000000000000000000000000000000000000000000000000000000008152600401611c3590612d30565b60405180910390fd5b611c49838383612326565b611c546000826119c1565b6001600360008573ffffffffffffffffffffffffffffffffffffffff1673ffffffffffffffffffffffffffffffffffffffff1681526020019081526020016000206000828254611ca491906130e5565b925050819055506001600360008473ffffffffffffffffffffffffffffffffffffffff1673ffffffffffffffffffffffffffffffffffffffff1681526020019081526020016000206000828254611cfb9190613004565b92505081905550816002600083815260200190815260200160002060006101000a81548173ffffffffffffffffffffffffffffffffffffffff021916908373ffffffffffffffffffffffffffffffffffffffff160217905550808273ffffffffffffffffffffffffffffffffffffffff168473ffffffffffffffffffffffffffffffffffffffff167fddf252ad1be2c89b69c2b068fc378daa952ba7f163c4a11628f55a4df523b3ef60405160405180910390a4611dba83838361232b565b505050565b600073ffffffffffffffffffffffffffffffffffffffff168273ffffffffffffffffffffffffffffffffffffffff161415611e2f576040517f08c379a0000000000000000000000000000000000000000000000000000000008152600401611e2690612df0565b60405180910390fd5b611e388161194d565b15611e78576040517f08c379a0000000000000000000000000000000000000000000000000000000008152600401611e6f90612cf0565b60405180910390fd5b611e8460008383612326565b6001600360008473ffffffffffffffffffffffffffffffffffffffff1673ffffffffffffffffffffffffffffffffffffffff1681526020019081526020016000206000828254611ed49190613004565b92505081905550816002600083815260200190815260200160002060006101000a81548173ffffffffffffffffffffffffffffffffffffffff021916908373ffffffffffffffffffffffffffffffffffffffff160217905550808273ffffffffffffffffffffffffffffffffffffffff16600073ffffffffffffffffffffffffffffffffffffffff167fddf252ad1be2c89b69c2b068fc378daa952ba7f163c4a11628f55a4df523b3ef60405160405180910390a4611f956000838361232b565b5050565b8173ffffffffffffffffffffffffffffffffffffffff168373ffffffffffffffffffffffffffffffffffffffff161415612008576040517f08c379a0000000000000000000000000000000000000000000000000000000008152600401611fff90612d50565b60405180910390fd5b80600560008573ffffffffffffffffffffffffffffffffffffffff1673ffffffffffffffffffffffffffffffffffffffff16815260200190815260200160002060008473ffffffffffffffffffffffffffffffffffffffff1673ffffffffffffffffffffffffffffffffffffffff16815260200190815260200160002060006101000a81548160ff0219169083151502179055508173ffffffffffffffffffffffffffffffffffffffff168373ffffffffffffffffffffffffffffffffffffffff167f17307eab39ab6107e8899845ad3d59bd9653f200f220920489ca2b5937696c31836040516120f99190612c53565b60405180910390a3505050565b612111848484611b58565b61211d84848484612330565b61215c576040517f08c379a000000000000000000000000000000000000000000000000000000000815260040161215390612cb0565b60405180910390fd5b50505050565b606060405180602001604052806000815250905090565b606060008214156121c1576040518060400160405280600181526020017f30000000000000000000000000000000000000000000000000000000000000008152509050612321565b600082905060005b600082146121f35780806121dc9061323c565b915050600a826121ec919061305a565b91506121c9565b60008167ffffffffffffffff811115612235577f4e487b7100000000000000000000000000000000000000000000000000000000600052604160045260246000fd5b6040519080825280601f01601f1916602001820160405280156122675781602001600182028036833780820191505090505b5090505b6000851461231a5760018261228091906130e5565b9150600a8561228f91906132bd565b603061229b9190613004565b60f81b8183815181106122d7577f4e487b7100000000000000000000000000000000000000000000000000000000600052603260045260246000fd5b60200101907effffffffffffffffffffffffffffffffffffffffffffffffffffffffffffff1916908160001a905350600a85612313919061305a565b945061226b565b8093505050505b919050565b505050565b505050565b60006123518473ffffffffffffffffffffffffffffffffffffffff166124c7565b156124ba578373ffffffffffffffffffffffffffffffffffffffff1663150b7a0261237a6119b9565b8786866040518563ffffffff1660e01b815260040161239c9493929190612c07565b602060405180830381600087803b1580156123b657600080fd5b505af19250505080156123e757506040513d601f19601f820116820180604052508101906123e4919061278b565b60015b61246a573d8060008114612417576040519150601f19603f3d011682016040523d82523d6000602084013e61241c565b606091505b50600081511415612462576040517f08c379a000000000000000000000000000000000000000000000000000000000815260040161245990612cb0565b60405180910390fd5b805181602001fd5b63150b7a0260e01b7bffffffffffffffffffffffffffffffffffffffffffffffffffffffff1916817bffffffffffffffffffffffffffffffffffffffffffffffffffffffff1916149150506124bf565b600190505b949350505050565b6000808273ffffffffffffffffffffffffffffffffffffffff163b119050919050565b60006124fd6124f884612f90565b612f6b565b90508281526020810184848401111561251557600080fd5b612520848285613197565b509392505050565b60008135905061253781613875565b92915050565b60008135905061254c8161388c565b92915050565b600081359050612561816138a3565b92915050565b600081519050612576816138a3565b92915050565b600082601f83011261258d57600080fd5b813561259d8482602086016124ea565b91505092915050565b6000813590506125b5816138ba565b92915050565b6000602082840312156125cd57600080fd5b60006125db84828501612528565b91505092915050565b600080604083850312156125f757600080fd5b600061260585828601612528565b925050602061261685828601612528565b9150509250929050565b60008060006060848603121561263557600080fd5b600061264386828701612528565b935050602061265486828701612528565b9250506040612665868287016125a6565b9150509250925092565b6000806000806080858703121561268557600080fd5b600061269387828801612528565b94505060206126a487828801612528565b93505060406126b5878288016125a6565b925050606085013567ffffffffffffffff8111156126d257600080fd5b6126de8782880161257c565b91505092959194509250565b600080604083850312156126fd57600080fd5b600061270b85828601612528565b925050602061271c8582860161253d565b9150509250929050565b6000806040838503121561273957600080fd5b600061274785828601612528565b9250506020612758858286016125a6565b9150509250929050565b60006020828403121561277457600080fd5b600061278284828501612552565b91505092915050565b60006020828403121561279d57600080fd5b60006127ab84828501612567565b91505092915050565b6000602082840312156127c657600080fd5b60006127d4848285016125a6565b91505092915050565b6127e681613119565b82525050565b6127fd6127f882613119565b613285565b82525050565b61280c8161312b565b82525050565b61282361281e82613137565b613297565b82525050565b600061283482612fc1565b61283e8185612fd7565b935061284e8185602086016131a6565b612857816133aa565b840191505092915050565b600061286d82612fcc565b6128778185612fe8565b93506128878185602086016131a6565b612890816133aa565b840191505092915050565b60006128a682612fcc565b6128b08185612ff9565b93506128c08185602086016131a6565b80840191505092915050565b60006128d9601383612fe8565b91506128e4826133c8565b602082019050919050565b60006128fc603283612fe8565b9150612907826133f1565b604082019050919050565b600061291f602583612fe8565b915061292a82613440565b604082019050919050565b6000612942601c83612fe8565b915061294d8261348f565b602082019050919050565b6000612965601a83612fe8565b9150612970826134b8565b602082019050919050565b6000612988602483612fe8565b9150612993826134e1565b604082019050919050565b60006129ab601983612fe8565b91506129b682613530565b602082019050919050565b60006129ce602c83612fe8565b91506129d982613559565b604082019050919050565b60006129f1603883612fe8565b91506129fc826135a8565b604082019050919050565b6000612a14602a83612fe8565b9150612a1f826135f7565b604082019050919050565b6000612a37602983612fe8565b9150612a4282613646565b604082019050919050565b6000612a5a602083612fe8565b9150612a6582613695565b602082019050919050565b6000612a7d602c83612fe8565b9150612a88826136be565b604082019050919050565b6000612aa0601283612fe8565b9150612aab8261370d565b602082019050919050565b6000612ac3601583612fe8565b9150612ace82613736565b602082019050919050565b6000612ae6602f83612fe8565b9150612af18261375f565b604082019050919050565b6000612b09602183612fe8565b9150612b14826137ae565b604082019050919050565b6000612b2c603183612fe8565b9150612b37826137fd565b604082019050919050565b6000612b4f601383612fe8565b9150612b5a8261384c565b602082019050919050565b612b6e8161318d565b82525050565b612b85612b808261318d565b6132b3565b82525050565b6000612b978286612812565b602082019150612ba78285612b74565b602082019150612bb782846127ec565b601482019150819050949350505050565b6000612bd4828561289b565b9150612be0828461289b565b91508190509392505050565b6000602082019050612c0160008301846127dd565b92915050565b6000608082019050612c1c60008301876127dd565b612c2960208301866127dd565b612c366040830185612b65565b8181036060830152612c488184612829565b905095945050505050565b6000602082019050612c686000830184612803565b92915050565b60006020820190508181036000830152612c888184612862565b905092915050565b60006020820190508181036000830152612ca9816128cc565b9050919050565b60006020820190508181036000830152612cc9816128ef565b9050919050565b60006020820190508181036000830152612ce981612912565b9050919050565b60006020820190508181036000830152612d0981612935565b9050919050565b60006020820190508181036000830152612d2981612958565b9050919050565b60006020820190508181036000830152612d498161297b565b9050919050565b60006020820190508181036000830152612d698161299e565b9050919050565b60006020820190508181036000830152612d89816129c1565b9050919050565b60006020820190508181036000830152612da9816129e4565b9050919050565b60006020820190508181036000830152612dc981612a07565b9050919050565b60006020820190508181036000830152612de981612a2a565b9050919050565b60006020820190508181036000830152612e0981612a4d565b9050919050565b60006020820190508181036000830152612e2981612a70565b9050919050565b60006020820190508181036000830152612e4981612a93565b9050919050565b60006020820190508181036000830152612e6981612ab6565b9050919050565b60006020820190508181036000830152612e8981612ad9565b9050919050565b60006020820190508181036000830152612ea981612afc565b9050919050565b60006020820190508181036000830152612ec981612b1f565b9050919050565b60006020820190508181036000830152612ee981612b42565b9050919050565b6000602082019050612f056000830184612b65565b92915050565b6000604082019050612f206000830185612b65565b612f2d60208301846127dd565b9392505050565b6000606082019050612f496000830186612b65565b612f566020830185612b65565b612f636040830184612803565b949350505050565b6000612f75612f86565b9050612f81828261320b565b919050565b6000604051905090565b600067ffffffffffffffff821115612fab57612faa61337b565b5b612fb4826133aa565b9050602081019050919050565b600081519050919050565b600081519050919050565b600082825260208201905092915050565b600082825260208201905092915050565b600081905092915050565b600061300f8261318d565b915061301a8361318d565b9250827fffffffffffffffffffffffffffffffffffffffffffffffffffffffffffffffff0382111561304f5761304e6132ee565b5b828201905092915050565b60006130658261318d565b91506130708361318d565b9250826130805761307f61331d565b5b828204905092915050565b60006130968261318d565b91506130a18361318d565b9250817fffffffffffffffffffffffffffffffffffffffffffffffffffffffffffffffff04831182151516156130da576130d96132ee565b5b828202905092915050565b60006130f08261318d565b91506130fb8361318d565b92508282101561310e5761310d6132ee565b5b828203905092915050565b60006131248261316d565b9050919050565b60008115159050919050565b6000819050919050565b60007fffffffff0000000000000000000000000000000000000000000000000000000082169050919050565b600073ffffffffffffffffffffffffffffffffffffffff82169050919050565b6000819050919050565b82818337600083830152505050565b60005b838110156131c45780820151818401526020810190506131a9565b838111156131d3576000848401525b50505050565b600060028204905060018216806131f157607f821691505b602082108114156132055761320461334c565b5b50919050565b613214826133aa565b810181811067ffffffffffffffff821117156132335761323261337b565b5b80604052505050565b60006132478261318d565b91507fffffffffffffffffffffffffffffffffffffffffffffffffffffffffffffffff82141561327a576132796132ee565b5b600182019050919050565b6000613290826132a1565b9050919050565b6000819050919050565b60006132ac826133bb565b9050919050565b6000819050919050565b60006132c88261318d565b91506132d38361318d565b9250826132e3576132e261331d565b5b828206905092915050565b7f4e487b7100000000000000000000000000000000000000000000000000000000600052601160045260246000fd5b7f4e487b7100000000000000000000000000000000000000000000000000000000600052601260045260246000fd5b7f4e487b7100000000000000000000000000000000000000000000000000000000600052602260045260246000fd5b7f4e487b7100000000000000000000000000000000000000000000000000000000600052604160045260246000fd5b6000601f19601f8301169050919050565b60008160601b9050919050565b7f4e6f206573746173207265676973747261646f00000000000000000000000000600082015250565b7f4552433732313a207472616e7366657220746f206e6f6e20455243373231526560008201527f63656976657220696d706c656d656e7465720000000000000000000000000000602082015250565b7f4552433732313a207472616e736665722066726f6d20696e636f72726563742060008201527f6f776e6572000000000000000000000000000000000000000000000000000000602082015250565b7f4552433732313a20746f6b656e20616c7265616479206d696e74656400000000600082015250565b7f4e6f207469656e65732073616c646f20737566696369656e7465000000000000600082015250565b7f4552433732313a207472616e7366657220746f20746865207a65726f2061646460008201527f7265737300000000000000000000000000000000000000000000000000000000602082015250565b7f4552433732313a20617070726f766520746f2063616c6c657200000000000000600082015250565b7f4552433732313a206f70657261746f7220717565727920666f72206e6f6e657860008201527f697374656e7420746f6b656e0000000000000000000000000000000000000000602082015250565b7f4552433732313a20617070726f76652063616c6c6572206973206e6f74206f7760008201527f6e6572206e6f7220617070726f76656420666f7220616c6c0000000000000000602082015250565b7f4552433732313a2062616c616e636520717565727920666f7220746865207a6560008201527f726f206164647265737300000000000000000000000000000000000000000000602082015250565b7f4552433732313a206f776e657220717565727920666f72206e6f6e657869737460008201527f656e7420746f6b656e0000000000000000000000000000000000000000000000602082015250565b7f4552433732313a206d696e7420746f20746865207a65726f2061646472657373600082015250565b7f4552433732313a20617070726f76656420717565727920666f72206e6f6e657860008201527f697374656e7420746f6b656e0000000000000000000000000000000000000000602082015250565b7f4e6f207469656e6573207065726d69736f730000000000000000000000000000600082015250565b7f5573756172696f206e6f207265676973747261646f0000000000000000000000600082015250565b7f4552433732314d657461646174613a2055524920717565727920666f72206e6f60008201527f6e6578697374656e7420746f6b656e0000000000000000000000000000000000602082015250565b7f4552433732313a20617070726f76616c20746f2063757272656e74206f776e6560008201527f7200000000000000000000000000000000000000000000000000000000000000602082015250565b7f4552433732313a207472616e736665722063616c6c6572206973206e6f74206f60008201527f776e6572206e6f7220617070726f766564000000000000000000000000000000602082015250565b7f5961206573746173207265676973747261646f00000000000000000000000000600082015250565b61387e81613119565b811461388957600080fd5b50565b6138958161312b565b81146138a057600080fd5b50565b6138ac81613141565b81146138b757600080fd5b50565b6138c38161318d565b81146138ce57600080fd5b5056fea2646970667358221220ba43c083bb2f1014ba00ba7458b0b46162c19558afd2f699cb958b1b6515b36664736f6c63430008040033",
  "immutableReferences": {},
  "source": "// SPDX-License-Identifier: MIT\r\npragma solidity ^0.8.4;\r\n\r\nimport \"@openzeppelin/contracts/token/ERC721/ERC721.sol\";\r\nimport \"@openzeppelin/contracts/access/Ownable.sol\";\r\n\r\ncontract Loteria is ERC721 {\r\n    \r\n    address public propietario;\r\n\r\n    struct Usuario {\r\n        uint256 idUsuario;\r\n        uint256 numBoletos;\r\n        uint256[] boletos;\r\n        bool registrado;\r\n    }\r\n\r\n    mapping (address => Usuario) public participantes;\r\n    mapping (address => bool) public registro;\r\n    mapping (uint256 => address) public boletosAsignados;\r\n    uint256 public tokenIdCounter;\r\n\r\n    event Compra(address indexed comprador, uint256 cantidad);\r\n    event Registro(address indexed aspirante);\r\n    event saldoRetirado();\r\n    event Ganador(uint256 boletoGanador, address ganador);\r\n\r\n    modifier soloPropietario {\r\n    require(msg.sender == propietario, \"No tienes permisos\");\r\n    _;\r\n    }\r\n\r\n    constructor() ERC721(\"Boletos\", \"CHE\") {\r\n        tokenIdCounter = 1;\r\n        propietario = msg.sender;\r\n    }\r\n\r\n    function registrarUsuario() public {\r\n        require(!participantes[msg.sender].registrado, \"Ya estas registrado\");\r\n        participantes[msg.sender].idUsuario = tokenIdCounter;\r\n        participantes[msg.sender].registrado = true;\r\n        participantes[msg.sender].numBoletos = 0;\r\n        emit Registro(msg.sender);\r\n    }\r\n\r\n    function comprarBoletos(uint256 _cantidad) public payable {\r\n        require(participantes[msg.sender].registrado, \"No estas registrado\");\r\n        uint256 coste = _cantidad * 1 ether;\r\n        require(msg.value >= coste, \"No tienes saldo suficiente\");\r\n        \r\n        for (uint256 i = 0; i < _cantidad; i++) {\r\n            uint256 nuevoTokenId = tokenIdCounter++;\r\n            participantes[msg.sender].numBoletos++;\r\n            participantes[msg.sender].boletos.push(nuevoTokenId);\r\n            boletosAsignados[nuevoTokenId];\r\n            _mint(msg.sender, nuevoTokenId);\r\n        }\r\n        \r\n        emit Compra(msg.sender, _cantidad);\r\n    }\r\n\r\n    function balanceDeSC() public view returns(uint256){\r\n        return address(this).balance;\r\n    }\r\n\r\n    function balanceDeUsuario(address _user) public view returns(uint256){\r\n        require(participantes[_user].registrado, \"Usuario no registrado\");\r\n        return participantes[_user].numBoletos;\r\n    }\r\n\r\n    function withdraw(uint256 _amount) external soloPropietario{\r\n        _amount = balanceDeSC();\r\n        payable(msg.sender).transfer(_amount);\r\n\r\n        emit saldoRetirado();\r\n    }\r\n\r\n    function generarBoletoGanador() public view soloPropietario returns (uint256) {\r\n        uint256[] memory boletos = new uint256[](tokenIdCounter);\r\n        for (uint256 i = 0; i < tokenIdCounter; i++) {\r\n            boletos[i] = i + 1;\r\n        }\r\n\r\n        // Generar un nmero aleatorio utilizando el hash de la semilla\r\n        uint256 seed = uint256(keccak256(abi.encodePacked(blockhash(block.number - 1), block.timestamp, msg.sender)));\r\n        uint256 indiceGanador = seed % tokenIdCounter;\r\n\r\n        return boletos[indiceGanador];\r\n    }\r\n\r\n    function localizarGanador() public soloPropietario returns(address) {\r\n        uint256 boletoGanador = generarBoletoGanador();\r\n        address ganador = boletosAsignados[boletoGanador];\r\n        emit Ganador(boletoGanador, ganador);\r\n        return(ganador);\r\n    }\r\n\r\n    function premiarGanador() public payable soloPropietario{\r\n        uint256 _monto = address(this).balance;\r\n        address ganador = localizarGanador();\r\n        payable(ganador).transfer(_monto*1/2);\r\n        payable(msg.sender).transfer(_monto*1/2);\r\n    }\r\n\r\n}",
  "sourcePath": "C:\\Users\\jcord\\Documents\\Master_BC\\PigCoinsNFTs\\src\\contracts\\loteria.sol",
  "compiler": {
    "name": "solc",
    "version": "0.8.4+commit.c7e474f2.Emscripten.clang"
  },
  "schemaVersion": "3.4.16",
  "updatedAt": "2024-04-30T10:32:37.771Z",
  "networkType": "ethereum",
  "devdoc": {
    "kind": "dev",
    "methods": {
      "approve(address,uint256)": {
        "details": "See {IERC721-approve}."
      },
      "balanceOf(address)": {
        "details": "See {IERC721-balanceOf}."
      },
      "getApproved(uint256)": {
        "details": "See {IERC721-getApproved}."
      },
      "isApprovedForAll(address,address)": {
        "details": "See {IERC721-isApprovedForAll}."
      },
      "name()": {
        "details": "See {IERC721Metadata-name}."
      },
      "ownerOf(uint256)": {
        "details": "See {IERC721-ownerOf}."
      },
      "safeTransferFrom(address,address,uint256)": {
        "details": "See {IERC721-safeTransferFrom}."
      },
      "safeTransferFrom(address,address,uint256,bytes)": {
        "details": "See {IERC721-safeTransferFrom}."
      },
      "setApprovalForAll(address,bool)": {
        "details": "See {IERC721-setApprovalForAll}."
      },
      "supportsInterface(bytes4)": {
        "details": "See {IERC165-supportsInterface}."
      },
      "symbol()": {
        "details": "See {IERC721Metadata-symbol}."
      },
      "tokenURI(uint256)": {
        "details": "See {IERC721Metadata-tokenURI}."
      },
      "transferFrom(address,address,uint256)": {
        "details": "See {IERC721-transferFrom}."
      }
    },
    "version": 1
  },
  "userdoc": {
    "kind": "user",
    "methods": {},
    "version": 1
  }
}