{
  "contractName": "MyNFT",
  "abi": [
    {
      "inputs": [],
      "stateMutability": "nonpayable",
      "type": "constructor"
    },
    {
      "anonymous": false,
      "inputs": [
        {
          "indexed": true,
          "internalType": "address",
          "name": "owner",
          "type": "address"
        },
        {
          "indexed": true,
          "internalType": "address",
          "name": "approved",
          "type": "address"
        },
        {
          "indexed": true,
          "internalType": "uint256",
          "name": "tokenId",
          "type": "uint256"
        }
      ],
      "name": "Approval",
      "type": "event"
    },
    {
      "anonymous": false,
      "inputs": [
        {
          "indexed": true,
          "internalType": "address",
          "name": "owner",
          "type": "address"
        },
        {
          "indexed": true,
          "internalType": "address",
          "name": "operator",
          "type": "address"
        },
        {
          "indexed": false,
          "internalType": "bool",
          "name": "approved",
          "type": "bool"
        }
      ],
      "name": "ApprovalForAll",
      "type": "event"
    },
    {
      "anonymous": false,
      "inputs": [
        {
          "indexed": true,
          "internalType": "address",
          "name": "from",
          "type": "address"
        },
        {
          "indexed": true,
          "internalType": "address",
          "name": "to",
          "type": "address"
        },
        {
          "indexed": true,
          "internalType": "uint256",
          "name": "tokenId",
          "type": "uint256"
        }
      ],
      "name": "Transfer",
      "type": "event"
    },
    {
      "inputs": [
        {
          "internalType": "address",
          "name": "to",
          "type": "address"
        },
        {
          "internalType": "uint256",
          "name": "tokenId",
          "type": "uint256"
        }
      ],
      "name": "approve",
      "outputs": [],
      "stateMutability": "nonpayable",
      "type": "function"
    },
    {
      "inputs": [
        {
          "internalType": "address",
          "name": "owner",
          "type": "address"
        }
      ],
      "name": "balanceOf",
      "outputs": [
        {
          "internalType": "uint256",
          "name": "",
          "type": "uint256"
        }
      ],
      "stateMutability": "view",
      "type": "function",
      "constant": true
    },
    {
      "inputs": [
        {
          "internalType": "uint256",
          "name": "tokenId",
          "type": "uint256"
        }
      ],
      "name": "getApproved",
      "outputs": [
        {
          "internalType": "address",
          "name": "",
          "type": "address"
        }
      ],
      "stateMutability": "view",
      "type": "function",
      "constant": true
    },
    {
      "inputs": [
        {
          "internalType": "address",
          "name": "owner",
          "type": "address"
        },
        {
          "internalType": "address",
          "name": "operator",
          "type": "address"
        }
      ],
      "name": "isApprovedForAll",
      "outputs": [
        {
          "internalType": "bool",
          "name": "",
          "type": "bool"
        }
      ],
      "stateMutability": "view",
      "type": "function",
      "constant": true
    },
    {
      "inputs": [],
      "name": "name",
      "outputs": [
        {
          "internalType": "string",
          "name": "",
          "type": "string"
        }
      ],
      "stateMutability": "view",
      "type": "function",
      "constant": true
    },
    {
      "inputs": [
        {
          "internalType": "uint256",
          "name": "tokenId",
          "type": "uint256"
        }
      ],
      "name": "ownerOf",
      "outputs": [
        {
          "internalType": "address",
          "name": "",
          "type": "address"
        }
      ],
      "stateMutability": "view",
      "type": "function",
      "constant": true
    },
    {
      "inputs": [
        {
          "internalType": "address",
          "name": "from",
          "type": "address"
        },
        {
          "internalType": "address",
          "name": "to",
          "type": "address"
        },
        {
          "internalType": "uint256",
          "name": "tokenId",
          "type": "uint256"
        }
      ],
      "name": "safeTransferFrom",
      "outputs": [],
      "stateMutability": "nonpayable",
      "type": "function"
    },
    {
      "inputs": [
        {
          "internalType": "address",
          "name": "from",
          "type": "address"
        },
        {
          "internalType": "address",
          "name": "to",
          "type": "address"
        },
        {
          "internalType": "uint256",
          "name": "tokenId",
          "type": "uint256"
        },
        {
          "internalType": "bytes",
          "name": "_data",
          "type": "bytes"
        }
      ],
      "name": "safeTransferFrom",
      "outputs": [],
      "stateMutability": "nonpayable",
      "type": "function"
    },
    {
      "inputs": [
        {
          "internalType": "address",
          "name": "operator",
          "type": "address"
        },
        {
          "internalType": "bool",
          "name": "approved",
          "type": "bool"
        }
      ],
      "name": "setApprovalForAll",
      "outputs": [],
      "stateMutability": "nonpayable",
      "type": "function"
    },
    {
      "inputs": [
        {
          "internalType": "bytes4",
          "name": "interfaceId",
          "type": "bytes4"
        }
      ],
      "name": "supportsInterface",
      "outputs": [
        {
          "internalType": "bool",
          "name": "",
          "type": "bool"
        }
      ],
      "stateMutability": "view",
      "type": "function",
      "constant": true
    },
    {
      "inputs": [],
      "name": "symbol",
      "outputs": [
        {
          "internalType": "string",
          "name": "",
          "type": "string"
        }
      ],
      "stateMutability": "view",
      "type": "function",
      "constant": true
    },
    {
      "inputs": [
        {
          "internalType": "address",
          "name": "from",
          "type": "address"
        },
        {
          "internalType": "address",
          "name": "to",
          "type": "address"
        },
        {
          "internalType": "uint256",
          "name": "tokenId",
          "type": "uint256"
        }
      ],
      "name": "transferFrom",
      "outputs": [],
      "stateMutability": "nonpayable",
      "type": "function"
    },
    {
      "inputs": [
        {
          "internalType": "address",
          "name": "to",
          "type": "address"
        },
        {
          "internalType": "string",
          "name": "metadataCID",
          "type": "string"
        }
      ],
      "name": "mintNFT",
      "outputs": [
        {
          "internalType": "uint256",
          "name": "",
          "type": "uint256"
        }
      ],
      "stateMutability": "nonpayable",
      "type": "function"
    },
    {
      "inputs": [
        {
          "internalType": "uint256",
          "name": "tokenId",
          "type": "uint256"
        }
      ],
      "name": "tokenURI",
      "outputs": [
        {
          "internalType": "string",
          "name": "",
          "type": "string"
        }
      ],
      "stateMutability": "view",
      "type": "function",
      "constant": true
    },
    {
      "inputs": [
        {
          "internalType": "uint256",
          "name": "tokenId",
          "type": "uint256"
        }
      ],
      "name": "getTokenURI",
      "outputs": [
        {
          "internalType": "string",
          "name": "",
          "type": "string"
        }
      ],
      "stateMutability": "view",
      "type": "function",
      "constant": true
    }
  ],
  "bytecode": "0x60806040523480156200001157600080fd5b506040518060400160405280600581526020017f4d794e46540000000000000000000000000000000000000000000000000000008152506040518060400160405280600481526020017f4d4e465400000000000000000000000000000000000000000000000000000000815250816000908051906020019062000096929190620000b8565b508060019080519060200190620000af929190620000b8565b505050620001cd565b828054620000c69062000168565b90600052602060002090601f016020900481019282620000ea576000855562000136565b82601f106200010557805160ff191683800117855562000136565b8280016001018555821562000136579182015b828111156200013557825182559160200191906001019062000118565b5b50905062000145919062000149565b5090565b5b80821115620001645760008160009055506001016200014a565b5090565b600060028204905060018216806200018157607f821691505b602082108114156200019857620001976200019e565b5b50919050565b7f4e487b7100000000000000000000000000000000000000000000000000000000600052602260045260246000fd5b61290a80620001dd6000396000f3fe608060405234801561001057600080fd5b50600436106100f55760003560e01c80636352211e11610097578063b88d4fde11610066578063b88d4fde14610296578063c87b56dd146102b2578063e985e9c5146102e2578063eacabe1414610312576100f5565b80636352211e146101fc57806370a082311461022c57806395d89b411461025c578063a22cb4651461027a576100f5565b8063095ea7b3116100d3578063095ea7b31461017857806323b872dd146101945780633bb3a24d146101b057806342842e0e146101e0576100f5565b806301ffc9a7146100fa57806306fdde031461012a578063081812fc14610148575b600080fd5b610114600480360381019061010f9190611b17565b610342565b6040516101219190611ec8565b60405180910390f35b610132610424565b60405161013f9190611ee3565b60405180910390f35b610162600480360381019061015d9190611b69565b6104b6565b60405161016f9190611e61565b60405180910390f35b610192600480360381019061018d9190611adb565b61053b565b005b6101ae60048036038101906101a99190611981565b610653565b005b6101ca60048036038101906101c59190611b69565b6106b3565b6040516101d79190611ee3565b60405180910390f35b6101fa60048036038101906101f59190611981565b6107a0565b005b61021660048036038101906102119190611b69565b6107c0565b6040516102239190611e61565b60405180910390f35b6102466004803603810190610241919061191c565b610872565b6040516102539190612105565b60405180910390f35b61026461092a565b6040516102719190611ee3565b60405180910390f35b610294600480360381019061028f9190611a4b565b6109bc565b005b6102b060048036038101906102ab91906119d0565b6109d2565b005b6102cc60048036038101906102c79190611b69565b610a34565b6040516102d99190611ee3565b60405180910390f35b6102fc60048036038101906102f79190611945565b610b21565b6040516103099190611ec8565b60405180910390f35b61032c60048036038101906103279190611a87565b610bb5565b6040516103399190612105565b60405180910390f35b60007f80ac58cd000000000000000000000000000000000000000000000000000000007bffffffffffffffffffffffffffffffffffffffffffffffffffffffff1916827bffffffffffffffffffffffffffffffffffffffffffffffffffffffff1916148061040d57507f5b5e139f000000000000000000000000000000000000000000000000000000007bffffffffffffffffffffffffffffffffffffffffffffffffffffffff1916827bffffffffffffffffffffffffffffffffffffffffffffffffffffffff1916145b8061041d575061041c82610bec565b5b9050919050565b6060600080546104339061231f565b80601f016020809104026020016040519081016040528092919081815260200182805461045f9061231f565b80156104ac5780601f10610481576101008083540402835291602001916104ac565b820191906000526020600020905b81548152906001019060200180831161048f57829003601f168201915b5050505050905090565b60006104c182610c56565b610500576040517f08c379a00000000000000000000000000000000000000000000000000000000081526004016104f7906120a5565b60405180910390fd5b6004600083815260200190815260200160002060009054906101000a900473ffffffffffffffffffffffffffffffffffffffff169050919050565b6000610546826107c0565b90508073ffffffffffffffffffffffffffffffffffffffff168373ffffffffffffffffffffffffffffffffffffffff1614156105b7576040517f08c379a00000000000000000000000000000000000000000000000000000000081526004016105ae906120c5565b60405180910390fd5b8073ffffffffffffffffffffffffffffffffffffffff166105d6610cc2565b73ffffffffffffffffffffffffffffffffffffffff1614806106055750610604816105ff610cc2565b610b21565b5b610644576040517f08c379a000000000000000000000000000000000000000000000000000000000815260040161063b90611fe5565b60405180910390fd5b61064e8383610cca565b505050565b61066461065e610cc2565b82610d83565b6106a3576040517f08c379a000000000000000000000000000000000000000000000000000000000815260040161069a906120e5565b60405180910390fd5b6106ae838383610e61565b505050565b60606106be82610c56565b6106fd576040517f08c379a00000000000000000000000000000000000000000000000000000000081526004016106f490611fa5565b60405180910390fd5b60086000838152602001908152602001600020805461071b9061231f565b80601f01602080910402602001604051908101604052809291908181526020018280546107479061231f565b80156107945780601f1061076957610100808354040283529160200191610794565b820191906000526020600020905b81548152906001019060200180831161077757829003601f168201915b50505050509050919050565b6107bb838383604051806020016040528060008152506109d2565b505050565b6000806002600084815260200190815260200160002060009054906101000a900473ffffffffffffffffffffffffffffffffffffffff169050600073ffffffffffffffffffffffffffffffffffffffff168173ffffffffffffffffffffffffffffffffffffffff161415610869576040517f08c379a000000000000000000000000000000000000000000000000000000000815260040161086090612025565b60405180910390fd5b80915050919050565b60008073ffffffffffffffffffffffffffffffffffffffff168273ffffffffffffffffffffffffffffffffffffffff1614156108e3576040517f08c379a00000000000000000000000000000000000000000000000000000000081526004016108da90612005565b60405180910390fd5b600360008373ffffffffffffffffffffffffffffffffffffffff1673ffffffffffffffffffffffffffffffffffffffff168152602001908152602001600020549050919050565b6060600180546109399061231f565b80601f01602080910402602001604051908101604052809291908181526020018280546109659061231f565b80156109b25780601f10610987576101008083540402835291602001916109b2565b820191906000526020600020905b81548152906001019060200180831161099557829003601f168201915b5050505050905090565b6109ce6109c7610cc2565b83836110c8565b5050565b6109e36109dd610cc2565b83610d83565b610a22576040517f08c379a0000000000000000000000000000000000000000000000000000000008152600401610a19906120e5565b60405180910390fd5b610a2e84848484611235565b50505050565b6060610a3f82610c56565b610a7e576040517f08c379a0000000000000000000000000000000000000000000000000000000008152600401610a7590612085565b60405180910390fd5b600860008381526020019081526020016000208054610a9c9061231f565b80601f0160208091040260200160405190810160405280929190818152602001828054610ac89061231f565b8015610b155780601f10610aea57610100808354040283529160200191610b15565b820191906000526020600020905b815481529060010190602001808311610af857829003601f168201915b50505050509050919050565b6000600560008473ffffffffffffffffffffffffffffffffffffffff1673ffffffffffffffffffffffffffffffffffffffff16815260200190815260200160002060008373ffffffffffffffffffffffffffffffffffffffff1673ffffffffffffffffffffffffffffffffffffffff16815260200190815260200160002060009054906101000a900460ff16905092915050565b600080610bc26007611291565b9050610bce848261129f565b610bd881846112bd565b610be26007611331565b8091505092915050565b60007f01ffc9a7000000000000000000000000000000000000000000000000000000007bffffffffffffffffffffffffffffffffffffffffffffffffffffffff1916827bffffffffffffffffffffffffffffffffffffffffffffffffffffffff1916149050919050565b60008073ffffffffffffffffffffffffffffffffffffffff166002600084815260200190815260200160002060009054906101000a900473ffffffffffffffffffffffffffffffffffffffff1673ffffffffffffffffffffffffffffffffffffffff1614159050919050565b600033905090565b816004600083815260200190815260200160002060006101000a81548173ffffffffffffffffffffffffffffffffffffffff021916908373ffffffffffffffffffffffffffffffffffffffff160217905550808273ffffffffffffffffffffffffffffffffffffffff16610d3d836107c0565b73ffffffffffffffffffffffffffffffffffffffff167f8c5be1e5ebec7d5bd14f71427d1e84f3dd0314c0f7b2291e5b200ac8c7c3b92560405160405180910390a45050565b6000610d8e82610c56565b610dcd576040517f08c379a0000000000000000000000000000000000000000000000000000000008152600401610dc490611fc5565b60405180910390fd5b6000610dd8836107c0565b90508073ffffffffffffffffffffffffffffffffffffffff168473ffffffffffffffffffffffffffffffffffffffff161480610e4757508373ffffffffffffffffffffffffffffffffffffffff16610e2f846104b6565b73ffffffffffffffffffffffffffffffffffffffff16145b80610e585750610e578185610b21565b5b91505092915050565b8273ffffffffffffffffffffffffffffffffffffffff16610e81826107c0565b73ffffffffffffffffffffffffffffffffffffffff1614610ed7576040517f08c379a0000000000000000000000000000000000000000000000000000000008152600401610ece90611f25565b60405180910390fd5b600073ffffffffffffffffffffffffffffffffffffffff168273ffffffffffffffffffffffffffffffffffffffff161415610f47576040517f08c379a0000000000000000000000000000000000000000000000000000000008152600401610f3e90611f65565b60405180910390fd5b610f52838383611347565b610f5d600082610cca565b6001600360008573ffffffffffffffffffffffffffffffffffffffff1673ffffffffffffffffffffffffffffffffffffffff1681526020019081526020016000206000828254610fad9190612235565b925050819055506001600360008473ffffffffffffffffffffffffffffffffffffffff1673ffffffffffffffffffffffffffffffffffffffff168152602001908152602001600020600082825461100491906121df565b92505081905550816002600083815260200190815260200160002060006101000a81548173ffffffffffffffffffffffffffffffffffffffff021916908373ffffffffffffffffffffffffffffffffffffffff160217905550808273ffffffffffffffffffffffffffffffffffffffff168473ffffffffffffffffffffffffffffffffffffffff167fddf252ad1be2c89b69c2b068fc378daa952ba7f163c4a11628f55a4df523b3ef60405160405180910390a46110c383838361134c565b505050565b8173ffffffffffffffffffffffffffffffffffffffff168373ffffffffffffffffffffffffffffffffffffffff161415611137576040517f08c379a000000000000000000000000000000000000000000000000000000000815260040161112e90611f85565b60405180910390fd5b80600560008573ffffffffffffffffffffffffffffffffffffffff1673ffffffffffffffffffffffffffffffffffffffff16815260200190815260200160002060008473ffffffffffffffffffffffffffffffffffffffff1673ffffffffffffffffffffffffffffffffffffffff16815260200190815260200160002060006101000a81548160ff0219169083151502179055508173ffffffffffffffffffffffffffffffffffffffff168373ffffffffffffffffffffffffffffffffffffffff167f17307eab39ab6107e8899845ad3d59bd9653f200f220920489ca2b5937696c31836040516112289190611ec8565b60405180910390a3505050565b611240848484610e61565b61124c84848484611351565b61128b576040517f08c379a000000000000000000000000000000000000000000000000000000000815260040161128290611f05565b60405180910390fd5b50505050565b600081600001549050919050565b6112b98282604051806020016040528060008152506114e8565b5050565b6112c682610c56565b611305576040517f08c379a00000000000000000000000000000000000000000000000000000000081526004016112fc90612045565b60405180910390fd5b8060066000848152602001908152602001600020908051906020019061132c929190611740565b505050565b6001816000016000828254019250508190555050565b505050565b505050565b60006113728473ffffffffffffffffffffffffffffffffffffffff16611543565b156114db578373ffffffffffffffffffffffffffffffffffffffff1663150b7a0261139b610cc2565b8786866040518563ffffffff1660e01b81526004016113bd9493929190611e7c565b602060405180830381600087803b1580156113d757600080fd5b505af192505050801561140857506040513d601f19601f820116820180604052508101906114059190611b40565b60015b61148b573d8060008114611438576040519150601f19603f3d011682016040523d82523d6000602084013e61143d565b606091505b50600081511415611483576040517f08c379a000000000000000000000000000000000000000000000000000000000815260040161147a90611f05565b60405180910390fd5b805181602001fd5b63150b7a0260e01b7bffffffffffffffffffffffffffffffffffffffffffffffffffffffff1916817bffffffffffffffffffffffffffffffffffffffffffffffffffffffff1916149150506114e0565b600190505b949350505050565b6114f28383611566565b6114ff6000848484611351565b61153e576040517f08c379a000000000000000000000000000000000000000000000000000000000815260040161153590611f05565b60405180910390fd5b505050565b6000808273ffffffffffffffffffffffffffffffffffffffff163b119050919050565b600073ffffffffffffffffffffffffffffffffffffffff168273ffffffffffffffffffffffffffffffffffffffff1614156115d6576040517f08c379a00000000000000000000000000000000000000000000000000000000081526004016115cd90612065565b60405180910390fd5b6115df81610c56565b1561161f576040517f08c379a000000000000000000000000000000000000000000000000000000000815260040161161690611f45565b60405180910390fd5b61162b60008383611347565b6001600360008473ffffffffffffffffffffffffffffffffffffffff1673ffffffffffffffffffffffffffffffffffffffff168152602001908152602001600020600082825461167b91906121df565b92505081905550816002600083815260200190815260200160002060006101000a81548173ffffffffffffffffffffffffffffffffffffffff021916908373ffffffffffffffffffffffffffffffffffffffff160217905550808273ffffffffffffffffffffffffffffffffffffffff16600073ffffffffffffffffffffffffffffffffffffffff167fddf252ad1be2c89b69c2b068fc378daa952ba7f163c4a11628f55a4df523b3ef60405160405180910390a461173c6000838361134c565b5050565b82805461174c9061231f565b90600052602060002090601f01602090048101928261176e57600085556117b5565b82601f1061178757805160ff19168380011785556117b5565b828001600101855582156117b5579182015b828111156117b4578251825591602001919060010190611799565b5b5090506117c291906117c6565b5090565b5b808211156117df5760008160009055506001016117c7565b5090565b60006117f66117f184612145565b612120565b90508281526020810184848401111561180e57600080fd5b6118198482856122dd565b509392505050565b600061183461182f84612176565b612120565b90508281526020810184848401111561184c57600080fd5b6118578482856122dd565b509392505050565b60008135905061186e81612878565b92915050565b6000813590506118838161288f565b92915050565b600081359050611898816128a6565b92915050565b6000815190506118ad816128a6565b92915050565b600082601f8301126118c457600080fd5b81356118d48482602086016117e3565b91505092915050565b600082601f8301126118ee57600080fd5b81356118fe848260208601611821565b91505092915050565b600081359050611916816128bd565b92915050565b60006020828403121561192e57600080fd5b600061193c8482850161185f565b91505092915050565b6000806040838503121561195857600080fd5b60006119668582860161185f565b92505060206119778582860161185f565b9150509250929050565b60008060006060848603121561199657600080fd5b60006119a48682870161185f565b93505060206119b58682870161185f565b92505060406119c686828701611907565b9150509250925092565b600080600080608085870312156119e657600080fd5b60006119f48782880161185f565b9450506020611a058782880161185f565b9350506040611a1687828801611907565b925050606085013567ffffffffffffffff811115611a3357600080fd5b611a3f878288016118b3565b91505092959194509250565b60008060408385031215611a5e57600080fd5b6000611a6c8582860161185f565b9250506020611a7d85828601611874565b9150509250929050565b60008060408385031215611a9a57600080fd5b6000611aa88582860161185f565b925050602083013567ffffffffffffffff811115611ac557600080fd5b611ad1858286016118dd565b9150509250929050565b60008060408385031215611aee57600080fd5b6000611afc8582860161185f565b9250506020611b0d85828601611907565b9150509250929050565b600060208284031215611b2957600080fd5b6000611b3784828501611889565b91505092915050565b600060208284031215611b5257600080fd5b6000611b608482850161189e565b91505092915050565b600060208284031215611b7b57600080fd5b6000611b8984828501611907565b91505092915050565b611b9b81612269565b82525050565b611baa8161227b565b82525050565b6000611bbb826121a7565b611bc581856121bd565b9350611bd58185602086016122ec565b611bde8161240f565b840191505092915050565b6000611bf4826121b2565b611bfe81856121ce565b9350611c0e8185602086016122ec565b611c178161240f565b840191505092915050565b6000611c2f6032836121ce565b9150611c3a82612420565b604082019050919050565b6000611c526025836121ce565b9150611c5d8261246f565b604082019050919050565b6000611c75601c836121ce565b9150611c80826124be565b602082019050919050565b6000611c986024836121ce565b9150611ca3826124e7565b604082019050919050565b6000611cbb6019836121ce565b9150611cc682612536565b602082019050919050565b6000611cde6014836121ce565b9150611ce98261255f565b602082019050919050565b6000611d01602c836121ce565b9150611d0c82612588565b604082019050919050565b6000611d246038836121ce565b9150611d2f826125d7565b604082019050919050565b6000611d47602a836121ce565b9150611d5282612626565b604082019050919050565b6000611d6a6029836121ce565b9150611d7582612675565b604082019050919050565b6000611d8d602e836121ce565b9150611d98826126c4565b604082019050919050565b6000611db06020836121ce565b9150611dbb82612713565b602082019050919050565b6000611dd36031836121ce565b9150611dde8261273c565b604082019050919050565b6000611df6602c836121ce565b9150611e018261278b565b604082019050919050565b6000611e196021836121ce565b9150611e24826127da565b604082019050919050565b6000611e3c6031836121ce565b9150611e4782612829565b604082019050919050565b611e5b816122d3565b82525050565b6000602082019050611e766000830184611b92565b92915050565b6000608082019050611e916000830187611b92565b611e9e6020830186611b92565b611eab6040830185611e52565b8181036060830152611ebd8184611bb0565b905095945050505050565b6000602082019050611edd6000830184611ba1565b92915050565b60006020820190508181036000830152611efd8184611be9565b905092915050565b60006020820190508181036000830152611f1e81611c22565b9050919050565b60006020820190508181036000830152611f3e81611c45565b9050919050565b60006020820190508181036000830152611f5e81611c68565b9050919050565b60006020820190508181036000830152611f7e81611c8b565b9050919050565b60006020820190508181036000830152611f9e81611cae565b9050919050565b60006020820190508181036000830152611fbe81611cd1565b9050919050565b60006020820190508181036000830152611fde81611cf4565b9050919050565b60006020820190508181036000830152611ffe81611d17565b9050919050565b6000602082019050818103600083015261201e81611d3a565b9050919050565b6000602082019050818103600083015261203e81611d5d565b9050919050565b6000602082019050818103600083015261205e81611d80565b9050919050565b6000602082019050818103600083015261207e81611da3565b9050919050565b6000602082019050818103600083015261209e81611dc6565b9050919050565b600060208201905081810360008301526120be81611de9565b9050919050565b600060208201905081810360008301526120de81611e0c565b9050919050565b600060208201905081810360008301526120fe81611e2f565b9050919050565b600060208201905061211a6000830184611e52565b92915050565b600061212a61213b565b90506121368282612351565b919050565b6000604051905090565b600067ffffffffffffffff8211156121605761215f6123e0565b5b6121698261240f565b9050602081019050919050565b600067ffffffffffffffff821115612191576121906123e0565b5b61219a8261240f565b9050602081019050919050565b600081519050919050565b600081519050919050565b600082825260208201905092915050565b600082825260208201905092915050565b60006121ea826122d3565b91506121f5836122d3565b9250827fffffffffffffffffffffffffffffffffffffffffffffffffffffffffffffffff0382111561222a57612229612382565b5b828201905092915050565b6000612240826122d3565b915061224b836122d3565b92508282101561225e5761225d612382565b5b828203905092915050565b6000612274826122b3565b9050919050565b60008115159050919050565b60007fffffffff0000000000000000000000000000000000000000000000000000000082169050919050565b600073ffffffffffffffffffffffffffffffffffffffff82169050919050565b6000819050919050565b82818337600083830152505050565b60005b8381101561230a5780820151818401526020810190506122ef565b83811115612319576000848401525b50505050565b6000600282049050600182168061233757607f821691505b6020821081141561234b5761234a6123b1565b5b50919050565b61235a8261240f565b810181811067ffffffffffffffff82111715612379576123786123e0565b5b80604052505050565b7f4e487b7100000000000000000000000000000000000000000000000000000000600052601160045260246000fd5b7f4e487b7100000000000000000000000000000000000000000000000000000000600052602260045260246000fd5b7f4e487b7100000000000000000000000000000000000000000000000000000000600052604160045260246000fd5b6000601f19601f8301169050919050565b7f4552433732313a207472616e7366657220746f206e6f6e20455243373231526560008201527f63656976657220696d706c656d656e7465720000000000000000000000000000602082015250565b7f4552433732313a207472616e736665722066726f6d20696e636f72726563742060008201527f6f776e6572000000000000000000000000000000000000000000000000000000602082015250565b7f4552433732313a20746f6b656e20616c7265616479206d696e74656400000000600082015250565b7f4552433732313a207472616e7366657220746f20746865207a65726f2061646460008201527f7265737300000000000000000000000000000000000000000000000000000000602082015250565b7f4552433732313a20617070726f766520746f2063616c6c657200000000000000600082015250565b7f546f6b656e20646f6573206e6f74206578697374000000000000000000000000600082015250565b7f4552433732313a206f70657261746f7220717565727920666f72206e6f6e657860008201527f697374656e7420746f6b656e0000000000000000000000000000000000000000602082015250565b7f4552433732313a20617070726f76652063616c6c6572206973206e6f74206f7760008201527f6e6572206e6f7220617070726f76656420666f7220616c6c0000000000000000602082015250565b7f4552433732313a2062616c616e636520717565727920666f7220746865207a6560008201527f726f206164647265737300000000000000000000000000000000000000000000602082015250565b7f4552433732313a206f776e657220717565727920666f72206e6f6e657869737460008201527f656e7420746f6b656e0000000000000000000000000000000000000000000000602082015250565b7f45524337323155524953746f726167653a2055524920736574206f66206e6f6e60008201527f6578697374656e7420746f6b656e000000000000000000000000000000000000602082015250565b7f4552433732313a206d696e7420746f20746865207a65726f2061646472657373600082015250565b7f45524337323155524953746f726167653a2055524920717565727920666f722060008201527f6e6f6e6578697374656e7420746f6b656e000000000000000000000000000000602082015250565b7f4552433732313a20617070726f76656420717565727920666f72206e6f6e657860008201527f697374656e7420746f6b656e0000000000000000000000000000000000000000602082015250565b7f4552433732313a20617070726f76616c20746f2063757272656e74206f776e6560008201527f7200000000000000000000000000000000000000000000000000000000000000602082015250565b7f4552433732313a207472616e736665722063616c6c6572206973206e6f74206f60008201527f776e6572206e6f7220617070726f766564000000000000000000000000000000602082015250565b61288181612269565b811461288c57600080fd5b50565b6128988161227b565b81146128a357600080fd5b50565b6128af81612287565b81146128ba57600080fd5b50565b6128c6816122d3565b81146128d157600080fd5b5056fea2646970667358221220f25aad9f467f5613d2e10a45b015989ebbde96231baf78fb4b6b369223946c0164736f6c63430008040033",
  "immutableReferences": {},
  "source": "// SPDX-License-Identifier: MIT\r\npragma solidity ^0.8.4;\r\n\r\nimport \"@openzeppelin/contracts/token/ERC721/ERC721.sol\";\r\nimport \"@openzeppelin/contracts/token/ERC721/extensions/ERC721URIStorage.sol\";\r\nimport \"@openzeppelin/contracts/utils/Counters.sol\";\r\n\r\ncontract MyNFT is ERC721URIStorage {\r\n    using Counters for Counters.Counter;\r\n    Counters.Counter private _tokenIdCounter;\r\n    mapping(uint256 => string) private _tokenURIs;\r\n\r\n    constructor() ERC721(\"MyNFT\", \"MNFT\") {}\r\n\r\n    function mintNFT(address to, string memory metadataCID) external returns (uint256) {\r\n        uint256 newTokenId = _tokenIdCounter.current();\r\n        _safeMint(to, newTokenId);\r\n        _setTokenURI(newTokenId, metadataCID);\r\n        _tokenIdCounter.increment();\r\n        return newTokenId;\r\n    }\r\n\r\nfunction _setCustomTokenURI(uint256 tokenId, string memory customTokenURI) internal virtual {\r\n    _setTokenURI(tokenId, customTokenURI);\r\n}\r\n\r\n\r\n    function tokenURI(uint256 tokenId) public view virtual override returns (string memory) {\r\n        require(_exists(tokenId), \"ERC721URIStorage: URI query for nonexistent token\");\r\n        return _tokenURIs[tokenId];\r\n    }\r\n    function getTokenURI(uint256 tokenId) public view returns (string memory) {\r\n    require(_exists(tokenId), \"Token does not exist\");\r\n    return _tokenURIs[tokenId];\r\n}\r\n}\r\n",
  "sourcePath": "C:\\Users\\jcord\\Documents\\Master_BC\\PigCoinsNFTs\\src\\contracts\\MyNFT.sol",
  "compiler": {
    "name": "solc",
    "version": "0.8.4+commit.c7e474f2.Emscripten.clang"
  },
  "schemaVersion": "3.4.16",
  "updatedAt": "2024-04-18T15:36:11.382Z",
  "networkType": "ethereum",
  "devdoc": {
    "kind": "dev",
    "methods": {
      "approve(address,uint256)": {
        "details": "See {IERC721-approve}."
      },
      "balanceOf(address)": {
        "details": "See {IERC721-balanceOf}."
      },
      "getApproved(uint256)": {
        "details": "See {IERC721-getApproved}."
      },
      "isApprovedForAll(address,address)": {
        "details": "See {IERC721-isApprovedForAll}."
      },
      "name()": {
        "details": "See {IERC721Metadata-name}."
      },
      "ownerOf(uint256)": {
        "details": "See {IERC721-ownerOf}."
      },
      "safeTransferFrom(address,address,uint256)": {
        "details": "See {IERC721-safeTransferFrom}."
      },
      "safeTransferFrom(address,address,uint256,bytes)": {
        "details": "See {IERC721-safeTransferFrom}."
      },
      "setApprovalForAll(address,bool)": {
        "details": "See {IERC721-setApprovalForAll}."
      },
      "supportsInterface(bytes4)": {
        "details": "See {IERC165-supportsInterface}."
      },
      "symbol()": {
        "details": "See {IERC721Metadata-symbol}."
      },
      "tokenURI(uint256)": {
        "details": "See {IERC721Metadata-tokenURI}."
      },
      "transferFrom(address,address,uint256)": {
        "details": "See {IERC721-transferFrom}."
      }
    },
    "version": 1
  },
  "userdoc": {
    "kind": "user",
    "methods": {},
    "version": 1
  }
}