{
  "contractName": "MyNFT",
  "abi": [
    {
      "inputs": [],
      "stateMutability": "nonpayable",
      "type": "constructor"
    },
    {
      "anonymous": false,
      "inputs": [
        {
          "indexed": true,
          "internalType": "address",
          "name": "owner",
          "type": "address"
        },
        {
          "indexed": true,
          "internalType": "address",
          "name": "approved",
          "type": "address"
        },
        {
          "indexed": true,
          "internalType": "uint256",
          "name": "tokenId",
          "type": "uint256"
        }
      ],
      "name": "Approval",
      "type": "event"
    },
    {
      "anonymous": false,
      "inputs": [
        {
          "indexed": true,
          "internalType": "address",
          "name": "owner",
          "type": "address"
        },
        {
          "indexed": true,
          "internalType": "address",
          "name": "operator",
          "type": "address"
        },
        {
          "indexed": false,
          "internalType": "bool",
          "name": "approved",
          "type": "bool"
        }
      ],
      "name": "ApprovalForAll",
      "type": "event"
    },
    {
      "anonymous": false,
      "inputs": [
        {
          "indexed": true,
          "internalType": "address",
          "name": "previousOwner",
          "type": "address"
        },
        {
          "indexed": true,
          "internalType": "address",
          "name": "newOwner",
          "type": "address"
        }
      ],
      "name": "OwnershipTransferred",
      "type": "event"
    },
    {
      "anonymous": false,
      "inputs": [
        {
          "indexed": true,
          "internalType": "address",
          "name": "from",
          "type": "address"
        },
        {
          "indexed": true,
          "internalType": "address",
          "name": "to",
          "type": "address"
        },
        {
          "indexed": true,
          "internalType": "uint256",
          "name": "tokenId",
          "type": "uint256"
        }
      ],
      "name": "Transfer",
      "type": "event"
    },
    {
      "inputs": [
        {
          "internalType": "address",
          "name": "to",
          "type": "address"
        },
        {
          "internalType": "uint256",
          "name": "tokenId",
          "type": "uint256"
        }
      ],
      "name": "approve",
      "outputs": [],
      "stateMutability": "nonpayable",
      "type": "function"
    },
    {
      "inputs": [
        {
          "internalType": "address",
          "name": "owner",
          "type": "address"
        }
      ],
      "name": "balanceOf",
      "outputs": [
        {
          "internalType": "uint256",
          "name": "",
          "type": "uint256"
        }
      ],
      "stateMutability": "view",
      "type": "function"
    },
    {
      "inputs": [
        {
          "internalType": "uint256",
          "name": "tokenId",
          "type": "uint256"
        }
      ],
      "name": "getApproved",
      "outputs": [
        {
          "internalType": "address",
          "name": "",
          "type": "address"
        }
      ],
      "stateMutability": "view",
      "type": "function"
    },
    {
      "inputs": [],
      "name": "initialOwner",
      "outputs": [
        {
          "internalType": "address",
          "name": "",
          "type": "address"
        }
      ],
      "stateMutability": "view",
      "type": "function"
    },
    {
      "inputs": [
        {
          "internalType": "address",
          "name": "owner",
          "type": "address"
        },
        {
          "internalType": "address",
          "name": "operator",
          "type": "address"
        }
      ],
      "name": "isApprovedForAll",
      "outputs": [
        {
          "internalType": "bool",
          "name": "",
          "type": "bool"
        }
      ],
      "stateMutability": "view",
      "type": "function"
    },
    {
      "inputs": [],
      "name": "maxTokensPerImage",
      "outputs": [
        {
          "internalType": "uint256",
          "name": "",
          "type": "uint256"
        }
      ],
      "stateMutability": "view",
      "type": "function"
    },
    {
      "inputs": [],
      "name": "name",
      "outputs": [
        {
          "internalType": "string",
          "name": "",
          "type": "string"
        }
      ],
      "stateMutability": "view",
      "type": "function"
    },
    {
      "inputs": [],
      "name": "owner",
      "outputs": [
        {
          "internalType": "address",
          "name": "",
          "type": "address"
        }
      ],
      "stateMutability": "view",
      "type": "function"
    },
    {
      "inputs": [
        {
          "internalType": "uint256",
          "name": "tokenId",
          "type": "uint256"
        }
      ],
      "name": "ownerOf",
      "outputs": [
        {
          "internalType": "address",
          "name": "",
          "type": "address"
        }
      ],
      "stateMutability": "view",
      "type": "function"
    },
    {
      "inputs": [],
      "name": "renounceOwnership",
      "outputs": [],
      "stateMutability": "nonpayable",
      "type": "function"
    },
    {
      "inputs": [
        {
          "internalType": "address",
          "name": "from",
          "type": "address"
        },
        {
          "internalType": "address",
          "name": "to",
          "type": "address"
        },
        {
          "internalType": "uint256",
          "name": "tokenId",
          "type": "uint256"
        }
      ],
      "name": "safeTransferFrom",
      "outputs": [],
      "stateMutability": "nonpayable",
      "type": "function"
    },
    {
      "inputs": [
        {
          "internalType": "address",
          "name": "from",
          "type": "address"
        },
        {
          "internalType": "address",
          "name": "to",
          "type": "address"
        },
        {
          "internalType": "uint256",
          "name": "tokenId",
          "type": "uint256"
        },
        {
          "internalType": "bytes",
          "name": "_data",
          "type": "bytes"
        }
      ],
      "name": "safeTransferFrom",
      "outputs": [],
      "stateMutability": "nonpayable",
      "type": "function"
    },
    {
      "inputs": [
        {
          "internalType": "address",
          "name": "operator",
          "type": "address"
        },
        {
          "internalType": "bool",
          "name": "approved",
          "type": "bool"
        }
      ],
      "name": "setApprovalForAll",
      "outputs": [],
      "stateMutability": "nonpayable",
      "type": "function"
    },
    {
      "inputs": [
        {
          "internalType": "bytes4",
          "name": "interfaceId",
          "type": "bytes4"
        }
      ],
      "name": "supportsInterface",
      "outputs": [
        {
          "internalType": "bool",
          "name": "",
          "type": "bool"
        }
      ],
      "stateMutability": "view",
      "type": "function"
    },
    {
      "inputs": [],
      "name": "symbol",
      "outputs": [
        {
          "internalType": "string",
          "name": "",
          "type": "string"
        }
      ],
      "stateMutability": "view",
      "type": "function"
    },
    {
      "inputs": [],
      "name": "tokenPrice",
      "outputs": [
        {
          "internalType": "uint256",
          "name": "",
          "type": "uint256"
        }
      ],
      "stateMutability": "view",
      "type": "function"
    },
    {
      "inputs": [
        {
          "internalType": "uint256",
          "name": "tokenId",
          "type": "uint256"
        }
      ],
      "name": "tokenURI",
      "outputs": [
        {
          "internalType": "string",
          "name": "",
          "type": "string"
        }
      ],
      "stateMutability": "view",
      "type": "function"
    },
    {
      "inputs": [],
      "name": "totalImages",
      "outputs": [
        {
          "internalType": "uint256",
          "name": "",
          "type": "uint256"
        }
      ],
      "stateMutability": "view",
      "type": "function"
    },
    {
      "inputs": [
        {
          "internalType": "address",
          "name": "from",
          "type": "address"
        },
        {
          "internalType": "address",
          "name": "to",
          "type": "address"
        },
        {
          "internalType": "uint256",
          "name": "tokenId",
          "type": "uint256"
        }
      ],
      "name": "transferFrom",
      "outputs": [],
      "stateMutability": "nonpayable",
      "type": "function"
    },
    {
      "inputs": [
        {
          "internalType": "address",
          "name": "newOwner",
          "type": "address"
        }
      ],
      "name": "transferOwnership",
      "outputs": [],
      "stateMutability": "nonpayable",
      "type": "function"
    },
    {
      "inputs": [
        {
          "internalType": "uint256",
          "name": "_imageId",
          "type": "uint256"
        }
      ],
      "name": "mint",
      "outputs": [],
      "stateMutability": "payable",
      "type": "function"
    },
    {
      "inputs": [
        {
          "internalType": "uint256",
          "name": "_imageId",
          "type": "uint256"
        },
        {
          "internalType": "string",
          "name": "_ipfsLink",
          "type": "string"
        }
      ],
      "name": "setImageIPFSLink",
      "outputs": [],
      "stateMutability": "nonpayable",
      "type": "function"
    },
    {
      "inputs": [
        {
          "internalType": "uint256",
          "name": "_imageId",
          "type": "uint256"
        }
      ],
      "name": "getImageIPFSLink",
      "outputs": [
        {
          "internalType": "string",
          "name": "",
          "type": "string"
        }
      ],
      "stateMutability": "view",
      "type": "function"
    },
    {
      "inputs": [],
      "name": "withdraw",
      "outputs": [],
      "stateMutability": "nonpayable",
      "type": "function"
    }
  ],
  "bytecode": "0x60806040523480156200001157600080fd5b506040518060400160405280600581526020017f4d794e46540000000000000000000000000000000000000000000000000000008152506040518060400160405280600481526020017f4d4e465400000000000000000000000000000000000000000000000000000000815250816000908051906020019062000096929190620001e7565b508060019080519060200190620000af929190620001e7565b505050620000d2620000c66200011960201b60201c565b6200012160201b60201c565b33600760006101000a81548173ffffffffffffffffffffffffffffffffffffffff021916908373ffffffffffffffffffffffffffffffffffffffff160217905550620002fc565b600033905090565b6000600660009054906101000a900473ffffffffffffffffffffffffffffffffffffffff16905081600660006101000a81548173ffffffffffffffffffffffffffffffffffffffff021916908373ffffffffffffffffffffffffffffffffffffffff1602179055508173ffffffffffffffffffffffffffffffffffffffff168173ffffffffffffffffffffffffffffffffffffffff167f8be0079c531659141344cd1fd0a4f28419497f9722a3daafe3b4186f6b6457e060405160405180910390a35050565b828054620001f59062000297565b90600052602060002090601f01602090048101928262000219576000855562000265565b82601f106200023457805160ff191683800117855562000265565b8280016001018555821562000265579182015b828111156200026457825182559160200191906001019062000247565b5b50905062000274919062000278565b5090565b5b808211156200029357600081600090555060010162000279565b5090565b60006002820490506001821680620002b057607f821691505b60208210811415620002c757620002c6620002cd565b5b50919050565b7f4e487b7100000000000000000000000000000000000000000000000000000000600052602260045260246000fd5b6134be806200030c6000396000f3fe60806040526004361061014b5760003560e01c8063715018a6116100b6578063b88d4fde1161006f578063b88d4fde14610471578063c87b56dd1461049a578063dffc51e6146104d7578063e985e9c514610500578063f2fde38b1461053d578063fade8834146105665761014b565b8063715018a6146103945780637ff9b596146103ab5780638da5cb5b146103d657806395d89b4114610401578063a0712d681461042c578063a22cb465146104485761014b565b80633ccfd60b116101085780633ccfd60b146102725780633d59810f1461028957806342842e0e146102c65780634c30b4e7146102ef5780636352211e1461031a57806370a08231146103575761014b565b806301ffc9a71461015057806306fdde031461018d578063081812fc146101b8578063095ea7b3146101f557806323b872dd1461021e57806329ba7bb214610247575b600080fd5b34801561015c57600080fd5b5061017760048036038101906101729190612379565b610591565b604051610184919061283c565b60405180910390f35b34801561019957600080fd5b506101a2610673565b6040516101af9190612857565b60405180910390f35b3480156101c457600080fd5b506101df60048036038101906101da91906123cb565b610705565b6040516101ec91906127d5565b60405180910390f35b34801561020157600080fd5b5061021c6004803603810190610217919061233d565b61078a565b005b34801561022a57600080fd5b5061024560048036038101906102409190612237565b6108a2565b005b34801561025357600080fd5b5061025c610902565b60405161026991906127d5565b60405180910390f35b34801561027e57600080fd5b50610287610928565b005b34801561029557600080fd5b506102b060048036038101906102ab91906123cb565b6109fa565b6040516102bd9190612857565b60405180910390f35b3480156102d257600080fd5b506102ed60048036038101906102e89190612237565b610ae2565b005b3480156102fb57600080fd5b50610304610b02565b6040516103119190612ad9565b60405180910390f35b34801561032657600080fd5b50610341600480360381019061033c91906123cb565b610b07565b60405161034e91906127d5565b60405180910390f35b34801561036357600080fd5b5061037e600480360381019061037991906121d2565b610bb9565b60405161038b9190612ad9565b60405180910390f35b3480156103a057600080fd5b506103a9610c71565b005b3480156103b757600080fd5b506103c0610cf9565b6040516103cd9190612ad9565b60405180910390f35b3480156103e257600080fd5b506103eb610d05565b6040516103f891906127d5565b60405180910390f35b34801561040d57600080fd5b50610416610d2f565b6040516104239190612857565b60405180910390f35b610446600480360381019061044191906123cb565b610dc1565b005b34801561045457600080fd5b5061046f600480360381019061046a9190612301565b610f4e565b005b34801561047d57600080fd5b5061049860048036038101906104939190612286565b610f64565b005b3480156104a657600080fd5b506104c160048036038101906104bc91906123cb565b610fc6565b6040516104ce9190612857565b60405180910390f35b3480156104e357600080fd5b506104fe60048036038101906104f991906123f4565b61106d565b005b34801561050c57600080fd5b50610527600480360381019061052291906121fb565b611158565b604051610534919061283c565b60405180910390f35b34801561054957600080fd5b50610564600480360381019061055f91906121d2565b6111ec565b005b34801561057257600080fd5b5061057b6112e4565b6040516105889190612ad9565b60405180910390f35b60007f80ac58cd000000000000000000000000000000000000000000000000000000007bffffffffffffffffffffffffffffffffffffffffffffffffffffffff1916827bffffffffffffffffffffffffffffffffffffffffffffffffffffffff1916148061065c57507f5b5e139f000000000000000000000000000000000000000000000000000000007bffffffffffffffffffffffffffffffffffffffffffffffffffffffff1916827bffffffffffffffffffffffffffffffffffffffffffffffffffffffff1916145b8061066c575061066b826112e9565b5b9050919050565b60606000805461068290612d89565b80601f01602080910402602001604051908101604052809291908181526020018280546106ae90612d89565b80156106fb5780601f106106d0576101008083540402835291602001916106fb565b820191906000526020600020905b8154815290600101906020018083116106de57829003601f168201915b5050505050905090565b600061071082611353565b61074f576040517f08c379a000000000000000000000000000000000000000000000000000000000815260040161074690612a19565b60405180910390fd5b6004600083815260200190815260200160002060009054906101000a900473ffffffffffffffffffffffffffffffffffffffff169050919050565b600061079582610b07565b90508073ffffffffffffffffffffffffffffffffffffffff168373ffffffffffffffffffffffffffffffffffffffff161415610806576040517f08c379a00000000000000000000000000000000000000000000000000000000081526004016107fd90612a79565b60405180910390fd5b8073ffffffffffffffffffffffffffffffffffffffff166108256113bf565b73ffffffffffffffffffffffffffffffffffffffff16148061085457506108538161084e6113bf565b611158565b5b610893576040517f08c379a000000000000000000000000000000000000000000000000000000000815260040161088a90612979565b60405180910390fd5b61089d83836113c7565b505050565b6108b36108ad6113bf565b82611480565b6108f2576040517f08c379a00000000000000000000000000000000000000000000000000000000081526004016108e990612a99565b60405180910390fd5b6108fd83838361155e565b505050565b600760009054906101000a900473ffffffffffffffffffffffffffffffffffffffff1681565b6109306113bf565b73ffffffffffffffffffffffffffffffffffffffff1661094e610d05565b73ffffffffffffffffffffffffffffffffffffffff16146109a4576040517f08c379a000000000000000000000000000000000000000000000000000000000815260040161099b90612a39565b60405180910390fd5b60004790506109b1610d05565b73ffffffffffffffffffffffffffffffffffffffff166108fc829081150290604051600060405180830381858888f193505050501580156109f6573d6000803e3d6000fd5b5050565b606060048210610a3f576040517f08c379a0000000000000000000000000000000000000000000000000000000008152600401610a3690612ab9565b60405180910390fd5b600960008381526020019081526020016000208054610a5d90612d89565b80601f0160208091040260200160405190810160405280929190818152602001828054610a8990612d89565b8015610ad65780601f10610aab57610100808354040283529160200191610ad6565b820191906000526020600020905b815481529060010190602001808311610ab957829003601f168201915b50505050509050919050565b610afd83838360405180602001604052806000815250610f64565b505050565b600a81565b6000806002600084815260200190815260200160002060009054906101000a900473ffffffffffffffffffffffffffffffffffffffff169050600073ffffffffffffffffffffffffffffffffffffffff168173ffffffffffffffffffffffffffffffffffffffff161415610bb0576040517f08c379a0000000000000000000000000000000000000000000000000000000008152600401610ba7906129b9565b60405180910390fd5b80915050919050565b60008073ffffffffffffffffffffffffffffffffffffffff168273ffffffffffffffffffffffffffffffffffffffff161415610c2a576040517f08c379a0000000000000000000000000000000000000000000000000000000008152600401610c2190612999565b60405180910390fd5b600360008373ffffffffffffffffffffffffffffffffffffffff1673ffffffffffffffffffffffffffffffffffffffff168152602001908152602001600020549050919050565b610c796113bf565b73ffffffffffffffffffffffffffffffffffffffff16610c97610d05565b73ffffffffffffffffffffffffffffffffffffffff1614610ced576040517f08c379a0000000000000000000000000000000000000000000000000000000008152600401610ce490612a39565b60405180910390fd5b610cf760006117c5565b565b670de0b6b3a764000081565b6000600660009054906101000a900473ffffffffffffffffffffffffffffffffffffffff16905090565b606060018054610d3e90612d89565b80601f0160208091040260200160405190810160405280929190818152602001828054610d6a90612d89565b8015610db75780601f10610d8c57610100808354040283529160200191610db7565b820191906000526020600020905b815481529060010190602001808311610d9a57829003601f168201915b5050505050905090565b60048110610e04576040517f08c379a0000000000000000000000000000000000000000000000000000000008152600401610dfb90612ab9565b60405180910390fd5b600a600860008381526020019081526020016000205410610e5a576040517f08c379a0000000000000000000000000000000000000000000000000000000008152600401610e5190612939565b60405180910390fd5b670de0b6b3a7640000341015610ea5576040517f08c379a0000000000000000000000000000000000000000000000000000000008152600401610e9c906129f9565b60405180910390fd5b610eb733610eb28361188b565b6118cb565b600860008281526020019081526020016000206000815480929190610edb90612dec565b9190505550670de0b6b3a7640000341115610f4b573373ffffffffffffffffffffffffffffffffffffffff166108fc670de0b6b3a764000034610f1e9190612c9f565b9081150290604051600060405180830381858888f19350505050158015610f49573d6000803e3d6000fd5b505b50565b610f60610f596113bf565b8383611aa5565b5050565b610f75610f6f6113bf565b83611480565b610fb4576040517f08c379a0000000000000000000000000000000000000000000000000000000008152600401610fab90612a99565b60405180910390fd5b610fc084848484611c12565b50505050565b6060610fd182611353565b611010576040517f08c379a000000000000000000000000000000000000000000000000000000000815260040161100790612a59565b60405180910390fd5b600061101a611c6e565b9050600081511161103a5760405180602001604052806000815250611065565b8061104484611c85565b6040516020016110559291906127b1565b6040516020818303038152906040525b915050919050565b6110756113bf565b73ffffffffffffffffffffffffffffffffffffffff16611093610d05565b73ffffffffffffffffffffffffffffffffffffffff16146110e9576040517f08c379a00000000000000000000000000000000000000000000000000000000081526004016110e090612a39565b60405180910390fd5b6004821061112c576040517f08c379a000000000000000000000000000000000000000000000000000000000815260040161112390612ab9565b60405180910390fd5b80600960008481526020019081526020016000209080519060200190611153929190611ff6565b505050565b6000600560008473ffffffffffffffffffffffffffffffffffffffff1673ffffffffffffffffffffffffffffffffffffffff16815260200190815260200160002060008373ffffffffffffffffffffffffffffffffffffffff1673ffffffffffffffffffffffffffffffffffffffff16815260200190815260200160002060009054906101000a900460ff16905092915050565b6111f46113bf565b73ffffffffffffffffffffffffffffffffffffffff16611212610d05565b73ffffffffffffffffffffffffffffffffffffffff1614611268576040517f08c379a000000000000000000000000000000000000000000000000000000000815260040161125f90612a39565b60405180910390fd5b600073ffffffffffffffffffffffffffffffffffffffff168173ffffffffffffffffffffffffffffffffffffffff1614156112d8576040517f08c379a00000000000000000000000000000000000000000000000000000000081526004016112cf90612899565b60405180910390fd5b6112e1816117c5565b50565b600481565b60007f01ffc9a7000000000000000000000000000000000000000000000000000000007bffffffffffffffffffffffffffffffffffffffffffffffffffffffff1916827bffffffffffffffffffffffffffffffffffffffffffffffffffffffff1916149050919050565b60008073ffffffffffffffffffffffffffffffffffffffff166002600084815260200190815260200160002060009054906101000a900473ffffffffffffffffffffffffffffffffffffffff1673ffffffffffffffffffffffffffffffffffffffff1614159050919050565b600033905090565b816004600083815260200190815260200160002060006101000a81548173ffffffffffffffffffffffffffffffffffffffff021916908373ffffffffffffffffffffffffffffffffffffffff160217905550808273ffffffffffffffffffffffffffffffffffffffff1661143a83610b07565b73ffffffffffffffffffffffffffffffffffffffff167f8c5be1e5ebec7d5bd14f71427d1e84f3dd0314c0f7b2291e5b200ac8c7c3b92560405160405180910390a45050565b600061148b82611353565b6114ca576040517f08c379a00000000000000000000000000000000000000000000000000000000081526004016114c190612959565b60405180910390fd5b60006114d583610b07565b90508073ffffffffffffffffffffffffffffffffffffffff168473ffffffffffffffffffffffffffffffffffffffff16148061154457508373ffffffffffffffffffffffffffffffffffffffff1661152c84610705565b73ffffffffffffffffffffffffffffffffffffffff16145b8061155557506115548185611158565b5b91505092915050565b8273ffffffffffffffffffffffffffffffffffffffff1661157e82610b07565b73ffffffffffffffffffffffffffffffffffffffff16146115d4576040517f08c379a00000000000000000000000000000000000000000000000000000000081526004016115cb906128b9565b60405180910390fd5b600073ffffffffffffffffffffffffffffffffffffffff168273ffffffffffffffffffffffffffffffffffffffff161415611644576040517f08c379a000000000000000000000000000000000000000000000000000000000815260040161163b906128f9565b60405180910390fd5b61164f838383611e32565b61165a6000826113c7565b6001600360008573ffffffffffffffffffffffffffffffffffffffff1673ffffffffffffffffffffffffffffffffffffffff16815260200190815260200160002060008282546116aa9190612c9f565b925050819055506001600360008473ffffffffffffffffffffffffffffffffffffffff1673ffffffffffffffffffffffffffffffffffffffff16815260200190815260200160002060008282546117019190612bbe565b92505081905550816002600083815260200190815260200160002060006101000a81548173ffffffffffffffffffffffffffffffffffffffff021916908373ffffffffffffffffffffffffffffffffffffffff160217905550808273ffffffffffffffffffffffffffffffffffffffff168473ffffffffffffffffffffffffffffffffffffffff167fddf252ad1be2c89b69c2b068fc378daa952ba7f163c4a11628f55a4df523b3ef60405160405180910390a46117c0838383611e37565b505050565b6000600660009054906101000a900473ffffffffffffffffffffffffffffffffffffffff16905081600660006101000a81548173ffffffffffffffffffffffffffffffffffffffff021916908373ffffffffffffffffffffffffffffffffffffffff1602179055508173ffffffffffffffffffffffffffffffffffffffff168173ffffffffffffffffffffffffffffffffffffffff167f8be0079c531659141344cd1fd0a4f28419497f9722a3daafe3b4186f6b6457e060405160405180910390a35050565b600060016008600084815260200190815260200160002054600a846118b09190612c45565b6118ba9190612bbe565b6118c49190612bbe565b9050919050565b600073ffffffffffffffffffffffffffffffffffffffff168273ffffffffffffffffffffffffffffffffffffffff16141561193b576040517f08c379a0000000000000000000000000000000000000000000000000000000008152600401611932906129d9565b60405180910390fd5b61194481611353565b15611984576040517f08c379a000000000000000000000000000000000000000000000000000000000815260040161197b906128d9565b60405180910390fd5b61199060008383611e32565b6001600360008473ffffffffffffffffffffffffffffffffffffffff1673ffffffffffffffffffffffffffffffffffffffff16815260200190815260200160002060008282546119e09190612bbe565b92505081905550816002600083815260200190815260200160002060006101000a81548173ffffffffffffffffffffffffffffffffffffffff021916908373ffffffffffffffffffffffffffffffffffffffff160217905550808273ffffffffffffffffffffffffffffffffffffffff16600073ffffffffffffffffffffffffffffffffffffffff167fddf252ad1be2c89b69c2b068fc378daa952ba7f163c4a11628f55a4df523b3ef60405160405180910390a4611aa160008383611e37565b5050565b8173ffffffffffffffffffffffffffffffffffffffff168373ffffffffffffffffffffffffffffffffffffffff161415611b14576040517f08c379a0000000000000000000000000000000000000000000000000000000008152600401611b0b90612919565b60405180910390fd5b80600560008573ffffffffffffffffffffffffffffffffffffffff1673ffffffffffffffffffffffffffffffffffffffff16815260200190815260200160002060008473ffffffffffffffffffffffffffffffffffffffff1673ffffffffffffffffffffffffffffffffffffffff16815260200190815260200160002060006101000a81548160ff0219169083151502179055508173ffffffffffffffffffffffffffffffffffffffff168373ffffffffffffffffffffffffffffffffffffffff167f17307eab39ab6107e8899845ad3d59bd9653f200f220920489ca2b5937696c3183604051611c05919061283c565b60405180910390a3505050565b611c1d84848461155e565b611c2984848484611e3c565b611c68576040517f08c379a0000000000000000000000000000000000000000000000000000000008152600401611c5f90612879565b60405180910390fd5b50505050565b606060405180602001604052806000815250905090565b60606000821415611ccd576040518060400160405280600181526020017f30000000000000000000000000000000000000000000000000000000000000008152509050611e2d565b600082905060005b60008214611cff578080611ce890612dec565b915050600a82611cf89190612c14565b9150611cd5565b60008167ffffffffffffffff811115611d41577f4e487b7100000000000000000000000000000000000000000000000000000000600052604160045260246000fd5b6040519080825280601f01601f191660200182016040528015611d735781602001600182028036833780820191505090505b5090505b60008514611e2657600182611d8c9190612c9f565b9150600a85611d9b9190612e35565b6030611da79190612bbe565b60f81b818381518110611de3577f4e487b7100000000000000000000000000000000000000000000000000000000600052603260045260246000fd5b60200101907effffffffffffffffffffffffffffffffffffffffffffffffffffffffffffff1916908160001a905350600a85611e1f9190612c14565b9450611d77565b8093505050505b919050565b505050565b505050565b6000611e5d8473ffffffffffffffffffffffffffffffffffffffff16611fd3565b15611fc6578373ffffffffffffffffffffffffffffffffffffffff1663150b7a02611e866113bf565b8786866040518563ffffffff1660e01b8152600401611ea894939291906127f0565b602060405180830381600087803b158015611ec257600080fd5b505af1925050508015611ef357506040513d601f19601f82011682018060405250810190611ef091906123a2565b60015b611f76573d8060008114611f23576040519150601f19603f3d011682016040523d82523d6000602084013e611f28565b606091505b50600081511415611f6e576040517f08c379a0000000000000000000000000000000000000000000000000000000008152600401611f6590612879565b60405180910390fd5b805181602001fd5b63150b7a0260e01b7bffffffffffffffffffffffffffffffffffffffffffffffffffffffff1916817bffffffffffffffffffffffffffffffffffffffffffffffffffffffff191614915050611fcb565b600190505b949350505050565b6000808273ffffffffffffffffffffffffffffffffffffffff163b119050919050565b82805461200290612d89565b90600052602060002090601f016020900481019282612024576000855561206b565b82601f1061203d57805160ff191683800117855561206b565b8280016001018555821561206b579182015b8281111561206a57825182559160200191906001019061204f565b5b509050612078919061207c565b5090565b5b8082111561209557600081600090555060010161207d565b5090565b60006120ac6120a784612b19565b612af4565b9050828152602081018484840111156120c457600080fd5b6120cf848285612d47565b509392505050565b60006120ea6120e584612b4a565b612af4565b90508281526020810184848401111561210257600080fd5b61210d848285612d47565b509392505050565b6000813590506121248161342c565b92915050565b60008135905061213981613443565b92915050565b60008135905061214e8161345a565b92915050565b6000815190506121638161345a565b92915050565b600082601f83011261217a57600080fd5b813561218a848260208601612099565b91505092915050565b600082601f8301126121a457600080fd5b81356121b48482602086016120d7565b91505092915050565b6000813590506121cc81613471565b92915050565b6000602082840312156121e457600080fd5b60006121f284828501612115565b91505092915050565b6000806040838503121561220e57600080fd5b600061221c85828601612115565b925050602061222d85828601612115565b9150509250929050565b60008060006060848603121561224c57600080fd5b600061225a86828701612115565b935050602061226b86828701612115565b925050604061227c868287016121bd565b9150509250925092565b6000806000806080858703121561229c57600080fd5b60006122aa87828801612115565b94505060206122bb87828801612115565b93505060406122cc878288016121bd565b925050606085013567ffffffffffffffff8111156122e957600080fd5b6122f587828801612169565b91505092959194509250565b6000806040838503121561231457600080fd5b600061232285828601612115565b92505060206123338582860161212a565b9150509250929050565b6000806040838503121561235057600080fd5b600061235e85828601612115565b925050602061236f858286016121bd565b9150509250929050565b60006020828403121561238b57600080fd5b60006123998482850161213f565b91505092915050565b6000602082840312156123b457600080fd5b60006123c284828501612154565b91505092915050565b6000602082840312156123dd57600080fd5b60006123eb848285016121bd565b91505092915050565b6000806040838503121561240757600080fd5b6000612415858286016121bd565b925050602083013567ffffffffffffffff81111561243257600080fd5b61243e85828601612193565b9150509250929050565b61245181612cd3565b82525050565b61246081612ce5565b82525050565b600061247182612b7b565b61247b8185612b91565b935061248b818560208601612d56565b61249481612f22565b840191505092915050565b60006124aa82612b86565b6124b48185612ba2565b93506124c4818560208601612d56565b6124cd81612f22565b840191505092915050565b60006124e382612b86565b6124ed8185612bb3565b93506124fd818560208601612d56565b80840191505092915050565b6000612516603283612ba2565b915061252182612f33565b604082019050919050565b6000612539602683612ba2565b915061254482612f82565b604082019050919050565b600061255c602583612ba2565b915061256782612fd1565b604082019050919050565b600061257f601c83612ba2565b915061258a82613020565b602082019050919050565b60006125a2602483612ba2565b91506125ad82613049565b604082019050919050565b60006125c5601983612ba2565b91506125d082613098565b602082019050919050565b60006125e8602683612ba2565b91506125f3826130c1565b604082019050919050565b600061260b602c83612ba2565b915061261682613110565b604082019050919050565b600061262e603883612ba2565b91506126398261315f565b604082019050919050565b6000612651602a83612ba2565b915061265c826131ae565b604082019050919050565b6000612674602983612ba2565b915061267f826131fd565b604082019050919050565b6000612697602083612ba2565b91506126a28261324c565b602082019050919050565b60006126ba601483612ba2565b91506126c582613275565b602082019050919050565b60006126dd602c83612ba2565b91506126e88261329e565b604082019050919050565b6000612700602083612ba2565b915061270b826132ed565b602082019050919050565b6000612723602f83612ba2565b915061272e82613316565b604082019050919050565b6000612746602183612ba2565b915061275182613365565b604082019050919050565b6000612769603183612ba2565b9150612774826133b4565b604082019050919050565b600061278c601083612ba2565b915061279782613403565b602082019050919050565b6127ab81612d3d565b82525050565b60006127bd82856124d8565b91506127c982846124d8565b91508190509392505050565b60006020820190506127ea6000830184612448565b92915050565b60006080820190506128056000830187612448565b6128126020830186612448565b61281f60408301856127a2565b81810360608301526128318184612466565b905095945050505050565b60006020820190506128516000830184612457565b92915050565b60006020820190508181036000830152612871818461249f565b905092915050565b6000602082019050818103600083015261289281612509565b9050919050565b600060208201905081810360008301526128b28161252c565b9050919050565b600060208201905081810360008301526128d28161254f565b9050919050565b600060208201905081810360008301526128f281612572565b9050919050565b6000602082019050818103600083015261291281612595565b9050919050565b60006020820190508181036000830152612932816125b8565b9050919050565b60006020820190508181036000830152612952816125db565b9050919050565b60006020820190508181036000830152612972816125fe565b9050919050565b6000602082019050818103600083015261299281612621565b9050919050565b600060208201905081810360008301526129b281612644565b9050919050565b600060208201905081810360008301526129d281612667565b9050919050565b600060208201905081810360008301526129f28161268a565b9050919050565b60006020820190508181036000830152612a12816126ad565b9050919050565b60006020820190508181036000830152612a32816126d0565b9050919050565b60006020820190508181036000830152612a52816126f3565b9050919050565b60006020820190508181036000830152612a7281612716565b9050919050565b60006020820190508181036000830152612a9281612739565b9050919050565b60006020820190508181036000830152612ab28161275c565b9050919050565b60006020820190508181036000830152612ad28161277f565b9050919050565b6000602082019050612aee60008301846127a2565b92915050565b6000612afe612b0f565b9050612b0a8282612dbb565b919050565b6000604051905090565b600067ffffffffffffffff821115612b3457612b33612ef3565b5b612b3d82612f22565b9050602081019050919050565b600067ffffffffffffffff821115612b6557612b64612ef3565b5b612b6e82612f22565b9050602081019050919050565b600081519050919050565b600081519050919050565b600082825260208201905092915050565b600082825260208201905092915050565b600081905092915050565b6000612bc982612d3d565b9150612bd483612d3d565b9250827fffffffffffffffffffffffffffffffffffffffffffffffffffffffffffffffff03821115612c0957612c08612e66565b5b828201905092915050565b6000612c1f82612d3d565b9150612c2a83612d3d565b925082612c3a57612c39612e95565b5b828204905092915050565b6000612c5082612d3d565b9150612c5b83612d3d565b9250817fffffffffffffffffffffffffffffffffffffffffffffffffffffffffffffffff0483118215151615612c9457612c93612e66565b5b828202905092915050565b6000612caa82612d3d565b9150612cb583612d3d565b925082821015612cc857612cc7612e66565b5b828203905092915050565b6000612cde82612d1d565b9050919050565b60008115159050919050565b60007fffffffff0000000000000000000000000000000000000000000000000000000082169050919050565b600073ffffffffffffffffffffffffffffffffffffffff82169050919050565b6000819050919050565b82818337600083830152505050565b60005b83811015612d74578082015181840152602081019050612d59565b83811115612d83576000848401525b50505050565b60006002820490506001821680612da157607f821691505b60208210811415612db557612db4612ec4565b5b50919050565b612dc482612f22565b810181811067ffffffffffffffff82111715612de357612de2612ef3565b5b80604052505050565b6000612df782612d3d565b91507fffffffffffffffffffffffffffffffffffffffffffffffffffffffffffffffff821415612e2a57612e29612e66565b5b600182019050919050565b6000612e4082612d3d565b9150612e4b83612d3d565b925082612e5b57612e5a612e95565b5b828206905092915050565b7f4e487b7100000000000000000000000000000000000000000000000000000000600052601160045260246000fd5b7f4e487b7100000000000000000000000000000000000000000000000000000000600052601260045260246000fd5b7f4e487b7100000000000000000000000000000000000000000000000000000000600052602260045260246000fd5b7f4e487b7100000000000000000000000000000000000000000000000000000000600052604160045260246000fd5b6000601f19601f8301169050919050565b7f4552433732313a207472616e7366657220746f206e6f6e20455243373231526560008201527f63656976657220696d706c656d656e7465720000000000000000000000000000602082015250565b7f4f776e61626c653a206e6577206f776e657220697320746865207a65726f206160008201527f6464726573730000000000000000000000000000000000000000000000000000602082015250565b7f4552433732313a207472616e736665722066726f6d20696e636f72726563742060008201527f6f776e6572000000000000000000000000000000000000000000000000000000602082015250565b7f4552433732313a20746f6b656e20616c7265616479206d696e74656400000000600082015250565b7f4552433732313a207472616e7366657220746f20746865207a65726f2061646460008201527f7265737300000000000000000000000000000000000000000000000000000000602082015250565b7f4552433732313a20617070726f766520746f2063616c6c657200000000000000600082015250565b7f416c6c20746f6b656e7320666f72207468697320696d6167652061726520736f60008201527f6c64206f75740000000000000000000000000000000000000000000000000000602082015250565b7f4552433732313a206f70657261746f7220717565727920666f72206e6f6e657860008201527f697374656e7420746f6b656e0000000000000000000000000000000000000000602082015250565b7f4552433732313a20617070726f76652063616c6c6572206973206e6f74206f7760008201527f6e6572206e6f7220617070726f76656420666f7220616c6c0000000000000000602082015250565b7f4552433732313a2062616c616e636520717565727920666f7220746865207a6560008201527f726f206164647265737300000000000000000000000000000000000000000000602082015250565b7f4552433732313a206f776e657220717565727920666f72206e6f6e657869737460008201527f656e7420746f6b656e0000000000000000000000000000000000000000000000602082015250565b7f4552433732313a206d696e7420746f20746865207a65726f2061646472657373600082015250565b7f496e73756666696369656e74207061796d656e74000000000000000000000000600082015250565b7f4552433732313a20617070726f76656420717565727920666f72206e6f6e657860008201527f697374656e7420746f6b656e0000000000000000000000000000000000000000602082015250565b7f4f776e61626c653a2063616c6c6572206973206e6f7420746865206f776e6572600082015250565b7f4552433732314d657461646174613a2055524920717565727920666f72206e6f60008201527f6e6578697374656e7420746f6b656e0000000000000000000000000000000000602082015250565b7f4552433732313a20617070726f76616c20746f2063757272656e74206f776e6560008201527f7200000000000000000000000000000000000000000000000000000000000000602082015250565b7f4552433732313a207472616e736665722063616c6c6572206973206e6f74206f60008201527f776e6572206e6f7220617070726f766564000000000000000000000000000000602082015250565b7f496e76616c696420696d61676520494400000000000000000000000000000000600082015250565b61343581612cd3565b811461344057600080fd5b50565b61344c81612ce5565b811461345757600080fd5b50565b61346381612cf1565b811461346e57600080fd5b50565b61347a81612d3d565b811461348557600080fd5b5056fea2646970667358221220443ce34a56a5ccfc8fa5eb0906ef745af7a8b330b433b5bbabbefa6c4d0fdaf664736f6c63430008040033",
  "immutableReferences": {},
  "source": "// SPDX-License-Identifier: MIT \r\npragma solidity ^0.8.4; \r\n\r\nimport \"@openzeppelin/contracts/token/ERC721/ERC721.sol\"; \r\nimport \"@openzeppelin/contracts/access/Ownable.sol\"; \r\n\r\ncontract MyNFT is ERC721, Ownable { \r\n    address public initialOwner;\r\n    uint256 public constant maxTokensPerImage = 10; \r\n    uint256 public constant totalImages = 4; \r\n    uint256 public constant tokenPrice = 1 ether; \r\n    mapping(uint256 => uint256) private tokensSoldPerImage; \r\n    mapping(uint256 => string) private imageIPFSLinks; \r\n    \r\n    constructor() ERC721(\"MyNFT\", \"MNFT\"){\r\n        initialOwner = msg.sender;\r\n    }\r\n    \r\n    function mint(uint256 _imageId) external payable { \r\n        require(_imageId < totalImages, \"Invalid image ID\"); \r\n        require(tokensSoldPerImage[_imageId] < maxTokensPerImage, \"All tokens for this image are sold out\"); \r\n        require(msg.value >= tokenPrice, \"Insufficient payment\"); \r\n        _mint(msg.sender, _getNextTokenId(_imageId)); \r\n        tokensSoldPerImage[_imageId]++; \r\n        if (msg.value > tokenPrice) { \r\n            payable(msg.sender).transfer(msg.value - tokenPrice); // Refund excess payment \r\n        } \r\n    }\r\n\r\n    function setImageIPFSLink(uint256 _imageId, string memory _ipfsLink) external onlyOwner { \r\n        require(_imageId < totalImages, \"Invalid image ID\"); \r\n        imageIPFSLinks[_imageId] = _ipfsLink; \r\n    } \r\n    \r\n    function getImageIPFSLink(uint256 _imageId) external view returns (string memory) { \r\n        require(_imageId < totalImages, \"Invalid image ID\"); \r\n        return imageIPFSLinks[_imageId]; \r\n    } \r\n    \r\n    function _getNextTokenId(uint256 _imageId) private view returns (uint256) { \r\n        return _imageId * maxTokensPerImage + tokensSoldPerImage[_imageId] + 1; \r\n    } \r\n    \r\n    function withdraw() external onlyOwner { \r\n        uint256 balance = address(this).balance; \r\n        payable(owner()).transfer(balance); \r\n    } \r\n}\r\n",
  "sourcePath": "C:\\Users\\jcord\\Documents\\Master_BC\\PigCoinsNFTs\\src\\contracts\\MyNFT.sol",
  "compiler": {
    "name": "solc",
    "version": "0.8.4+commit.c7e474f2.Emscripten.clang"
  },
  "schemaVersion": "3.4.16",
  "updatedAt": "2024-04-06T09:07:44.005Z",
  "devdoc": {
    "kind": "dev",
    "methods": {
      "approve(address,uint256)": {
        "details": "See {IERC721-approve}."
      },
      "balanceOf(address)": {
        "details": "See {IERC721-balanceOf}."
      },
      "getApproved(uint256)": {
        "details": "See {IERC721-getApproved}."
      },
      "isApprovedForAll(address,address)": {
        "details": "See {IERC721-isApprovedForAll}."
      },
      "name()": {
        "details": "See {IERC721Metadata-name}."
      },
      "owner()": {
        "details": "Returns the address of the current owner."
      },
      "ownerOf(uint256)": {
        "details": "See {IERC721-ownerOf}."
      },
      "renounceOwnership()": {
        "details": "Leaves the contract without owner. It will not be possible to call `onlyOwner` functions anymore. Can only be called by the current owner. NOTE: Renouncing ownership will leave the contract without an owner, thereby removing any functionality that is only available to the owner."
      },
      "safeTransferFrom(address,address,uint256)": {
        "details": "See {IERC721-safeTransferFrom}."
      },
      "safeTransferFrom(address,address,uint256,bytes)": {
        "details": "See {IERC721-safeTransferFrom}."
      },
      "setApprovalForAll(address,bool)": {
        "details": "See {IERC721-setApprovalForAll}."
      },
      "supportsInterface(bytes4)": {
        "details": "See {IERC165-supportsInterface}."
      },
      "symbol()": {
        "details": "See {IERC721Metadata-symbol}."
      },
      "tokenURI(uint256)": {
        "details": "See {IERC721Metadata-tokenURI}."
      },
      "transferFrom(address,address,uint256)": {
        "details": "See {IERC721-transferFrom}."
      },
      "transferOwnership(address)": {
        "details": "Transfers ownership of the contract to a new account (`newOwner`). Can only be called by the current owner."
      }
    },
    "version": 1
  },
  "userdoc": {
    "kind": "user",
    "methods": {},
    "version": 1
  }
}