{
  "contractName": "PigCoin",
  "abi": [
    {
      "inputs": [],
      "stateMutability": "nonpayable",
      "type": "constructor"
    },
    {
      "anonymous": false,
      "inputs": [
        {
          "indexed": true,
          "internalType": "address",
          "name": "owner",
          "type": "address"
        },
        {
          "indexed": true,
          "internalType": "address",
          "name": "spender",
          "type": "address"
        },
        {
          "indexed": false,
          "internalType": "uint256",
          "name": "value",
          "type": "uint256"
        }
      ],
      "name": "Approval",
      "type": "event"
    },
    {
      "anonymous": false,
      "inputs": [
        {
          "indexed": true,
          "internalType": "address",
          "name": "from",
          "type": "address"
        },
        {
          "indexed": false,
          "internalType": "uint256",
          "name": "amount",
          "type": "uint256"
        }
      ],
      "name": "Burn",
      "type": "event"
    },
    {
      "anonymous": false,
      "inputs": [
        {
          "indexed": true,
          "internalType": "address",
          "name": "to",
          "type": "address"
        },
        {
          "indexed": false,
          "internalType": "uint256",
          "name": "amount",
          "type": "uint256"
        }
      ],
      "name": "Mint",
      "type": "event"
    },
    {
      "anonymous": false,
      "inputs": [
        {
          "indexed": true,
          "internalType": "address",
          "name": "previousOwner",
          "type": "address"
        },
        {
          "indexed": true,
          "internalType": "address",
          "name": "newOwner",
          "type": "address"
        }
      ],
      "name": "OwnershipTransferred",
      "type": "event"
    },
    {
      "anonymous": false,
      "inputs": [
        {
          "indexed": true,
          "internalType": "address",
          "name": "staker",
          "type": "address"
        },
        {
          "indexed": false,
          "internalType": "uint256",
          "name": "amount",
          "type": "uint256"
        }
      ],
      "name": "RewardClaimed",
      "type": "event"
    },
    {
      "anonymous": false,
      "inputs": [
        {
          "indexed": true,
          "internalType": "address",
          "name": "staker",
          "type": "address"
        },
        {
          "indexed": false,
          "internalType": "uint256",
          "name": "amount",
          "type": "uint256"
        }
      ],
      "name": "Staked",
      "type": "event"
    },
    {
      "anonymous": false,
      "inputs": [
        {
          "indexed": false,
          "internalType": "address",
          "name": "buyer",
          "type": "address"
        },
        {
          "indexed": false,
          "internalType": "uint256",
          "name": "amount",
          "type": "uint256"
        },
        {
          "indexed": false,
          "internalType": "uint256",
          "name": "tokensReceived",
          "type": "uint256"
        }
      ],
      "name": "TokensPurchased",
      "type": "event"
    },
    {
      "anonymous": false,
      "inputs": [
        {
          "indexed": true,
          "internalType": "address",
          "name": "from",
          "type": "address"
        },
        {
          "indexed": true,
          "internalType": "address",
          "name": "to",
          "type": "address"
        },
        {
          "indexed": false,
          "internalType": "uint256",
          "name": "value",
          "type": "uint256"
        }
      ],
      "name": "Transfer",
      "type": "event"
    },
    {
      "anonymous": false,
      "inputs": [
        {
          "indexed": true,
          "internalType": "address",
          "name": "staker",
          "type": "address"
        },
        {
          "indexed": false,
          "internalType": "uint256",
          "name": "amount",
          "type": "uint256"
        }
      ],
      "name": "Unstaked",
      "type": "event"
    },
    {
      "inputs": [],
      "name": "APY",
      "outputs": [
        {
          "internalType": "uint256",
          "name": "",
          "type": "uint256"
        }
      ],
      "stateMutability": "view",
      "type": "function"
    },
    {
      "inputs": [
        {
          "internalType": "address",
          "name": "owner",
          "type": "address"
        },
        {
          "internalType": "address",
          "name": "spender",
          "type": "address"
        }
      ],
      "name": "allowance",
      "outputs": [
        {
          "internalType": "uint256",
          "name": "",
          "type": "uint256"
        }
      ],
      "stateMutability": "view",
      "type": "function"
    },
    {
      "inputs": [
        {
          "internalType": "address",
          "name": "spender",
          "type": "address"
        },
        {
          "internalType": "uint256",
          "name": "amount",
          "type": "uint256"
        }
      ],
      "name": "approve",
      "outputs": [
        {
          "internalType": "bool",
          "name": "",
          "type": "bool"
        }
      ],
      "stateMutability": "nonpayable",
      "type": "function"
    },
    {
      "inputs": [
        {
          "internalType": "address",
          "name": "account",
          "type": "address"
        }
      ],
      "name": "balanceOf",
      "outputs": [
        {
          "internalType": "uint256",
          "name": "",
          "type": "uint256"
        }
      ],
      "stateMutability": "view",
      "type": "function"
    },
    {
      "inputs": [
        {
          "internalType": "address",
          "name": "spender",
          "type": "address"
        },
        {
          "internalType": "uint256",
          "name": "subtractedValue",
          "type": "uint256"
        }
      ],
      "name": "decreaseAllowance",
      "outputs": [
        {
          "internalType": "bool",
          "name": "",
          "type": "bool"
        }
      ],
      "stateMutability": "nonpayable",
      "type": "function"
    },
    {
      "inputs": [
        {
          "internalType": "address",
          "name": "spender",
          "type": "address"
        },
        {
          "internalType": "uint256",
          "name": "addedValue",
          "type": "uint256"
        }
      ],
      "name": "increaseAllowance",
      "outputs": [
        {
          "internalType": "bool",
          "name": "",
          "type": "bool"
        }
      ],
      "stateMutability": "nonpayable",
      "type": "function"
    },
    {
      "inputs": [
        {
          "internalType": "address",
          "name": "",
          "type": "address"
        }
      ],
      "name": "lastRewardClaimTime",
      "outputs": [
        {
          "internalType": "uint256",
          "name": "",
          "type": "uint256"
        }
      ],
      "stateMutability": "view",
      "type": "function"
    },
    {
      "inputs": [],
      "name": "name",
      "outputs": [
        {
          "internalType": "string",
          "name": "",
          "type": "string"
        }
      ],
      "stateMutability": "view",
      "type": "function"
    },
    {
      "inputs": [],
      "name": "owner",
      "outputs": [
        {
          "internalType": "address",
          "name": "",
          "type": "address"
        }
      ],
      "stateMutability": "view",
      "type": "function"
    },
    {
      "inputs": [],
      "name": "renounceOwnership",
      "outputs": [],
      "stateMutability": "nonpayable",
      "type": "function"
    },
    {
      "inputs": [
        {
          "internalType": "address",
          "name": "",
          "type": "address"
        }
      ],
      "name": "rewardsBalance",
      "outputs": [
        {
          "internalType": "uint256",
          "name": "",
          "type": "uint256"
        }
      ],
      "stateMutability": "view",
      "type": "function"
    },
    {
      "inputs": [
        {
          "internalType": "address",
          "name": "",
          "type": "address"
        }
      ],
      "name": "stakingBalance",
      "outputs": [
        {
          "internalType": "uint256",
          "name": "",
          "type": "uint256"
        }
      ],
      "stateMutability": "view",
      "type": "function"
    },
    {
      "inputs": [],
      "name": "symbol",
      "outputs": [
        {
          "internalType": "string",
          "name": "",
          "type": "string"
        }
      ],
      "stateMutability": "view",
      "type": "function"
    },
    {
      "inputs": [],
      "name": "totalSupply",
      "outputs": [
        {
          "internalType": "uint256",
          "name": "",
          "type": "uint256"
        }
      ],
      "stateMutability": "view",
      "type": "function"
    },
    {
      "inputs": [
        {
          "internalType": "address",
          "name": "to",
          "type": "address"
        },
        {
          "internalType": "uint256",
          "name": "amount",
          "type": "uint256"
        }
      ],
      "name": "transfer",
      "outputs": [
        {
          "internalType": "bool",
          "name": "",
          "type": "bool"
        }
      ],
      "stateMutability": "nonpayable",
      "type": "function"
    },
    {
      "inputs": [
        {
          "internalType": "address",
          "name": "from",
          "type": "address"
        },
        {
          "internalType": "address",
          "name": "to",
          "type": "address"
        },
        {
          "internalType": "uint256",
          "name": "amount",
          "type": "uint256"
        }
      ],
      "name": "transferFrom",
      "outputs": [
        {
          "internalType": "bool",
          "name": "",
          "type": "bool"
        }
      ],
      "stateMutability": "nonpayable",
      "type": "function"
    },
    {
      "inputs": [
        {
          "internalType": "address",
          "name": "newOwner",
          "type": "address"
        }
      ],
      "name": "transferOwnership",
      "outputs": [],
      "stateMutability": "nonpayable",
      "type": "function"
    },
    {
      "stateMutability": "payable",
      "type": "receive"
    },
    {
      "inputs": [],
      "name": "decimals",
      "outputs": [
        {
          "internalType": "uint8",
          "name": "",
          "type": "uint8"
        }
      ],
      "stateMutability": "pure",
      "type": "function"
    },
    {
      "inputs": [
        {
          "internalType": "address",
          "name": "_account",
          "type": "address"
        }
      ],
      "name": "balanceTokens",
      "outputs": [
        {
          "internalType": "uint256",
          "name": "",
          "type": "uint256"
        }
      ],
      "stateMutability": "view",
      "type": "function"
    },
    {
      "inputs": [],
      "name": "balanceTokensSC",
      "outputs": [
        {
          "internalType": "uint256",
          "name": "",
          "type": "uint256"
        }
      ],
      "stateMutability": "view",
      "type": "function"
    },
    {
      "inputs": [
        {
          "internalType": "address",
          "name": "to",
          "type": "address"
        },
        {
          "internalType": "uint256",
          "name": "amount",
          "type": "uint256"
        }
      ],
      "name": "mint",
      "outputs": [],
      "stateMutability": "nonpayable",
      "type": "function"
    },
    {
      "inputs": [
        {
          "internalType": "uint256",
          "name": "amount",
          "type": "uint256"
        }
      ],
      "name": "burn",
      "outputs": [],
      "stateMutability": "payable",
      "type": "function"
    },
    {
      "inputs": [
        {
          "internalType": "uint256",
          "name": "tokensToBuy",
          "type": "uint256"
        }
      ],
      "name": "buyTokens",
      "outputs": [],
      "stateMutability": "payable",
      "type": "function"
    },
    {
      "inputs": [],
      "name": "buyTokens2",
      "outputs": [],
      "stateMutability": "payable",
      "type": "function"
    },
    {
      "inputs": [],
      "name": "buyTokens3",
      "outputs": [],
      "stateMutability": "payable",
      "type": "function"
    },
    {
      "inputs": [
        {
          "internalType": "uint256",
          "name": "amount",
          "type": "uint256"
        }
      ],
      "name": "stake",
      "outputs": [],
      "stateMutability": "nonpayable",
      "type": "function"
    },
    {
      "inputs": [
        {
          "internalType": "uint256",
          "name": "amount",
          "type": "uint256"
        }
      ],
      "name": "unstake",
      "outputs": [],
      "stateMutability": "nonpayable",
      "type": "function"
    },
    {
      "inputs": [],
      "name": "claimReward",
      "outputs": [],
      "stateMutability": "nonpayable",
      "type": "function"
    },
    {
      "inputs": [],
      "name": "withdrawReward",
      "outputs": [],
      "stateMutability": "payable",
      "type": "function"
    },
    {
      "inputs": [
        {
          "internalType": "address",
          "name": "account",
          "type": "address"
        }
      ],
      "name": "calculateReward",
      "outputs": [
        {
          "internalType": "uint256",
          "name": "",
          "type": "uint256"
        }
      ],
      "stateMutability": "nonpayable",
      "type": "function"
    },
    {
      "inputs": [
        {
          "internalType": "address",
          "name": "account",
          "type": "address"
        }
      ],
      "name": "getStakingBalance",
      "outputs": [
        {
          "internalType": "uint256",
          "name": "",
          "type": "uint256"
        }
      ],
      "stateMutability": "view",
      "type": "function"
    },
    {
      "inputs": [
        {
          "internalType": "address",
          "name": "account",
          "type": "address"
        }
      ],
      "name": "getRewardsBalance",
      "outputs": [
        {
          "internalType": "uint256",
          "name": "",
          "type": "uint256"
        }
      ],
      "stateMutability": "view",
      "type": "function"
    }
  ],
  "bytecode": "0x60806040523480156200001157600080fd5b506040518060400160405280600781526020017f506967436f696e000000000000000000000000000000000000000000000000008152506040518060400160405280600381526020017f504947000000000000000000000000000000000000000000000000000000000081525081600390805190602001906200009692919062000341565b508060049080519060200190620000af92919062000341565b505050620000d2620000c6620000f060201b60201c565b620000f860201b60201c565b620000ea306509184e72a000620001be60201b60201c565b6200059d565b600033905090565b6000600560009054906101000a900473ffffffffffffffffffffffffffffffffffffffff16905081600560006101000a81548173ffffffffffffffffffffffffffffffffffffffff021916908373ffffffffffffffffffffffffffffffffffffffff1602179055508173ffffffffffffffffffffffffffffffffffffffff168173ffffffffffffffffffffffffffffffffffffffff167f8be0079c531659141344cd1fd0a4f28419497f9722a3daafe3b4186f6b6457e060405160405180910390a35050565b600073ffffffffffffffffffffffffffffffffffffffff168273ffffffffffffffffffffffffffffffffffffffff16141562000231576040517f08c379a0000000000000000000000000000000000000000000000000000000008152600401620002289062000429565b60405180910390fd5b62000245600083836200033760201b60201c565b806002600082825462000259919062000479565b92505081905550806000808473ffffffffffffffffffffffffffffffffffffffff1673ffffffffffffffffffffffffffffffffffffffff1681526020019081526020016000206000828254620002b0919062000479565b925050819055508173ffffffffffffffffffffffffffffffffffffffff16600073ffffffffffffffffffffffffffffffffffffffff167fddf252ad1be2c89b69c2b068fc378daa952ba7f163c4a11628f55a4df523b3ef836040516200031791906200044b565b60405180910390a362000333600083836200033c60201b60201c565b5050565b505050565b505050565b8280546200034f90620004e0565b90600052602060002090601f016020900481019282620003735760008555620003bf565b82601f106200038e57805160ff1916838001178555620003bf565b82800160010185558215620003bf579182015b82811115620003be578251825591602001919060010190620003a1565b5b509050620003ce9190620003d2565b5090565b5b80821115620003ed576000816000905550600101620003d3565b5090565b600062000400601f8362000468565b91506200040d8262000574565b602082019050919050565b6200042381620004d6565b82525050565b600060208201905081810360008301526200044481620003f1565b9050919050565b600060208201905062000462600083018462000418565b92915050565b600082825260208201905092915050565b60006200048682620004d6565b91506200049383620004d6565b9250827fffffffffffffffffffffffffffffffffffffffffffffffffffffffffffffffff03821115620004cb57620004ca62000516565b5b828201905092915050565b6000819050919050565b60006002820490506001821680620004f957607f821691505b6020821081141562000510576200050f62000545565b5b50919050565b7f4e487b7100000000000000000000000000000000000000000000000000000000600052601160045260246000fd5b7f4e487b7100000000000000000000000000000000000000000000000000000000600052602260045260246000fd5b7f45524332303a206d696e7420746f20746865207a65726f206164647265737300600082015250565b6131ba80620005ad6000396000f3fe6080604052600436106101e75760003560e01c8063896bdac811610102578063b04ef9c211610095578063dd62ed3e11610064578063dd62ed3e146106d0578063ef8bd3051461070d578063f2fde38b14610738578063f9b4527a14610761576101ee565b8063b04ef9c214610635578063b88a802f14610672578063c885bc5814610689578063d82e396214610693576101ee565b806395d89b41116100d157806395d89b4114610567578063a457c2d714610592578063a694fc3a146105cf578063a9059cbb146105f8576101ee565b8063896bdac8146104975780638a67f4bf146104d45780638da5cb5b1461051157806392ef10d81461053c576101ee565b80633610724e1161017a57806345bc78ab1161014957806345bc78ab146103c95780636c430dbb1461040657806370a0823114610443578063715018a614610480576101ee565b80633610724e1461032b578063395093511461034757806340c10f191461038457806342966c68146103ad576101ee565b806323b872dd116101b657806323b872dd146102905780632e17de78146102cd578063313ce567146102f6578063352186c014610321576101ee565b806306fdde03146101f3578063095ea7b31461021e57806318160ddd1461025b5780631fa2fa4e14610286576101ee565b366101ee57005b600080fd5b3480156101ff57600080fd5b5061020861079e565b604051610215919061278e565b60405180910390f35b34801561022a57600080fd5b50610245600480360381019061024091906123ae565b610830565b6040516102529190612773565b60405180910390f35b34801561026757600080fd5b50610270610853565b60405161027d9190612a10565b60405180910390f35b61028e61085d565b005b34801561029c57600080fd5b506102b760048036038101906102b2919061235f565b6108f9565b6040516102c49190612773565b60405180910390f35b3480156102d957600080fd5b506102f460048036038101906102ef91906123ea565b610928565b005b34801561030257600080fd5b5061030b610a9f565b6040516103189190612a2b565b60405180910390f35b610329610aa4565b005b610345600480360381019061034091906123ea565b610b12565b005b34801561035357600080fd5b5061036e600480360381019061036991906123ae565b610c12565b60405161037b9190612773565b60405180910390f35b34801561039057600080fd5b506103ab60048036038101906103a691906123ae565b610cbc565b005b6103c760048036038101906103c291906123ea565b610d94565b005b3480156103d557600080fd5b506103f060048036038101906103eb91906122fa565b610def565b6040516103fd9190612a10565b60405180910390f35b34801561041257600080fd5b5061042d600480360381019061042891906122fa565b610e07565b60405161043a9190612a10565b60405180910390f35b34801561044f57600080fd5b5061046a600480360381019061046591906122fa565b610e1f565b6040516104779190612a10565b60405180910390f35b34801561048c57600080fd5b50610495610e67565b005b3480156104a357600080fd5b506104be60048036038101906104b991906122fa565b610eef565b6040516104cb9190612a10565b60405180910390f35b3480156104e057600080fd5b506104fb60048036038101906104f691906122fa565b610f07565b6040516105089190612a10565b60405180910390f35b34801561051d57600080fd5b50610526610f50565b6040516105339190612721565b60405180910390f35b34801561054857600080fd5b50610551610f7a565b60405161055e9190612a10565b60405180910390f35b34801561057357600080fd5b5061057c610f8a565b604051610589919061278e565b60405180910390f35b34801561059e57600080fd5b506105b960048036038101906105b491906123ae565b61101c565b6040516105c69190612773565b60405180910390f35b3480156105db57600080fd5b506105f660048036038101906105f191906123ea565b611106565b005b34801561060457600080fd5b5061061f600480360381019061061a91906123ae565b6112c2565b60405161062c9190612773565b60405180910390f35b34801561064157600080fd5b5061065c600480360381019061065791906122fa565b6112e5565b6040516106699190612a10565b60405180910390f35b34801561067e57600080fd5b5061068761132e565b005b610691611556565b005b34801561069f57600080fd5b506106ba60048036038101906106b591906122fa565b61174b565b6040516106c79190612a10565b60405180910390f35b3480156106dc57600080fd5b506106f760048036038101906106f29190612323565b611853565b6040516107049190612a10565b60405180910390f35b34801561071957600080fd5b506107226118da565b60405161072f9190612a10565b60405180910390f35b34801561074457600080fd5b5061075f600480360381019061075a91906122fa565b6118df565b005b34801561076d57600080fd5b50610788600480360381019061078391906122fa565b6119d7565b6040516107959190612a10565b60405180910390f35b6060600380546107ad90612bff565b80601f01602080910402602001604051908101604052809291908181526020018280546107d990612bff565b80156108265780601f106107fb57610100808354040283529160200191610826565b820191906000526020600020905b81548152906001019060200180831161080957829003601f168201915b5050505050905090565b60008061083b6119e9565b90506108488185856119f1565b600191505092915050565b6000600254905090565b600034905060006064826108719190612ae9565b90503373ffffffffffffffffffffffffffffffffffffffff166108fc829081150290604051600060405180830381858888f193505050501580156108b9573d6000803e3d6000fd5b507f8fafebcaf9d154343dad25669bfa277f4fbacd7ac6b0c4fed522580e040a0f333383836040516108ed9392919061273c565b60405180910390a15050565b6000806109046119e9565b9050610911858285611bbc565b61091c858585611c48565b60019150509392505050565b6000811161096b576040517f08c379a000000000000000000000000000000000000000000000000000000000815260040161096290612870565b60405180910390fd5b80600660003373ffffffffffffffffffffffffffffffffffffffff1673ffffffffffffffffffffffffffffffffffffffff1681526020019081526020016000205410156109ed576040517f08c379a00000000000000000000000000000000000000000000000000000000081526004016109e4906128d0565b60405180910390fd5b80600660003373ffffffffffffffffffffffffffffffffffffffff1673ffffffffffffffffffffffffffffffffffffffff1681526020019081526020016000206000828254610a3c9190612b43565b92505081905550610a4e303383611c48565b3373ffffffffffffffffffffffffffffffffffffffff167f0f5bb82176feb1b5e747e28471aa92156a04d9f3ab9f45f28e2d704232b93f7582604051610a949190612a10565b60405180910390a250565b600090565b6000662386f26fc10000905060008134610abe9190612ab8565b905060008111610b03576040517f08c379a0000000000000000000000000000000000000000000000000000000008152600401610afa906127f0565b60405180910390fd5b610b0e303383611c48565b5050565b60008111610b55576040517f08c379a0000000000000000000000000000000000000000000000000000000008152600401610b4c906129b0565b60405180910390fd5b60006064670de0b6b3a764000083610b6d9190612ae9565b610b779190612ab8565b905080341015610bbc576040517f08c379a0000000000000000000000000000000000000000000000000000000008152600401610bb3906127f0565b60405180910390fd5b3073ffffffffffffffffffffffffffffffffffffffff166108fc829081150290604051600060405180830381858888f19350505050158015610c02573d6000803e3d6000fd5b50610c0e303384611c48565b5050565b600080610c1d6119e9565b9050610cb1818585600160008673ffffffffffffffffffffffffffffffffffffffff1673ffffffffffffffffffffffffffffffffffffffff16815260200190815260200160002060008973ffffffffffffffffffffffffffffffffffffffff1673ffffffffffffffffffffffffffffffffffffffff16815260200190815260200160002054610cac9190612a62565b6119f1565b600191505092915050565b610cc46119e9565b73ffffffffffffffffffffffffffffffffffffffff16610ce2610f50565b73ffffffffffffffffffffffffffffffffffffffff1614610d38576040517f08c379a0000000000000000000000000000000000000000000000000000000008152600401610d2f90612910565b60405180910390fd5b610d428282611ec9565b8173ffffffffffffffffffffffffffffffffffffffff167f0f6798a560793a54c3bcfe86a93cde1e73087d944c0ea20544137d412139688582604051610d889190612a10565b60405180910390a25050565b610d9e3382612029565b3373ffffffffffffffffffffffffffffffffffffffff167fcc16f5dbb4873280815c1ee09dbd06736cffcc184412cf7a71a0fdb75d397ca582604051610de49190612a10565b60405180910390a250565b60066020528060005260406000206000915090505481565b60086020528060005260406000206000915090505481565b60008060008373ffffffffffffffffffffffffffffffffffffffff1673ffffffffffffffffffffffffffffffffffffffff168152602001908152602001600020549050919050565b610e6f6119e9565b73ffffffffffffffffffffffffffffffffffffffff16610e8d610f50565b73ffffffffffffffffffffffffffffffffffffffff1614610ee3576040517f08c379a0000000000000000000000000000000000000000000000000000000008152600401610eda90612910565b60405180910390fd5b610eed6000612200565b565b60076020528060005260406000206000915090505481565b6000600760008373ffffffffffffffffffffffffffffffffffffffff1673ffffffffffffffffffffffffffffffffffffffff168152602001908152602001600020549050919050565b6000600560009054906101000a900473ffffffffffffffffffffffffffffffffffffffff16905090565b6000610f8530610e1f565b905090565b606060048054610f9990612bff565b80601f0160208091040260200160405190810160405280929190818152602001828054610fc590612bff565b80156110125780601f10610fe757610100808354040283529160200191611012565b820191906000526020600020905b815481529060010190602001808311610ff557829003601f168201915b5050505050905090565b6000806110276119e9565b90506000600160008373ffffffffffffffffffffffffffffffffffffffff1673ffffffffffffffffffffffffffffffffffffffff16815260200190815260200160002060008673ffffffffffffffffffffffffffffffffffffffff1673ffffffffffffffffffffffffffffffffffffffff168152602001908152602001600020549050838110156110ed576040517f08c379a00000000000000000000000000000000000000000000000000000000081526004016110e4906129d0565b60405180910390fd5b6110fa82868684036119f1565b60019250505092915050565b60008111611149576040517f08c379a000000000000000000000000000000000000000000000000000000000815260040161114090612870565b60405180910390fd5b8061115333610e1f565b1015611194576040517f08c379a000000000000000000000000000000000000000000000000000000000815260040161118b906128b0565b60405180910390fd5b42600860003373ffffffffffffffffffffffffffffffffffffffff1673ffffffffffffffffffffffffffffffffffffffff1681526020019081526020016000208190555080600660003373ffffffffffffffffffffffffffffffffffffffff1673ffffffffffffffffffffffffffffffffffffffff168152602001908152602001600020546112239190612a62565b600660003373ffffffffffffffffffffffffffffffffffffffff1673ffffffffffffffffffffffffffffffffffffffff16815260200190815260200160002081905550611271333083611c48565b3373ffffffffffffffffffffffffffffffffffffffff167f9e71bc8eea02a63969f509818f2dafb9254532904319f9dbda79b67bd34a5f3d826040516112b79190612a10565b60405180910390a250565b6000806112cd6119e9565b90506112da818585611c48565b600191505092915050565b6000600660008373ffffffffffffffffffffffffffffffffffffffff1673ffffffffffffffffffffffffffffffffffffffff168152602001908152602001600020549050919050565b6000600860003373ffffffffffffffffffffffffffffffffffffffff1673ffffffffffffffffffffffffffffffffffffffff1681526020019081526020016000205414156113b1576040517f08c379a00000000000000000000000000000000000000000000000000000000081526004016113a890612930565b60405180910390fd5b6000600860003373ffffffffffffffffffffffffffffffffffffffff1673ffffffffffffffffffffffffffffffffffffffff16815260200190815260200160002054426113fe9190612b43565b905060006301e13380600a83600660003373ffffffffffffffffffffffffffffffffffffffff1673ffffffffffffffffffffffffffffffffffffffff168152602001908152602001600020546114549190612ae9565b61145e9190612ae9565b6114689190612ab8565b905080600760003373ffffffffffffffffffffffffffffffffffffffff1673ffffffffffffffffffffffffffffffffffffffff16815260200190815260200160002060008282546114b99190612a62565b9250508190555042600860003373ffffffffffffffffffffffffffffffffffffffff1673ffffffffffffffffffffffffffffffffffffffff168152602001908152602001600020819055503373ffffffffffffffffffffffffffffffffffffffff167f106f923f993c2149d49b4255ff723acafa1f2d94393f561d3eda32ae348f72418260405161154a9190612a10565b60405180910390a25050565b6000600660003373ffffffffffffffffffffffffffffffffffffffff1673ffffffffffffffffffffffffffffffffffffffff16815260200190815260200160002054116115d8576040517f08c379a00000000000000000000000000000000000000000000000000000000081526004016115cf906128f0565b60405180910390fd5b600860003373ffffffffffffffffffffffffffffffffffffffff1673ffffffffffffffffffffffffffffffffffffffff168152602001908152602001600020544211611659576040517f08c379a0000000000000000000000000000000000000000000000000000000008152600401611650906128f0565b60405180910390fd5b60006116643361174b565b90506000600760003373ffffffffffffffffffffffffffffffffffffffff1673ffffffffffffffffffffffffffffffffffffffff1681526020019081526020016000208190555042600860003373ffffffffffffffffffffffffffffffffffffffff1673ffffffffffffffffffffffffffffffffffffffff168152602001908152602001600020819055506116fa303383611c48565b3373ffffffffffffffffffffffffffffffffffffffff167f106f923f993c2149d49b4255ff723acafa1f2d94393f561d3eda32ae348f7241826040516117409190612a10565b60405180910390a250565b600080600860003373ffffffffffffffffffffffffffffffffffffffff1673ffffffffffffffffffffffffffffffffffffffff16815260200190815260200160002054426117999190612b43565b9050600063bbf81e0082600a600660008873ffffffffffffffffffffffffffffffffffffffff1673ffffffffffffffffffffffffffffffffffffffff168152602001908152602001600020546117ef9190612ae9565b6117f99190612ae9565b6118039190612ab8565b905080600760003373ffffffffffffffffffffffffffffffffffffffff1673ffffffffffffffffffffffffffffffffffffffff168152602001908152602001600020819055508092505050919050565b6000600160008473ffffffffffffffffffffffffffffffffffffffff1673ffffffffffffffffffffffffffffffffffffffff16815260200190815260200160002060008373ffffffffffffffffffffffffffffffffffffffff1673ffffffffffffffffffffffffffffffffffffffff16815260200190815260200160002054905092915050565b600a81565b6118e76119e9565b73ffffffffffffffffffffffffffffffffffffffff16611905610f50565b73ffffffffffffffffffffffffffffffffffffffff161461195b576040517f08c379a000000000000000000000000000000000000000000000000000000000815260040161195290612910565b60405180910390fd5b600073ffffffffffffffffffffffffffffffffffffffff168173ffffffffffffffffffffffffffffffffffffffff1614156119cb576040517f08c379a00000000000000000000000000000000000000000000000000000000081526004016119c290612810565b60405180910390fd5b6119d481612200565b50565b60006119e282610e1f565b9050919050565b600033905090565b600073ffffffffffffffffffffffffffffffffffffffff168373ffffffffffffffffffffffffffffffffffffffff161415611a61576040517f08c379a0000000000000000000000000000000000000000000000000000000008152600401611a5890612990565b60405180910390fd5b600073ffffffffffffffffffffffffffffffffffffffff168273ffffffffffffffffffffffffffffffffffffffff161415611ad1576040517f08c379a0000000000000000000000000000000000000000000000000000000008152600401611ac890612830565b60405180910390fd5b80600160008573ffffffffffffffffffffffffffffffffffffffff1673ffffffffffffffffffffffffffffffffffffffff16815260200190815260200160002060008473ffffffffffffffffffffffffffffffffffffffff1673ffffffffffffffffffffffffffffffffffffffff168152602001908152602001600020819055508173ffffffffffffffffffffffffffffffffffffffff168373ffffffffffffffffffffffffffffffffffffffff167f8c5be1e5ebec7d5bd14f71427d1e84f3dd0314c0f7b2291e5b200ac8c7c3b92583604051611baf9190612a10565b60405180910390a3505050565b6000611bc88484611853565b90507fffffffffffffffffffffffffffffffffffffffffffffffffffffffffffffffff8114611c425781811015611c34576040517f08c379a0000000000000000000000000000000000000000000000000000000008152600401611c2b90612850565b60405180910390fd5b611c4184848484036119f1565b5b50505050565b600073ffffffffffffffffffffffffffffffffffffffff168373ffffffffffffffffffffffffffffffffffffffff161415611cb8576040517f08c379a0000000000000000000000000000000000000000000000000000000008152600401611caf90612970565b60405180910390fd5b600073ffffffffffffffffffffffffffffffffffffffff168273ffffffffffffffffffffffffffffffffffffffff161415611d28576040517f08c379a0000000000000000000000000000000000000000000000000000000008152600401611d1f906127b0565b60405180910390fd5b611d338383836122c6565b60008060008573ffffffffffffffffffffffffffffffffffffffff1673ffffffffffffffffffffffffffffffffffffffff16815260200190815260200160002054905081811015611db9576040517f08c379a0000000000000000000000000000000000000000000000000000000008152600401611db090612890565b60405180910390fd5b8181036000808673ffffffffffffffffffffffffffffffffffffffff1673ffffffffffffffffffffffffffffffffffffffff16815260200190815260200160002081905550816000808573ffffffffffffffffffffffffffffffffffffffff1673ffffffffffffffffffffffffffffffffffffffff1681526020019081526020016000206000828254611e4c9190612a62565b925050819055508273ffffffffffffffffffffffffffffffffffffffff168473ffffffffffffffffffffffffffffffffffffffff167fddf252ad1be2c89b69c2b068fc378daa952ba7f163c4a11628f55a4df523b3ef84604051611eb09190612a10565b60405180910390a3611ec38484846122cb565b50505050565b600073ffffffffffffffffffffffffffffffffffffffff168273ffffffffffffffffffffffffffffffffffffffff161415611f39576040517f08c379a0000000000000000000000000000000000000000000000000000000008152600401611f30906129f0565b60405180910390fd5b611f45600083836122c6565b8060026000828254611f579190612a62565b92505081905550806000808473ffffffffffffffffffffffffffffffffffffffff1673ffffffffffffffffffffffffffffffffffffffff1681526020019081526020016000206000828254611fac9190612a62565b925050819055508173ffffffffffffffffffffffffffffffffffffffff16600073ffffffffffffffffffffffffffffffffffffffff167fddf252ad1be2c89b69c2b068fc378daa952ba7f163c4a11628f55a4df523b3ef836040516120119190612a10565b60405180910390a3612025600083836122cb565b5050565b600073ffffffffffffffffffffffffffffffffffffffff168273ffffffffffffffffffffffffffffffffffffffff161415612099576040517f08c379a000000000000000000000000000000000000000000000000000000000815260040161209090612950565b60405180910390fd5b6120a5826000836122c6565b60008060008473ffffffffffffffffffffffffffffffffffffffff1673ffffffffffffffffffffffffffffffffffffffff1681526020019081526020016000205490508181101561212b576040517f08c379a0000000000000000000000000000000000000000000000000000000008152600401612122906127d0565b60405180910390fd5b8181036000808573ffffffffffffffffffffffffffffffffffffffff1673ffffffffffffffffffffffffffffffffffffffff1681526020019081526020016000208190555081600260008282546121829190612b43565b92505081905550600073ffffffffffffffffffffffffffffffffffffffff168373ffffffffffffffffffffffffffffffffffffffff167fddf252ad1be2c89b69c2b068fc378daa952ba7f163c4a11628f55a4df523b3ef846040516121e79190612a10565b60405180910390a36121fb836000846122cb565b505050565b6000600560009054906101000a900473ffffffffffffffffffffffffffffffffffffffff16905081600560006101000a81548173ffffffffffffffffffffffffffffffffffffffff021916908373ffffffffffffffffffffffffffffffffffffffff1602179055508173ffffffffffffffffffffffffffffffffffffffff168173ffffffffffffffffffffffffffffffffffffffff167f8be0079c531659141344cd1fd0a4f28419497f9722a3daafe3b4186f6b6457e060405160405180910390a35050565b505050565b505050565b6000813590506122df81613156565b92915050565b6000813590506122f48161316d565b92915050565b60006020828403121561230c57600080fd5b600061231a848285016122d0565b91505092915050565b6000806040838503121561233657600080fd5b6000612344858286016122d0565b9250506020612355858286016122d0565b9150509250929050565b60008060006060848603121561237457600080fd5b6000612382868287016122d0565b9350506020612393868287016122d0565b92505060406123a4868287016122e5565b9150509250925092565b600080604083850312156123c157600080fd5b60006123cf858286016122d0565b92505060206123e0858286016122e5565b9150509250929050565b6000602082840312156123fc57600080fd5b600061240a848285016122e5565b91505092915050565b61241c81612b77565b82525050565b61242b81612b89565b82525050565b600061243c82612a46565b6124468185612a51565b9350612456818560208601612bcc565b61245f81612cbe565b840191505092915050565b6000612477602383612a51565b915061248282612ccf565b604082019050919050565b600061249a602283612a51565b91506124a582612d1e565b604082019050919050565b60006124bd601583612a51565b91506124c882612d6d565b602082019050919050565b60006124e0602683612a51565b91506124eb82612d96565b604082019050919050565b6000612503602283612a51565b915061250e82612de5565b604082019050919050565b6000612526601d83612a51565b915061253182612e34565b602082019050919050565b6000612549601d83612a51565b915061255482612e5d565b602082019050919050565b600061256c602683612a51565b915061257782612e86565b604082019050919050565b600061258f601483612a51565b915061259a82612ed5565b602082019050919050565b60006125b2601b83612a51565b91506125bd82612efe565b602082019050919050565b60006125d5601683612a51565b91506125e082612f27565b602082019050919050565b60006125f8602083612a51565b915061260382612f50565b602082019050919050565b600061261b601383612a51565b915061262682612f79565b602082019050919050565b600061263e602183612a51565b915061264982612fa2565b604082019050919050565b6000612661602583612a51565b915061266c82612ff1565b604082019050919050565b6000612684602483612a51565b915061268f82613040565b604082019050919050565b60006126a7602283612a51565b91506126b28261308f565b604082019050919050565b60006126ca602583612a51565b91506126d5826130de565b604082019050919050565b60006126ed601f83612a51565b91506126f88261312d565b602082019050919050565b61270c81612bb5565b82525050565b61271b81612bbf565b82525050565b60006020820190506127366000830184612413565b92915050565b60006060820190506127516000830186612413565b61275e6020830185612703565b61276b6040830184612703565b949350505050565b60006020820190506127886000830184612422565b92915050565b600060208201905081810360008301526127a88184612431565b905092915050565b600060208201905081810360008301526127c98161246a565b9050919050565b600060208201905081810360008301526127e98161248d565b9050919050565b60006020820190508181036000830152612809816124b0565b9050919050565b60006020820190508181036000830152612829816124d3565b9050919050565b60006020820190508181036000830152612849816124f6565b9050919050565b6000602082019050818103600083015261286981612519565b9050919050565b600060208201905081810360008301526128898161253c565b9050919050565b600060208201905081810360008301526128a98161255f565b9050919050565b600060208201905081810360008301526128c981612582565b9050919050565b600060208201905081810360008301526128e9816125a5565b9050919050565b60006020820190508181036000830152612909816125c8565b9050919050565b60006020820190508181036000830152612929816125eb565b9050919050565b600060208201905081810360008301526129498161260e565b9050919050565b6000602082019050818103600083015261296981612631565b9050919050565b6000602082019050818103600083015261298981612654565b9050919050565b600060208201905081810360008301526129a981612677565b9050919050565b600060208201905081810360008301526129c98161269a565b9050919050565b600060208201905081810360008301526129e9816126bd565b9050919050565b60006020820190508181036000830152612a09816126e0565b9050919050565b6000602082019050612a256000830184612703565b92915050565b6000602082019050612a406000830184612712565b92915050565b600081519050919050565b600082825260208201905092915050565b6000612a6d82612bb5565b9150612a7883612bb5565b9250827fffffffffffffffffffffffffffffffffffffffffffffffffffffffffffffffff03821115612aad57612aac612c31565b5b828201905092915050565b6000612ac382612bb5565b9150612ace83612bb5565b925082612ade57612add612c60565b5b828204905092915050565b6000612af482612bb5565b9150612aff83612bb5565b9250817fffffffffffffffffffffffffffffffffffffffffffffffffffffffffffffffff0483118215151615612b3857612b37612c31565b5b828202905092915050565b6000612b4e82612bb5565b9150612b5983612bb5565b925082821015612b6c57612b6b612c31565b5b828203905092915050565b6000612b8282612b95565b9050919050565b60008115159050919050565b600073ffffffffffffffffffffffffffffffffffffffff82169050919050565b6000819050919050565b600060ff82169050919050565b60005b83811015612bea578082015181840152602081019050612bcf565b83811115612bf9576000848401525b50505050565b60006002820490506001821680612c1757607f821691505b60208210811415612c2b57612c2a612c8f565b5b50919050565b7f4e487b7100000000000000000000000000000000000000000000000000000000600052601160045260246000fd5b7f4e487b7100000000000000000000000000000000000000000000000000000000600052601260045260246000fd5b7f4e487b7100000000000000000000000000000000000000000000000000000000600052602260045260246000fd5b6000601f19601f8301169050919050565b7f45524332303a207472616e7366657220746f20746865207a65726f206164647260008201527f6573730000000000000000000000000000000000000000000000000000000000602082015250565b7f45524332303a206275726e20616d6f756e7420657863656564732062616c616e60008201527f6365000000000000000000000000000000000000000000000000000000000000602082015250565b7f496e73756666696369656e74204554482073656e740000000000000000000000600082015250565b7f4f776e61626c653a206e6577206f776e657220697320746865207a65726f206160008201527f6464726573730000000000000000000000000000000000000000000000000000602082015250565b7f45524332303a20617070726f766520746f20746865207a65726f20616464726560008201527f7373000000000000000000000000000000000000000000000000000000000000602082015250565b7f45524332303a20696e73756666696369656e7420616c6c6f77616e6365000000600082015250565b7f416d6f756e74206d7573742062652067726561746572207468616e2030000000600082015250565b7f45524332303a207472616e7366657220616d6f756e742065786365656473206260008201527f616c616e63650000000000000000000000000000000000000000000000000000602082015250565b7f496e73756666696369656e742062616c616e6365000000000000000000000000600082015250565b7f496e73756666696369656e74207374616b65642062616c616e63650000000000600082015250565b7f4e6f207265776172647320746f20776974686472617700000000000000000000600082015250565b7f4f776e61626c653a2063616c6c6572206973206e6f7420746865206f776e6572600082015250565b7f4e6f2072657761726420617661696c61626c6500000000000000000000000000600082015250565b7f45524332303a206275726e2066726f6d20746865207a65726f2061646472657360008201527f7300000000000000000000000000000000000000000000000000000000000000602082015250565b7f45524332303a207472616e736665722066726f6d20746865207a65726f20616460008201527f6472657373000000000000000000000000000000000000000000000000000000602082015250565b7f45524332303a20617070726f76652066726f6d20746865207a65726f2061646460008201527f7265737300000000000000000000000000000000000000000000000000000000602082015250565b7f746f6b656e73546f427579206d7573742062652067726561746572207468616e60008201527f2030000000000000000000000000000000000000000000000000000000000000602082015250565b7f45524332303a2064656372656173656420616c6c6f77616e63652062656c6f7760008201527f207a65726f000000000000000000000000000000000000000000000000000000602082015250565b7f45524332303a206d696e7420746f20746865207a65726f206164647265737300600082015250565b61315f81612b77565b811461316a57600080fd5b50565b61317681612bb5565b811461318157600080fd5b5056fea2646970667358221220359cfd69202571a442d07e13454aaada872936e211f06583f5ebcd1372f1e98f64736f6c63430008040033",
  "immutableReferences": {},
  "source": "\r\npragma solidity ^0.8.4;\r\n\r\n\r\n// SPDX-License-Identifier: MIT\r\nimport \"@openzeppelin/contracts/token/ERC20/ERC20.sol\";\r\nimport \"@openzeppelin/contracts/token/ERC721/ERC721.sol\";\r\nimport \"@openzeppelin/contracts/access/Ownable.sol\";\r\n\r\n\r\n\r\ncontract PigCoin is ERC20, Ownable {\r\n\r\n\r\n    //uint256 public constant MAX_SUPPLY = 1000000 * 10**18; // Max total supply of Chemicoins\r\n    mapping(address => uint256) public stakingBalance;\r\n    mapping(address => uint256) public rewardsBalance;\r\n    mapping(address => uint256) public lastRewardClaimTime;\r\n\r\n    event Mint(address indexed to, uint256 amount);\r\n    event Burn(address indexed from, uint256 amount);\r\n    event Staked(address indexed staker, uint256 amount);\r\n    event Unstaked(address indexed staker, uint256 amount);\r\n    event RewardClaimed(address indexed staker, uint256 amount);\r\n    // Evento para registrar la compra de tokens\r\n    event TokensPurchased(address buyer, uint256 amount, uint256 tokensReceived);\r\n\r\n    constructor() ERC20('PigCoin', 'PIG') {\r\n    \r\n        _mint(address(this), 10000000000000);\r\n    }\r\n\r\n\r\n    function decimals() public pure override returns (uint8) {\r\n        return 0;\r\n    }\r\n\r\n    // Visualizacion del balance de tokens ERC-20 de un usuario\r\n    function balanceTokens(address _account) public view returns (uint256){\r\n        return balanceOf(_account);\r\n    }\r\n    \r\n        // Visualizacion del balance de tokens ERC-20 del Smart Contract\r\n    function balanceTokensSC() public view returns (uint256){\r\n        return balanceOf(address(this));\r\n    }\r\n\r\n    function mint(address to, uint256 amount) external onlyOwner {\r\n        //require((totalSupply() + amount) <= MAX_SUPPLY, \"Exceeds max supply\");\r\n        _mint(to, amount);\r\n        emit Mint(to, amount);\r\n    }\r\n\r\n    function burn(uint256 amount) external payable {\r\n        _burn(msg.sender, amount);\r\n        emit Burn(msg.sender, amount);\r\n    }\r\n\r\n    // Funcin para que los usuarios compren tokens\r\n    function buyTokens(uint256 tokensToBuy) public payable {\r\n        require(tokensToBuy > 0, \"tokensToBuy must be greater than 0\");\r\n\r\n        // Calcular el monto de ETH necesario para comprar los tokens (0.01 ETH por token)\r\n        uint256 amount = tokensToBuy * 1 ether / 100;\r\n\r\n        // Verificar si se ha enviado suficiente ETH\r\n        require(msg.value >= amount, \"Insufficient ETH sent\");\r\n\r\n        // Transferir ETH al contrato\r\n        payable(address(this)).transfer(amount);\r\n\r\n        // Transferir tokens al comprador\r\n        _transfer(address(this), msg.sender, tokensToBuy);\r\n    }\r\n\r\n    // Funcin para que los usuarios compren tokens\r\n    function buyTokens2() public payable {\r\n        // Calcular el monto de ETH necesario para comprar un token (0.01 ETH por token)\r\n        uint256 tokenPrice = 0.01 ether;\r\n    \r\n        // Calcular la cantidad de tokens que se comprarn en funcin del valor de msg.value\r\n        uint256 tokensToBuy = msg.value / tokenPrice;\r\n    \r\n        // Verificar si se ha enviado suficiente ETH para comprar al menos un token\r\n        require(tokensToBuy > 0, \"Insufficient ETH sent\");\r\n\r\n        // Transferir tokens al comprador\r\n        _transfer(address(this), msg.sender, tokensToBuy);\r\n    }\r\n\r\n    // Funcin para que los usuarios compren tokens\r\n    function buyTokens3() external payable {\r\n        // Obtiene el monto de ETH enviado por el comprador\r\n        uint256 ethAmount = msg.value;\r\n    \r\n        // Calcula la cantidad de tokens a recibir (por ejemplo, 1 ETH = 100 tokens)\r\n        uint256 tokenAmount = ethAmount * 100; // Suponiendo que 1 ETH equivale a 100 tokens\r\n\r\n        // Transfiere los tokens al comprador\r\n        payable(msg.sender).transfer(tokenAmount);\r\n\r\n        // Emite el evento\r\n        emit TokensPurchased(msg.sender, ethAmount, tokenAmount);\r\n    }\r\n\r\n      function stake(uint256 amount) external {\r\n        require(amount > 0, \"Amount must be greater than 0\");\r\n        require(balanceOf(msg.sender) >= amount, \"Insufficient balance\");\r\n        // Actualizar el tiempo del ltimo stake del 'msg.sender'\r\n        lastRewardClaimTime[msg.sender] = block.timestamp;\r\n        stakingBalance[msg.sender] = stakingBalance[msg.sender] + amount; //.add(amount);\r\n        _transfer(msg.sender, address(this), amount);\r\n        emit Staked(msg.sender, amount);\r\n    }\r\n\r\nfunction unstake(uint256 amount) external {\r\n    require(amount > 0, \"Amount must be greater than 0\");\r\n    require(stakingBalance[msg.sender] >= amount, \"Insufficient staked balance\");\r\n    \r\n    // Restar la cantidad 'amount' del balance de staking del 'msg.sender'\r\n    stakingBalance[msg.sender] -= amount;\r\n    \r\n    // Transferir la cantidad 'amount' de tokens desde el contrato al 'msg.sender'\r\n    _transfer(address(this), msg.sender, amount);\r\n    \r\n    emit Unstaked(msg.sender, amount);\r\n}\r\n\r\nuint256 constant public APY = 10; // 10% APY\r\n\r\n// Funcin para reclamar recompensa\r\nfunction claimReward() external {\r\n    require(lastRewardClaimTime[msg.sender] != 0, \"No reward available\");\r\n    \r\n    uint256 timeElapsed = block.timestamp - lastRewardClaimTime[msg.sender];\r\n    uint256 reward = stakingBalance[msg.sender] * timeElapsed * APY / (365 days); // Calcular recompensa basada en tiempo y APY\r\n    rewardsBalance[msg.sender] += reward;\r\n    lastRewardClaimTime[msg.sender] = block.timestamp; // Actualizar el tiempo de la ltima reclamacin\r\n    \r\n    emit RewardClaimed(msg.sender, reward);\r\n}\r\n\r\n    // Funcin para retirar recompensa\r\n    function withdrawReward() public payable {\r\n        require(stakingBalance[msg.sender] > 0, \"No rewards to withdraw\");\r\n        require(block.timestamp > lastRewardClaimTime[msg.sender], \"No rewards to withdraw\");\r\n    \r\n        uint256 reward = calculateReward(msg.sender);\r\n        rewardsBalance[msg.sender] = 0; // Establecer el balance de recompensas en cero\r\n    \r\n        // Actualizar el tiempo de la ltima reclamacin\r\n        lastRewardClaimTime[msg.sender] = block.timestamp;\r\n    \r\n        // Transferir la cantidad de tokens de recompensa desde el contrato al msg.sender\r\n        _transfer(address(this), msg.sender, reward);\r\n    \r\n        emit RewardClaimed(msg.sender, reward);\r\n    }\r\n\r\n\r\n    function calculateReward(address account) public returns (uint256) {\r\n        uint256 timeElapsed = block.timestamp - lastRewardClaimTime[msg.sender];\r\n        uint256 reward = (stakingBalance[account] * APY * timeElapsed) / (365 * 24 * 60 * 60 * 100); // APY * timeElapsed / 365 days\r\n        rewardsBalance[msg.sender] = reward;\r\n        return uint256(reward);\r\n    }\r\n\r\n    // Funcin para obtener el saldo de tokens en staking de un usuario\r\n    function getStakingBalance(address account) public view returns (uint256) {\r\n        return stakingBalance[account];\r\n    }\r\n\r\n    // Funcin para obtener el saldo de recompensas acumuladas de un usuario\r\n    function getRewardsBalance(address account) public view returns (uint256) {\r\n        return rewardsBalance[account];\r\n    }\r\n    \r\n    receive() external payable {\r\n        // Funcin de respaldo para aceptar Ether\r\n    }\r\n\r\n}\r\n\r\nimport \"@openzeppelin/contracts/token/ERC20/ERC20.sol\";\r\nimport \"@openzeppelin/contracts/token/ERC721/ERC721.sol\";\r\nimport \"@openzeppelin/contracts/token/ERC721/extensions/ERC721URIStorage.sol\";\r\nimport \"@openzeppelin/contracts/access/Ownable.sol\";\r\nimport \"@openzeppelin/contracts/utils/Counters.sol\";\r\n\r\ncontract MyNFT is ERC721URIStorage, Ownable {\r\n    using Counters for Counters.Counter;\r\n\r\n    Counters.Counter private _tokenIdCounter;\r\n\r\n    constructor() ERC721(\"MyNFT\", \"MNFT\") {}\r\n\r\n    function mintNFT(address to, string memory tokenURI) external onlyOwner returns (uint256) {\r\n        uint256 newTokenId = _tokenIdCounter.current();\r\n        _safeMint(to, newTokenId);\r\n        _setTokenURI(newTokenId, tokenURI);\r\n        _tokenIdCounter.increment();\r\n        return newTokenId;\r\n    }\r\n}",
  "sourcePath": "C:\\Users\\jcord\\Documents\\Master_BC\\PigCoinsNFTs\\src\\contracts\\PigCoin.sol",
  "compiler": {
    "name": "solc",
    "version": "0.8.4+commit.c7e474f2.Emscripten.clang"
  },
  "schemaVersion": "3.4.16",
  "updatedAt": "2024-04-18T10:48:28.654Z",
  "devdoc": {
    "kind": "dev",
    "methods": {
      "allowance(address,address)": {
        "details": "See {IERC20-allowance}."
      },
      "approve(address,uint256)": {
        "details": "See {IERC20-approve}. NOTE: If `amount` is the maximum `uint256`, the allowance is not updated on `transferFrom`. This is semantically equivalent to an infinite approval. Requirements: - `spender` cannot be the zero address."
      },
      "balanceOf(address)": {
        "details": "See {IERC20-balanceOf}."
      },
      "decimals()": {
        "details": "Returns the number of decimals used to get its user representation. For example, if `decimals` equals `2`, a balance of `505` tokens should be displayed to a user as `5.05` (`505 / 10 ** 2`). Tokens usually opt for a value of 18, imitating the relationship between Ether and Wei. This is the value {ERC20} uses, unless this function is overridden; NOTE: This information is only used for _display_ purposes: it in no way affects any of the arithmetic of the contract, including {IERC20-balanceOf} and {IERC20-transfer}."
      },
      "decreaseAllowance(address,uint256)": {
        "details": "Atomically decreases the allowance granted to `spender` by the caller. This is an alternative to {approve} that can be used as a mitigation for problems described in {IERC20-approve}. Emits an {Approval} event indicating the updated allowance. Requirements: - `spender` cannot be the zero address. - `spender` must have allowance for the caller of at least `subtractedValue`."
      },
      "increaseAllowance(address,uint256)": {
        "details": "Atomically increases the allowance granted to `spender` by the caller. This is an alternative to {approve} that can be used as a mitigation for problems described in {IERC20-approve}. Emits an {Approval} event indicating the updated allowance. Requirements: - `spender` cannot be the zero address."
      },
      "name()": {
        "details": "Returns the name of the token."
      },
      "owner()": {
        "details": "Returns the address of the current owner."
      },
      "renounceOwnership()": {
        "details": "Leaves the contract without owner. It will not be possible to call `onlyOwner` functions anymore. Can only be called by the current owner. NOTE: Renouncing ownership will leave the contract without an owner, thereby removing any functionality that is only available to the owner."
      },
      "symbol()": {
        "details": "Returns the symbol of the token, usually a shorter version of the name."
      },
      "totalSupply()": {
        "details": "See {IERC20-totalSupply}."
      },
      "transfer(address,uint256)": {
        "details": "See {IERC20-transfer}. Requirements: - `to` cannot be the zero address. - the caller must have a balance of at least `amount`."
      },
      "transferFrom(address,address,uint256)": {
        "details": "See {IERC20-transferFrom}. Emits an {Approval} event indicating the updated allowance. This is not required by the EIP. See the note at the beginning of {ERC20}. NOTE: Does not update the allowance if the current allowance is the maximum `uint256`. Requirements: - `from` and `to` cannot be the zero address. - `from` must have a balance of at least `amount`. - the caller must have allowance for ``from``'s tokens of at least `amount`."
      },
      "transferOwnership(address)": {
        "details": "Transfers ownership of the contract to a new account (`newOwner`). Can only be called by the current owner."
      }
    },
    "version": 1
  },
  "userdoc": {
    "kind": "user",
    "methods": {},
    "version": 1
  }
}