{
  "contractName": "SlotMachine",
  "abi": [
    {
      "inputs": [
        {
          "internalType": "address",
          "name": "",
          "type": "address"
        }
      ],
      "name": "winnings",
      "outputs": [
        {
          "internalType": "uint256",
          "name": "",
          "type": "uint256"
        }
      ],
      "stateMutability": "view",
      "type": "function",
      "constant": true
    },
    {
      "inputs": [],
      "name": "spin",
      "outputs": [],
      "stateMutability": "nonpayable",
      "type": "function"
    },
    {
      "inputs": [],
      "name": "withdraw",
      "outputs": [],
      "stateMutability": "nonpayable",
      "type": "function"
    }
  ],
  "bytecode": "0x608060405234801561001057600080fd5b50610326806100206000396000f3fe608060405234801561001057600080fd5b50600436106100415760003560e01c80633ccfd60b14610046578063ea3a149914610050578063f0acd7d514610080575b600080fd5b61004e61008a565b005b61006a600480360381019061006591906101cd565b61019e565b6040516100779190610248565b60405180910390f35b6100886101b6565b005b60008060003373ffffffffffffffffffffffffffffffffffffffff1673ffffffffffffffffffffffffffffffffffffffff16815260200190815260200160002054905060008111610110576040517f08c379a000000000000000000000000000000000000000000000000000000000815260040161010790610228565b60405180910390fd5b60008060003373ffffffffffffffffffffffffffffffffffffffff1673ffffffffffffffffffffffffffffffffffffffff168152602001908152602001600020819055503373ffffffffffffffffffffffffffffffffffffffff166108fc829081150290604051600060405180830381858888f1935050505015801561019a573d6000803e3d6000fd5b5050565b60006020528060005260406000206000915090505481565b565b6000813590506101c7816102d9565b92915050565b6000602082840312156101df57600080fd5b60006101ed848285016101b8565b91505092915050565b6000610203601783610263565b915061020e826102b0565b602082019050919050565b610222816102a6565b82525050565b60006020820190508181036000830152610241816101f6565b9050919050565b600060208201905061025d6000830184610219565b92915050565b600082825260208201905092915050565b600061027f82610286565b9050919050565b600073ffffffffffffffffffffffffffffffffffffffff82169050919050565b6000819050919050565b7f4e6f2077696e6e696e677320746f207769746864726177000000000000000000600082015250565b6102e281610274565b81146102ed57600080fd5b5056fea264697066735822122030479359c85532ae9e6d748f5a5dc942d3483529f41276d735f9e486dba81acd64736f6c63430008040033",
  "immutableReferences": {},
  "source": "// SPDX-License-Identifier: MIT\r\npragma solidity ^0.8.4;\r\n\r\ncontract SlotMachine {\r\n    mapping(address => uint256) public winnings;\r\n\r\n    function spin() external {\r\n        // Lógica de juego - se puede implementar aquí o llamar a una función en el frontend\r\n        // Actualmente, esta función no hace nada relacionado con el juego\r\n    }\r\n\r\n    function withdraw() external {\r\n        uint256 amount = winnings[msg.sender];\r\n        require(amount > 0, \"No winnings to withdraw\");\r\n        winnings[msg.sender] = 0;\r\n        payable(msg.sender).transfer(amount);\r\n    }\r\n}\r\n",
  "sourcePath": "C:\\Users\\jcord\\Documents\\Master_BC\\PigCoinsNFTs\\src\\contracts\\slotMachine.sol",
  "compiler": {
    "name": "solc",
    "version": "0.8.4+commit.c7e474f2.Emscripten.clang"
  },
  "schemaVersion": "3.4.16",
  "updatedAt": "2024-05-02T08:56:07.805Z",
  "networkType": "ethereum",
  "devdoc": {
    "kind": "dev",
    "methods": {},
    "version": 1
  },
  "userdoc": {
    "kind": "user",
    "methods": {},
    "version": 1
  }
}