{
  "contractName": "trazabilidad",
  "abi": [
    {
      "anonymous": false,
      "inputs": [
        {
          "indexed": true,
          "internalType": "uint256",
          "name": "idAnimal",
          "type": "uint256"
        },
        {
          "indexed": true,
          "internalType": "address",
          "name": "propietarioAnterior",
          "type": "address"
        },
        {
          "indexed": true,
          "internalType": "address",
          "name": "nuevoPropietario",
          "type": "address"
        }
      ],
      "name": "TransferenciaPropiedad",
      "type": "event"
    },
    {
      "inputs": [
        {
          "internalType": "uint256",
          "name": "",
          "type": "uint256"
        }
      ],
      "name": "animales",
      "outputs": [
        {
          "internalType": "uint256",
          "name": "id",
          "type": "uint256"
        },
        {
          "internalType": "string",
          "name": "nombre",
          "type": "string"
        },
        {
          "internalType": "string",
          "name": "raza",
          "type": "string"
        },
        {
          "internalType": "string",
          "name": "fechaNacimiento",
          "type": "string"
        },
        {
          "internalType": "address",
          "name": "propietarioActual",
          "type": "address"
        }
      ],
      "stateMutability": "view",
      "type": "function",
      "constant": true
    },
    {
      "inputs": [],
      "name": "totalAnimales",
      "outputs": [
        {
          "internalType": "uint256",
          "name": "",
          "type": "uint256"
        }
      ],
      "stateMutability": "view",
      "type": "function",
      "constant": true
    },
    {
      "inputs": [
        {
          "internalType": "uint256",
          "name": "_identifier",
          "type": "uint256"
        },
        {
          "internalType": "string",
          "name": "_nombre",
          "type": "string"
        },
        {
          "internalType": "string",
          "name": "_raza",
          "type": "string"
        },
        {
          "internalType": "string",
          "name": "_fechaNacimiento",
          "type": "string"
        }
      ],
      "name": "registrarAnimal",
      "outputs": [],
      "stateMutability": "nonpayable",
      "type": "function"
    },
    {
      "inputs": [
        {
          "internalType": "uint256",
          "name": "_idAnimal",
          "type": "uint256"
        },
        {
          "internalType": "address",
          "name": "_nuevoPropietario",
          "type": "address"
        }
      ],
      "name": "transferirPropiedad",
      "outputs": [],
      "stateMutability": "nonpayable",
      "type": "function"
    },
    {
      "inputs": [
        {
          "internalType": "uint256",
          "name": "_idAnimal",
          "type": "uint256"
        }
      ],
      "name": "obtenerHistorial",
      "outputs": [
        {
          "internalType": "address[]",
          "name": "",
          "type": "address[]"
        }
      ],
      "stateMutability": "view",
      "type": "function",
      "constant": true
    },
    {
      "inputs": [
        {
          "internalType": "uint256",
          "name": "_idAnimal",
          "type": "uint256"
        }
      ],
      "name": "obtenerAnimal",
      "outputs": [
        {
          "internalType": "string",
          "name": "",
          "type": "string"
        },
        {
          "internalType": "string",
          "name": "",
          "type": "string"
        },
        {
          "internalType": "string",
          "name": "",
          "type": "string"
        },
        {
          "internalType": "address",
          "name": "",
          "type": "address"
        }
      ],
      "stateMutability": "view",
      "type": "function",
      "constant": true
    }
  ],
  "bytecode": "0x608060405234801561001057600080fd5b50611319806100206000396000f3fe608060405234801561001057600080fd5b50600436106100625760003560e01c806301233572146100675780631a6cb1c81461009a57806392b9c514146100ca578063996439d7146100e8578063ac6131b614610104578063e23e2b5714610138575b600080fd5b610081600480360381019061007c9190610bed565b610154565b6040516100919493929190610e64565b60405180910390f35b6100b460048036038101906100af9190610bed565b6103da565b6040516100c19190610e42565b60405180910390f35b6100d26104c2565b6040516100df9190610f1e565b60405180910390f35b61010260048036038101906100fd9190610c16565b6104c8565b005b61011e60048036038101906101199190610bed565b610694565b60405161012f959493929190610f39565b60405180910390f35b610152600480360381019061014d9190610c52565b610882565b005b606080606060008460008087815260200190815260200160002060000154146101b2576040517f08c379a00000000000000000000000000000000000000000000000000000000081526004016101a990610efe565b60405180910390fd5b60008086815260200190815260200160002060010160008087815260200190815260200160002060020160008088815260200190815260200160002060030160008089815260200190815260200160002060040160009054906101000a900473ffffffffffffffffffffffffffffffffffffffff16838054610233906110ca565b80601f016020809104026020016040519081016040528092919081815260200182805461025f906110ca565b80156102ac5780601f10610281576101008083540402835291602001916102ac565b820191906000526020600020905b81548152906001019060200180831161028f57829003601f168201915b505050505093508280546102bf906110ca565b80601f01602080910402602001604051908101604052809291908181526020018280546102eb906110ca565b80156103385780601f1061030d57610100808354040283529160200191610338565b820191906000526020600020905b81548152906001019060200180831161031b57829003601f168201915b5050505050925081805461034b906110ca565b80601f0160208091040260200160405190810160405280929190818152602001828054610377906110ca565b80156103c45780601f10610399576101008083540402835291602001916103c4565b820191906000526020600020905b8154815290600101906020018083116103a757829003601f168201915b5050505050915093509350935093509193509193565b6060600154821115610421576040517f08c379a000000000000000000000000000000000000000000000000000000000815260040161041890610ede565b60405180910390fd5b6000808381526020019081526020016000206005018054806020026020016040519081016040528092919081815260200182805480156104b657602002820191906000526020600020905b8160009054906101000a900473ffffffffffffffffffffffffffffffffffffffff1673ffffffffffffffffffffffffffffffffffffffff168152602001906001019080831161046c575b50505050509050919050565b60015481565b60008083815260200190815260200160002060040160009054906101000a900473ffffffffffffffffffffffffffffffffffffffff1673ffffffffffffffffffffffffffffffffffffffff163373ffffffffffffffffffffffffffffffffffffffff161461056b576040517f08c379a000000000000000000000000000000000000000000000000000000000815260040161056290610ebe565b60405180910390fd5b8060008084815260200190815260200160002060040160006101000a81548173ffffffffffffffffffffffffffffffffffffffff021916908373ffffffffffffffffffffffffffffffffffffffff160217905550600080838152602001908152602001600020600501339080600181540180825580915050600190039060005260206000200160009091909190916101000a81548173ffffffffffffffffffffffffffffffffffffffff021916908373ffffffffffffffffffffffffffffffffffffffff1602179055508073ffffffffffffffffffffffffffffffffffffffff163373ffffffffffffffffffffffffffffffffffffffff16837f54f36c956cf8e5ca89778a0143c8eeabba9a3e34f1345ee14b59a464e8bb0a3660405160405180910390a45050565b60006020528060005260406000206000915090508060000154908060010180546106bd906110ca565b80601f01602080910402602001604051908101604052809291908181526020018280546106e9906110ca565b80156107365780601f1061070b57610100808354040283529160200191610736565b820191906000526020600020905b81548152906001019060200180831161071957829003601f168201915b50505050509080600201805461074b906110ca565b80601f0160208091040260200160405190810160405280929190818152602001828054610777906110ca565b80156107c45780601f10610799576101008083540402835291602001916107c4565b820191906000526020600020905b8154815290600101906020018083116107a757829003601f168201915b5050505050908060030180546107d9906110ca565b80601f0160208091040260200160405190810160405280929190818152602001828054610805906110ca565b80156108525780601f1061082757610100808354040283529160200191610852565b820191906000526020600020905b81548152906001019060200180831161083557829003601f168201915b5050505050908060040160009054906101000a900473ffffffffffffffffffffffffffffffffffffffff16905085565b600160008154809291906108959061112d565b91905055506040518060c001604052808581526020018481526020018381526020018281526020013373ffffffffffffffffffffffffffffffffffffffff168152602001600067ffffffffffffffff81111561091a577f4e487b7100000000000000000000000000000000000000000000000000000000600052604160045260246000fd5b6040519080825280602002602001820160405280156109485781602001602082028036833780820191505090505b508152506000806001548152602001908152602001600020600082015181600001556020820151816001019080519060200190610986929190610a2e565b5060408201518160020190805190602001906109a3929190610a2e565b5060608201518160030190805190602001906109c0929190610a2e565b5060808201518160040160006101000a81548173ffffffffffffffffffffffffffffffffffffffff021916908373ffffffffffffffffffffffffffffffffffffffff16021790555060a0820151816005019080519060200190610a24929190610ab4565b5090505050505050565b828054610a3a906110ca565b90600052602060002090601f016020900481019282610a5c5760008555610aa3565b82601f10610a7557805160ff1916838001178555610aa3565b82800160010185558215610aa3579182015b82811115610aa2578251825591602001919060010190610a87565b5b509050610ab09190610b3e565b5090565b828054828255906000526020600020908101928215610b2d579160200282015b82811115610b2c5782518260006101000a81548173ffffffffffffffffffffffffffffffffffffffff021916908373ffffffffffffffffffffffffffffffffffffffff16021790555091602001919060010190610ad4565b5b509050610b3a9190610b3e565b5090565b5b80821115610b57576000816000905550600101610b3f565b5090565b6000610b6e610b6984610fc6565b610fa1565b905082815260208101848484011115610b8657600080fd5b610b91848285611088565b509392505050565b600081359050610ba8816112b5565b92915050565b600082601f830112610bbf57600080fd5b8135610bcf848260208601610b5b565b91505092915050565b600081359050610be7816112cc565b92915050565b600060208284031215610bff57600080fd5b6000610c0d84828501610bd8565b91505092915050565b60008060408385031215610c2957600080fd5b6000610c3785828601610bd8565b9250506020610c4885828601610b99565b9150509250929050565b60008060008060808587031215610c6857600080fd5b6000610c7687828801610bd8565b945050602085013567ffffffffffffffff811115610c9357600080fd5b610c9f87828801610bae565b935050604085013567ffffffffffffffff811115610cbc57600080fd5b610cc887828801610bae565b925050606085013567ffffffffffffffff811115610ce557600080fd5b610cf187828801610bae565b91505092959194509250565b6000610d098383610d15565b60208301905092915050565b610d1e8161104c565b82525050565b610d2d8161104c565b82525050565b6000610d3e82611007565b610d48818561102a565b9350610d5383610ff7565b8060005b83811015610d84578151610d6b8882610cfd565b9750610d768361101d565b925050600181019050610d57565b5085935050505092915050565b6000610d9c82611012565b610da6818561103b565b9350610db6818560208601611097565b610dbf81611203565b840191505092915050565b6000610dd7602c8361103b565b9150610de282611214565b604082019050919050565b6000610dfa601a8361103b565b9150610e0582611263565b602082019050919050565b6000610e1d60148361103b565b9150610e288261128c565b602082019050919050565b610e3c8161107e565b82525050565b60006020820190508181036000830152610e5c8184610d33565b905092915050565b60006080820190508181036000830152610e7e8187610d91565b90508181036020830152610e928186610d91565b90508181036040830152610ea68185610d91565b9050610eb56060830184610d24565b95945050505050565b60006020820190508181036000830152610ed781610dca565b9050919050565b60006020820190508181036000830152610ef781610ded565b9050919050565b60006020820190508181036000830152610f1781610e10565b9050919050565b6000602082019050610f336000830184610e33565b92915050565b600060a082019050610f4e6000830188610e33565b8181036020830152610f608187610d91565b90508181036040830152610f748186610d91565b90508181036060830152610f888185610d91565b9050610f976080830184610d24565b9695505050505050565b6000610fab610fbc565b9050610fb782826110fc565b919050565b6000604051905090565b600067ffffffffffffffff821115610fe157610fe06111d4565b5b610fea82611203565b9050602081019050919050565b6000819050602082019050919050565b600081519050919050565b600081519050919050565b6000602082019050919050565b600082825260208201905092915050565b600082825260208201905092915050565b60006110578261105e565b9050919050565b600073ffffffffffffffffffffffffffffffffffffffff82169050919050565b6000819050919050565b82818337600083830152505050565b60005b838110156110b557808201518184015260208101905061109a565b838111156110c4576000848401525b50505050565b600060028204905060018216806110e257607f821691505b602082108114156110f6576110f56111a5565b5b50919050565b61110582611203565b810181811067ffffffffffffffff82111715611124576111236111d4565b5b80604052505050565b60006111388261107e565b91507fffffffffffffffffffffffffffffffffffffffffffffffffffffffffffffffff82141561116b5761116a611176565b5b600182019050919050565b7f4e487b7100000000000000000000000000000000000000000000000000000000600052601160045260246000fd5b7f4e487b7100000000000000000000000000000000000000000000000000000000600052602260045260246000fd5b7f4e487b7100000000000000000000000000000000000000000000000000000000600052604160045260246000fd5b6000601f19601f8301169050919050565b7f4e6f206572657320656c2070726f706965746172696f2061637475616c20646560008201527f206573746520616e696d616c0000000000000000000000000000000000000000602082015250565b7f456c2049442064656c20616e696d616c206e6f20657869737465000000000000600082015250565b7f416e696d616c206e6f207265676973747261646f000000000000000000000000600082015250565b6112be8161104c565b81146112c957600080fd5b50565b6112d58161107e565b81146112e057600080fd5b5056fea2646970667358221220cfdd4e6ceaf61a8623f864059ee7aab1e5cfe563fd92bd4422179764da4fbe5564736f6c63430008040033",
  "immutableReferences": {},
  "source": "// SPDX-License-Identifier: MIT\r\npragma solidity ^0.8.4;\r\n\r\ncontract trazabilidad {\r\n    // Estructura para representar un animal\r\n    struct Animal {\r\n        uint id;\r\n        string nombre;\r\n        string raza;\r\n        string fechaNacimiento;\r\n        address propietarioActual;\r\n        address[] historialPropietarios;\r\n    }\r\n    \r\n    // Mapeo de ID de animal a su informacin\r\n    mapping(uint => Animal) public animales;\r\n    uint public totalAnimales;\r\n\r\n    // Evento que se emite cuando un animal cambia de propietario\r\n    event TransferenciaPropiedad(uint indexed idAnimal, address indexed propietarioAnterior, address indexed nuevoPropietario);\r\n\r\n    // Funcin para registrar un nuevo animal\r\n    function registrarAnimal(uint256 _identifier, string memory _nombre, string memory _raza, string memory _fechaNacimiento) public {\r\n        totalAnimales++;\r\n        animales[totalAnimales] = Animal(_identifier, _nombre, _raza, _fechaNacimiento, msg.sender, new address[](0));\r\n    }\r\n\r\n    // Funcin para transferir la propiedad de un animal\r\n    function transferirPropiedad(uint _idAnimal, address _nuevoPropietario) public {\r\n        require(msg.sender == animales[_idAnimal].propietarioActual, \"No eres el propietario actual de este animal\");\r\n        animales[_idAnimal].propietarioActual = _nuevoPropietario;\r\n        animales[_idAnimal].historialPropietarios.push(msg.sender);\r\n        emit TransferenciaPropiedad(_idAnimal, msg.sender, _nuevoPropietario);\r\n    }\r\n\r\n    // Funcin para obtener el historial de un animal por su ID\r\n    function obtenerHistorial(uint _idAnimal) public view returns (address[] memory) {\r\n        require(_idAnimal <= totalAnimales, \"El ID del animal no existe\");\r\n        return animales[_idAnimal].historialPropietarios;\r\n    }\r\n    \r\n    function obtenerAnimal(uint256 _idAnimal) public view returns (string memory, string memory, string memory, address) {\r\n    require(animales[_idAnimal].id == _idAnimal, \"Animal no registrado\");\r\n    return (\r\n        animales[_idAnimal].nombre,\r\n        animales[_idAnimal].raza,\r\n        animales[_idAnimal].fechaNacimiento,\r\n        animales[_idAnimal].propietarioActual\r\n    );\r\n}\r\n\r\n}\r\n",
  "sourcePath": "C:\\Users\\jcord\\Documents\\Master_BC\\PigCoinsNFTs\\src\\contracts\\trazabilidad.sol",
  "compiler": {
    "name": "solc",
    "version": "0.8.4+commit.c7e474f2.Emscripten.clang"
  },
  "schemaVersion": "3.4.16",
  "updatedAt": "2024-05-02T15:58:19.266Z",
  "networkType": "ethereum",
  "devdoc": {
    "kind": "dev",
    "methods": {},
    "version": 1
  },
  "userdoc": {
    "kind": "user",
    "methods": {},
    "version": 1
  }
}