{
  "contractName": "trazabilidad",
  "abi": [
    {
      "anonymous": false,
      "inputs": [
        {
          "indexed": true,
          "internalType": "uint256",
          "name": "idAnimal",
          "type": "uint256"
        },
        {
          "indexed": true,
          "internalType": "address",
          "name": "propietarioAnterior",
          "type": "address"
        },
        {
          "indexed": true,
          "internalType": "address",
          "name": "nuevoPropietario",
          "type": "address"
        }
      ],
      "name": "TransferenciaPropiedad",
      "type": "event"
    },
    {
      "inputs": [
        {
          "internalType": "uint256",
          "name": "",
          "type": "uint256"
        }
      ],
      "name": "animales",
      "outputs": [
        {
          "internalType": "uint256",
          "name": "id",
          "type": "uint256"
        },
        {
          "internalType": "string",
          "name": "nombre",
          "type": "string"
        },
        {
          "internalType": "string",
          "name": "raza",
          "type": "string"
        },
        {
          "internalType": "string",
          "name": "fechaNacimiento",
          "type": "string"
        },
        {
          "internalType": "address",
          "name": "propietarioActual",
          "type": "address"
        }
      ],
      "stateMutability": "view",
      "type": "function",
      "constant": true
    },
    {
      "inputs": [],
      "name": "totalAnimales",
      "outputs": [
        {
          "internalType": "uint256",
          "name": "",
          "type": "uint256"
        }
      ],
      "stateMutability": "view",
      "type": "function",
      "constant": true
    },
    {
      "inputs": [
        {
          "internalType": "uint256",
          "name": "_identifier",
          "type": "uint256"
        },
        {
          "internalType": "string",
          "name": "_nombre",
          "type": "string"
        },
        {
          "internalType": "string",
          "name": "_raza",
          "type": "string"
        },
        {
          "internalType": "string",
          "name": "_fechaNacimiento",
          "type": "string"
        }
      ],
      "name": "registrarAnimal",
      "outputs": [],
      "stateMutability": "nonpayable",
      "type": "function"
    },
    {
      "inputs": [
        {
          "internalType": "uint256",
          "name": "_idAnimal",
          "type": "uint256"
        },
        {
          "internalType": "address",
          "name": "_nuevoPropietario",
          "type": "address"
        }
      ],
      "name": "transferirPropiedad",
      "outputs": [],
      "stateMutability": "nonpayable",
      "type": "function"
    },
    {
      "inputs": [
        {
          "internalType": "uint256",
          "name": "_idAnimal",
          "type": "uint256"
        }
      ],
      "name": "obtenerHistorial",
      "outputs": [
        {
          "internalType": "address[]",
          "name": "",
          "type": "address[]"
        }
      ],
      "stateMutability": "view",
      "type": "function",
      "constant": true
    }
  ],
  "bytecode": "0x608060405234801561001057600080fd5b50610f8f806100206000396000f3fe608060405234801561001057600080fd5b50600436106100575760003560e01c80631a6cb1c81461005c57806392b9c5141461008c578063996439d7146100aa578063ac6131b6146100c6578063e23e2b57146100fa575b600080fd5b61007660048036038101906100719190610929565b610116565b6040516100839190610b5b565b60405180910390f35b6100946101fe565b6040516100a19190610bbd565b60405180910390f35b6100c460048036038101906100bf9190610952565b610204565b005b6100e060048036038101906100db9190610929565b6103d0565b6040516100f1959493929190610bd8565b60405180910390f35b610114600480360381019061010f919061098e565b6105be565b005b606060015482111561015d576040517f08c379a000000000000000000000000000000000000000000000000000000000815260040161015490610b9d565b60405180910390fd5b6000808381526020019081526020016000206005018054806020026020016040519081016040528092919081815260200182805480156101f257602002820191906000526020600020905b8160009054906101000a900473ffffffffffffffffffffffffffffffffffffffff1673ffffffffffffffffffffffffffffffffffffffff16815260200190600101908083116101a8575b50505050509050919050565b60015481565b60008083815260200190815260200160002060040160009054906101000a900473ffffffffffffffffffffffffffffffffffffffff1673ffffffffffffffffffffffffffffffffffffffff163373ffffffffffffffffffffffffffffffffffffffff16146102a7576040517f08c379a000000000000000000000000000000000000000000000000000000000815260040161029e90610b7d565b60405180910390fd5b8060008084815260200190815260200160002060040160006101000a81548173ffffffffffffffffffffffffffffffffffffffff021916908373ffffffffffffffffffffffffffffffffffffffff160217905550600080838152602001908152602001600020600501339080600181540180825580915050600190039060005260206000200160009091909190916101000a81548173ffffffffffffffffffffffffffffffffffffffff021916908373ffffffffffffffffffffffffffffffffffffffff1602179055508073ffffffffffffffffffffffffffffffffffffffff163373ffffffffffffffffffffffffffffffffffffffff16837f54f36c956cf8e5ca89778a0143c8eeabba9a3e34f1345ee14b59a464e8bb0a3660405160405180910390a45050565b60006020528060005260406000206000915090508060000154908060010180546103f990610d69565b80601f016020809104026020016040519081016040528092919081815260200182805461042590610d69565b80156104725780601f1061044757610100808354040283529160200191610472565b820191906000526020600020905b81548152906001019060200180831161045557829003601f168201915b50505050509080600201805461048790610d69565b80601f01602080910402602001604051908101604052809291908181526020018280546104b390610d69565b80156105005780601f106104d557610100808354040283529160200191610500565b820191906000526020600020905b8154815290600101906020018083116104e357829003601f168201915b50505050509080600301805461051590610d69565b80601f016020809104026020016040519081016040528092919081815260200182805461054190610d69565b801561058e5780601f106105635761010080835404028352916020019161058e565b820191906000526020600020905b81548152906001019060200180831161057157829003601f168201915b5050505050908060040160009054906101000a900473ffffffffffffffffffffffffffffffffffffffff16905085565b600160008154809291906105d190610dcc565b91905055506040518060c001604052808581526020018481526020018381526020018281526020013373ffffffffffffffffffffffffffffffffffffffff168152602001600067ffffffffffffffff811115610656577f4e487b7100000000000000000000000000000000000000000000000000000000600052604160045260246000fd5b6040519080825280602002602001820160405280156106845781602001602082028036833780820191505090505b5081525060008060015481526020019081526020016000206000820151816000015560208201518160010190805190602001906106c292919061076a565b5060408201518160020190805190602001906106df92919061076a565b5060608201518160030190805190602001906106fc92919061076a565b5060808201518160040160006101000a81548173ffffffffffffffffffffffffffffffffffffffff021916908373ffffffffffffffffffffffffffffffffffffffff16021790555060a08201518160050190805190602001906107609291906107f0565b5090505050505050565b82805461077690610d69565b90600052602060002090601f01602090048101928261079857600085556107df565b82601f106107b157805160ff19168380011785556107df565b828001600101855582156107df579182015b828111156107de5782518255916020019190600101906107c3565b5b5090506107ec919061087a565b5090565b828054828255906000526020600020908101928215610869579160200282015b828111156108685782518260006101000a81548173ffffffffffffffffffffffffffffffffffffffff021916908373ffffffffffffffffffffffffffffffffffffffff16021790555091602001919060010190610810565b5b509050610876919061087a565b5090565b5b8082111561089357600081600090555060010161087b565b5090565b60006108aa6108a584610c65565b610c40565b9050828152602081018484840111156108c257600080fd5b6108cd848285610d27565b509392505050565b6000813590506108e481610f2b565b92915050565b600082601f8301126108fb57600080fd5b813561090b848260208601610897565b91505092915050565b60008135905061092381610f42565b92915050565b60006020828403121561093b57600080fd5b600061094984828501610914565b91505092915050565b6000806040838503121561096557600080fd5b600061097385828601610914565b9250506020610984858286016108d5565b9150509250929050565b600080600080608085870312156109a457600080fd5b60006109b287828801610914565b945050602085013567ffffffffffffffff8111156109cf57600080fd5b6109db878288016108ea565b935050604085013567ffffffffffffffff8111156109f857600080fd5b610a04878288016108ea565b925050606085013567ffffffffffffffff811115610a2157600080fd5b610a2d878288016108ea565b91505092959194509250565b6000610a458383610a51565b60208301905092915050565b610a5a81610ceb565b82525050565b610a6981610ceb565b82525050565b6000610a7a82610ca6565b610a848185610cc9565b9350610a8f83610c96565b8060005b83811015610ac0578151610aa78882610a39565b9750610ab283610cbc565b925050600181019050610a93565b5085935050505092915050565b6000610ad882610cb1565b610ae28185610cda565b9350610af2818560208601610d36565b610afb81610ea2565b840191505092915050565b6000610b13602c83610cda565b9150610b1e82610eb3565b604082019050919050565b6000610b36601a83610cda565b9150610b4182610f02565b602082019050919050565b610b5581610d1d565b82525050565b60006020820190508181036000830152610b758184610a6f565b905092915050565b60006020820190508181036000830152610b9681610b06565b9050919050565b60006020820190508181036000830152610bb681610b29565b9050919050565b6000602082019050610bd26000830184610b4c565b92915050565b600060a082019050610bed6000830188610b4c565b8181036020830152610bff8187610acd565b90508181036040830152610c138186610acd565b90508181036060830152610c278185610acd565b9050610c366080830184610a60565b9695505050505050565b6000610c4a610c5b565b9050610c568282610d9b565b919050565b6000604051905090565b600067ffffffffffffffff821115610c8057610c7f610e73565b5b610c8982610ea2565b9050602081019050919050565b6000819050602082019050919050565b600081519050919050565b600081519050919050565b6000602082019050919050565b600082825260208201905092915050565b600082825260208201905092915050565b6000610cf682610cfd565b9050919050565b600073ffffffffffffffffffffffffffffffffffffffff82169050919050565b6000819050919050565b82818337600083830152505050565b60005b83811015610d54578082015181840152602081019050610d39565b83811115610d63576000848401525b50505050565b60006002820490506001821680610d8157607f821691505b60208210811415610d9557610d94610e44565b5b50919050565b610da482610ea2565b810181811067ffffffffffffffff82111715610dc357610dc2610e73565b5b80604052505050565b6000610dd782610d1d565b91507fffffffffffffffffffffffffffffffffffffffffffffffffffffffffffffffff821415610e0a57610e09610e15565b5b600182019050919050565b7f4e487b7100000000000000000000000000000000000000000000000000000000600052601160045260246000fd5b7f4e487b7100000000000000000000000000000000000000000000000000000000600052602260045260246000fd5b7f4e487b7100000000000000000000000000000000000000000000000000000000600052604160045260246000fd5b6000601f19601f8301169050919050565b7f4e6f206572657320656c2070726f706965746172696f2061637475616c20646560008201527f206573746520616e696d616c0000000000000000000000000000000000000000602082015250565b7f456c2049442064656c20616e696d616c206e6f20657869737465000000000000600082015250565b610f3481610ceb565b8114610f3f57600080fd5b50565b610f4b81610d1d565b8114610f5657600080fd5b5056fea2646970667358221220d482190740173892bf04b735c0ceb75e6cf3100fb5585088103e6b298502457a64736f6c63430008040033",
  "immutableReferences": {},
  "source": "// SPDX-License-Identifier: MIT\r\npragma solidity ^0.8.4;\r\n\r\ncontract trazabilidad {\r\n    // Estructura para representar un animal\r\n    struct Animal {\r\n        uint id;\r\n        string nombre;\r\n        string raza;\r\n        string fechaNacimiento;\r\n        address propietarioActual;\r\n        address[] historialPropietarios;\r\n    }\r\n    \r\n    // Mapeo de ID de animal a su informacin\r\n    mapping(uint => Animal) public animales;\r\n    uint public totalAnimales;\r\n\r\n    // Evento que se emite cuando un animal cambia de propietario\r\n    event TransferenciaPropiedad(uint indexed idAnimal, address indexed propietarioAnterior, address indexed nuevoPropietario);\r\n\r\n    // Funcin para registrar un nuevo animal\r\n    function registrarAnimal(uint256 _identifier, string memory _nombre, string memory _raza, string memory _fechaNacimiento) public {\r\n        totalAnimales++;\r\n        animales[totalAnimales] = Animal(_identifier, _nombre, _raza, _fechaNacimiento, msg.sender, new address[](0));\r\n    }\r\n\r\n    // Funcin para transferir la propiedad de un animal\r\n    function transferirPropiedad(uint _idAnimal, address _nuevoPropietario) public {\r\n        require(msg.sender == animales[_idAnimal].propietarioActual, \"No eres el propietario actual de este animal\");\r\n        animales[_idAnimal].propietarioActual = _nuevoPropietario;\r\n        animales[_idAnimal].historialPropietarios.push(msg.sender);\r\n        emit TransferenciaPropiedad(_idAnimal, msg.sender, _nuevoPropietario);\r\n    }\r\n\r\n    // Funcin para obtener el historial de un animal por su ID\r\n    function obtenerHistorial(uint _idAnimal) public view returns (address[] memory) {\r\n        require(_idAnimal <= totalAnimales, \"El ID del animal no existe\");\r\n        return animales[_idAnimal].historialPropietarios;\r\n    }\r\n}\r\n",
  "sourcePath": "C:\\Users\\jcord\\Documents\\Master_BC\\PigCoinsNFTs\\src\\contracts\\trazabilidad.sol",
  "compiler": {
    "name": "solc",
    "version": "0.8.4+commit.c7e474f2.Emscripten.clang"
  },
  "schemaVersion": "3.4.16",
  "updatedAt": "2024-05-02T10:05:41.146Z",
  "networkType": "ethereum",
  "devdoc": {
    "kind": "dev",
    "methods": {},
    "version": 1
  },
  "userdoc": {
    "kind": "user",
    "methods": {},
    "version": 1
  }
}