{
  "contractName": "trazabilidad",
  "abi": [
    {
      "anonymous": false,
      "inputs": [
        {
          "indexed": true,
          "internalType": "uint256",
          "name": "idAnimal",
          "type": "uint256"
        },
        {
          "indexed": true,
          "internalType": "address",
          "name": "propietarioAnterior",
          "type": "address"
        },
        {
          "indexed": true,
          "internalType": "address",
          "name": "nuevoPropietario",
          "type": "address"
        }
      ],
      "name": "TransferenciaPropiedad",
      "type": "event"
    },
    {
      "inputs": [
        {
          "internalType": "uint256",
          "name": "",
          "type": "uint256"
        }
      ],
      "name": "animales",
      "outputs": [
        {
          "internalType": "uint256",
          "name": "id",
          "type": "uint256"
        },
        {
          "internalType": "string",
          "name": "nombre",
          "type": "string"
        },
        {
          "internalType": "string",
          "name": "raza",
          "type": "string"
        },
        {
          "internalType": "string",
          "name": "fechaNacimiento",
          "type": "string"
        },
        {
          "internalType": "address",
          "name": "propietarioActual",
          "type": "address"
        }
      ],
      "stateMutability": "view",
      "type": "function",
      "constant": true
    },
    {
      "inputs": [],
      "name": "totalAnimales",
      "outputs": [
        {
          "internalType": "uint256",
          "name": "",
          "type": "uint256"
        }
      ],
      "stateMutability": "view",
      "type": "function",
      "constant": true
    },
    {
      "inputs": [
        {
          "internalType": "string",
          "name": "_nombre",
          "type": "string"
        },
        {
          "internalType": "string",
          "name": "_raza",
          "type": "string"
        },
        {
          "internalType": "string",
          "name": "_fechaNacimiento",
          "type": "string"
        }
      ],
      "name": "registrarAnimal",
      "outputs": [],
      "stateMutability": "nonpayable",
      "type": "function"
    },
    {
      "inputs": [
        {
          "internalType": "uint256",
          "name": "_idAnimal",
          "type": "uint256"
        },
        {
          "internalType": "address",
          "name": "_nuevoPropietario",
          "type": "address"
        }
      ],
      "name": "transferirPropiedad",
      "outputs": [],
      "stateMutability": "nonpayable",
      "type": "function"
    }
  ],
  "bytecode": "0x608060405234801561001057600080fd5b50610d0d806100206000396000f3fe608060405234801561001057600080fd5b506004361061004c5760003560e01c806312a8b3a71461005157806392b9c5141461006d578063996439d71461008b578063ac6131b6146100a7575b600080fd5b61006b60048036038101906100669190610807565b6100db565b005b610075610288565b604051610082919061099d565b60405180910390f35b6100a560048036038101906100a091906108c7565b61028e565b005b6100c160048036038101906100bc919061089e565b61045a565b6040516100d29594939291906109b8565b60405180910390f35b600160008154809291906100ee90610b73565b91905055506040518060c0016040528060015481526020018481526020018381526020018281526020013373ffffffffffffffffffffffffffffffffffffffff168152602001600067ffffffffffffffff811115610175577f4e487b7100000000000000000000000000000000000000000000000000000000600052604160045260246000fd5b6040519080825280602002602001820160405280156101a35781602001602082028036833780820191505090505b5081525060008060015481526020019081526020016000206000820151816000015560208201518160010190805190602001906101e1929190610648565b5060408201518160020190805190602001906101fe929190610648565b50606082015181600301908051906020019061021b929190610648565b5060808201518160040160006101000a81548173ffffffffffffffffffffffffffffffffffffffff021916908373ffffffffffffffffffffffffffffffffffffffff16021790555060a082015181600501908051906020019061027f9291906106ce565b50905050505050565b60015481565b60008083815260200190815260200160002060040160009054906101000a900473ffffffffffffffffffffffffffffffffffffffff1673ffffffffffffffffffffffffffffffffffffffff163373ffffffffffffffffffffffffffffffffffffffff1614610331576040517f08c379a00000000000000000000000000000000000000000000000000000000081526004016103289061097d565b60405180910390fd5b8060008084815260200190815260200160002060040160006101000a81548173ffffffffffffffffffffffffffffffffffffffff021916908373ffffffffffffffffffffffffffffffffffffffff160217905550600080838152602001908152602001600020600501339080600181540180825580915050600190039060005260206000200160009091909190916101000a81548173ffffffffffffffffffffffffffffffffffffffff021916908373ffffffffffffffffffffffffffffffffffffffff1602179055508073ffffffffffffffffffffffffffffffffffffffff163373ffffffffffffffffffffffffffffffffffffffff16837f54f36c956cf8e5ca89778a0143c8eeabba9a3e34f1345ee14b59a464e8bb0a3660405160405180910390a45050565b600060205280600052604060002060009150905080600001549080600101805461048390610b10565b80601f01602080910402602001604051908101604052809291908181526020018280546104af90610b10565b80156104fc5780601f106104d1576101008083540402835291602001916104fc565b820191906000526020600020905b8154815290600101906020018083116104df57829003601f168201915b50505050509080600201805461051190610b10565b80601f016020809104026020016040519081016040528092919081815260200182805461053d90610b10565b801561058a5780601f1061055f5761010080835404028352916020019161058a565b820191906000526020600020905b81548152906001019060200180831161056d57829003601f168201915b50505050509080600301805461059f90610b10565b80601f01602080910402602001604051908101604052809291908181526020018280546105cb90610b10565b80156106185780601f106105ed57610100808354040283529160200191610618565b820191906000526020600020905b8154815290600101906020018083116105fb57829003601f168201915b5050505050908060040160009054906101000a900473ffffffffffffffffffffffffffffffffffffffff16905085565b82805461065490610b10565b90600052602060002090601f01602090048101928261067657600085556106bd565b82601f1061068f57805160ff19168380011785556106bd565b828001600101855582156106bd579182015b828111156106bc5782518255916020019190600101906106a1565b5b5090506106ca9190610758565b5090565b828054828255906000526020600020908101928215610747579160200282015b828111156107465782518260006101000a81548173ffffffffffffffffffffffffffffffffffffffff021916908373ffffffffffffffffffffffffffffffffffffffff160217905550916020019190600101906106ee565b5b5090506107549190610758565b5090565b5b80821115610771576000816000905550600101610759565b5090565b600061078861078384610a45565b610a20565b9050828152602081018484840111156107a057600080fd5b6107ab848285610ace565b509392505050565b6000813590506107c281610ca9565b92915050565b600082601f8301126107d957600080fd5b81356107e9848260208601610775565b91505092915050565b60008135905061080181610cc0565b92915050565b60008060006060848603121561081c57600080fd5b600084013567ffffffffffffffff81111561083657600080fd5b610842868287016107c8565b935050602084013567ffffffffffffffff81111561085f57600080fd5b61086b868287016107c8565b925050604084013567ffffffffffffffff81111561088857600080fd5b610894868287016107c8565b9150509250925092565b6000602082840312156108b057600080fd5b60006108be848285016107f2565b91505092915050565b600080604083850312156108da57600080fd5b60006108e8858286016107f2565b92505060206108f9858286016107b3565b9150509250929050565b61090c81610a92565b82525050565b600061091d82610a76565b6109278185610a81565b9350610937818560208601610add565b61094081610c49565b840191505092915050565b6000610958602c83610a81565b915061096382610c5a565b604082019050919050565b61097781610ac4565b82525050565b600060208201905081810360008301526109968161094b565b9050919050565b60006020820190506109b2600083018461096e565b92915050565b600060a0820190506109cd600083018861096e565b81810360208301526109df8187610912565b905081810360408301526109f38186610912565b90508181036060830152610a078185610912565b9050610a166080830184610903565b9695505050505050565b6000610a2a610a3b565b9050610a368282610b42565b919050565b6000604051905090565b600067ffffffffffffffff821115610a6057610a5f610c1a565b5b610a6982610c49565b9050602081019050919050565b600081519050919050565b600082825260208201905092915050565b6000610a9d82610aa4565b9050919050565b600073ffffffffffffffffffffffffffffffffffffffff82169050919050565b6000819050919050565b82818337600083830152505050565b60005b83811015610afb578082015181840152602081019050610ae0565b83811115610b0a576000848401525b50505050565b60006002820490506001821680610b2857607f821691505b60208210811415610b3c57610b3b610beb565b5b50919050565b610b4b82610c49565b810181811067ffffffffffffffff82111715610b6a57610b69610c1a565b5b80604052505050565b6000610b7e82610ac4565b91507fffffffffffffffffffffffffffffffffffffffffffffffffffffffffffffffff821415610bb157610bb0610bbc565b5b600182019050919050565b7f4e487b7100000000000000000000000000000000000000000000000000000000600052601160045260246000fd5b7f4e487b7100000000000000000000000000000000000000000000000000000000600052602260045260246000fd5b7f4e487b7100000000000000000000000000000000000000000000000000000000600052604160045260246000fd5b6000601f19601f8301169050919050565b7f4e6f206572657320656c2070726f706965746172696f2061637475616c20646560008201527f206573746520616e696d616c0000000000000000000000000000000000000000602082015250565b610cb281610a92565b8114610cbd57600080fd5b50565b610cc981610ac4565b8114610cd457600080fd5b5056fea26469706673582212203b15534a8455026d7a89d9bd5fb24b9cf0c5f12790b143ea867ee37656284f7e64736f6c63430008040033",
  "immutableReferences": {},
  "source": "// SPDX-License-Identifier: MIT\r\npragma solidity ^0.8.4;\r\n\r\ncontract trazabilidad {\r\n    // Estructura para representar un animal\r\n    struct Animal {\r\n        uint id;\r\n        string nombre;\r\n        string raza;\r\n        string fechaNacimiento;\r\n        address propietarioActual;\r\n        address[] historialPropietarios;\r\n    }\r\n    \r\n    // Mapeo de ID de animal a su informacin\r\n    mapping(uint => Animal) public animales;\r\n    uint public totalAnimales;\r\n\r\n    // Evento que se emite cuando un animal cambia de propietario\r\n    event TransferenciaPropiedad(uint indexed idAnimal, address indexed propietarioAnterior, address indexed nuevoPropietario);\r\n\r\n    // Funcin para registrar un nuevo animal\r\n    function registrarAnimal(string memory _nombre, string memory _raza, string memory _fechaNacimiento) public {\r\n        totalAnimales++;\r\n        animales[totalAnimales] = Animal(totalAnimales, _nombre, _raza, _fechaNacimiento, msg.sender, new address[](0));\r\n    }\r\n\r\n    // Funcin para transferir la propiedad de un animal\r\n    function transferirPropiedad(uint _idAnimal, address _nuevoPropietario) public {\r\n        require(msg.sender == animales[_idAnimal].propietarioActual, \"No eres el propietario actual de este animal\");\r\n        animales[_idAnimal].propietarioActual = _nuevoPropietario;\r\n        animales[_idAnimal].historialPropietarios.push(msg.sender);\r\n        emit TransferenciaPropiedad(_idAnimal, msg.sender, _nuevoPropietario);\r\n    }\r\n}\r\n",
  "sourcePath": "C:\\Users\\jcord\\Documents\\Master_BC\\PigCoinsNFTs\\src\\contracts\\trazabilidad.sol",
  "compiler": {
    "name": "solc",
    "version": "0.8.4+commit.c7e474f2.Emscripten.clang"
  },
  "schemaVersion": "3.4.16",
  "updatedAt": "2024-05-02T08:56:07.808Z",
  "networkType": "ethereum",
  "devdoc": {
    "kind": "dev",
    "methods": {},
    "version": 1
  },
  "userdoc": {
    "kind": "user",
    "methods": {},
    "version": 1
  }
}