{
  "contractName": "trazabilidad",
  "abi": [
    {
      "anonymous": false,
      "inputs": [
        {
          "indexed": true,
          "internalType": "uint256",
          "name": "idAnimal",
          "type": "uint256"
        },
        {
          "indexed": true,
          "internalType": "address",
          "name": "propietarioAnterior",
          "type": "address"
        },
        {
          "indexed": true,
          "internalType": "address",
          "name": "nuevoPropietario",
          "type": "address"
        }
      ],
      "name": "TransferenciaPropiedad",
      "type": "event"
    },
    {
      "inputs": [
        {
          "internalType": "uint256",
          "name": "",
          "type": "uint256"
        }
      ],
      "name": "animales",
      "outputs": [
        {
          "internalType": "uint256",
          "name": "id",
          "type": "uint256"
        },
        {
          "internalType": "string",
          "name": "nombre",
          "type": "string"
        },
        {
          "internalType": "string",
          "name": "raza",
          "type": "string"
        },
        {
          "internalType": "string",
          "name": "fechaNacimiento",
          "type": "string"
        },
        {
          "internalType": "address",
          "name": "propietarioActual",
          "type": "address"
        }
      ],
      "stateMutability": "view",
      "type": "function",
      "constant": true
    },
    {
      "inputs": [],
      "name": "totalAnimales",
      "outputs": [
        {
          "internalType": "uint256",
          "name": "",
          "type": "uint256"
        }
      ],
      "stateMutability": "view",
      "type": "function",
      "constant": true
    },
    {
      "inputs": [
        {
          "internalType": "uint256",
          "name": "_identifier",
          "type": "uint256"
        },
        {
          "internalType": "string",
          "name": "_nombre",
          "type": "string"
        },
        {
          "internalType": "string",
          "name": "_raza",
          "type": "string"
        },
        {
          "internalType": "string",
          "name": "_fechaNacimiento",
          "type": "string"
        }
      ],
      "name": "registrarAnimal",
      "outputs": [],
      "stateMutability": "nonpayable",
      "type": "function"
    },
    {
      "inputs": [
        {
          "internalType": "uint256",
          "name": "_idAnimal",
          "type": "uint256"
        },
        {
          "internalType": "address",
          "name": "_nuevoPropietario",
          "type": "address"
        }
      ],
      "name": "transferirPropiedad",
      "outputs": [],
      "stateMutability": "nonpayable",
      "type": "function"
    }
  ],
  "bytecode": "0x608060405234801561001057600080fd5b50610d20806100206000396000f3fe608060405234801561001057600080fd5b506004361061004c5760003560e01c806392b9c51414610051578063996439d71461006f578063ac6131b61461008b578063e23e2b57146100bf575b600080fd5b6100596100db565b60405161006691906109b0565b60405180910390f35b6100896004803603810190610084919061082f565b6100e1565b005b6100a560048036038101906100a09190610806565b6102ad565b6040516100b69594939291906109cb565b60405180910390f35b6100d960048036038101906100d4919061086b565b61049b565b005b60015481565b60008083815260200190815260200160002060040160009054906101000a900473ffffffffffffffffffffffffffffffffffffffff1673ffffffffffffffffffffffffffffffffffffffff163373ffffffffffffffffffffffffffffffffffffffff1614610184576040517f08c379a000000000000000000000000000000000000000000000000000000000815260040161017b90610990565b60405180910390fd5b8060008084815260200190815260200160002060040160006101000a81548173ffffffffffffffffffffffffffffffffffffffff021916908373ffffffffffffffffffffffffffffffffffffffff160217905550600080838152602001908152602001600020600501339080600181540180825580915050600190039060005260206000200160009091909190916101000a81548173ffffffffffffffffffffffffffffffffffffffff021916908373ffffffffffffffffffffffffffffffffffffffff1602179055508073ffffffffffffffffffffffffffffffffffffffff163373ffffffffffffffffffffffffffffffffffffffff16837f54f36c956cf8e5ca89778a0143c8eeabba9a3e34f1345ee14b59a464e8bb0a3660405160405180910390a45050565b60006020528060005260406000206000915090508060000154908060010180546102d690610b23565b80601f016020809104026020016040519081016040528092919081815260200182805461030290610b23565b801561034f5780601f106103245761010080835404028352916020019161034f565b820191906000526020600020905b81548152906001019060200180831161033257829003601f168201915b50505050509080600201805461036490610b23565b80601f016020809104026020016040519081016040528092919081815260200182805461039090610b23565b80156103dd5780601f106103b2576101008083540402835291602001916103dd565b820191906000526020600020905b8154815290600101906020018083116103c057829003601f168201915b5050505050908060030180546103f290610b23565b80601f016020809104026020016040519081016040528092919081815260200182805461041e90610b23565b801561046b5780601f106104405761010080835404028352916020019161046b565b820191906000526020600020905b81548152906001019060200180831161044e57829003601f168201915b5050505050908060040160009054906101000a900473ffffffffffffffffffffffffffffffffffffffff16905085565b600160008154809291906104ae90610b86565b91905055506040518060c001604052808581526020018481526020018381526020018281526020013373ffffffffffffffffffffffffffffffffffffffff168152602001600067ffffffffffffffff811115610533577f4e487b7100000000000000000000000000000000000000000000000000000000600052604160045260246000fd5b6040519080825280602002602001820160405280156105615781602001602082028036833780820191505090505b50815250600080600154815260200190815260200160002060008201518160000155602082015181600101908051906020019061059f929190610647565b5060408201518160020190805190602001906105bc929190610647565b5060608201518160030190805190602001906105d9929190610647565b5060808201518160040160006101000a81548173ffffffffffffffffffffffffffffffffffffffff021916908373ffffffffffffffffffffffffffffffffffffffff16021790555060a082015181600501908051906020019061063d9291906106cd565b5090505050505050565b82805461065390610b23565b90600052602060002090601f01602090048101928261067557600085556106bc565b82601f1061068e57805160ff19168380011785556106bc565b828001600101855582156106bc579182015b828111156106bb5782518255916020019190600101906106a0565b5b5090506106c99190610757565b5090565b828054828255906000526020600020908101928215610746579160200282015b828111156107455782518260006101000a81548173ffffffffffffffffffffffffffffffffffffffff021916908373ffffffffffffffffffffffffffffffffffffffff160217905550916020019190600101906106ed565b5b5090506107539190610757565b5090565b5b80821115610770576000816000905550600101610758565b5090565b600061078761078284610a58565b610a33565b90508281526020810184848401111561079f57600080fd5b6107aa848285610ae1565b509392505050565b6000813590506107c181610cbc565b92915050565b600082601f8301126107d857600080fd5b81356107e8848260208601610774565b91505092915050565b60008135905061080081610cd3565b92915050565b60006020828403121561081857600080fd5b6000610826848285016107f1565b91505092915050565b6000806040838503121561084257600080fd5b6000610850858286016107f1565b9250506020610861858286016107b2565b9150509250929050565b6000806000806080858703121561088157600080fd5b600061088f878288016107f1565b945050602085013567ffffffffffffffff8111156108ac57600080fd5b6108b8878288016107c7565b935050604085013567ffffffffffffffff8111156108d557600080fd5b6108e1878288016107c7565b925050606085013567ffffffffffffffff8111156108fe57600080fd5b61090a878288016107c7565b91505092959194509250565b61091f81610aa5565b82525050565b600061093082610a89565b61093a8185610a94565b935061094a818560208601610af0565b61095381610c5c565b840191505092915050565b600061096b602c83610a94565b915061097682610c6d565b604082019050919050565b61098a81610ad7565b82525050565b600060208201905081810360008301526109a98161095e565b9050919050565b60006020820190506109c56000830184610981565b92915050565b600060a0820190506109e06000830188610981565b81810360208301526109f28187610925565b90508181036040830152610a068186610925565b90508181036060830152610a1a8185610925565b9050610a296080830184610916565b9695505050505050565b6000610a3d610a4e565b9050610a498282610b55565b919050565b6000604051905090565b600067ffffffffffffffff821115610a7357610a72610c2d565b5b610a7c82610c5c565b9050602081019050919050565b600081519050919050565b600082825260208201905092915050565b6000610ab082610ab7565b9050919050565b600073ffffffffffffffffffffffffffffffffffffffff82169050919050565b6000819050919050565b82818337600083830152505050565b60005b83811015610b0e578082015181840152602081019050610af3565b83811115610b1d576000848401525b50505050565b60006002820490506001821680610b3b57607f821691505b60208210811415610b4f57610b4e610bfe565b5b50919050565b610b5e82610c5c565b810181811067ffffffffffffffff82111715610b7d57610b7c610c2d565b5b80604052505050565b6000610b9182610ad7565b91507fffffffffffffffffffffffffffffffffffffffffffffffffffffffffffffffff821415610bc457610bc3610bcf565b5b600182019050919050565b7f4e487b7100000000000000000000000000000000000000000000000000000000600052601160045260246000fd5b7f4e487b7100000000000000000000000000000000000000000000000000000000600052602260045260246000fd5b7f4e487b7100000000000000000000000000000000000000000000000000000000600052604160045260246000fd5b6000601f19601f8301169050919050565b7f4e6f206572657320656c2070726f706965746172696f2061637475616c20646560008201527f206573746520616e696d616c0000000000000000000000000000000000000000602082015250565b610cc581610aa5565b8114610cd057600080fd5b50565b610cdc81610ad7565b8114610ce757600080fd5b5056fea26469706673582212204b781ddf0c58e2abdd35a1668618d4e03aa221f1f6845b18199ef8da405c048c64736f6c63430008040033",
  "immutableReferences": {},
  "source": "// SPDX-License-Identifier: MIT\r\npragma solidity ^0.8.4;\r\n\r\ncontract trazabilidad {\r\n    // Estructura para representar un animal\r\n    struct Animal {\r\n        uint id;\r\n        string nombre;\r\n        string raza;\r\n        string fechaNacimiento;\r\n        address propietarioActual;\r\n        address[] historialPropietarios;\r\n    }\r\n    \r\n    // Mapeo de ID de animal a su informacin\r\n    mapping(uint => Animal) public animales;\r\n    uint public totalAnimales;\r\n\r\n    // Evento que se emite cuando un animal cambia de propietario\r\n    event TransferenciaPropiedad(uint indexed idAnimal, address indexed propietarioAnterior, address indexed nuevoPropietario);\r\n\r\n    // Funcin para registrar un nuevo animal\r\n    function registrarAnimal(uint256 _identifier, string memory _nombre, string memory _raza, string memory _fechaNacimiento) public {\r\n        totalAnimales++;\r\n        animales[totalAnimales] = Animal(_identifier, _nombre, _raza, _fechaNacimiento, msg.sender, new address[](0));\r\n    }\r\n\r\n    // Funcin para transferir la propiedad de un animal\r\n    function transferirPropiedad(uint _idAnimal, address _nuevoPropietario) public {\r\n        require(msg.sender == animales[_idAnimal].propietarioActual, \"No eres el propietario actual de este animal\");\r\n        animales[_idAnimal].propietarioActual = _nuevoPropietario;\r\n        animales[_idAnimal].historialPropietarios.push(msg.sender);\r\n        emit TransferenciaPropiedad(_idAnimal, msg.sender, _nuevoPropietario);\r\n    }\r\n}\r\n",
  "sourcePath": "C:\\Users\\jcord\\Documents\\Master_BC\\PigCoinsNFTs\\src\\contracts\\trazabilidad.sol",
  "compiler": {
    "name": "solc",
    "version": "0.8.4+commit.c7e474f2.Emscripten.clang"
  },
  "schemaVersion": "3.4.16",
  "updatedAt": "2024-05-02T09:36:47.371Z",
  "networkType": "ethereum",
  "devdoc": {
    "kind": "dev",
    "methods": {},
    "version": 1
  },
  "userdoc": {
    "kind": "user",
    "methods": {},
    "version": 1
  }
}